
Source Code


000002:                                                                                                  ## Copyright:   Public domain.
000003:                                                                                                  ## Filename:    R60,R62.agc
000004:                                                                                                  ## Purpose:     Part of the reconstructed source code for LMY99 Rev 0,
000005:                                                                                                  ##              otherwise known as Luminary Rev 99, the second release
000006:                                                                                                  ##              of the Apollo Guidance Computer (AGC) software for Apollo 11.
000007:                                                                                                  ##              It differs from LMY99 Rev 1 (the flown version) only in the
000008:                                                                                                  ##              placement of a single label. The corrections shown here have
000009:                                                                                                  ##              been verified to have the same bank checksums as AGC developer
000010:                                                                                                  ##              Allan Klumpp's copy of Luminary Rev 99, and so are believed
000011:                                                                                                  ##              to be accurate. This file is intended to be a faithful
000012:                                                                                                  ##              recreation, except that the code format has been changed to
000013:                                                                                                  ##              conform to the requirements of the yaYUL assembler rather than
000014:                                                                                                  ##              the original YUL assembler.
000015:                                                                                                  ##
000016:                                                                                                  ## Assembler:   yaYUL
000017:                                                                                                  ## Contact:     Ron Burkey <info@sandroid.org>.
000018:                                                                                                  ## Website:     www.ibiblio.org/apollo.
000019:                                                                                                  ## Pages:       472-485
000020:                                                                                                  ## Mod history: 2009-05-17 RSB  Adapted from the corresponding
000021:                                                                                                  ##                              Luminary131 file, using page
000022:                                                                                                  ##                              images from Luminary 1A.
000023:                                                                                                  ##              2016-12-13 RSB  GOTOP00H -> GOTOPOOH
000024:                                                                                                  ##              2016-12-14 RSB  Proofed text comments with octopus/ProoferComments
000025:                                                                                                  ##                              and corrected the errors found.
000026:                                                                                                  ##              2017-01-27 RSB  Back-ported a comment-text fix identified in Luminary 69.
000027:                                                                                                  ##              2017-03-09 RSB  Comment text fixes noted in proofing Luminary 116.
000028:                                                                                                  ##              2017-08-01 MAS  Created from LMY99 Rev 1.
000029:
000030:                                                                                                  ## This source code has been transcribed or otherwise adapted from
000031:                                                                                                  ## digitized images of a hardcopy from the MIT Museum.  The digitization
000032:                                                                                                  ## was performed by Paul Fjeld, and arranged for by Deborah Douglas of
000033:                                                                                                  ## the Museum.  Many thanks to both.  The images (with suitable reduction
000034:                                                                                                  ## in storage size and consequent reduction in image quality as well) are
000035:                                                                                                  ## available online at www.ibiblio.org/apollo.  If for some reason you
000036:                                                                                                  ## find that the images are illegible, contact me at info@sandroid.org
000037:                                                                                                  ## about getting access to the (much) higher-quality images which Paul
000038:                                                                                                  ## actually created.
000039:                                                                                                  ##
000040:                                                                                                  ## The code has been modified to match LMY99 Revision 0, otherwise
000041:                                                                                                  ## known as Luminary Revision 99, the Apollo 11 software release preceeding
000042:                                                                                                  ## the listing from which it was transcribed. It has been verified to
000043:                                                                                                  ## contain the same bank checksums as AGC developer Allan Klumpp's listing
000044:                                                                                                  ## of Luminary Revision 99 (for which we do not have scans).
000045:                                                                                                  ##
000046:                                                                                                  ## Notations on Allan Klumpp's listing read, in part:
000047:                                                                                                  ##
000048:                                                                                                  ##      ASSEMBLE REVISION 099 OF AGC PROGRAM LUMINARY BY NASA 2021112-51
000049:


000051:                                                                                                  #  MOD NO: 0                             DATE: 1 MAY 1968
000052:                                                                                                  #  MOD BY: DIGITAL DEVEL GROUP           LOG SECTION R60,R62
000053:
000054:                                                                                                  #  FUNCTIONAL DESCRIPTION:
000055:
000056:                                                                                                  #  CALLED AS A GENERAL SUBROUTINE TO MANEUVER THE LM TO A SPECIFIED
000057:                                                                                                  #  ATTITUDE.
000058:
000059:                                                                                                  #  1. IF THE 3-AXIS FLAG IS NOT SET THE FINAL CDU ANGLES ARE
000060:                                                                                                  #  CALCULATED (VECPOINT).
000061:
000062:                                                                                                  #  2. THE FDAI BALL ANGLES (NOUN 18) ARE CALCULATED (BALLANGS).
000063:
000064:                                                                                                  #  3. REQUEST FLASHING DISPLAY V50 N18 PLEASE PERFORM AUTO MANEUVER.
000065:
000066:                                                                                                  #  4. IF PRIORITY DISPLAY FLAG IS SET DO A PHASECHANGE.  THEN AWAIT
000067:                                                                                                  #  ASTRONAUT RESPONSE.
000068:
000069:                                                                                                  #  5. DISPLAY RESPONSE RETURNS:
000070:
000071:                                                                                                  #        A.      ENTER - RESET 3-AXIS FLAG AND RETURN TO CLIENT.
000072:
000073:                                                                                                  #        B.      TERMINATE - IF IN P00 GO TO STEP 5A.  OTHERWISE CHECK IF R61 IS
000074:                                                                                                  #                THE CALLING PROGRAM.  IF IN R61 AN EXIT IS MADE TO GOTOV56.  IF
000075:                                                                                                  #                NOT IN R61 AN EXIT IS DONE VIA GOTOP00H.
000076:
000077:                                                                                                  #        C.      PROCEED - CONTINUE WITH PROGRAM AT STEP 6.
000078:
000079:                                                                                                  #  6. IF THE 3-AXISFLAG IS NOT SET, THE FINAL CDU ANGLES ARE CALCULATED
000080:                                                                                                  #  (VECPOINT).
000081:
000082:                                                                                                  #  7. THE FDAI BALL ANGLES (NOUN 18) ARE CALCULATED (BALLANGS).
000083:
000084:                                                                                                  #  8. IF THE G+N SWITCH IS NOT SET GO BACK TO STEP 3.
000085:                                                                                                  #
000086:                                                                                                  #  9. IF THE AUTO SWITCH IS NOT SET GO BACK TO STEP 3.
000087:
000088:                                                                                                  #  10. NONFLASHING DISPLAY V06N18 (FDAI ANGLES).
000089:
000090:                                                                                                  #  11. DO A PHASECHANGE.
000091:
000092:                                                                                                  #  12. DO A MANEUVER CALCULATION AND ICDU DRIVE ROUTINE TO ACHIEVE FINAL
000093:                                                                                                  #  GIMBAL ANGLES (GOMANUR).
000094:
000095:                                                                                                  #  13. AT END OF MANEUVER GO TO STEP 3.
000096:
000097:                                                                                                  #        IF SATISFACTORY MANEUVER STEP 5A EXITS R60.
000098:                                                                                                  #        FOR FURTHER ADJUSTMENT OF THE VEHICLE ATTITUDE ABOUT THE
000099:                                                                                                  #        DESIRED VECTOR, THE ROUTINE MAY BE PERFORMED AGAIN STARTING AT


000101:                                                                                                  #        STEP 5C.
000102:
000103:                                                                                                  #  CALLING SEQUENCE:     TC      BANKCALL
000104:                                                                                                  #                        CADR    R60LEM
000105:
000106:                                                                                                  #  ERASABLE INITIALIZATION REQUIRED:     SCAXIS, POINTVSM (FOR VECPOINT)
000107:                                                                                                  #                                        3AXISFLG.
000108:
000109:                                                                                                  #  SUBROUTINES CALLED:   VECPOINT, BALLANGS, GOPERF2R, LINUS, GODSPER,
000110:                                                                                                  #                        GOMANUR, DOWNFLAG, PHASCHNG, UPFLAG
000111:
000112:                                                                                                  #  NORMAL EXIT MODES:    CAE     TEMPR60         (CALLERS RETURN ADDRESS)
000113:                                                                                                  #                        TC      BANKJUMP
000114:
000115:                                                                                                  #  ALARMS: NONE
000116:
000117:                                                                                                  #  OUTPUT: NONE
000118:
000119:                                                                                                  #  DEBRIS: CPHI, CTHETA, CPSI, 3AXISFLG, TBASE2
000120:
000121: 34,2000                                           BANK     34
000122: 26,2000                                           SETLOC   MANUVER
000123: 26,2000                                           BANK
000124:
000125: 26,2123     1164                                  EBANK=   TEMPR60
000126:
000127: 26,2123                                           COUNT*   $$/R06
000128: 26,2123           04645        R60LEM             TC       MAKECADR
000129: 26,2124           55164                           TS       TEMPR60
000130:
000131: 26,2125           34746        REDOMANN           CAF      3AXISBIT
000132: 26,2126           70101                           MASK     FLAGWRD5                              #  IS 3-AXIS FLAG SET
000133: 26,2127           10000                           CCS      A
000134: 26,2130           12136                           TCF      TOBALL                                #  YES
000135: 26,2131           06037                           TC       INTPRET
000136: 26,2132           77624                           CALL
000137: 26,2133           56040                                    VECPOINT                              #  TO COMPUTE FINAL ANGLES
000138: 26,2134           00322                           STORE    CPHI                                  #  STORE FINAL ANGLES - CPHI, CTHETA, CPSI
000139: 26,2135           77776                           EXIT
000140:
000141: 26,2136           04616        TOBALL             TC       BANKCALL
000142: 26,2137           54266                           CADR     BALLANGS                              #  TO CONVERT ANGLES TO FDAI
000143: 26,2140           32254        TOBALLA            CAF      V06N18
000144: 26,2141           04616                           TC       BANKCALL
000145: 26,2142           20710                           CADR     GOPERF2R                              #  DISPLAY PLEASE PERFORM AUTO MANEUVER
000146: 26,2143           02242                           TC       R61TEST
000147: 26,2144           02150                           TC       REDOMANC                              #  PROCEED
000148: 26,2145           02175                           TC       ENDMANU1                              #  ENTER I.E. FINISHED WITH R60


000150: 26,2146           02201                           TC       CHKLINUS                              #  TO CHECK FOR PRIORITY DISPLAYS
000151: 26,2147           05155                           TC       ENDOFJOB
000152:
000153: 26,2150           34746        REDOMANC           CAF      3AXISBIT
000154: 26,2151           70101                           MASK     FLAGWRD5                              #  IS 3-AXIS FLAG SET
000155: 26,2152           10000                           CCS      A
000156: 26,2153           12161                           TCF      TOBALLC                               #  YES
000157: 26,2154           06037                           TC       INTPRET
000158: 26,2155           77624                           CALL
000159: 26,2156           56040                                    VECPOINT                              #  TO COMPUTE FINAL ANGLES
000160: 26,2157           00322                           STORE    CPHI                                  #  STORE ANGLES
000161: 26,2160           77776                           EXIT
000162:
000163: 26,2161           04616        TOBALLC            TC       BANKCALL
000164: 26,2162           54266                           CADR     BALLANGS                              #  TO CONVERT ANGLES TO FDAI
000165: 26,2163           02255                           TC       G+N,AUTO                              #  CHECK AUTO MODE
000166: 26,2164           10000                           CCS      A
000167: 26,2165           12140                           TCF      TOBALLA                               #  NOT AUTO, GO REREQUEST AUTO MANEUVER.
000168:
000169: 26,2166           32254        AUTOMANV           CAF      V06N18                                #  STATIC DISPLAY DURING AUTO MANEUVER
000170: 26,2167           04616                           TC       BANKCALL                              #                                        -
000171: 26,2170           20451                           CADR     GODSPR                                #                                        -
000172: 26,2171           02201                           TC       CHKLINUS                              #  TO CHECK FOR PRIORITY DISPLAYS
000173:
000174: 26,2172           04616        STARTMNV           TC       BANKCALL                              #  PERFORM MANEUVER VIA KALCMANU
000175: 26,2173           17750                           CADR     GOMANUR
000176:
000177: 26,2174           12140        ENDMANUV           TCF      TOBALLA                               #  FINISHED MANEUVER.
000178: 26,2175           05516        ENDMANU1           TC       DOWNFLAG                              #  RESET 3-AXIS FLAG
000179: 26,2176           00124                           ADRES    3AXISFLG
000180: 26,2177           31164                           CAE      TEMPR60                               #                                        -
000181: 26,2200           04640                           TC       BANKJUMP                              #                                        -
000182:
000183: 26,2201           40100        CHKLINUS           CS       FLAGWRD4
000184: 26,2202           74740                           MASK     PDSPFBIT                              #  IS PRIORITY DISPLAY FLAG SET?
000185: 26,2203           10000                           CCS      A                                     #                                        -
000186: 26,2204           00002                           TC       Q                                     #  NO - EXIT
000187: 26,2205           30002                           CA       Q
000188: 26,2206           54156                           TS       MPAC       +2                         #  SAVE RETURN
000189: 26,2207           46245                           CS       THREE                                 #  OBTAIN LOCATION FOR RESTART
000190: 26,2210           60133                           AD       BUF2                                  #  HOLDS Q OF LAST DISPLAY
000191: 26,2211           55055                           TS       TBASE2
000192:
000193: 26,2212           05353                           TC       PHASCHNG
000194: 26,2213           00132                           OCT      00132
000195:
000196: 26,2214           34745                           CAF      BIT7
000197: 26,2215           05464                           TC       LINUS                                 #  GO SET BITS FOR PRIORITY DISPLAY      -
000198: 26,2216           00156                           TC       MPAC       +2
000199:


000201: 26,2217           37714        RELINUS            CAF      PRIO26                                #  RESTORE ORIGINAL PRIORITY
000202: 26,2220           05146                           TC       PRIOCHNG
000203:
000204: 26,2221           34747                           CAF      TRACKBIT                              #  DON'T CONTINUE R60 UNLESS TRACKFLAG ON.
000205: 26,2222           70075                           MASK     FLAGWRD1
000206: 26,2223           10000                           CCS      A
000207: 26,2224           12237                           TCF      RER60
000208:
000209: 26,2225           34745                           CAF      RNDVZBIT                              #  IS IT P20?
000210: 26,2226           70074                           MASK     FLAGWRD0
000211: 26,2227           10000                           CCS      A
000212: 26,2230           02234                           TC       +4                                    #  YES
000213: 26,2231           05353                           TC       PHASCHNG                              #  NO, MUST BE P25, SET 2.11 SPOT
000214: 26,2232           40112                           OCT      40112
000215:
000216: 26,2233           05155                           TC       ENDOFJOB
000217:
000218: 26,2234           05353                           TC       PHASCHNG                              #  SET 2.7 SPOT FOR P20
000219: 26,2235           40072                           OCT      40072
000220:
000221: 26,2236           05155                           TC       ENDOFJOB
000222:
000223: 26,2237           05504        RER60              TC       UPFLAG                                #  SET PRIO DISPLAY FLAG AFTER RESTART
000224: 26,2240           00077                           ADRES    PDSPFLAG
000225:
000226: 26,2241           01055                           TC       TBASE2
000227:
000228: 26,2242           31011        R61TEST            CA       MODREG                                #  IF WE ARE IN P00 IT MUST BE V49 OR V89
000229: 26,2243           00006                           EXTEND
000230: 26,2244           12175                           BZF      ENDMANU1                              #  THUS WE GO TO ENDEXT VIA USER
000231:
000232: 26,2245           30100                           CA       FLAGWRD4                              #  ARE WE IN R61 (P20 OR P25)
000233: 26,2246           74740                           MASK     PDSPFBIT
000234: 26,2247           00006                           EXTEND
000235: 26,2250           16001                           BZF      GOTOPOOH                              #  NO
000236: 26,2251           06022                           TC       GOTOV56                               #  YES
000237:
000238: 26,2252           20100        BIT14+7            OCT      20100                                 #                                        -
000239: 26,2253           00203        OCT203             OCT      203
000240: 26,2254           01422        V06N18             VN       0618
000241:
000242:                                                                                                  #  SUBROUTINE TO CHECK FOR G+N CONTROL, AUTO STABILIZATION
000243:
000244:                                                                                                  #  RETURNS WITH C(A) = +         IF NOT SET FOR G+N, AUTO
000245:                                                                                                  #  RETURNS WITH C(A) = +0        IF SWITCHES ARE SET
000246:
000247: 26,2255           00006        G+N,AUTO           EXTEND
000248: 26,2256           00030                           READ     CHAN30
000249: 26,2257           74742                           MASK     BIT10
000250: 26,2260           10000                           CCS      A
000251: 26,2261           00002                           TC       Q                                     #  NOT IN G+N    C(A) = +


000253: 26,2262           00006        ISITAUTO           EXTEND                                         #  CHECK FOR AUTO MODE
000254: 26,2263           00031                           READ     CHAN31
000255: 26,2264           74736                           MASK     BIT14
000256: 26,2265           00002                           TC       Q                                     #  (+) = NOT IN AUTO, (+0) = AOK
000257:


000259:                                                                                                  #  PROGRAM DESCRIPTION BALLANGS
000260:                                                                                                  #  MOD NO.                               LOG SECTION R60,R62
000261:
000262:                                                                                                  #  WRITTEN BY RAMA M. AIYAWAR
000263:
000264:                                                                                                  #  FUNCTIONAL DESCRIPTION
000265:
000266:                                                                                                  #        COMPUTES LM FDAI BALL DISPLAY ANGLES
000267:
000268:                                                                                                  #  CALLING SEQUENCE
000269:
000270:                                                                                                  #        TC      BALLANGS
000271:
000272:                                                                                                  #  NORMAL EXIT MODE
000273:
000274:                                                                                                  #        TC      BALLEXIT        (SAVED Q)
000275:
000276:                                                                                                  #  ALARM OR EXIT MODE    NIL
000277:
000278:                                                                                                  #  SUBROUTINES CALLED
000279:
000280:                                                                                                  #        CD*TR*G
000281:                                                                                                  #        ARCTAN
000282:
000283:                                                                                                  #  INPUT
000284:
000285:                                                                                                  #        CPHI,CTHETA,CPSI ARE THE ANGLES CORRESPONDING TO AOG, AIG, AMG.  THEY ARE
000286:                                                                                                  #        SP,2S COMPLIMENT SCALED TO HALF REVOLUTION.
000287:
000288:                                                                                                  #  OUTPUT
000289:
000290:                                                                                                  #        FDAIX, FDAIY, FDAIZ ARE THE REQUIRED BALL ANGLES SCALED TO HALF REVOLUTION
000291:                                                                                                  #        SP,2S COMPLIMENT.
000292:
000293:                                                                                                  #        THESE ANGLES WILL BE DISPLAYED AS DEGREES AND HUNDREDTHS, IN THE ORDER ROLL, PITCH, YAW, USING NOUNS 18 & 19.
000294:
000295:                                                                                                  #  ERASABLE INITIALIZATION REQUIRED
000296:
000297:                                                                                                  #        CPHI, CTHETA, CPSI      EACH A SP REGISTER
000298:
000299:                                                                                                  #  DEBRIS
000300:
000301:                                                                                                  #        A,L,Q,MPAC,SINCDU,COSCDU,PUSHLIST,BALLEXIT
000302:
000303:                                                                                                  #  NOMENCLATURE: CPHI, CTHETA, & CPSI REPRESENT THE OUTER, INNER, & MIDDLE GIMBAL ANGLES, RESPECTIVELY; OR
000304:                                                                                                  #                EQUIVALENTLY, CDUX, CDUY, & CDUZ.
000305:
000306:                                                                                                  #  NOTE:  ARCTAN CHECKS FOR OVERFLOW AND SHOULD BE ABLE TO HANDLE ANY SINGULARITIES.
000307:
000308: 26,2000                                           SETLOC   BAWLANGS
000309: 26,2000                                           BANK
000310:
000311: 26,2266                                           COUNT*   $$/BALL
000312: 26,2266           04645        BALLANGS           TC       MAKECADR
000313: 26,2267           55342                           TS       BALLEXIT
000314: 26,2270           30321                           CA       CPHI


000316: 26,2271           54772                           TS       CDUSPOT    +4
000317: 26,2272           30322                           CA       CTHETA
000318: 26,2273           54766                           TS       CDUSPOT
000319: 26,2274           30323                           CA       CPSI
000320: 26,2275           54770                           TS       CDUSPOT    +2
000321:
000322: 26,2276           06037                           TC       INTPRET
000323: 26,2277           45001                           SETPD    CALL
000324: 26,2300           00001                                    0D
000325: 26,2301           47543                                    CD*TR*G
000326:
000327: 26,2302           41345                           DLOAD    DMP
000328: 26,2303           00743                                    SINCDUX                               #  SIN (OGA)
000329: 26,2304           00747                                    COSCDUZ                               #  COS (MGA)
000330:
000331: 26,2305           57552                           SL1      DCOMP                                 #  SCALE
000332: 26,2306           65336                           ARCSIN   PDDL                                  #  YAW = ARCSIN(-SXCZ) INTO 0 PD
000333: 26,2307           00741                                    SINCDUZ
000334: 26,2310           14023                           STODL    SINTH                                 #  (SINTH = 18D IN PD)
000335: 26,2311           00747                                    COSCDUZ
000336: 26,2312           72405                           DMP      SL1                                   #  RESCALE
000337: 26,2313           00751                                    COSCDUX
000338: 26,2314           34021                           STCALL   COSTH                                 #  (COSTH = 16D IN PD)
000339: 26,2315           26510                                    ARCTAN
000340: 26,2316           41325                           PDDL     DMP                                   #  ROLL = ARCTAN(SZ/CZCX) INTO 2 PD
000341: 26,2317           00741                                    SINCDUZ
000342: 26,2320           00743                                    SINCDUX
000343: 26,2321           41512                           SL2      PUSH                                  #  SXSZ INTO 4 PD
000344: 26,2322           65205                           DMP      PDDL                                  #  SXSZCY INTO 4 PD
000345: 26,2323           00745                                    COSCDUY
000346: 26,2324           65205                           DMP      PDDL                                  #  SXSZSY INTO 6 PD
000347: 26,2325           00737                                    SINCDUY
000348: 26,2326           00751                                    COSCDUX
000349: 26,2327           72405                           DMP      SL1                                   #  CXCY
000350: 26,2330           00745                                    COSCDUY
000351: 26,2331           45425                           DSU      STADR                                 #  PULL UP FROM 6 PD
000352: 26,2332           63756                           STODL    COSTH                                 #  COSTH = CXCY - SXSZSY
000353: 26,2333           00737                                    SINCDUY
000354: 26,2334           72405                           DMP      SL1
000355: 26,2335           00751                                    COSCDUX                               #  CXSY
000356: 26,2336           45415                           DAD      STADR                                 #  PULL UP FROM 4 PD
000357: 26,2337           43754                           STCALL   SINTH                                 #  SINTH = CXSY + SXSZCY
000358: 26,2340           26510                                    ARCTAN                                #  RETURNS WITH D(MPAC) = PITCH
000359: 26,2341           55525                           PDDL     VDEF                                  #  PITCH INTO 2 PD, ROLL INTO MPAC FROM 2 PD
000360: 26,2342           77634                           RTB                                            #  VDEF MAKES V(MPAC) = ROLL, PITCH, YAW
000361: 26,2343           21620                                    V1STO2S
000362: 26,2344           02345                           STORE    FDAIX                                 #  MODE IS TP
000363: 26,2345           77776                           EXIT
000364:
000365: 26,2346           31342        ENDBALL            CA       BALLEXIT
000366:


000368: 26,2347           04640                           TC       BANKJUMP
000369:


000371:                                                                                                  #  PROGRAM DESCRIPTION - VECPOINT
000372:
000373:                                                                                                  #  THIS INTERPRETIVE SUBROUTINE MAY BE USED TO POINT A SPACECRAFT AXIS IN A DESIRED DIRECTION.  THE AXIS
000374:                                                                                                  #  TO BE POINTED MUST APPEAR AS A HALF UNIT DOUBLE PRECISION VECTOR IN SUCCESSIVE LOCATIONS OF ERASABLE MEMORY
000375:                                                                                                  #  BEGINNING WITH THE LOCATION CALLED SCAXIS.  THE COMPONENTS OF THIS VECTOR ARE GIVEN IN SPACECRAFT COORDINATES.
000376:                                                                                                  #  THE DIRECTION IN WHICH THIS AXIS IS TO BE POINTED MUST APPEAR AS A HALF UNIT DOUBLE PRECISION VECTOR IN
000377:                                                                                                  #  SUCCESSIVE LOCATIONS OF ERASABLE MEMORY BEGINNING WITH THE ADDRESS CALLED POINTVSM.  THE COMPONENTS OF THIS
000378:                                                                                                  #  VECTOR ARE GIVEN IN STABLE MEMBER COORDINATES.  WITH THIS INFORMATION VECPOINT COMPUTES A SET OF THREE GIMBAL
000379:                                                                                                  #  ANGLES (2S COMPLEMENT) CORESPONDING TO THE CROSS-PRODUCT ROTATION BETWEEN SCAXIS AND POINTVSM AND STORES THEM
000380:                                                                                                  #  IN T(MPAC) BEFORE RETURNING TO THE CALLER.
000381:
000382:                                                                                                  #  THIS ROTATION, HOWEVER, MAY BRING THE S/C INTO GIMBAL LOCK.  WHEN POINTING A VECTOR IN THE Y-Z PLANE,
000383:                                                                                                  #  THE TRANSPONDER AXIS, OR THE AOT FOR THE LEM, THE PROGRAM WILL CORRECT THIS PROBLEM BY ROTATING THE CROSS-
000384:                                                                                                  #  PRODUCT ATTITUDE ABOUT POINTVSM BY A FIXED AMOUNT SUFFICIENT TO ROTATE THE DESIRED S/C ATTITUDE OUT OF GIMBAL
000385:                                                                                                  #  LOCK.  IF THE AXIS TO BE POINTED IS MORE THAN 40.6 DEGREES BUT LESS THAN 60.5 DEG FROM THE +X (OR -X) AXIS,
000386:                                                                                                  #  THE ADDITIONAL ROTATION TO AVOID GIMAL LOCK IS 35 DEGREES.  IF THE AXIS IS MORE THAN 60.5 DEGEES FROM +X (OR -X)
000387:                                                                                                  #  THE ADDITIONAL ROTATION IS 35 DEGREES.  THE GIMBAL ANGLES CORRESPONDING TO THIS ATTITUDE ARE THEN COMPUTED AND
000388:                                                                                                  #  STORED AS 2S COMPLIMENT ANGLES IN T(MPAC) BEFORE RETURNING TO THE CALLER.
000389:
000390:                                                                                                  #  WHEN POINTING THE X-AXIS, OR THE THRUST VECTOR, OR ANY VECTOR WITHIN 40.6 DEG OF THE X-AXIS, VECPOINT
000391:                                                                                                  #  CANNOT CORRECT FOR A CROSS-PRODUCT ROTATION INTO GIMBAL LOCK.  IN THIS CASE A PLATFORM REALIGNMENT WOULD BE
000392:                                                                                                  #  REQUIRED TO POINT THE VECTOR IN THE DESIRED DIRECTION.  AT PRESENT NO INDICATION IS GIVEN FOR THIS SITUATION
000393:                                                                                                  #  EXCEPT THAT THE FINAL MIDDLE GIMBAL ANGLE IN MPAC +2 IS GREATER THAN 59 DEGREES.
000394:
000395:                                                                                                  #  CALLING SEQUENCE -
000396:
000397:                                                                                                  #        1)      LOAD SCAXIS, POINTVSM
000398:                                                                                                  #        2)      CALL
000399:                                                                                                  #                        VECPOINT
000400:
000401:                                                                                                  #  RETURNS WITH
000402:
000403:                                                                                                  #        1)      DESIRED OUTER GIMBAL ANGLE IN MPAC
000404:                                                                                                  #        2)      DESIRED INNER GIMBAL ANGLE IN MPAC +1
000405:                                                                                                  #        3)      DESIRED MIDDLE GIMBAL ANGLE IN MPAC +2
000406:
000407:                                                                                                  #  ERASABLES USED -
000408:
000409:                                                                                                  #        1)      SCAXIS          6
000410:                                                                                                  #        2)      POINTVSM        6
000411:                                                                                                  #        3)      MIS             18
000412:                                                                                                  #        4)      DEL             18
000413:                                                                                                  #        5)      COF             6
000414:                                                                                                  #        6)      VECQTEMP        1
000415:                                                                                                  #        7)      ALL OF VAC AREA 43
000416:
000417:                                                                                                  #                        TOTAL   99
000418:
000419: 27,2000                                           SETLOC   VECPT
000420: 27,2000                                           BANK


000422: 27,2032                                           COUNT*   $$/VECPT
000423:
000424: 27,2032  E6,1676                                  EBANK=   BCDU
000425:
000426: 27,2032           40020        VECPNT1            STQ      BOV                                   #  THIS ENTRY USES DESIRED CDUS
000427: 27,2033           03325                                    VECQTEMP                              #  NOT PRESENT - ENTER WITH CDUD'S IN MPAC
000428: 27,2034           56035                                    VECPNT2
000429: 27,2035           52164        VECPNT2            AXC,2    GOTO
000430: 27,2036           03246                                    MIS
000431: 27,2037           56046                                    STORANG
000432: 27,2040           40020        VECPOINT           STQ      BOV                                   #  SAVE RETURN ADDRESS
000433: 27,2041           03325                                    VECQTEMP
000434: 27,2042           56043                                    VECLEAR                               #  AND CLEAR OVFIND
000435: 27,2043           47164        VECLEAR            AXC,2    RTB
000436: 27,2044           03246                                    MIS                                   #  READ THE PRESENT CDU ANGLES AND
000437: 27,2045           44403                                    READCDUK                              #  STORE THEM IN PD25, 26, 27
000438: 27,2046           34032        STORANG            STCALL   25D
000439: 27,2047           44410                                    CDUTODCM                              #  S/C AXES TO STABLE MEMBER AXES (MIS)
000440: 27,2050           61375                           VLOAD    VXM
000441: 27,2051           03773                                    POINTVSM                              #  RESOLVE THE POINTING DIRECTION VF INTO
000442: 27,2052           03247                                    MIS                                   #  INITIAL S/C AXES (VF = POINTVSM)
000443: 27,2053           77656                           UNIT
000444: 27,2054           00035                           STORE    28D
000445:                                                                                                  #  PD 28 29 30 31 32 33
000446: 27,2055           53435                           VXV      UNIT                                  #  TAKE THE CROSS PRODUCT VF X VI
000447: 27,2056           03765                                    SCAXIS                                #  WHERE VI = SCAXIS
000448: 27,2057           57400                           BOV      VCOMP
000449: 27,2060           56170                                    PICKAXIS
000450: 27,2061           17271                           STODL    COF                                   #  CHECK MAGNITUDE
000451: 27,2062           00045                                    36D                                   #  OF CROSS PRODUCT
000452: 27,2063           50025                           DSU      BMN                                   #  VECTOR, IF LESS
000453: 27,2064           14411                                    DPB-14                                #  THAN B-14 ASSUME
000454: 27,2065           56170                                    PICKAXIS                              #  UNIT OPERATION
000455: 27,2066           50375                           VLOAD    DOT                                   #  INVALID.
000456: 27,2067           03765                                    SCAXIS
000457: 27,2070           00035                                    28D
000458: 27,2071           65552                           SL1      ARCCOS
000459: 27,2072           77624        COMPMATX           CALL                                           #  NOW COMPUTE THE TRANSFORMATION FROM
000460: 27,2073           44527                                    DELCOMP                               #  FINAL S/C AXES TO INITIAL S/C AXES MFI
000461: 27,2074           75160                           AXC,1    AXC,2
000462: 27,2075           03246                                    MIS                                   #  COMPUTE THE TRANSFORMATION FROM FINAL
000463: 27,2076           02230                                    KEL                                   #  S/C AXES TO STABLE MEMBER AXES
000464: 27,2077           77624                           CALL                                           #  MFS = MIS MFI
000465: 27,2100           44312                                    MXM3                                  #  (IN PD LIST)
000466:
000467: 27,2101           51545                           DLOAD    ABS
000468: 27,2102           00007                                    6                                     #  MFS6 = SIN(CPSI)                      $2
000469: 27,2103           50025                           DSU      BMN
000470: 27,2104           14376                                    SINGIMLC                              #  = SIN(59 DEGS)                        $2
000471: 27,2105           56160                                    FINDGIMB                              #  /CPSI/ LESS THAN 59 DEGS


000473:                                                                                                  #  I.E. DESIRED ATTITUDE NOT IN GIMBAL LOCK
000474:
000475: 27,2106           51545                           DLOAD    ABS                                   #  CHECK TO SEE IF WE ARE POINTING
000476: 27,2107           03765                                    SCAXIS                                #  THE THRUST AXIS
000477: 27,2110           51025                           DSU      BPL
000478: 27,2111           14400                                    SINVEC1                               #  SIN 49.4 DEGS                         $2
000479: 27,2112           56160                                    FINDGIMB                              #  IF SO, WE ARE TRYING TO POINT IT INTO
000480: 27,2113           77775                           VLOAD                                          #  GIMBAL LOCK, ABORT COULD GO HERE
000481: 27,2114           77626                           STADR
000482: 27,2115           50514                           STOVL    MIS        +12D
000483: 27,2116           77626                           STADR                                          #  STORE MFS (IN PD LIST) IN MIS
000484: 27,2117           50522                           STOVL    MIS        +6
000485: 27,2120           77626                           STADR
000486: 27,2121           50530                           STOVL    MIS
000487: 27,2122           03255                                    MIS        +6                         #  INNER GIMBAL AXIS IN FINAL S/C AXES
000488: 27,2123           57444                           BPL      VCOMP                                 #  LOCATE THE IG AXIS DIRECTION CLOSEST TO
000489: 27,2124           56125                                    IGSAMEX                               #  FINAL X S/C AXIS
000490:
000491: 27,2125           50035        IGSAMEX            VXV      BMN                                   #  FIND THE SHORTEST WAY OF ROTATING THE
000492: 27,2126           03765                                    SCAXIS                                #  S/C OUT OF GIMBAL LOCK BY A ROTATION
000493: 27,2127           56134                                    U=SCAXIS                              #  ABOUT +- SCAXIS, I.E. IF  (IG (SGN MFS3)
000494:                                                                                                  #  X SCAXIS . XF) LESS THAN 0, U = SCAXIS
000495:                                                                                                  #  OTHERWISE U = -SCAXIS
000496:
000497: 27,2130           57575                           VLOAD    VCOMP
000498: 27,2131           03765                                    SCAXIS
000499: 27,2132           37271                           STCALL   COF                                   #  ROTATE ABOUT -SCAXIS
000500: 27,2133           56137                                    CHEKAXIS
000501: 27,2134           77775        U=SCAXIS           VLOAD
000502: 27,2135           03765                                    SCAXIS
000503: 27,2136           03271                           STORE    COF                                   #  ROTATE ABOUT + SCAXIS
000504: 27,2137           51545        CHEKAXIS           DLOAD    ABS
000505: 27,2140           03765                                    SCAXIS                                #  SEE IF WE ARE POINTING THE AOT
000506: 27,2141           51025                           DSU      BPL
000507: 27,2142           14402                                    SINVEC2                               #  SIN 29.5 DEGS                         $2
000508: 27,2143           56147                                    PICKANG1                              #  IF SO, ROTATE 50 DEGS ABOUT +- SCAXIS
000509: 27,2144           52145                           DLOAD    GOTO                                  #  IF NOT, MUST BE POINTING THE TRANSPONDER
000510: 27,2145           14406                                    VECANG2                               #  OR SOME VECTOR IN THE Y, OR Z PLANE
000511: 27,2146           56151                                    COMPMFSN                              #  IN THIS CASE ROTATE 35 DEGS TO GET OUT
000512:                                                                                                  #  OF GIMBAL LOCK (VECANG2  $360)
000513: 27,2147           77745        PICKANG1           DLOAD
000514: 27,2150           14404                                    VECANG1                               #  = 50 DEGS                             $360
000515: 27,2151           77624        COMPMFSN           CALL
000516: 27,2152           44527                                    DELCOMP                               #  COMPUTE THE ROTATION ABOUT SCAXIS TO
000517: 27,2153           75160                           AXC,1    AXC,2                                 #  BRING MFS OUT OF GIMBAL LOCK
000518: 27,2154           03246                                    MIS
000519: 27,2155           02230                                    KEL
000520: 27,2156           77624                           CALL                                           #  COMPUTE THE NEW TRANSFORMATION FROM
000521: 27,2157           44312                                    MXM3                                  #  DESIRED S/C AXES TO STABLE MEMBER AXES
000522:                                                                                                  #  WHICH WILL ALIGN VI WITH VF AND AVOID


000524:                                                                                                  #  GIMBAL LOCK
000525: 27,2160           45160        FINDGIMB           AXC,1    CALL
000526: 27,2161           00000                                    0                                     #  EXTRACT THE COMMANDED CDU ANGLES FROM
000527: 27,2162           44654                                    DCMTOCDU                              #  THIS MATRIX
000528: 27,2163           40234                           RTB      SETPD
000529: 27,2164           21620                                    V1STO2S                               #  CONVERT TO 2:S COMPLEMENT
000530: 27,2165           00001                                    0
000531: 27,2166           77650                           GOTO
000532: 27,2167           03325                                    VECQTEMP                              #  RETURN TO CALLER
000533:
000534: 27,2170           50375        PICKAXIS           VLOAD    DOT                                   #  IF VF X VI = 0, FIND VF . VI
000535: 27,2171           00035                                    28D
000536: 27,2172           03765                                    SCAXIS
000537: 27,2173           72240                           BMN      TLOAD
000538: 27,2174           54350                                    ROT180
000539: 27,2175           00032                                    25D
000540: 27,2176           77650                           GOTO                                           #  IF VF = VI, CDU DESIRED = PRESENT CDU
000541: 27,2177           03325                                    VECQTEMP                              #  PRESENT CDU ANGLES
000542:
000543: 35,2000                                           BANK     35
000544: 26,2000                                           SETLOC   MANUVER1
000545: 26,2000                                           BANK
000546: 26,2350           47375        ROT180             VLOAD    VXV                                   #  IF VF, VI ANTIPARALLEL, 108 DEG ROTATION
000547: 26,2351           03255                                    MIS        +6                         #  IS REQUIRED.  Y STABLE MEMBER AXIS IN
000548: 26,2352           06520                                    HIDPHALF                              #  INITIAL S/C AXES.
000549: 26,2353           47256                           UNIT     VXV                                   #  FIND Y(SM) X X(I)
000550: 26,2354           03765                                    SCAXIS                                #  FIND UNIT(VI X UNIT(Y(SM) X X(I)))
000551: 26,2355           40056                           UNIT     BOV                                   #  I.E. PICK A VECTOR IN THE PLANE OF X(I),
000552: 26,2356           54372                                    PICKX                                 #  Y(SM) PERPENDICULAR TO VI
000553: 26,2357           17271                           STODL    COF
000554: 26,2360           00045                                    36D                                   #  CHECK MAGNITUDE
000555: 26,2361           50025                           DSU      BMN                                   #  OF THIS VECTOR.
000556: 26,2362           14411                                    DPB-14                                #  IF LESS THAN B-14,
000557: 26,2363           54372                                    PICKX                                 #  PICK X-AXIS.
000558: 26,2364           77775                           VLOAD
000559: 26,2365           03271                                    COF
000560: 26,2366           17271        XROT               STODL    COF
000561: 26,2367           06520                                    HIDPHALF
000562: 26,2370           77650                           GOTO
000563: 26,2371           56072                                    COMPMATX
000564: 26,2372           52175        PICKX              VLOAD    GOTO                                  #  PICK THE XAXIS IN THIS CASE
000565: 26,2373           06520                                    HIDPHALF
000566: 26,2374           54366                                    XROT
000567: 26,2375           15555 35172  SINGIMLC           2DEC     .4285836003                            #  = SIN(59)                             $2
000568:
000569: 26,2377           14113 36326  SINVEC1            2DEC     .3796356537                            #  = SIN(49.4)                           $2
000570:
000571: 26,2401           07701 35703  SINVEC2            2DEC     .2462117800                            #  = SIN(29.5)                           $2
000572:
000573: 26,2403           04343 21616  VECANG1            2DEC     .1388888889                            #  = 50 DEGREES                          $360


000575: 26,2405           03070 34344  VECANG2            2DEC     .09722222222                            #  = 35 DEGREES                          $360
000576:
000577: 26,2407           00000        1BITDP             OCT      0                                     #  KEEP THIS BEFORE DPB(-14)        *********
000578: 26,2410           00001        DPB-14             OCT      00001
000579: 26,2411           00000                           OCT      00000
000580:


000582:                                                                                                  #  ROUTINE FOR INITIATING AUTOMATIC MANEUVER VIA KEYBOARD (V49)
000583:
000584: 34,2000                                           BANK     34
000585: 23,2000                                           SETLOC   R62
000586: 23,2000                                           BANK
000587: 23,2103  E6,1676                                  EBANK=   BCDU
000588:
000589: 23,2103                                           COUNT*   $$/R62
000590:
000591: 23,2103  23,2103               R62DISP            EQUALS   R62FLASH
000592:
000593: 23,2103           35010        R62FLASH           CAF      V06N22                                #  FLASH V06N22 AND
000594: 23,2104           04616                           TC       BANKCALL                              #  ICDU ANGLES
000595: 23,2105           20476                           CADR     GOFLASH
000596: 23,2106           15472                           TCF      ENDEXT                                #  TERMINATE
000597: 23,2107           12111                           TCF      GOMOVE                                #  PROCEED
000598: 23,2110           12103                           TCF      R62FLASH                              #  ENTER
000599:
000600:                                                                                                  #  ASTRONAUT MAY LOAD NEW ICDUS AT THIS
000601:                                                                                                  #  POINT
000602: 23,2111           05504        GOMOVE             TC       UPFLAG                                #  SET FOR 3-AXIS MANEUVER
000603: 23,2112           00124                           ADRES    3AXISFLG
000604:
000605: 23,2113           04616                           TC       BANKCALL
000606: 23,2114           54123                           CADR     R60LEM
000607: 23,2115           15472                           TCF      ENDEXT                                #  END R62
000608:

End of include-file R60,R62.agc.  Parent file is MAIN.agc


