
Source Code


000002:                                                                                                  ## Copyright:   Public domain.
000003:                                                                                                  ## Filename:    R63.agc
000004:                                                                                                  ## Purpose:     Part of the reconstructed source code for LMY99 Rev 0,
000005:                                                                                                  ##              otherwise known as Luminary Rev 99, the second release
000006:                                                                                                  ##              of the Apollo Guidance Computer (AGC) software for Apollo 11.
000007:                                                                                                  ##              It differs from LMY99 Rev 1 (the flown version) only in the
000008:                                                                                                  ##              placement of a single label. The corrections shown here have
000009:                                                                                                  ##              been verified to have the same bank checksums as AGC developer
000010:                                                                                                  ##              Allan Klumpp's copy of Luminary Rev 99, and so are believed
000011:                                                                                                  ##              to be accurate. This file is intended to be a faithful
000012:                                                                                                  ##              recreation, except that the code format has been changed to
000013:                                                                                                  ##              conform to the requirements of the yaYUL assembler rather than
000014:                                                                                                  ##              the original YUL assembler.
000015:                                                                                                  ##
000016:                                                                                                  ## Assembler:   yaYUL
000017:                                                                                                  ## Contact:     Ron Burkey <info@sandroid.org>.
000018:                                                                                                  ## Website:     www.ibiblio.org/apollo.
000019:                                                                                                  ## Pages:       338-341
000020:                                                                                                  ## Mod history: 2009-05-16 RSB  Adapted from the corresponding
000021:                                                                                                  ##                              Luminary131 file, using page
000022:                                                                                                  ##                              images from Luminary 1A.
000023:                                                                                                  ##              2016-12-14 RSB  Proofed text comments with octopus/ProoferComments
000024:                                                                                                  ##                              and corrected the errors found.
000025:                                                                                                  ##              2017-01-26 RSB  Back-ported a comment-text fix from Luminary 69.
000026:                                                                                                  ##              2017-03-07 RSB  Comment-text fixes noted in proofing Luminary 116.
000027:                                                                                                  ##              2017-08-01 MAS  Created from LMY99 Rev 1.
000028:
000029:                                                                                                  ## This source code has been transcribed or otherwise adapted from
000030:                                                                                                  ## digitized images of a hardcopy from the MIT Museum.  The digitization
000031:                                                                                                  ## was performed by Paul Fjeld, and arranged for by Deborah Douglas of
000032:                                                                                                  ## the Museum.  Many thanks to both.  The images (with suitable reduction
000033:                                                                                                  ## in storage size and consequent reduction in image quality as well) are
000034:                                                                                                  ## available online at www.ibiblio.org/apollo.  If for some reason you
000035:                                                                                                  ## find that the images are illegible, contact me at info@sandroid.org
000036:                                                                                                  ## about getting access to the (much) higher-quality images which Paul
000037:                                                                                                  ## actually created.
000038:                                                                                                  ##
000039:                                                                                                  ## The code has been modified to match LMY99 Revision 0, otherwise
000040:                                                                                                  ## known as Luminary Revision 99, the Apollo 11 software release preceeding
000041:                                                                                                  ## the listing from which it was transcribed. It has been verified to
000042:                                                                                                  ## contain the same bank checksums as AGC developer Allan Klumpp's listing
000043:                                                                                                  ## of Luminary Revision 99 (for which we do not have scans).
000044:                                                                                                  ##
000045:                                                                                                  ## Notations on Allan Klumpp's listing read, in part:
000046:                                                                                                  ##
000047:                                                                                                  ##      ASSEMBLE REVISION 099 OF AGC PROGRAM LUMINARY BY NASA 2021112-51
000048:


000050:                                                                                                  #  SUBROUTINE NAME:      V89CALL
000051:                                                                                                  #  MOD NO:       0                       DATE:           9 JAN 1968
000052:                                                                                                  #  MOD BY:       DIGITAL DEVEL GROUP     LOG SECTION:    R63
000053:
000054:                                                                                                  #  FUNCTIONAL DESCRIPTION:
000055:
000056:                                                                                                  #  CALLED BY VERB 89 ENTER DURING P00.  PRIO 10 USED.  CALCULATES AND
000057:                                                                                                  #  DISPLAYS FINAL FDAI BALL ANGLES TO POINT LM +X OR +Z AXIS AT CSM.
000058:
000059:                                                                                                  #  1. KEY IN V 89 E ONLY IF IN PROG 00.  IF NOT IN P00, OPERATOR ERROR AND
000060:                                                                                                  #  EXIT R63, OTHERWISE CONTINUE.
000061:
000062:                                                                                                  #  2. IF IN P00, DO IMU STATUS CHECK ROUTINE (R02BOTH).  IF IMU ON AND ITS
000063:                                                                                                  #  ORIENTATION KNOWN TO LGC, CONTINUE.
000064:
000065:                                                                                                  #  3. FLASH DISPLAY V 04 N 06.  R2 INDICATES WHICH SPACECRAFT AXIS IS TO
000066:                                                                                                  #  BE POINTED AT CSM.  INITIAL CHOICE IS PREFERRED (+Z) AXIS (R2=1).
000067:                                                                                                  #  ASTRONAUT CAN CHANGE TO (+X) AXIS (R2 NOT =1) BY V 22 E 2 E.  CONTINUE
000068:                                                                                                  #  AFTER KEYING IN PROCEED.
000069:
000070:                                                                                                  #  4. BOTH VEHICLE STATE VECTORS UPDATED BY CONIC EQS.
000071:
000072:                                                                                                  #  5. HALF MAGNITUDE UNIT LOS VECTOR (IN STABLE MEMBER COORDINATES) AND
000073:                                                                                                  #  HALF MAGNITUDE UNIT SPACECRAFT AXIS VECTOR (IN BODY COORDINATES)
000074:                                                                                                  #  PREPARED FOR VECPOINT.
000075:
000076:                                                                                                  #  6. GIMBAL ANGLES FROM VECPOINT TRANSFORMED INTO FDAI BALL ANGLES BY
000077:                                                                                                  #  BALLANGS.  FLASH DISPLAY V 06 N 18 AND AWAIT RESPONSE.
000078:
000079:                                                                                                  #  7.    RECYCLE - RETURN TO STEP 4.
000080:                                                                                                  #        TERMINATE - EXIT R63.
000081:                                                                                                  #        PROCEED - RESET 3AXISFLG AND CALL R60LEM FOR ATTITUDE MANEUVER.
000082:
000083:                                                                                                  #  CALLING SEQUENCE:     V 89 E.
000084:
000085:                                                                                                  #  SUBROUTINES CALLED:   CHKPOOH, R02BOTH, GOXDSPF, CSMCONIC, LEMCONIC,
000086:                                                                                                  #                        VECPOINT, BALLANGS, R60LEM.
000087:
000088:                                                                                                  #  NORMAL EXIT MODES:    TC ENDEXT
000089:
000090:                                                                                                  #  ALARMS:       1. OPERATOR ERROR IF NOT IN P00.
000091:                                                                                                  #                2. PROGRAM ALARM IF IMU IS OFF.
000092:                                                                                                  #                3. PROGRAM ALARM IF IMU ORIENTATION IS UNKNOWN.
000093:
000094:                                                                                                  #  OUTPUT:       NONE
000095:
000096:                                                                                                  #  ERASABLE INITIALIZATION REQUIRED:  NONE
000097:
000098:                                                                                                  #  DEBRIS:       OPTION1, +1, TDEC1, POINTVSM, SCAXIS, CPHI, CTHETA, CPSI,


000100:                                                                                                  #                3AXISFLG.
000101:
000102: 06,3715  E4,1606                                  EBANK=   RONE
000103: 32,2217                                           BANK     32
000104: 26,2000                                           SETLOC   BAWLANGS
000105: 26,2000                                           BANK
000106:
000107: 26,2022                                           COUNT*   $$/R63
000108: 26,2022           04616        V89CALL            TC       BANKCALL                              #  IMU STATUS CHECK.  RETURNS IF ORIENTATION
000109: 26,2023           11254                           CADR     R02BOTH                               #  KNOWN.  ALARMS IF NOT.
000110: 26,2024           36245                           CAF      THREE                                 #  ALLOW ASTRONAUT TO SELECT DESIRED
000111: 26,2025           55051                           TS       OPTIONX                               #  TRACKING ATTITUDE AXIS.
000112: 26,2026           34753                           CAF      ONE
000113: 26,2027           55052                           TS       OPTIONX    +1
000114: 26,2030           32117                           CAF      VB04N12                               #  V 04 N 12
000115: 26,2031           04616                           TC       BANKCALL
000116: 26,2032           20476                           CADR     GOFLASH
000117: 26,2033           05472                           TC       ENDEXT                                #  TERMINATE
000118: 26,2034           02036                           TC       +2                                    #  PROCEED
000119: 26,2035           02030                           TC       -5                                    #  DATA IN. OPTION1+1 = 1 FOR Z AXIS
000120: 26,2036           06037        V89RECL            TC       INTPRET                               #                    = 2 FOR X AXIS
000121: 26,2037           43234                           RTB      DAD
000122: 26,2040           21573                                    LOADTIME                              #  READ PRESENT TIME
000123: 26,2041           14122                                    DP1MIN
000124: 26,2042           02205                           STORE    TSTART82                              #  SAVE TIME FOR LEMCONIC CALL
000125: 26,2043           34041                           STCALL   TDEC1                                 #  STORE TIME FOR CSMCONIC CALL
000126: 26,2044           27066                                    CSMCONIC                              #  CSM STATE VECTOR UPDATE
000127: 26,2045           77775                           VLOAD                                          #  CSMCONIC LEFT R VECTOR IN RATT
000128: 26,2046           00001                                    RATT
000129: 26,2047           16207                           STODL    RONE                                  #  SAVE FOR LINE OF SIGHT (LOS) COMPUTATION
000130: 26,2050           02205                                    TSTART82
000131: 26,2051           34041                           STCALL   TDEC1                                 #  STORE TIME FOR LEMCONIC CALL
000132: 26,2052           27100                                    LEMCONIC                              #  LEM STATE VECTOR UPDATE
000133: 26,2053           52375                           VLOAD    VSU                                   #  CSM POSITION - LEM POSITION = LOS
000134: 26,2054           02207                                    RONE                                  #  LOS VECTOR LEFT IN MPAC
000135: 26,2055           00001                                    RATT
000136: 26,2056           47121                           MXV      RTB                                   #  (REFSMMAT X LOS).  TRANSFORMS LOS FROM
000137: 26,2057           01734                                    REFSMMAT                              #  REFERENCE COORD TO STAB MEMB COORD.
000138: 26,2060           21726                                    NORMUNIT
000139: 26,2061           03773                           STORE    POINTVSM                              #  STORE LOS FOR VECPOINT CALL
000140: 26,2062           77776                           EXIT
000141: 26,2063           41052                           CS       OPTIONX    +1                         #  1 FOR Z AXIS.  2 FOR X AXIS.
000142: 26,2064           64753                           AD       ONE
000143: 26,2065           00006                           EXTEND
000144: 26,2066           12113                           BZF      ALINEZ
000145: 26,2067           06037        ALINEX             TC       INTPRET                               #  X AXIS ALIGNMENT
000146: 26,2070           77775                           VLOAD
000147: 26,2071           06520                                    UNITX                                 #  READ (.5, 0, 0)


000149: 26,2072           37765        V89CALL1           STCALL   SCAXIS                                #  STORE SELECTED ALIGNMENT AXIS
000150: 26,2073           56040                                    VECPOINT                              #  PUTS DESIRED GIM ANG (OG,IG,MG) IN TMPAC
000151: 26,2074           00322                           STORE    CPHI                                  #  STORE GIMBAL ANGLES FOR BALLANGS CALL.
000152: 26,2075           77776                           EXIT
000153: 26,2076           04616                           TC       BANKCALL
000154: 26,2077           54266                           CADR     BALLANGS                              #  PUTS DESIRED BALL ANGLES IN FDAIX,Y,Z
000155: 26,2100           32120                           CAF      VB06N18                               #  V 06 N 18
000156: 26,2101           04616                           TC       BANKCALL                              #  NOUN 18 REFERS TO FDAIX,Y,Z
000157: 26,2102           20476                           CADR     GOFLASH
000158: 26,2103           05472                           TC       ENDEXT                                #  TERMINATE
000159: 26,2104           02106                           TC       +2                                    #  PROCEED
000160: 26,2105           02036                           TC       V89RECL                               #  RECYCLE
000161: 26,2106           05516                           TC       DOWNFLAG                              #  RESET 3 AXIS FLAG
000162: 26,2107           00124                           ADRES    3AXISFLG                              #  RESET BIT6 FLAG WORD 5
000163: 26,2110           04616                           TC       BANKCALL                              #  PERFORMS LEM MANEUVER TO ALIGN SELECTED
000164: 26,2111           54123                           CADR     R60LEM                                #  SPACECRAFT AXIS TO CSM.
000165: 26,2112           15472                           TCF      ENDEXT                                #  TERMINATE R63
000166:
000167: 26,2113           06037        ALINEZ             TC       INTPRET                               #  Z AXIS ALIGNMENT
000168: 26,2114           52175                           VLOAD    GOTO
000169: 26,2115           06514                                    UNITZ                                 #  READ (0, 0, .5)
000170: 26,2116           54072                                    V89CALL1
000171:
000172: 26,2117           01014        VB04N12            VN       412
000173: 26,2120           01422        VB06N18            VN       0618


000175: 26,2121           00000 13560  DP1MIN             2DEC     6000       B-28
000176:

End of include-file R63.agc.  Parent file is MAIN.agc


