
Source Code


000002:                                                                                                  ## Copyright:   Public domain.
000003:                                                                                                  ## Filename:    RADAR_LEADIN_ROUTINES.agc
000004:                                                                                                  ## Purpose:     Part of the reconstructed source code for LMY99 Rev 0,
000005:                                                                                                  ##              otherwise known as Luminary Rev 99, the second release
000006:                                                                                                  ##              of the Apollo Guidance Computer (AGC) software for Apollo 11.
000007:                                                                                                  ##              It differs from LMY99 Rev 1 (the flown version) only in the
000008:                                                                                                  ##              placement of a single label. The corrections shown here have
000009:                                                                                                  ##              been verified to have the same bank checksums as AGC developer
000010:                                                                                                  ##              Allan Klumpp's copy of Luminary Rev 99, and so are believed
000011:                                                                                                  ##              to be accurate. This file is intended to be a faithful
000012:                                                                                                  ##              recreation, except that the code format has been changed to
000013:                                                                                                  ##              conform to the requirements of the yaYUL assembler rather than
000014:                                                                                                  ##              the original YUL assembler.
000015:                                                                                                  ##
000016:                                                                                                  ## Assembler:   yaYUL
000017:                                                                                                  ## Contact:     Ron Burkey <info@sandroid.org>.
000018:                                                                                                  ## Website:     www.ibiblio.org/apollo.
000019:                                                                                                  ## Pages:       490-491
000020:                                                                                                  ## Mod history: 2009-05-17 RSB  Adapted from the corresponding
000021:                                                                                                  ##                              Luminary131 file, using page
000022:                                                                                                  ##                              images from Luminary 1A.
000023:                                                                                                  ##              2016-12-14 RSB  Proofed text comments with octopus/ProoferComments
000024:                                                                                                  ##                              and corrected the errors found.
000025:                                                                                                  ##              2017-08-01 MAS  Created from LMY99 Rev 1.
000026:
000027:                                                                                                  ## This source code has been transcribed or otherwise adapted from
000028:                                                                                                  ## digitized images of a hardcopy from the MIT Museum.  The digitization
000029:                                                                                                  ## was performed by Paul Fjeld, and arranged for by Deborah Douglas of
000030:                                                                                                  ## the Museum.  Many thanks to both.  The images (with suitable reduction
000031:                                                                                                  ## in storage size and consequent reduction in image quality as well) are
000032:                                                                                                  ## available online at www.ibiblio.org/apollo.  If for some reason you
000033:                                                                                                  ## find that the images are illegible, contact me at info@sandroid.org
000034:                                                                                                  ## about getting access to the (much) higher-quality images which Paul
000035:                                                                                                  ## actually created.
000036:                                                                                                  ##
000037:                                                                                                  ## The code has been modified to match LMY99 Revision 0, otherwise
000038:                                                                                                  ## known as Luminary Revision 99, the Apollo 11 software release preceeding
000039:                                                                                                  ## the listing from which it was transcribed. It has been verified to
000040:                                                                                                  ## contain the same bank checksums as AGC developer Allan Klumpp's listing
000041:                                                                                                  ## of Luminary Revision 99 (for which we do not have scans).
000042:                                                                                                  ##
000043:                                                                                                  ## Notations on Allan Klumpp's listing read, in part:
000044:                                                                                                  ##
000045:                                                                                                  ##      ASSEMBLE REVISION 099 OF AGC PROGRAM LUMINARY BY NASA 2021112-51
000046:


000048: 25,2003                                           BANK     25
000049: 25,2000                                           SETLOC   RRLEADIN
000050: 25,2000                                           BANK
000051:
000052: 25,2003  E4,1600                                  EBANK=   RSTACK
000053:
000054:                                                                                                  #  RADAR SAMPLING LOOP.
000055:
000056: 25,2003                                           COUNT*   $$/RLEAD
000057: 25,2003           11755        RADSAMP            CCS      RSAMPDT                               #  TIMES NORMAL ONCE-PER-SECOND SAMPLING.
000058: 25,2004           12006                           TCF      +2
000059: 25,2005           15261                           TCF      TASKOVER                              #  +0 INSERTED MANUALLY TERMINATES TEST.
000060:
000061: 25,2006           05203                           TC       WAITLIST
000062: 25,2007  E4,1600                                  EBANK=   RSTACK
000063: 25,2007           02003 52064                     2CADR    RADSAMP
000064:
000065: 25,2011           37713                           CAF      PRIO25
000066: 25,2012           05072                           TC       NOVAC
000067: 25,2013  E4,1600                                  EBANK=   RSTACK
000068: 25,2013           02023 52064                     2CADR    DORSAMP
000069:
000070: 25,2015           34736                           CAF      BIT14                                 #  FOR CYCLIC SAMPLING, RTSTDEX=
000071: 25,2016           00006                           EXTEND                                         #  RTSTLOC/2 + RTSTBASE
000072: 25,2017           71754                           MP       RTSTLOC
000073: 25,2020           61753                           AD       RTSTBASE                              #  0 FOR RR, 2 FOR LR.
000074: 25,2021           55751                           TS       RTSTDEX
000075: 25,2022           15261                           TCF      TASKOVER
000076:
000077:                                                                                                  #  DO THE ACTUAL RADAR SAMPLE.
000078:
000079: 25,2023           02047        DORSAMP            TC       VARADAR                               #  SELECTS VARIABLE RADAR CHANNEL.
000080: 25,2024           04616                           TC       BANKCALL
000081: 25,2025           17714                           CADR     RADSTALL
000082:
000083: 25,2026           25756                           INCR     RFAILCNT                              #  ADVANCE FAIL COUNTER BUT ACCEPT BAD DATA
000084:
000085: 25,2027           00004        DORSAMP2           INHINT
000086: 25,2030           30101                           CA       FLAGWRD5                              #  DON'T UPDATE RSTACK IF IN R77.
000087: 25,2031           74741                           MASK     R77FLBIT
000088: 25,2032           10000                           CCS      A
000089: 25,2033           12037                           TCF      +4
000090:
000091: 25,2034           53102                           DXCH     SAMPLSUM
000092: 25,2035           51754                           INDEX    RTSTLOC
000093: 25,2036           53601                           DXCH     RSTACK
000094:
000095: 25,2037           41754                           CS       RTSTLOC                               #  CYCLE RTSTLOC.
000096: 25,2040           61752                           AD       RTSTMAX
000097: 25,2041           00006                           EXTEND
000098:


000100: 25,2042           12045                           BZF      +3
000101: 25,2043           31754                           CA       RTSTLOC
000102: 25,2044           64752                           AD       TWO                                   #  STORAGE IS DP
000103: 25,2045           55754                           TS       RTSTLOC
000104: 25,2046           15155                           TCF      ENDOFJOB                              #  CONTINUOUS SAMPLING AND 2N TRIES - GONE.
000105:
000106:                                                                                                  #  VARIABLE RADAR DATA CALLER FOR ONE MEASUREMENT ONLY.
000107:
000108: 25,2047           34753        VARADAR            CAF      ONE                                   #  WILL BE SENT TO RADAR ROUTINE IN A BY
000109: 25,2050           54133                           TS       BUF2                                  #  SWCALL.
000110: 25,2051           51751                           INDEX    RTSTDEX
000111: 25,2052           32054                           CAF      RDRLOCS
000112: 25,2053           14622                           TCF      SWCALL                                #  NOT TOUCHING Q.
000113:
000114: 25,2054           53105        RDRLOCS            CADR     RRRANGE                               #  = 0
000115: 25,2055           53103                           CADR     RRRDOT                                #  = 1
000116: 25,2056           53101                           CADR     LRVELX                                #  = 2
000117: 25,2057           53077                           CADR     LRVELY                                #  = 3
000118: 25,2060           53075                           CADR     LRVELZ                                #  = 4
000119: 25,2061           53073                           CADR     LRALT                                 #  = 5
000120:
000121:

End of include-file RADAR_LEADIN_ROUTINES.agc.  Parent file is MAIN.agc


