
Source Code


000002:                                                                                                  ## Copyright:   Public domain.
000003:                                                                                                  ## Filename:    RESTART_TABLES.agc
000004:                                                                                                  ## Purpose:     Part of the reconstructed source code for LMY99 Rev 0,
000005:                                                                                                  ##              otherwise known as Luminary Rev 99, the second release
000006:                                                                                                  ##              of the Apollo Guidance Computer (AGC) software for Apollo 11.
000007:                                                                                                  ##              It differs from LMY99 Rev 1 (the flown version) only in the
000008:                                                                                                  ##              placement of a single label. The corrections shown here have
000009:                                                                                                  ##              been verified to have the same bank checksums as AGC developer
000010:                                                                                                  ##              Allan Klumpp's copy of Luminary Rev 99, and so are believed
000011:                                                                                                  ##              to be accurate. This file is intended to be a faithful
000012:                                                                                                  ##              recreation, except that the code format has been changed to
000013:                                                                                                  ##              conform to the requirements of the yaYUL assembler rather than
000014:                                                                                                  ##              the original YUL assembler.
000015:                                                                                                  ##
000016:                                                                                                  ## Assembler:   yaYUL
000017:                                                                                                  ## Contact:     Ron Burkey <info@sandroid.org>.
000018:                                                                                                  ## Website:     www.ibiblio.org/apollo.
000019:                                                                                                  ## Pages:       238-243
000020:                                                                                                  ## Mod history: 2009-05-10 SN  (Sergio Navarro).  Started adapting
000021:                                                                                                  ##                              from the Luminary131/ file of the same
000022:                                                                                                  ##                              name, using Luminary099 page images.
000023:                                                                                                  ##              2016-12-13 RSB  Proofed text comments with octopus/ProoferComments
000024:                                                                                                  ##                              and corrected the errors found.  Made some
000025:                                                                                                  ##                              P00 fixes.
000026:                                                                                                  ##              2017-02-08 RSB  Comment-text fixes identified while proofing Artemis 72.
000027:                                                                                                  ##              2017-08-01 MAS  Created from LMY99 Rev 1.
000028:
000029:                                                                                                  ## This source code has been transcribed or otherwise adapted from
000030:                                                                                                  ## digitized images of a hardcopy from the MIT Museum.  The digitization
000031:                                                                                                  ## was performed by Paul Fjeld, and arranged for by Deborah Douglas of
000032:                                                                                                  ## the Museum.  Many thanks to both.  The images (with suitable reduction
000033:                                                                                                  ## in storage size and consequent reduction in image quality as well) are
000034:                                                                                                  ## available online at www.ibiblio.org/apollo.  If for some reason you
000035:                                                                                                  ## find that the images are illegible, contact me at info@sandroid.org
000036:                                                                                                  ## about getting access to the (much) higher-quality images which Paul
000037:                                                                                                  ## actually created.
000038:                                                                                                  ##
000039:                                                                                                  ## The code has been modified to match LMY99 Revision 0, otherwise
000040:                                                                                                  ## known as Luminary Revision 99, the Apollo 11 software release preceeding
000041:                                                                                                  ## the listing from which it was transcribed. It has been verified to
000042:                                                                                                  ## contain the same bank checksums as AGC developer Allan Klumpp's listing
000043:                                                                                                  ## of Luminary Revision 99 (for which we do not have scans).
000044:                                                                                                  ##
000045:                                                                                                  ## Notations on Allan Klumpp's listing read, in part:
000046:                                                                                                  ##
000047:                                                                                                  ##      ASSEMBLE REVISION 099 OF AGC PROGRAM LUMINARY BY NASA 2021112-51
000048:


000050:                                                                                                  #  RESTART TABLES
000051:                                                                                                  #  ------------------
000052:
000053:                                                                                                  #  THERE ARE TWO FORMS OF RESTART TABLES FOR EACH GROUP.  THEY ARE KNOWN AS THE EVEN RESTART TABLES AND THE ODD
000054:                                                                                                  #  RESTART TABLES.  THE ODD TABLES HAVE ONLY ONE ENTRY OF THREE LOCATIONS WHILE THE EVEN TABLES HAVE TWO ENTRIES
000055:                                                                                                  #  EACH USING THREE LOCATIONS.  THE INFORMATION AS TO WHETHER IT IS A JOB, WAITLIST, OR A LONGCALL IS GIVEN BY THE
000056:                                                                                                  #  WAY THINGS ARE PUT IN TO THE TABLES.
000057:
000058:                                                                                                  #       A JOB HAS ITS PRIORITY STORED IN PRDTTAB OF THE CORRECT PHASE SPOT - A POSITIVE PRIORITY INDICATES A
000059:                                                                                                  #  FINDVAC JOB, A NEGATIVE PRIORITY A NOVAC.  THE 2CADR OF THE JOB IS STORED IN THE CADRTAB.
000060:                                                                                                  #  FOR EXAMPLE,
000061:
000062:                                                                                                  #                5.7SPOT         OCT     23000
000063:                                                                                                  #                                2CADR   SOMEJOB
000064:
000065:                                                                                                  #  A RESTART OF GROUP 5 WITH PHASE SEVEN WOULD THEN CAUSE SOMEJOB TO BE RESTARTED AS A FINDVAC WITH PRIORITY 23.
000066:
000067:                                                                                                  #                5.5SPOT         OCT     -23000
000068:                                                                                                  #                                2CADR   ANYJOB
000069:
000070:                                                                                                  #  HERE A RESTART OF GROUP 5 WITH PHASE 7 WOULD CAUSE ANYJOB TO BE RESTARTED AS A NOVAC WITH PRIORITY 23.
000071:                                                                                                  #  A LONGCALL HAS ITS GENADR OF ITS 2CADR STORED NEGATIVELY AND ITS BBCON STORED POSITIVELY.  IN ITS PRDTTAB IS
000072:                                                                                                  #  PLACED THE LOCATION OF A DP REGISTER THAT CONTAINS THE DELTA TIME THAT LONGCALL HAD BEEN ORIGINALLY STARTED
000073:                                                                                                  #  WITH.  EXAMPLE,
000074:
000075:                                                                                                  #                3.6SPOT         GENADR  DELTAT
000076:                                                                                                  #                                -GENADR LONGTASK
000077:                                                                                                  #                                BBCON   LONGTASK
000078:                                                                                                  #                                OCT     31000
000079:                                                                                                  #                                2CADR   JOBAGAIN
000080:
000081:                                                                                                  #  THIS WOULD START UP LONGTASK AT THE APPROPRIATE TIME, OR IMMEDIATELY IF THE TIME HAD ALREADY PASSED.  IT SHOULD
000082:                                                                                                  #  BE NOTED THAT IF DELTAT IS IN A SWITCHED E BANK, THIS INFORMATOIN SHOULD BE IN THE BBCON OF THE 2CADR OF THE
000083:                                                                                                  #  TASK.  FROM ABOVE, WE SEE THAT THE SECOND PART OF THIS PHASE WOULD BE STARTED AS A JOB WITH A PRIORITY OF 31.
000084:
000085:                                                                                                  #  WAITLIST CALLS ARE IDENTIFIED BY THE FACT THAT THEIR 2CADR IS STORED NEGATIVELY.  IF PRDTTAB OF THE PHASE SPOT
000086:                                                                                                  #  IS POSITIVE, THEN IT CONTAINS THE DELTA TIME, IF PRDTTAB IS NEGATIVE THEN IT IS THE -GENADR OF AN ERASABLE
000087:                                                                                                  #  LOCATION CONTAINING THE DELTA TIME, THAT IS, THE TIME IS STORED INDIRECTLY.  IT SHOULD BE NOTED AS ABOVE, THAT
000088:                                                                                                  #  IF THE TIME IS STORED INDIRECTLY, THE BBCON MUST CONTAIN THE NECESSARY E BANK INFORMATION IF APPLICABLE.  WITH
000089:                                                                                                  #  WAITLIST WE HAVE ONE FURTHER OPTION, IF -0 IS STORED IN PRDTTAB, IT WILL CAUSE AN IMMEDIATE RESTART OF THE
000090:                                                                                                  #  TASK.  EXAMPLES,
000091:
000092:                                                                                                  #                                OCT     77777           THIS WILL CAUSE AN IMMEDIATE RESTART
000093:                                                                                                  #                                -2CADR  ATASK           OF THE TASK :ATASK:
000094:                                                                                                  #
000095:                                                                                                  #                                DEC     200             IF THE TIME OF THE 2 SECONDS SINCE DUMMY
000096:                                                                                                  #                                -2CADR  DUMMY           WAS PUT ON WAITLIST IS UP, IT WILL BEGIN
000097:                                                                                                  #                                                        IN 10 MS, OTHERWISE IT WILL BEGIN WHEN
000098:                                                                                                  #                                                        IT NORMALLY WOULD HAVE BEGUN.


000100:                                                                                                  #                                -GENADR DTIME           WHERE DTIME CONTAINS THE DELTA TIME
000101:                                                                                                  #                                -2CADR  TASKTASK        OTHERWISE THIS IS AS ABOVE
000102:
000103:                                                                                                  #  ***** NOW THE TABLES THEMSELVES *****
000104:
000105: 01,2002                                           BANK     01
000106: 01,2000                                           SETLOC   RESTART
000107: 01,2000                                           BANK
000108:
000109: 01,2002                        PRDTTAB            EQUALS   12000                                 #  USED TO FIND THE PRIORITY OR DELTATIME
000110: 01,2002                        CADRTAB            EQUALS   12001                                 #  THIS AND THE NEXT RELATIVE LOC CONTAIN
000111:                                                                                                  #  RESTART 2CADR
000112:
000113: 01,2002                                           COUNT*   $$/RSTAB                              #  TABLES IN BANK 1.
000114: 01,2002           00010        SIZETAB            TC       1.2SPOT    -12006
000115: 01,2003           00020                           TC       1.3SPOT    -12004
000116: 01,2004           00010                           TC       2.2SPOT    -12006
000117: 01,2005           00023                           TC       2.3SPOT    -12004
000118: 01,2006           00010                           TC       3.2SPOT    -12006
000119: 01,2007           00053                           TC       3.3SPOT    -12004
000120: 01,2010           00057                           TC       4.2SPOT    -12006
000121: 01,2011           00067                           TC       4.3SPOT    -12004
000122: 01,2012           00142                           TC       5.2SPOT    -12006
000123: 01,2013           00160                           TC       5.3SPOT    -12004
000124: 01,2014           00010                           TC       6.2SPOT    -12006
000125: 01,2015           00171                           TC       6.3SPOT    -12004
000126: 01,2016           21000        1.2SPOT            OCT      21000                                 #  A DUMMY EXAMPLE TO BE REPLACED AS SOON
000127: 01,2017     0074                                  EBANK=   STATE
000128: 01,2017           05155 04060                     2CADR    ENDOFJOB                              #  AS THERE IS A LEGITIMATE 1.2SPOT
000129:
000130: 01,2021           00144                           DEC      100        B-14
000131: 01,2022     0074                                  EBANK=   STATE
000132: 01,2022           05261 04060                     2CADR    TASKOVER
000133:
000134:                                                                                                  #  ANY MORE GROUP 1.EVEN RESTART VALUES SHOULD GO HERE
000135:
000136: 01,2024           76300        1.3SPOT            -GENADR  SAVET-30
000137: 01,2025  E7,1515                                  EBANK=   DVCNTR
000138: 01,2025           75431 03710                     -2CADR   ULLGTASK
000139:
000140:                                                                                                  #  ANY MORE GROUP 1.ODD RESTART VALUES SHOULD GO HERE
000141:
000142: 01,2027  01,2016               2.2SPOT            EQUALS   1.2SPOT
000143:
000144:                                                                                                  #  ANY MORE GROUP 2.EVEN RESTART VALUES SHOULD GO HERE
000145:
000146: 01,2027           02630        2.3SPOT            GENADR   600SECS
000147:
000148: 01,2030           75173                           -GENADR  STATEINT
000149: 01,2031  E3,1554                                  EBANK=   RRECTCSM
000150: 01,2031           26063                           BBCON    STATEINT
000151:


000153: 01,2032           05000        2.5SPOT            OCT      05000
000154: 01,2033  E3,1554                                  EBANK=   RRECTCSM
000155: 01,2033           02613 26063                     2CADR    STATINT1
000156:
000157: 01,2035           02734        2.7SPOT            DEC      1500       B-14
000158: 01,2036  E7,1456                                  EBANK=   LOSCOUNT
000159: 01,2036           75533 27710                     -2CADR   P20LEMC1
000160:
000161: 01,2040           14000        2.11SPOT           OCT      14000
000162: 01,2041  E7,1762                                  EBANK=   P21TIME
000163: 01,2041           02416 50067                     2CADR    P25LEM1
000164:
000165: 01,2043           10000        2.13SPOT           OCT      10000
000166: 01,2044  E7,1456                                  EBANK=   LOSCOUNT
000167: 01,2044           02217 54067                     2CADR    RELINUS
000168:
000169: 01,2046           26000        2.15SPOT           OCT      26000
000170: 01,2047  E7,1456                                  EBANK=   LOSCOUNT
000171: 01,2047           02653 50067                     2CADR    R22RSTRT
000172:
000173: 01,2051           77777        2.17SPOT           OCT      77777
000174: 01,2052  E7,1700                                  EBANK=   VGPREV
000175: 01,2052           75440 03710                     -2CADR   REDO2.17
000176:
000177: 01,2054           00031        2.21SPOT           DEC      25         B-14
000178: 01,2055  E7,1515                                  EBANK=   DVCNTR
000179: 01,2055           75771 35710                     -2CADR   R10,R11
000180:
000181:                                                                                                  #  ANY MORE GROUP 2.ODD RESTART VALUES SHOULD GO HERE.
000182:
000183: 01,2057  01,2016               3.2SPOT            EQUALS   1.2SPOT
000184:
000185:                                                                                                  #  ANY MORE GROUP 3.EVEN RESTART VALUES SHOULD GO HERE
000186:
000187: 01,2057           76355        3.3SPOT            -GENADR  ZOOMTIME
000188: 01,2060  E7,1515                                  EBANK=   DVCNTR
000189: 01,2060           75755 41710                     -2CADR   ZOOM
000190:
000191: 01,2062           20000        3.5SPOT            OCT      20000
000192: 01,2063  E7,1453                                  EBANK=   TTOGO
000193: 01,2063           02540 56067                     2CADR    S40.13
000194:
000195:                                                                                                  #  ANY MORE GROUP 3.ODD RESTART VALUES SHOULD GO HERE
000196:
000197: 01,2065           04704        4.2SPOT            DEC      2500       B-14
000198: 01,2066  E7,1453                                  EBANK=   TTOGO
000199:
000200: 01,2066           75425 03710                     -2CADR   TIG-5
000201:
000202: 01,2070           77777                           OCT      77777
000203: 01,2071  E7,1453                                  EBANK=   TTOGO


000205: 01,2071           75435 03710                     -2CADR   REDO4.2
000206:
000207:                                                                                                  #  ANY MORE GROUP 4.EVEN RESTART VALUES SHOULD GO HERE
000208:
000209: 01,2073           25000        4.3SPOT            OCT      25000
000210: 01,2074  E7,1515                                  EBANK=   DVCNTR
000211: 01,2074           03540 64067                     2CADR    GOABORT
000212:
000213: 01,2076           00062        4.5SPOT            DEC      50         B-14
000214: 01,2077  E7,1453                                  EBANK=   TTOGO
000215: 01,2077           75215 03710                     -2CADR   ULLAGOFF
000216:
000217: 01,2101           00764        4.7SPOT            DEC      500        B-14
000218: 01,2102  E7,1515                                  EBANK=   DVCNTR
000219: 01,2102           75374 03710                     -2CADR   TIG-0
000220:
000221: 01,2104           76260        4.11SPOT           -GENADR  TGO        +1
000222: 01,2105  E7,1515                                  EBANK=   DVCNTR
000223: 01,2105           74235 03710                     -2CADR   ENGOFTSK
000224:
000225: 01,2107           12000        4.13SPOT           OCT      12000
000226: 01,2110  E7,1462                                  EBANK=   TRKMKCNT
000227: 01,2110           03223 74067                     2CADR    POSTBURN
000228:
000229: 01,2112           00764        4.15SPOT           DEC      500        B-14
000230: 01,2113  E7,1453                                  EBANK=   TTOGO
000231: 01,2113           75501 03710                     -2CADR   TIG-30
000232:
000233: 01,2115           77777        4.17SPOT           OCT      77777
000234: 01,2116  E7,1515                                  EBANK=   DVCNTR
000235: 01,2116           75425 03710                     -2CADR   TIG-5
000236:
000237: 01,2120           13000        4.21SPOT           OCT      13000
000238: 01,2121  E5,1730                                  EBANK=   STAR
000239: 01,2121           03020 30065                     2CADR    R51.1      +1
000240:
000241: 01,2123           77777        4.23SPOT           OCT      77777
000242: 01,2124  E7,1515                                  EBANK=   DVCNTR
000243: 01,2124           75351 03710                     -2CADR   IGNITION
000244:
000245: 01,2126           01477        4.25SPOT           GENADR   SAVET-30
000246: 01,2127           75537                           -GENADR  TIG-35
000247: 01,2130  E7,1477                                  EBANK=   SAVET-30
000248: 01,2130           74067                           BBCON    TIG-35
000249:
000250:
000251: 01,2131           52777        4.27SPOT           OCT      52777
000252: 01,2132  E7,1515                                  EBANK=   DVCNTR
000253: 01,2132           02073 42067                     2CADR    P70A


000255: 01,2134           52777        4.31SPOT           OCT      52777
000256: 01,2135  E7,1515                                  EBANK=   DVCNTR
000257: 01,2135           02076 42067                     2CADR    P71A
000258:
000259: 01,2137           46777        4.33SPOT           OCT      46777
000260: 01,2140  E7,1515                                  EBANK=   DVCNTR
000261: 01,2140           02024 10067                     2CADR    GOPOOFIX
000262:
000263: 01,2142           46777        4.35SPOT           OCT      46777
000264: 01,2143  E7,1515                                  EBANK=   DVCNTR
000265: 01,2143           05665 04067                     2CADR    GOPOODOO
000266:
000267: 01,2145           52777        4.37SPOT           OCT      52777
000268: 01,2146  E7,1455                                  EBANK=   WHICH
000269: 01,2146           02571 74067                     2CADR    COMFAIL
000270:
000271:                                                                                                  #  ANY MORE 4.ODD RESTART VALUES SHOULD GO HERE.
000272: 01,2150           22000        5.2SPOT            OCT      22000
000273: 01,2151  E7,1515                                  EBANK=   DVCNTR
000274: 01,2151           02461 46067                     2CADR    NORMLIZE
000275:
000276: 01,2153           00310                           DEC      200        B-14
000277: 01,2154  E7,1515                                  EBANK=   DVCNTR
000278: 01,2154           74163 01710                     -2CADR   REREADAC
000279:
000280: 01,2156           00310        5.4SPOT            DEC      200        B-14
000281: 01,2157  E7,1515                                  EBANK=   DVCNTR
000282: 01,2157           74163 01710                     -2CADR   REREADAC
000283:
000284: 01,2161           20000                           OCT      20000
000285: 01,2162  E7,1515                                  EBANK=   DVCNTR
000286: 01,2162           02206 66067                     2CADR    SERVICER
000287:
000288:                                                                                                  #  ANY MORE GROUP 5.EVEN RESTART VALUES SHOULD GO HERE
000289:
000290: 01,2164           00310        5.3SPOT            DEC      200        B-14
000291: 01,2165  E7,1515                                  EBANK=   DVCNTR
000292: 01,2165           74163 01710                     -2CADR   REREADAC
000293:
000294: 01,2167           77777        5.5SPOT            OCT      77777
000295: 01,2170  E7,1515                                  EBANK=   DVCNTR
000296: 01,2170           74324 01710                     -2CADR   REDO5.5
000297:
000298: 01,2172           77777        5.7SPOT            OCT      77777
000299: 01,2173  E7,1515                                  EBANK=   DVCNTR


000301: 01,2173           74361 01710                     -2CADR   BIBIBIAS
000302:
000303:                                                                                                  #  ANY MORE GROUP 5.ODD RESTART VALUES SHOULD GO HERE
000304:
000305: 01,2175  01,2016               6.2SPOT            EQUALS   1.2SPOT
000306: 01,2175           00144        6.3SPOT            DEC      100        B-14
000307: 01,2176  E7,1441                                  EBANK=   TIG
000308: 01,2176           75060 03710                     -2CADR   CLOKTASK
000309:
000310: 01,2200           30000        6.5SPOT            OCT      30000                                 #  PROTECT INCREMENTING OF TIME2,TIME1 BY
000311: 01,2201  E3,1706                                  EBANK=   TEPHEM                                #  P27(UPDATE PROGRAM) VIA V70 OR V73.
000312: 01,2201           03601 10063                     2CADR    TIMEDIDR
000313:
000314: 01,2203           17000        6.7SPOT            OCT      17000
000315: 01,2204  E7,1700                                  EBANK=   VGPREV
000316: 01,2204           03350 74067                     2CADR    REDO6.7
000317:
000318:

End of include-file RESTART_TABLES.agc.  Parent file is MAIN.agc


