
Source Code


000002:                                                                                                  ## Copyright:   Public domain.
000003:                                                                                                  ## Filename:    S-BAND_ANTENNA_FOR_LM.agc
000004:                                                                                                  ## Purpose:     Part of the reconstructed source code for LMY99 Rev 0,
000005:                                                                                                  ##              otherwise known as Luminary Rev 99, the second release
000006:                                                                                                  ##              of the Apollo Guidance Computer (AGC) software for Apollo 11.
000007:                                                                                                  ##              It differs from LMY99 Rev 1 (the flown version) only in the
000008:                                                                                                  ##              placement of a single label. The corrections shown here have
000009:                                                                                                  ##              been verified to have the same bank checksums as AGC developer
000010:                                                                                                  ##              Allan Klumpp's copy of Luminary Rev 99, and so are believed
000011:                                                                                                  ##              to be accurate. This file is intended to be a faithful
000012:                                                                                                  ##              recreation, except that the code format has been changed to
000013:                                                                                                  ##              conform to the requirements of the yaYUL assembler rather than
000014:                                                                                                  ##              the original YUL assembler.
000015:                                                                                                  ##
000016:                                                                                                  ## Assembler:   yaYUL
000017:                                                                                                  ## Contact:     Ron Burkey <info@sandroid.org>.
000018:                                                                                                  ## Website:     www.ibiblio.org/apollo.
000019:                                                                                                  ## Pages:       486-489
000020:                                                                                                  ## Mod history: 2009-05-17 RSB  Adapted from the corresponding
000021:                                                                                                  ##                              Luminary131 file, using page
000022:                                                                                                  ##                              images from Luminary 1A.
000023:                                                                                                  ##              2009-06-07 RSB  Corrected a misprint.
000024:                                                                                                  ##              2016-12-14 RSB  Proofed text comments with octopus/ProoferComments
000025:                                                                                                  ##                              and corrected the errors found.
000026:                                                                                                  ##              2017-08-01 MAS  Created from LMY99 Rev 1.
000027:
000028:                                                                                                  ## This source code has been transcribed or otherwise adapted from
000029:                                                                                                  ## digitized images of a hardcopy from the MIT Museum.  The digitization
000030:                                                                                                  ## was performed by Paul Fjeld, and arranged for by Deborah Douglas of
000031:                                                                                                  ## the Museum.  Many thanks to both.  The images (with suitable reduction
000032:                                                                                                  ## in storage size and consequent reduction in image quality as well) are
000033:                                                                                                  ## available online at www.ibiblio.org/apollo.  If for some reason you
000034:                                                                                                  ## find that the images are illegible, contact me at info@sandroid.org
000035:                                                                                                  ## about getting access to the (much) higher-quality images which Paul
000036:                                                                                                  ## actually created.
000037:                                                                                                  ##
000038:                                                                                                  ## The code has been modified to match LMY99 Revision 0, otherwise
000039:                                                                                                  ## known as Luminary Revision 99, the Apollo 11 software release preceeding
000040:                                                                                                  ## the listing from which it was transcribed. It has been verified to
000041:                                                                                                  ## contain the same bank checksums as AGC developer Allan Klumpp's listing
000042:                                                                                                  ## of Luminary Revision 99 (for which we do not have scans).
000043:                                                                                                  ##
000044:                                                                                                  ## Notations on Allan Klumpp's listing read, in part:
000045:                                                                                                  ##
000046:                                                                                                  ##      ASSEMBLE REVISION 099 OF AGC PROGRAM LUMINARY BY NASA 2021112-51
000047:


000049:                                                                                                  #  SUBROUTINE NAME: R05 - S-BAND ANTENNA FOR LM
000050:
000051:                                                                                                  #  MOD0 BY T. JAMES
000052:                                                                                                  #  MOD1 BY P. SHAKIR
000053:
000054:                                                                                                  #  FUNCTIONAL DESCRIPTION
000055:
000056:                                                                                                  #  THE S-BAND ANTENNA ROUTINE, R05, COMPUTES AND DISPLAYS THE PITCH AND
000057:                                                                                                  #  YAW ANTENNA GIMBAL ANGLES REQUIRED TO POINT THE LM STEERABLE ANTENNA
000058:                                                                                                  #  TOWARD THE CENTER OF THE EARTH.  THIS ROUTINE IS SELECTED BY THE ASTRO-
000059:                                                                                                  #  NAUT VIA DSKY ENTRY DURING COASTING FLIGHT OR WHEN THE LM IS ON THE MOON
000060:                                                                                                  #  SURFACE.  THE EARTH OR MOON REFERENCE COORDINATE SYSTEM IS USED DEPENDING
000061:                                                                                                  #  ON WHETHER THE LM IS ABOUT TO ENTER OR HAS ALREADY ENTERED THE MOON
000062:                                                                                                  #  SPHERE OF INFLUENCE, RESPECTIVELY
000063:
000064:                                                                                                  #  TO CALL SUBROUTINE, ASTRONAUT KEYS IN V 64 E
000065:
000066:                                                                                                  #  SUBROUTINES CALLED -
000067:                                                                                                  #        R02BOTH
000068:                                                                                                  #        INTPRET
000069:                                                                                                  #        LOADTIME
000070:                                                                                                  #        LEMCONIC
000071:                                                                                                  #        LUNPOS
000072:                                                                                                  #        CDUTRIG
000073:                                                                                                  #        *SMNB*
000074:                                                                                                  #        BANKCALL
000075:                                                                                                  #        B5OFF
000076:                                                                                                  #        ENDOFJOB
000077:                                                                                                  #        BLANKET
000078:
000079:                                                                                                  #  RETURNS WITH
000080:                                                                                                  #        PITCH ANGLE IN PITCHANG         REV. B0
000081:                                                                                                  #        YAW ANGLE IN YAWANG             REV. B0
000082:
000083:                                                                                                  #  ERASABLES USED
000084:                                                                                                  #        PITCHANG
000085:                                                                                                  #        YAWANG
000086:                                                                                                  #        RLM
000087:                                                                                                  #        VAC AREA
000088:
000089: 41,3731                                           BANK     41
000090: 42,2000                                           SETLOC   SBAND
000091: 42,2000                                           BANK
000092:
000093: 42,3606  E7,1471                                  EBANK=   WHOCARES
000094: 42,3606                                           COUNT*   $$/R05
000095: 42,3606           04616        SBANDANT           TC       BANKCALL


000097: 42,3607           11254                           CADR     R02BOTH                               #  CHECK IF IMU IS ON AND ALIGNED
000098: 42,3610           06037                           TC       INTPRET
000099: 42,3611           47001                           SETPD    RTB
000100: 42,3612           00001                                    0D
000101: 42,3613           21573                                    LOADTIME                              #  PICK UP CURRENT TIME
000102: 42,3614           34041                           STCALL   TDEC1                                 #  ADVANCE INTEGRATION TO TIME IN TDEC1
000103: 42,3615           27100                                    LEMCONIC                              #  USING CONIC INTEGRATION
000104: 42,3616           46135                           SLOAD    BHIZ
000105: 42,3617           00050                                    X2                                    #  X2 =0 EARTH SPHERE, X2 =2 MOON SPHERE
000106: 42,3620           65636                                    CONV4
000107: 42,3621           77775                           VLOAD
000108: 42,3622           00001                                    RATT
000109: 42,3623           16205                           STODL    RLM
000110: 42,3624           00015                                    TAT
000111: 42,3625           77624        CONV3              CALL
000112: 42,3626           33664                                    LUNPOS                                #  UNIT POSITION VECTOR FROM EARTH TO MOON
000113: 42,3627           74375                           VLOAD    VXSC
000114: 42,3630           02723                                    VMOON
000115: 42,3631           24001                                    REMDIST                               #  MEAN DISTANCE FROM EARTH TO MOON
000116: 42,3632           53372                           VSL1     VAD
000117: 42,3633           02205                                    RLM
000118: 42,3634           77650                           GOTO
000119: 42,3635           65640                                    CONV5
000120: 42,3636           77775        CONV4              VLOAD
000121: 42,3637           00001                                    RATT                                  #  UE = -UNIT(RATT)              EARTH SPHERE
000122: 42,3640           53401        CONV5              SETPD    UNIT                                  #  UE = -UNIT((REM)(UEM) + RL)   MOON SPHERE
000123: 42,3641           00001                                    0D                                    #  SET PL POINTER TO 0
000124: 42,3642           45076                           VCOMP    CALL
000125: 42,3643           47537                                    CDUTRIG                               #  COMPUTE SINES AND COSINES OF CDU ANGLES
000126: 42,3644           76521                           MXV      VSL1                                  #  TRANSFORM REF. COORDINATE SYSTEM TO
000127: 42,3645           01734                                    REFSMMAT                              #  STABLE MEMBER B-1 X B-1 X B+1 = B-1
000128: 42,3646           71206                           PUSH     DLOAD                                 #  8D
000129: 42,3647           06522                                    HI6ZEROS
000130: 42,3650           02201                           STORE    PITCHANG
000131: 42,3651           26203                           STOVL    YAWANG                                #  ZERO OUT ANGLES
000132: 42,3652           77624                           CALL
000133: 42,3653           47671                                    *SMNB*
000134: 42,3654           16205                           STODL    RLM                                   #  PRE-MULTIPLY RLM BY (NBSA) MATRIX(B0)
000135: 42,3655           02207                                    RLM        +2
000136: 42,3656           45206                           PUSH     DSU
000137: 42,3657           02205                                    RLM
000138: 42,3660           77605                           DMP
000139: 42,3661           25771                                    1OVSQRT2
000140: 42,3662           16207                           STODL    RLM        +2
000141: 42,3663           41215                           DAD      DMP
000142: 42,3664           02205                                    RLM
000143: 42,3665           25771                                    1OVSQRT2
000144: 42,3666           26205                           STOVL    RLM                                   #  R B-1
000145: 42,3667           02205                                    RLM
000146: 42,3670           63256                           UNIT     PDVL


000148: 42,3671           02205                                    RLM
000149: 42,3672           72431                           VPROJ    VSL2                                  #  PROJECTION OF R ONTO LM XZ PLANE
000150: 42,3673           06516                                    HIUNITY
000151: 42,3674           40045                           BVSU     BOV                                   #  CLEAR OVERFLOW INDICATOR IF ON
000152: 42,3675           02205                                    RLM
000153: 42,3676           65677                                    COVCNV
000154: 42,3677           40056        COVCNV             UNIT     BOV                                   #  EXIT ON OVERFLOW
000155: 42,3700           65745                                    SBANDEX
000156: 42,3701           47206                           PUSH     VXV                                   #  URP VECTOR B-1
000157: 42,3702           06514                                    HIUNITZ
000158: 42,3703           57572                           VSL1     VCOMP                                 #  UZ X URP = -(URP X UZ)
000159: 42,3704           02205                           STORE    RLM                                   #  X VEC B-1
000160: 42,3705           63241                           DOT      PDVL                                  #  SGN(X.UY) UNSCALED
000161: 42,3706           06516                                    HIUNITY
000162: 42,3707           02205                                    RLM
000163: 42,3710           75246                           ABVAL    SIGN
000164: 42,3711           77736                           ASIN                                           #  ASIN((SGN(X.UY))ABV(X))       REV B0
000165: 42,3712           26201                           STOVL    PITCHANG
000166: 42,3713           00007                                    URP
000167: 42,3714           51041                           DOT      BPL
000168: 42,3715           06514                                    HIUNITZ
000169: 42,3716           65723                                    NOADJUST                              #  YES, -90 TO +90
000170: 42,3717           45345                           DLOAD    DSU
000171: 42,3720           06520                                    HIDPHALF
000172: 42,3721           02201                                    PITCHANG
000173: 42,3722           02201                           STORE    PITCHANG
000174: 42,3723           47375        NOADJUST           VLOAD    VXV
000175: 42,3724           00001                                    UR                                    #  Z = (UR X URP)
000176: 42,3725           00007                                    URP
000177: 42,3726           77772                           VSL1
000178: 42,3727           16205                           STODL    RLM                                   #  Z VEC B-1
000179: 42,3730           02201                                    PITCHANG
000180: 42,3731           74356                           SIN      VXSC
000181: 42,3732           06514                                    HIUNITZ
000182: 42,3733           71525                           PDDL     COS
000183: 42,3734           02201                                    PITCHANG
000184: 42,3735           52361                           VXSC     VSU
000185: 42,3736           06520                                    HIUNITX                               #  (UX COS ALPHA) - (UZ SIN ALPHA)
000186: 42,3737           63241                           DOT      PDVL                                  #  YAW.Z
000187: 42,3740           02205                                    RLM
000188: 42,3741           02205                                    RLM
000189: 42,3742           75246                           ABVAL    SIGN
000190: 42,3743           77736                           ASIN
000191: 42,3744           02203                           STORE    YAWANG
000192: 42,3745           77776        SBANDEX            EXIT
000193: 42,3746           31044                           CA       EXTVBACT
000194: 42,3747           74747                           MASK     BIT5                                  #  IS BIT5 STILL ON
000195: 42,3750           00006                           EXTEND
000196: 42,3751           15472                           BZF      ENDEXT                                #  NO
000197: 42,3752           35017                           CAF      PRIO5


000199: 42,3753           05146                           TC       PRIOCHNG
000200: 42,3754           33767                           CAF      V06N51                                #  DISPLAY ANGLES
000201: 42,3755           04616                           TC       BANKCALL
000202: 42,3756           20353                           CADR     GOMARKFR
000203: 42,3757           05563                           TC       B5OFF                                 #  TERMINATE
000204: 42,3760           05563                           TC       B5OFF                                 #  PROCEED
000205: 42,3761           05155                           TC       ENDOFJOB                              #  RECYCLE
000206: 42,3762           34751                           CAF      BIT3                                  #  IMMEDIATE RETURN
000207: 42,3763           05464                           TC       BLANKET                               #  BLANK R3
000208: 42,3764           34740                           CAF      PRIO4
000209: 42,3765           05146                           TC       PRIOCHNG
000210: 42,3766           03610                           TC       SBANDANT   +2                         #  YES, CONTINUE DISPLAYING ANGLES
000211: 42,3767           01463        V06N51             VN       0651
000212: 42,3770           26501 07463  1OVSQRT2           2DEC     .7071067815                            #  1/SQRT(2)
000213:
000214: 42,3772                        UR                 EQUALS   0D
000215: 42,3772                        URP                EQUALS   6D
000216: 42,3772  30,2000                                  SBANK=   LOWSUPER
000217:

End of include-file S-BAND_ANTENNA_FOR_LM.agc.  Parent file is MAIN.agc


