
Source Code


000002:                                                                                                  ## Copyright:   Public domain.
000003:                                                                                                  ## Filename:    SERVICE_ROUTINES.agc
000004:                                                                                                  ## Purpose:     Part of the reconstructed source code for LMY99 Rev 0,
000005:                                                                                                  ##              otherwise known as Luminary Rev 99, the second release
000006:                                                                                                  ##              of the Apollo Guidance Computer (AGC) software for Apollo 11.
000007:                                                                                                  ##              It differs from LMY99 Rev 1 (the flown version) only in the
000008:                                                                                                  ##              placement of a single label. The corrections shown here have
000009:                                                                                                  ##              been verified to have the same bank checksums as AGC developer
000010:                                                                                                  ##              Allan Klumpp's copy of Luminary Rev 99, and so are believed
000011:                                                                                                  ##              to be accurate. This file is intended to be a faithful
000012:                                                                                                  ##              recreation, except that the code format has been changed to
000013:                                                                                                  ##              conform to the requirements of the yaYUL assembler rather than
000014:                                                                                                  ##              the original YUL assembler.
000015:                                                                                                  ##
000016:                                                                                                  ## Assembler:   yaYUL
000017:                                                                                                  ## Contact:     Ron Burkey <info@sandroid.org>.
000018:                                                                                                  ## Website:     www.ibiblio.org/apollo.
000019:                                                                                                  ## Pages:       1374-1380
000020:                                                                                                  ## Mod history: 2009-05-10 SN   (Sergio Navarro).  Started adapting
000021:                                                                                                  ##                              from the Luminary131/ file of the same
000022:                                                                                                  ##                              name, using Luminary099 page images.
000023:                                                                                                  ##              2016-12-18 RSB  Proofed text comments with octopus/ProoferComments
000024:                                                                                                  ##                              and corrected the errors found.
000025:                                                                                                  ##              2017-03-16 RSB  Comment-text fixes identified in 5-way
000026:                                                                                                  ##                              side-by-side diff of Luminary 69/99/116/131/210.
000027:                                                                                                  ##              2017-08-01 MAS  Created from LMY99 Rev 1.
000028:
000029:                                                                                                  ## This source code has been transcribed or otherwise adapted from
000030:                                                                                                  ## digitized images of a hardcopy from the MIT Museum.  The digitization
000031:                                                                                                  ## was performed by Paul Fjeld, and arranged for by Deborah Douglas of
000032:                                                                                                  ## the Museum.  Many thanks to both.  The images (with suitable reduction
000033:                                                                                                  ## in storage size and consequent reduction in image quality as well) are
000034:                                                                                                  ## available online at www.ibiblio.org/apollo.  If for some reason you
000035:                                                                                                  ## find that the images are illegible, contact me at info@sandroid.org
000036:                                                                                                  ## about getting access to the (much) higher-quality images which Paul
000037:                                                                                                  ## actually created.
000038:                                                                                                  ##
000039:                                                                                                  ## The code has been modified to match LMY99 Revision 0, otherwise
000040:                                                                                                  ## known as Luminary Revision 99, the Apollo 11 software release preceeding
000041:                                                                                                  ## the listing from which it was transcribed. It has been verified to
000042:                                                                                                  ## contain the same bank checksums as AGC developer Allan Klumpp's listing
000043:                                                                                                  ## of Luminary Revision 99 (for which we do not have scans).
000044:                                                                                                  ##
000045:                                                                                                  ## Notations on Allan Klumpp's listing read, in part:
000046:                                                                                                  ##
000047:                                                                                                  ##      ASSEMBLE REVISION 099 OF AGC PROGRAM LUMINARY BY NASA 2021112-51
000048:


000050: 10,3544                                           BANK     10
000051: 10,2000                                           SETLOC   DISPLAYS
000052: 10,2000                                           BANK
000053: 10,3544                                           COUNT*   $$/DSPLA
000054:
000055: 10,3544           00004        UPENT2             INHINT
000056: 10,3545           75660                           MASK     OCT77770
000057: 10,3546           54001                           TS       L
000058: 10,3547           40100                           CS       FLAGWRD4
000059: 10,3550           70001                           MASK     L
000060: 10,3551           26100                           ADS      FLAGWRD4
000061: 10,3552           00003        JOIN               RELINT
000062: 10,3553           16737                           TCF      Q+1
000063:
000064: 10,3554           00004        DOWNENT2           INHINT
000065: 10,3555           75660                           MASK     OCT77770
000066: 10,3556           40000                           COM
000067: 10,3557           70100                           MASK     FLAGWRD4
000068: 10,3560           54100                           TS       FLAGWRD4
000069: 10,3561           13552                           TCF      JOIN
000070:
000071: 10,3562     4757               OCT7               EQUALS   SEVEN
000072:


000074:                                                                                                  #  UPFLAG AND DOWNFLAG ARE ENTIRELY GENERAL FLAG SETTING AND CLEARING SUBROUTINES.  USING THEM, WHETHER OR
000075:                                                                                                  #  NOT IN INTERRUPT, ONE MAY SET OR CLEAR ANY SINGLE, NAMED BIT IN ANY ERASABLE REGISTER, SUBJECT OF COURSE TO
000076:                                                                                                  #  EBANK SETTING.  A "NAMED" BIT, AS THE WORD IS USED HERE, IS ANY BIT WITH A NAME FORMALLY ASSIGNED BY THE YUL
000077:                                                                                                  #  ASSEMBLER.
000078:
000079:                                                                                                  #  AT PRESENT THE ONLY NAMED BITS ARE THOSE IN THE FLAGWORDS.  ASSEMBLER CHANGES WILL MAKE IT POSSIBLE TO
000080:                                                                                                  #  NAME ANY BIT IN ERASABLE MEMORY.
000081:
000082:                                                                                                  #  CALLING SEQUENCES ARE AS FOLLOWS :-
000083:                                                                                                  #                TC      UPFLAG                  TC      DOWNFLAG
000084:                                                                                                  #                ADRES   NAME OF FLAG            ADRES   NAME OF FLAG
000085:
000086:                                                                                                  #  RETURN IS TO THE LOCATION FOLLOWING THE "ADRES" ABOUT .58 MS AFTER THE "TC".
000087:                                                                                                  #  UPON RETURN A CONTAINS THE CURRENT FLAGWRD SETTING.
000088:
000089:    5504                                           BLOCK    02
000090:    4000                                           SETLOC   FFTAG1
000091:    4000                                           BANK
000092:    5504                                           COUNT*   $$/FLAG
000093:
000094:    5504           30002        UPFLAG             CA       Q
000095:    5505           05522                           TC       DEBIT
000096:    5506           40000                           COM                                            #  +(15 - BIT)
000097:    5507           00006                           EXTEND
000098:    5510           04001                           ROR      LCHAN                                 #  SET BIT
000099:    5511           50061        COMFLAG            INDEX    ITEMP1
000100:    5512           54074                           TS       FLAGWRD0
000101:    5513           22063                           LXCH     ITEMP3
000102:    5514           00003                           RELINT
000103:    5515           00001                           TC       L
000104:
000105:    5516           30002        DOWNFLAG           CA       Q
000106:    5517           05522                           TC       DEBIT
000107:    5520           70001                           MASK     L                                     #  RESET BIT
000108:    5521           15511                           TCF      COMFLAG
000109:
000110:    5522           64753        DEBIT              AD       ONE                                   #  GET DE BITS
000111:    5523           00004                           INHINT
000112:    5524           54063                           TS       ITEMP3
000113:    5525           34762                           CA       LOW4                                  #  DEC15
000114:    5526           54061                           TS       ITEMP1
000115:    5527           50063                           INDEX    ITEMP3
000116:    5530           27777                           CA       0          -1                         #  ADRES
000117:    5531           54001                           TS       L
000118:    5532           34755                           CA       ZERO


000120:    5533           00006                           EXTEND
000121:    5534           10061                           DV       ITEMP1                                #  A = FLAGWRD, L = (15 - BIT)
000122:    5535           52062                           DXCH     ITEMP1
000123:    5536           50061                           INDEX    ITEMP1
000124:    5537           30074                           CA       FLAGWRD0
000125:    5540           54001                           TS       L                                     #  CURRENT STATE
000126:    5541           50062                           INDEX    ITEMP2
000127:    5542           44735                           CS       BIT15                                 #  -(15 - BIT)
000128:    5543           00002                           TC       Q
000129:


000131:                                                                                                  #  DELAYJOB - A GENERAL ROUTINE TO DELAY A JOB A SPECIFIC AMOUNT OF TIME BEFORE PICKING UP AGAIN.
000132:
000133:                                                                                                  #  ENTRANCE REQUIREMENTS ...
000134:                                                                                                  #                CAF     DT              DELAY JOB FOR DT CENTISECS
000135:                                                                                                  #                TC      BANKCALL
000136:                                                                                                  #                CADR    DELAYJOB
000137:
000138: 06,3764                                           BANK     06
000139: 00,2000                                           SETLOC   DLAYJOB
000140: 00,2000                                           BANK
000141:
000142:                                                                                                  #  THIS MUST REMAIN IN BANK 0 *****************************************
000143:
000144: 00,3735                                           COUNT*   $$/DELAY
000145: 00,3735           00004        DELAYJOB           INHINT
000146: 00,3736           54002                           TS       Q                                     #  STORE DELAY DT IN Q FOR DLY -1 IN
000147: 00,3737           34752                           CAF      DELAYNUM                              #  WAITLIST
000148: 00,3740           54070        DELLOOP            TS       RUPTREG1
000149: 00,3741           50000                           INDEX    A
000150: 00,3742           31326                           CA       DELAYLOC                              #  IS THIS DELAYLOC AVAILABLE
000151: 00,3743           00006                           EXTEND
000152: 00,3744           13752                           BZF      OK2DELAY                              #  YES
000153:
000154: 00,3745           10070                           CCS      RUPTREG1                              #  NO, TRY NEXT DELAYLOC
000155: 00,3746           13740                           TCF      DELLOOP
000156:
000157: 00,3747           52134                           DXCH     BUF2
000158: 00,3750           05716                           TC       BAILOUT1                              #  NO AVAILABLE LOCS.
000159: 00,3751           01104                           OCT      1104
000160:
000161: 00,3752           33772        OK2DELAY           CA       TCSLEEP                               #  SET WAITLIST IMMEDIATE RETURN
000162: 00,3753           54061                           TS       WAITEXIT
000163:
000164: 00,3754           30004                           CA       FBANK
000165: 00,3755           60070                           AD       RUPTREG1                              #  STORE BBANK FOR TASK CALL
000166: 00,3756           54001                           TS       L
000167:
000168: 00,3757           33773                           CAF      WAKECAD                               #  STORE CADR FOR TASK CALL
000169: 00,3760           15211                           TCF      DLY2       -1                         #  DLY IS IN WAITLIST ROUTINE
000170:
000171: 00,3761           04645        TCGETCAD           TC       MAKECADR                              #  GET CALLERS FCADR
000172:
000173: 00,3762           50070                           INDEX    RUPTREG1
000174: 00,3763           55326                           TS       DELAYLOC                              #  SAVE DELAY CADRS
000175:
000176: 00,3764           05133                           TC       JOBSLEEP
000177:
000178: 00,3765           34755        WAKER              CAF      ZERO
000179: 00,3766           50006                           INDEX    BBANK
000180: 00,3767           57326                           XCH      DELAYLOC                              #  MAKE DELAYLOC AVAILABLE


000182: 00,3770           05137                           TC       JOBWAKE
000183:
000184: 00,3771           05261                           TC       TASKOVER
000185:
000186: 00,3772           03757        TCSLEEP            GENADR   TCGETCAD   -2
000187: 00,3773           03765        WAKECAD            GENADR   WAKER
000188:


000190:                                                                                                  #  GENTRAN, A BLOCK TRANSFER ROUTINE.
000191:                                                                                                  #  WRITTEN BY D. EYLES
000192:                                                                                                  #  MOD 1 BY KERNAN                               UTILITYM REV 17 11/18/67
000193:                                                                                                  #  MOD 2 BY SCHULENBERG (REMOVE RELINT) SKIPPER REV 4 2/28/68
000194:
000195:                                                                                                  #  THIS ROUTINE IS USEFULL FOR TRANSFERING N CONSECUTIVE ERASABLE OR FIXED QUANTITIES TO SOME OTHER N
000196:                                                                                                  #  CONSECUTIVE ERASABLE LOCATIONS.  IF BOTH BLOCKS OF DATA ARE IN SWITCHABLE EBANKS, THEY MUST BE IN THE SAME ONE.
000197:
000198:                                                                                                  #  GENTRAN IS CALLABLE IN A JOB AS WELL AS A RUPT.  THE CALLING SEQUENCE IS:
000199:                                                                                                  #        I       CA      N-1             # OF QUANTITIES MINUS ONE.
000200:                                                                                                  #        I +1    TC      GENTRAN         IN FIXED-FIXED.
000201:                                                                                                  #        I +2    ADRES   L               STARTING ADRES OF DATA TO BE MOVED.
000202:                                                                                                  #        I +3    ADRES   M               STARTING ADRES OF DUPLICATION BLOCK.
000203:                                                                                                  #        I +4                            RETURNS HERE.
000204:
000205:                                                                                                  #  GENTRAN TAKES 25 MCT'S (300 MICROSECONDS) PER ITEM + 5 MCT'S (60 MICS) FOR ENTERING AND EXITING.
000206:                                                                                                  #  A, L AND ITEMP1 ARE NOT PRESERVED.
000207:
000208:    5544                                           BLOCK    02
000209:    4000                                           SETLOC   FFTAG4
000210:    4000                                           BANK
000211:
000212:    5544     0061                                  EBANK=   ITEMP1
000213:
000214:    5544                                           COUNT*   $$/TRAN
000215:
000216:    5544           00004        GENTRAN            INHINT
000217:    5545           54061                           TS       ITEMP1                                #  SAVE N-1.
000218:    5546           50002                           INDEX    Q                                     #  C(Q) = ADRES L.
000219:    5547           60000                           AD       0                                     #  ADRES (L + N - 1).
000220:    5550           50000                           INDEX    A
000221:    5551           30000                           CA       0                                     #  C(ABOVE).
000222:    5552           54001                           TS       L                                     #  SAVE DATA.
000223:    5553           30061                           CA       ITEMP1
000224:    5554           50002                           INDEX    Q
000225:    5555           60001                           AD       1                                     #  ADRES (M + N - 1).
000226:    5556           50000                           INDEX    A
000227:    5557           22000                           LXCH     0                                     #  STUFF IT.
000228:    5560           10061                           CCS      ITEMP1                                #  LOOP UNTIL N-1 = 0.
000229:    5561           15545                           TCF      GENTRAN    +1
000230:    5562           16741                           TCF      Q+2                                   #  RETURN TO CALLER.
000231:


000233:                                                                                                  #  B5OFF         ZERO BIT 5 OF EXTVBACT, WHICH IS SET BY TESTXACT.
000234:                                                                                                  #  MAY BE USED AS NEEDED BY ANY EXTENDED VERB WHICH HAS DONE TESTXACT
000235:
000236:    5563                                           COUNT*   $$/EXTVB
000237:
000238:    5563           44747        B5OFF              CS       BIT5
000239:    5564           71044                           MASK     EXTVBACT
000240:    5565           55044                           TS       EXTVBACT
000241:    5566           05155                           TC       ENDOFJOB
000242:
000243:
000244:

End of include-file SERVICE_ROUTINES.agc.  Parent file is MAIN.agc


