
Source Code


000002:                                                                                                  ## Copyright:   Public domain.
000003:                                                                                                  ## Filename:    SINGLE_PRECISION_SUBROUTINES.agc
000004:                                                                                                  ## Purpose:     Part of the reconstructed source code for LMY99 Rev 0,
000005:                                                                                                  ##              otherwise known as Luminary Rev 99, the second release
000006:                                                                                                  ##              of the Apollo Guidance Computer (AGC) software for Apollo 11.
000007:                                                                                                  ##              It differs from LMY99 Rev 1 (the flown version) only in the
000008:                                                                                                  ##              placement of a single label. The corrections shown here have
000009:                                                                                                  ##              been verified to have the same bank checksums as AGC developer
000010:                                                                                                  ##              Allan Klumpp's copy of Luminary Rev 99, and so are believed
000011:                                                                                                  ##              to be accurate. This file is intended to be a faithful
000012:                                                                                                  ##              recreation, except that the code format has been changed to
000013:                                                                                                  ##              conform to the requirements of the yaYUL assembler rather than
000014:                                                                                                  ##              the original YUL assembler.
000015:                                                                                                  ##
000016:                                                                                                  ## Assembler:   yaYUL
000017:                                                                                                  ## Contact:     Ron Burkey <info@sandroid.org>.
000018:                                                                                                  ## Website:     www.ibiblio.org/apollo.
000019:                                                                                                  ## Pages:       1102
000020:                                                                                                  ## Mod history: 2009-05-25 RSB  Adapted from the corresponding
000021:                                                                                                  ##                              Luminary131 file, using page
000022:                                                                                                  ##                              images from Luminary 1A.
000023:                                                                                                  ##              2010-12-31 JL   Fixed page number comment.
000024:                                                                                                  ##              2016-12-17 RSB  Proofed text comments with octopus/ProoferComments
000025:                                                                                                  ##                              and corrected the errors found.
000026:                                                                                                  ##              2017-08-01 MAS  Created from LMY99 Rev 1.
000027:
000028:                                                                                                  ## This source code has been transcribed or otherwise adapted from
000029:                                                                                                  ## digitized images of a hardcopy from the MIT Museum.  The digitization
000030:                                                                                                  ## was performed by Paul Fjeld, and arranged for by Deborah Douglas of
000031:                                                                                                  ## the Museum.  Many thanks to both.  The images (with suitable reduction
000032:                                                                                                  ## in storage size and consequent reduction in image quality as well) are
000033:                                                                                                  ## available online at www.ibiblio.org/apollo.  If for some reason you
000034:                                                                                                  ## find that the images are illegible, contact me at info@sandroid.org
000035:                                                                                                  ## about getting access to the (much) higher-quality images which Paul
000036:                                                                                                  ## actually created.
000037:                                                                                                  ##
000038:                                                                                                  ## The code has been modified to match LMY99 Revision 0, otherwise
000039:                                                                                                  ## known as Luminary Revision 99, the Apollo 11 software release preceeding
000040:                                                                                                  ## the listing from which it was transcribed. It has been verified to
000041:                                                                                                  ## contain the same bank checksums as AGC developer Allan Klumpp's listing
000042:                                                                                                  ## of Luminary Revision 99 (for which we do not have scans).
000043:                                                                                                  ##
000044:                                                                                                  ## Notations on Allan Klumpp's listing read, in part:
000045:                                                                                                  ##
000046:                                                                                                  ##      ASSEMBLE REVISION 099 OF AGC PROGRAM LUMINARY BY NASA 2021112-51
000047:


000049:    5032                                           BLOCK    02
000050:
000051:                                                                                                  #  SINGLE PRECISION SINE AND COSINE
000052:
000053:    5032                                           COUNT*   $$/INTER
000054:    5032           64736        SPCOS              AD       HALF                                  #  ARGUMENTS SCALED AT PI
000055:    5033           55076        SPSIN              TS       TEMK
000056:    5034           15036                           TCF      SPT
000057:    5035           41076                           CS       TEMK
000058:    5036           60000        SPT                DOUBLE
000059:    5037           55076                           TS       TEMK
000060:    5040           15051                           TCF      POLLEY
000061:    5041           57076                           XCH      TEMK
000062:    5042           51076                           INDEX    TEMK
000063:    5043           64734                           AD       LIMITS
000064:    5044           40000                           COM
000065:    5045           61076                           AD       TEMK
000066:    5046           55076                           TS       TEMK
000067:    5047           15051                           TCF      POLLEY
000068:    5050           15067                           TCF      ARG90
000069:    5051           00006        POLLEY             EXTEND
000070:    5052           71076                           MP       TEMK
000071:    5053           55077                           TS       SQ
000072:    5054           00006                           EXTEND
000073:    5055           75005                           MP       C5/2
000074:    5056           67737                           AD       C3/2
000075:    5057           00006                           EXTEND
000076:    5060           71077                           MP       SQ
000077:    5061           67717                           AD       C1/2
000078:    5062           00006                           EXTEND
000079:    5063           71076                           MP       TEMK
000080:    5064           20001                           DDOUBL
000081:    5065           55076                           TS       TEMK
000082:    5066           00002                           TC       Q
000083:    5067           50000        ARG90              INDEX    A
000084:    5070           44734                           CS       LIMITS
000085:    5071           00002                           TC       Q                                     #  RESULT SCALED AT 1
000086:
000087:

End of include-file SINGLE_PRECISION_SUBROUTINES.agc.  Parent file is MAIN.agc


