
Source Code


000002:                                                                                                  ## Copyright:   Public domain.
000003:                                                                                                  ## Filename:    SPS_BACK-UP_RCS_CONTROL.agc
000004:                                                                                                  ## Purpose:     Part of the reconstructed source code for LMY99 Rev 0,
000005:                                                                                                  ##              otherwise known as Luminary Rev 99, the third release
000006:                                                                                                  ##              of the Apollo Guidance Computer (AGC) software for Apollo 11.
000007:                                                                                                  ##              It differs from LMY99 Rev 1 (the flown version) only in the
000008:                                                                                                  ##              placement of a single label. The corrections shown here have
000009:                                                                                                  ##              been verified to have the same bank checksums as AGC developer
000010:                                                                                                  ##              Allan Klumpp's copy of Luminary Rev 99, and so are believed
000011:                                                                                                  ##              to be accurate. This file is intended to be a faithful
000012:                                                                                                  ##              recreation, except that the code format has been changed to
000013:                                                                                                  ##              conform to the requirements of the yaYUL assembler rather than
000014:                                                                                                  ##              the original YUL assembler.
000015:                                                                                                  ##
000016:                                                                                                  ## Assembler:   yaYUL
000017:                                                                                                  ## Contact:     Ron Burkey <info@sandroid.org>.
000018:                                                                                                  ## Website:     www.ibiblio.org/apollo.
000019:                                                                                                  ## Pages:       1507-1510
000020:                                                                                                  ## Mod history: 2009-05-27 RSB  Adapted from the corresponding
000021:                                                                                                  ##                              Luminary131 file, using page
000022:                                                                                                  ##                              images from Luminary 1A.
000023:                                                                                                  ##              2011-01-06 JL   Fixed pseudo-label indentation.
000024:                                                                                                  ##              2016-12-18 RSB  Proofed text comments with octopus/ProoferComments
000025:                                                                                                  ##                              and corrected the errors found.
000026:                                                                                                  ##              2017-08-01 MAS  Created from LMY99 Rev 1.
000027:
000028:                                                                                                  ## This source code has been transcribed or otherwise adapted from
000029:                                                                                                  ## digitized images of a hardcopy from the MIT Museum.  The digitization
000030:                                                                                                  ## was performed by Paul Fjeld, and arranged for by Deborah Douglas of
000031:                                                                                                  ## the Museum.  Many thanks to both.  The images (with suitable reduction
000032:                                                                                                  ## in storage size and consequent reduction in image quality as well) are
000033:                                                                                                  ## available online at www.ibiblio.org/apollo.  If for some reason you
000034:                                                                                                  ## find that the images are illegible, contact me at info@sandroid.org
000035:                                                                                                  ## about getting access to the (much) higher-quality images which Paul
000036:                                                                                                  ## actually created.
000037:                                                                                                  ##
000038:                                                                                                  ## The code has been modified to match LMY99 Revision 0, otherwise
000039:                                                                                                  ## known as Luminary Revision 99, the Apollo 11 software release preceeding
000040:                                                                                                  ## the listing from which it was transcribed. It has been verified to
000041:                                                                                                  ## contain the same bank checksums as AGC developer Allan Klumpp's listing
000042:                                                                                                  ## of Luminary Revision 99 (for which we do not have scans).
000043:                                                                                                  ##
000044:                                                                                                  ## Notations on Allan Klumpp's listing read, in part:
000045:                                                                                                  ##
000046:                                                                                                  ##      ASSEMBLE REVISION 099 OF AGC PROGRAM LUMINARY BY NASA 2021112-51
000047:


000049:                                                                                                  #  PROGRAM NAME:         SPSRCS
000050:                                                                                                  #  AUTHOR:               EDGAR M. OSHIKA (AC ELECTRONICS)
000051:                                                                                                  #  MODIFIED:             TO RETURN TO ALL AXES VIA Q BY P. S. WEISSMAN, OCT 7, 1968
000052:                                                                                                  #  MODIFIED TO IMPROVE BENDING STABILITY BY G. KALAN, FEB. 14, 1969
000053:
000054:                                                                                                  #  FUNCTIONAL DESCRIPTION:
000055:                                                                                                  #        THIS PROGRAM CONTROLS THE FIRING OF ALL RCS JETS IN THE DOCKED CONFIGURATION ACCORDING TO THE FOLLOWING PHASE
000056:                                                                                                  #        PLANE LOGIC.
000057:
000058:                                                                                                  #        1. JET SENSE TEST (SPSRCS)
000059:                                                                                                  #                IF JETS ARE FIRING NEGATIVELY, SET OLDSENSE NEGATIVE AND CONTINUE
000060:                                                                                                  #                IF JETS ARE FIRING POSITIVELY, SET OLDSENSE POSITIVE AND CONTINUE
000061:                                                                                                  #                IF JETS ARE NOT FIRING, SET OLDSENSE TO ZERO AND GO TO OUTER RATE LIMIT TEST
000062:
000063:                                                                                                  #        2. RATE DEAD BAND TEST
000064:                                                                                                  #                IF JETS ARE FIRING NEGATIVELY AND RATE IS GREATER THAN TARGET RATE, LEAVE
000065:                                                                                                  #                        JETS ON AND GO TO INHIBITION LOGIC.  OTHERWISE, CONTINUE.
000066:                                                                                                  #                IF JETS ARE FIRING POSITIVELY AND RATE IS   LESS  THAN TARGET RATE, LEAVE
000067:                                                                                                  #                        JETS ON AND GO TO INHIBITION LOGIC.  OTHERWISE, CONTINUE.
000068:
000069:                                                                                                  #        3. OUTER RATE LIMIT TEST (SPSSTART)
000070:                                                                                                  #                IF MAGNITUDE OF EDOT IS GREATER THAN 1.73 DEG/SEC SET JET FIRING TIME
000071:                                                                                                  #                        TO REDUCE RATE AND GO TO INHIBITION LOGIC.  OTHERWISE, CONTINUE.
000072:
000073:                                                                                                  #        4. COAST ZONE TEST
000074:                                                                                                  #                IF STATE (E,EDOT) IS BELOW LINE E + 4 X EDOT > -1.4 DEG AND EDOT IS LESS THAN 1.30 DEG/SEC SET JET TIME POSI-
000075:                                                                                                  #                        TIVE AND CONTINUE.  OTHERWISE, SET JET FIRING TIME TO ZERO AND CONTINUE.
000076:                                                                                                  #                IF STATE IS ABOVE LINE E + 4 X EDOT > +1.4 DEG AND EDOT IS GREATER THAN -1.30 DEG/SEC, SET JET TIME NEGATIVE
000077:                                                                                                  #                        AND CONTINUE.  OTHERWISE, SET JET FIRING TIME TO ZERO AND CONTINUE.
000078:
000079:                                                                                                  #        5. INHIBITION LOGIC
000080:                                                                                                  #                IF OLDSENSE IS NON-ZERO:
000081:                                                                                                  #                        A) RETURN IF JET TIME HAS SAME SIGN AS OLDSENSE
000082:                                                                                                  #                        B) SET INHIBITION COUNTER* AND RETURN IF JET TIME IS ZERO
000083:                                                                                                  #                        C) SET INHIBITION COUNTER,* SET JET TIME TO ZERO AND RETURN IF SIGN
000084:                                                                                                  #                           OF JET TIME IS OPPOSITE TO THAT OF OLDSENSE
000085:                                                                                                  #                IF OLDSENSE IS ZERO:
000086:                                                                                                  #                        A) RETURN IF INHIBITION COUNTER IS NOT POSITIVE
000087:                                                                                                  #                        B) SET JET TIME TO ZERO AND RETURN IF INHIBITION COUNTER IS POSITIVE
000088:                                                                                                  #                *NOTE: INHIBITION COUNTERS CAN BE SET TO 4 OR 10 FOR THE P, AND UV AXES,
000089:                                                                                                  #                RESPECTIVELY, IN SPSRCS.  THEY ARE DECREMENTED BY ONE AT THE BEGINNING OF


000091:                                                                                                  #                EACH DAP PASS.
000092:
000093:                                                                                                  #        THE MINIMUM PULSE WIDTH OF THIS CONTROLLER IS DETERMINED BY THE REPETITION RATE AT WHICH THIS ROUTINE IS CALLED
000094:                                                                                                  #        AND IS NOMINALLY 100 MS FOR ALL AXES IN DRIFTING FLIGHT.  DURING POWERED FLIGHT THE MINIMUM IS 100 MS FOR THE
000095:                                                                                                  #        P AXIS AND 200 MS FOR THE CONTROL OF THE U AND V AXES.
000096:
000097:                                                                                                  #  CALLING SEQUENCE:
000098:                                                                                                  #                INHINT
000099:                                                                                                  #                TC      IBNKCALL
000100:                                                                                                  #                CADR    SPSRCS
000101:
000102:                                                                                                  #  EXIT:
000103:                                                                                                  #                TC      Q
000104:
000105:                                                                                                  #  ALARM/ABORT MODE:     NONE
000106:
000107:                                                                                                  #  SUBROUTINES CALLED:   NONE
000108:
000109:                                                                                                  #  INPUT:                E, EDOT
000110:                                                                                                  #                        TJP, TJV, TJU           TJ MUST NOT BE NEGATIVE ZERO
000111:
000112:                                                                                                  #  OUTPUT:               TJP, TJV, TJU
000113:
000114: 21,3646                                           BANK     21
000115: 21,2000                                           SETLOC   DAPS4
000116: 21,2000                                           BANK
000117:
000118: 21,3646                                           COUNT*   $$/DAPBU
000119:
000120: 21,3646  E6,1525                                  EBANK=   TJU
000121: 21,3646           00632        RATELIM2           OCT      00632                                 #  1.125 DEG/SEC
000122: 21,3647           34736        POSTHRST           CA       HALF
000123:
000124: 21,3650           51505                           NDX      AXISCTR
000125: 21,3651           55525                           TS       TJU
000126: 21,3652           11745                           CCS      OLDSENSE
000127: 21,3653           13673                           TCF      POSCHECK                              #  JETS FIRING POSITIVELY
000128: 21,3654           13676                           TCF      CTRCHECK                              #  JETS OFF.  CHECK INHIBITION CTR
000129: 21,3655           51505        NEGCHECK           INDEX    AXISCTR                               #  JETS FIRING NEGATIVELY
000130: 21,3656           41525                           CS       TJU
000131: 21,3657           10000                           CCS      A
000132: 21,3660           00002                           TC       Q                                     #  RETURN
000133: 21,3661           13663                           TCF      +2
000134: 21,3662           13663                           TCF      +1                                    #  JETS COMMANDED OFF.  SET CTR AND RETURN
000135: 21,3663           51505        SETCTR             INDEX    AXISCTR                               #  JET FIRING REVERSAL COMMANDED.  SET CTR,
000136: 21,3664           33705                           CA       UTIME                                 #  SET JET TIME TO ZERO, AND RETURN


000138: 21,3665           51505                           INDEX    AXISCTR
000139: 21,3666           55770                           TS       UJETCTR
000140: 21,3667           34755        ZAPTJ              CA       ZERO
000141: 21,3670           51505                           INDEX    AXISCTR
000142: 21,3671           55525                           TS       TJU
000143: 21,3672           00002                           TC       Q
000144: 21,3673           51505        POSCHECK           INDEX    AXISCTR
000145: 21,3674           31525                           CA       TJU
000146: 21,3675           13657                           TCF      NEGCHECK   +2
000147: 21,3676           51505        CTRCHECK           INDEX    AXISCTR                               #  CHECK JET INHIBITION COUNTER
000148: 21,3677           11770                           CCS      UJETCTR
000149: 21,3700           13702                           TCF      +2
000150: 21,3701           00002                           TC       Q                                     #  CTR IS NOT POSITIVE.  RETURN
000151: 21,3702           13667                           TCF      ZAPTJ                                 #  CTR IS POSITIVE.  INHIBIT FIRINGS
000152: 21,3703           00002                           TC       Q                                     #  CTR IS NOT POSITIVE.  RETURN
000153: 21,3704           00004                           OCT      00004
000154: 21,3705           00012        UTIME              OCT      00012
000155: 21,3706           00012                           OCT      00012
000156: 21,3707  E6,1745               OLDSENSE           EQUALS   DAPTREG1
000157: 21,3707           44753        NEGFIRE            CS       ONE                                   #  JETS FIRING NEGATIVELY
000158: 21,3710           55745                           TS       OLDSENSE
000159: 21,3711           31427                           CA       EDOT
000160: 21,3712           13716                           TCF      +4
000161: 21,3713           34753        PLUSFIRE           CA       ONE
000162: 21,3714           55745                           TS       OLDSENSE
000163: 21,3715           41427                           CS       EDOT                                  #  RATE DEAD BAND TEST
000164: 21,3716           22000                           LXCH     A
000165: 21,3717           40111                           CS       DAPBOOLS                              #  IF DRIFTBIT = 1, USE ZERO TARGET RATE
000166: 21,3720           74744                           MASK     DRIFTBIT                              #  IF DRIFTBIT = 0, USE 0.10 RATE TARGET
000167: 21,3721           10000                           CCS      A
000168: 21,3722           34767                           CA       RATEDB1
000169: 21,3723           60001                           AD       L
000170: 21,3724           00006                           EXTEND
000171: 21,3725           63735                           BZMF     SPSSTART
000172: 21,3726           13652                           TCF      POSTHRST   +3
000173:
000174: 21,3727           51505        SPSRCS             INDEX    AXISCTR                               #  JET SENSE TEST
000175: 21,3730           11525                           CCS      TJU
000176: 21,3731           13713                           TCF      PLUSFIRE                              #  JETS FIRING POSITIVELY
000177: 21,3732           13734                           TCF      +2
000178: 21,3733           13707                           TCF      NEGFIRE                               #  JETS FIRING NEGATIVELY
000179: 21,3734           55745                           TS       OLDSENSE                              #  JETS OFF
000180: 21,3735           31427        SPSSTART           CA       EDOT                                  #  OUTER RATE LIMIT TEST
000181: 21,3736           00006                           EXTEND
000182: 21,3737           74766                           MP       RATELIM1
000183: 21,3740           10000                           CCS      A
000184: 21,3741           13760                           TCF      NEGTHRST                              #  OUTER RATE LIMIT EXCEEDED
000185: 21,3742           13744                           TCF      +2
000186: 21,3743           13647                           TCF      POSTHRST                              #  OUTER RATE LIMIT EXCEEDED
000187: 21,3744           31427                           CA       EDOT                                  #  COAST ZONE TEST


000189: 21,3745           61752                           AD       E
000190: 21,3746           00006                           EXTEND
000191: 21,3747           71411                           MP       DKDB                                  #  PAD LOADED DEADBAND.  FRESHSTART: 1.4 DEG
000192: 21,3750           00006                           EXTEND
000193: 21,3751           13766                           BZF      TJZERO
000194:
000195: 21,3752           00006                           EXTEND
000196: 21,3753           63762                           BZMF     +7
000197: 21,3754           31427                           CA       EDOT
000198: 21,3755           63646                           AD       RATELIM2
000199: 21,3756           00006                           EXTEND
000200: 21,3757           63766                           BZMF     TJZERO
000201: 21,3760           44736        NEGTHRST           CS       HALF
000202: 21,3761           13650                           TCF      POSTHRST   +1
000203: 21,3762           43646                 +7        CS       RATELIM2
000204: 21,3763           61427                           AD       EDOT
000205: 21,3764           00006                           EXTEND
000206: 21,3765           63647                           BZMF     POSTHRST
000207: 21,3766           34755        TJZERO             CA       ZERO
000208: 21,3767           13650                           TCF      POSTHRST   +1
000209:
000210: 21,3770     4766               RATELIM1           =        CALLCODE                              #  = 00032, CORRESPONDING TO 1.73 DEG/SEC
000211: 21,3770     4767               RATEDB1            =        TBUILDFX                              #  = 00045, CORRESPONDS TO 0.101 DEG/SEC
000212:

End of include-file SPS_BACK-UP_RCS_CONTROL.agc.  Parent file is MAIN.agc


