
Source Code


000002:                                                                                                  ## Copyright:   Public domain.
000003:                                                                                                  ## Filename:    STABLE_ORBIT_-_P38-P39.agc
000004:                                                                                                  ## Purpose:     Part of the reconstructed source code for LMY99 Rev 0,
000005:                                                                                                  ##              otherwise known as Luminary Rev 99, the second release
000006:                                                                                                  ##              of the Apollo Guidance Computer (AGC) software for Apollo 11.
000007:                                                                                                  ##              It differs from LMY99 Rev 1 (the flown version) only in the
000008:                                                                                                  ##              placement of a single label. The corrections shown here have
000009:                                                                                                  ##              been verified to have the same bank checksums as AGC developer
000010:                                                                                                  ##              Allan Klumpp's copy of Luminary Rev 99, and so are believed
000011:                                                                                                  ##              to be accurate. This file is intended to be a faithful
000012:                                                                                                  ##              recreation, except that the code format has been changed to
000013:                                                                                                  ##              conform to the requirements of the yaYUL assembler rather than
000014:                                                                                                  ##              the original YUL assembler.
000015:                                                                                                  ##
000016:                                                                                                  ## Assembler:   yaYUL
000017:                                                                                                  ## Contact:     Ron Burkey <info@sandroid.org>.
000018:                                                                                                  ## Website:     www.ibiblio.org/apollo.
000019:                                                                                                  ## Pages:       723-730
000020:                                                                                                  ## Mod history: 2009-05-19 RSB  Adapted from the corresponding
000021:                                                                                                  ##                              Colossus249 file (there being no corresponding
000022:                                                                                                  ##                              Luminary131 source-code file), using page
000023:                                                                                                  ##                              images from Luminary 1A.
000024:                                                                                                  ##              2009-06-07 RSB  Eliminated an extraneous instruction.
000025:                                                                                                  ##              2011-01-06 JL   Fixed pseudo-label indentation.
000026:                                                                                                  ##              2016-12-13 RSB  GOTOP00H -> GOTOPOOH
000027:                                                                                                  ##              2016-12-15 RSB  Proofed text comments with octopus/ProoferComments
000028:                                                                                                  ##                              and corrected the errors found.
000029:                                                                                                  ##              2017-01-28 RSB  Back-ported a comment-text fix from proofing
000030:                                                                                                  ##                              of Luminary 69.  Also, changed the filename
000031:                                                                                                  ##                              (from STABLE_ORBIT.agc) so as to agree with
000032:                                                                                                  ##                              the other AGC versions having a corresponding
000033:                                                                                                  ##                              log section (making it easier to perform diffs
000034:                                                                                                  ##                              between versions), and to agree with what it
000035:                                                                                                  ##                              says in ASSEMBLY AND OPERATION INFORMATION.
000036:                                                                                                  ##              2017-03-17 RSB  Comment-text fixes identified in diff'ing
000037:                                                                                                  ##                              Luminary 99 vs Comanche 55.
000038:                                                                                                  ##              2017-08-01 MAS  Created from LMY99 Rev 1.
000039:
000040:                                                                                                  ## This source code has been transcribed or otherwise adapted from
000041:                                                                                                  ## digitized images of a hardcopy from the MIT Museum.  The digitization
000042:                                                                                                  ## was performed by Paul Fjeld, and arranged for by Deborah Douglas of
000043:                                                                                                  ## the Museum.  Many thanks to both.  The images (with suitable reduction
000044:                                                                                                  ## in storage size and consequent reduction in image quality as well) are
000045:                                                                                                  ## available online at www.ibiblio.org/apollo.  If for some reason you
000046:                                                                                                  ## find that the images are illegible, contact me at info@sandroid.org
000047:                                                                                                  ## about getting access to the (much) higher-quality images which Paul
000048:                                                                                                  ## actually created.
000049:                                                                                                  ##
000050:                                                                                                  ## The code has been modified to match LMY99 Revision 0, otherwise
000051:                                                                                                  ## known as Luminary Revision 99, the Apollo 11 software release preceeding
000052:                                                                                                  ## the listing from which it was transcribed. It has been verified to
000053:                                                                                                  ## contain the same bank checksums as AGC developer Allan Klumpp's listing
000054:                                                                                                  ## of Luminary Revision 99 (for which we do not have scans).
000055:                                                                                                  ##
000056:                                                                                                  ## Notations on Allan Klumpp's listing read, in part:
000057:                                                                                                  ##
000058:                                                                                                  ##      ASSEMBLE REVISION 099 OF AGC PROGRAM LUMINARY BY NASA 2021112-51
000059:


000061:                                                                                                  #  STABLE ORBIT RENDEZVOUS PROGRAMS (P38 AND P78)
000062:
000063:                                                                                                  #  MOD NO -1             LOG SECTION - STABLE ORBIT - P38-P39
000064:                                                                                                  #  MOD BY RUDNICKI.S     DATE 25JAN68
000065:
000066:                                                                                                  #  FUNCTIONAL DESCRIPTION
000067:
000068:                                                                                                  #        P38 AND P78 CALCULATE THE REQUIRED DELTA V AND OTHER INITIAL
000069:                                                                                                  #        CONDITIONS REQUIRED BY THE AGC TO (1) PUT THE ACTIVE VEHICLE
000070:                                                                                                  #        ON A TRANSFER TRAJECTORY THAT INTERCEPTS THE PASSIVE VEHICLE
000071:                                                                                                  #        ORBIT A GIVEN DISTANCE, DELTA R, EITHER AHEAD OF OR BEHIND THE
000072:                                                                                                  #        PASSIVE VEHICLE AND (2) ACTUALLY PLACE THE ACTIVE VEHICLE IN THE
000073:                                                                                                  #        PASSIVE VEHICLE ORBIT WITH A DELTA R SEPARATION BETWEEN THE TWO
000074:                                                                                                  #        VEHICLES
000075:
000076:                                                                                                  #  CALLING SEQUENCE
000077:
000078:                                                                                                  #        ASTRONAUT REQUEST THRU DSKY
000079:
000080:                                                                                                  #        V37E38E         IF THIS VEHICLE IS ACTIVE VEHICLE
000081:                                                                                                  #        V37E78E         IF OTHER VEHICLE IS ACTIVE VEHICLE
000082:
000083:                                                                                                  #  INPUT
000084:
000085:                                                                                                  #        (1)     SOI MANEUVER
000086:
000087:                                                                                                  #                (A)  TIG        TIME OF SOI MANEUVER
000088:                                                                                                  #                (B)  CENTANG    ORBITAL CENTRAL ANGLE OF THE PASSIVE VEHICLE
000089:                                                                                                  #                                DURING TRANSFER FROM TIG TO TIME OF INTERCEPT
000090:                                                                                                  #                (C)  DELTAR     THE DESIRED SEPARATION OF THE TWO VEHICLES
000091:                                                                                                  #                                SPECIFIED AS A DISTANCE ALONG THE PASSIVE VEHICLE
000092:                                                                                                  #                                ORBIT
000093:                                                                                                  #                (D)  OPTION     EQUALS 1 FOR SOI
000094:
000095:                                                                                                  #        (2)     SOR MANEUVER
000096:
000097:                                                                                                  #                (A)  TIG        TIME OF SOR MANEUVER
000098:                                                                                                  #                (B)  CENTANG    AN OPTIONAL RESPECIFICATION OF 1 (B) ABOVE
000099:                                                                                                  #                (C)  OPTION     EQUALS 2 FOR SOR
000100:                                                                                                  #                (D)  DELTTIME   THE TIME REQUIRED TO TRAVERSE DELTA R WHEN
000101:                                                                                                  #                                TRAVELING AT A VELOCITY EQUAL TO THE HORIZONTAL
000102:                                                                                                  #                                VELOCITY OF THE PASSIVE VEHICLE - SAVED FROM
000103:                                                                                                  #                                SOI PHASE
000104:                                                                                                  #                (E)  TINT       TIME OF INTERCEPT (SOI) - SAVED FROM SOI PHASE
000105:
000106:                                                                                                  #  OUTPUT
000107:
000108:                                                                                                  #        (1)  TRKMKCNT   NUMBER OF MARKS
000109:                                                                                                  #        (2)  TTOGO      TIME TO GO
000110:                                                                                                  #        (3)  +MGA       MIDDLE GIMBAL ANGLE


000112:                                                                                                  #        (4)  DSPTEM1    TIME OF INTERCEPT OF PASSIVE VEHICLE ORBIT
000113:                                                                                                  #                        (FOR SOI ONLY)
000114:                                                                                                  #        (5)  POSTTPI    PERIGEE ALTITUDE OF ACTIVE VEHICLE ORBIT AFTER
000115:                                                                                                  #                        THE SOI (SOR) MANEUVER
000116:                                                                                                  #        (6)  DELVTPI    MAGNITUDE OF DELTA V AT SOI (SOR) TIME
000117:                                                                                                  #        (7)  DELVTPF    MAGNITUDE OF DELTA V AT INTERCEPT TIME
000118:                                                                                                  #        (8)  DELVLVC    DELTA VELOCITY AT SOI (AND SOR) - LOCAL VERTICAL
000119:                                                                                                  #                        COORDINATES
000120:
000121:                                                                                                  #  SUBROUTINES USED
000122:
000123:                                                                                                  #        AVFLAGA
000124:                                                                                                  #        AVFLAGP
000125:                                                                                                  #        VNDSPLY
000126:                                                                                                  #        BANKCALL
000127:                                                                                                  #        GOFLASHR
000128:                                                                                                  #        GOTOPOOH
000129:                                                                                                  #        BLANKET
000130:                                                                                                  #        ENDOFJOB
000131:                                                                                                  #        PREC/TT
000132:                                                                                                  #        SELECTMU
000133:                                                                                                  #        INTRPVP
000134:                                                                                                  #        MAINRTNE
000135:
000136: 04,3013                                           BANK     04
000137: 34,2000                                           SETLOC   STBLEORB
000138: 34,2000                                           BANK
000139:
000140: 34,3271  E7,1470                                  EBANK=   SUBEXIT
000141: 34,3271                                           COUNT*   $$/P3879
000142:
000143: 34,3271           04616        P38                TC       BANKCALL
000144: 34,3272           72347                           CADR     AVFLAGA                               #  THIS VEHICLE ACTIVE
000145: 34,3273           03276                           TC       +3
000146: 34,3274           04616        P78                TC       BANKCALL
000147: 34,3275           72354                           CADR     AVFLAGP                               #  OTHER VEHICLE ACTIVE
000148: 34,3276           04616                           TC       BANKCALL
000149: 34,3277           72361                           CADR     P20FLGON                              #  SET UPDATFLG, TRACKFLG
000150: 34,3300           33641                           CAF      DECTWO
000151: 34,3301           55466                           TS       NN
000152: 34,3302           33632                           CAF      V06N33SR                              #  DISPLAY TIG
000153: 34,3303           03621                           TC       VNDSPLY
000154: 34,3304           33633                           CAF      V06N55SR                              #  DISPLAY CENTANG
000155: 34,3305           04616                           TCR      BANKCALL
000156: 34,3306           20635                           CADR     GOFLASHR
000157: 34,3307           16001                           TCF      GOTOPOOH                              #  TERMINATE
000158: 34,3310           13315                           TCF      +5                                    #  PROCEED
000159: 34,3311           13304                           TCF      -5                                    #  RECYCLE
000160: 34,3312           36245                           CAF      THREE                                 #  IMMEDIATE RETURN - BLANK R1, R2
000161: 34,3313           05464                           TCR      BLANKET


000163: 34,3314           15155                           TCF      ENDOFJOB
000164: 34,3315           34756                           CAF      FIVE
000165: 34,3316           55144                           TS       OPTION1
000166: 34,3317           34753                           CAF      ONE
000167: 34,3320           55145                           TS       OPTION2                               #  OPTION CODE IS SET TO 1
000168: 34,3321           33634                           CAF      V04N06SR                              #  DISPLAY OPTION CODE - 1 = SOI, 2 = SOR
000169: 34,3322           04616                           TCR      BANKCALL
000170: 34,3323           20635                           CADR     GOFLASHR
000171: 34,3324           16001                           TCF      GOTOPOOH                              #  TERMINATE
000172: 34,3325           13332                           TCF      +5                                    #  PROCEED
000173: 34,3326           13321                           TCF      -5                                    #  RECYCLE
000174: 34,3327           34751                           CAF      BIT3                                  #  IMMEDIATE RETURN - BLANK R3
000175: 34,3330           05464                           TCR      BLANKET
000176: 34,3331           15155                           TCF      ENDOFJOB
000177: 34,3332           06037                           TC       INTPRET
000178: 34,3333           70535                           SLOAD    SR1
000179: 34,3334           01146                                    OPTION2
000180: 34,3335           71230                           BHIZ     DLOAD
000181: 34,3336           71344                                    OPTN1
000182: 34,3337           03631                                    TINT
000183: 34,3340           02303                           STORE    TINTSOI                               #  STORE FOR SOR PHASE
000184: 34,3341           77614                           CLRGO
000185: 34,3342           01230                                    OPTNSW                                #  OPTNSW; ON = SOI, OFF = SOR
000186: 34,3343           71375                                    JUNCTN1
000187: 34,3344           43014        OPTN1              SET      CLEAR                                 #  SOI
000188: 34,3345           01070                                    OPTNSW
000189: 34,3346           00670                                    UPDATFLG
000190: 34,3347           77624                           CALL
000191: 34,3350           71554                                    PREC/TT
000192: 34,3351           43015                           DAD      SET
000193: 34,3352           03442                                    TIG
000194: 34,3353           00470                                    UPDATFLG
000195: 34,3354           03631                           STORE    TINT                                  #  TI = TIG + TF
000196: 34,3355           77776                           EXIT
000197: 34,3356           33635                           CAF      V06N57SR                              #  DISPLAY DELTA R
000198: 34,3357           04616                           TCR      BANKCALL
000199: 34,3360           20635                           CADR     GOFLASHR
000200: 34,3361           16001                           TCF      GOTOPOOH                              #  TERMINATE
000201: 34,3362           13367                           TCF      +5                                    #  PROCEED
000202: 34,3363           13356                           TCF      -5                                    #  RECYCLE
000203: 34,3364           36242                           CAF      SIX                                   #  IMMEDIATE RETURN - BLANK R2, R3
000204: 34,3365           05464                           TCR      BLANKET
000205: 34,3366           15155                           TCF      ENDOFJOB
000206: 34,3367           00006                 +5        EXTEND
000207: 34,3370           31631                           DCA      TINT
000208: 34,3371           53046                           DXCH     DSPTEM1                               #  FOR DISPLAY
000209: 34,3372           33636                           CAF      V06N34SR                              #  DISPLAY TIME OF INTERCEPT
000210: 34,3373           03621                           TC       VNDSPLY
000211: 34,3374           06037                           TC       INTPRET
000212: 34,3375           45014        JUNCTN1            CLEAR    CALL


000214: 34,3376           04266                                    P39/79SW
000215: 34,3377           20000                                    SELECTMU                              #  SELECT MU, CLEAR FINALFLG, GO TO VN1645
000216: 34,3400           77624        RECYCLE            CALL
000217: 34,3401           71554                                    PREC/TT
000218: 34,3402           71214                           BOFF     DLOAD
000219: 34,3403           01350                                    OPTNSW
000220: 34,3404           71424                                    OPTN2
000221: 34,3405           03631                                    TINT
000222: 34,3406           34041                           STCALL   TDEC1                                 #  PRECISION UPDATE PASSIVE VEHICLE TO
000223: 34,3407           71605                                    INTRPVP                               #        INTERCEPT TIME
000224: 34,3410           53575                           VLOAD    UNIT
000225: 34,3411           00001                                    RATT                                  #  RP/(RP)
000226: 34,3412           47315                           PDVL     VXV
000227: 34,3413           00007                                    VATT
000228: 34,3414           60246                           ABVAL    NORM                                  #  (VP X RP/(RP))
000229: 34,3415           00047                                    X1
000230: 34,3416           56325                           PDDL     DDV
000231: 34,3417           02303                                    DELTAR
000232: 34,3420           77657                           SL*                                            #  DELTA R / (VP X RP/RP)
000233: 34,3421           20172                                    0          -7,1
000234: 34,3422           36305                           STCALL   DELTTIME                              #  DELTA T = (RP) DELTA R / (VP X RP)
000235: 34,3423           71430                                    JUNCTN2
000236: 34,3424           43345        OPTN2              DLOAD    DAD
000237: 34,3425           02303                                    TINTSOI
000238: 34,3426           00037                                    T
000239: 34,3427           03631                           STORE    TINT                                  #  TI = TI + TF
000240: 34,3430           45345        JUNCTN2            DLOAD    DSU
000241: 34,3431           03631                                    TINT
000242: 34,3432           02305                                    DELTTIME
000243: 34,3433           02307                           STORE    TARGTIME                              #  TT = TI - DELTA T
000244:
000245:                                                                                                  #  .... MAINRTNE ....
000246:
000247:                                                                                                  #  SUBROUTINES USED
000248:
000249:                                                                                                  #        S3435.25
000250:                                                                                                  #        PERIAPO1
000251:                                                                                                  #        SHIFTR1
000252:                                                                                                  #        VNDSPLY
000253:                                                                                                  #        BANKCALL
000254:                                                                                                  #        GOFLASH
000255:                                                                                                  #        GOTOPOOH
000256:                                                                                                  #        VN1645
000257:
000258: 34,3434           34041        MAINRTNE           STCALL   TDEC1                                 #  PRECISION UPDATE PASSIVE VEHICLE TO
000259: 34,3435           71605                                    INTRPVP                               #        TARGET TIME
000260: 34,3436           77745                           DLOAD
000261: 34,3437           03442                                    TIG
000262: 34,3440           03610                           STORE    INTIME
000263: 34,3441           77331                           SSP      VLOAD
000264: 34,3442           03471                                    SUBEXIT
000265: 34,3443           71447                                    TEST3979


000267: 34,3444           00001                                    RATT
000268: 34,3445           77624                           CALL
000269: 34,3446           73327                                    S3435.25
000270: 34,3447           43014        TEST3979           BOFF     BON
000271: 34,3450           04346                                    P39/79SW
000272: 34,3451           71460                                    MAINRTN1
000273: 34,3452           01311                                    FINALFLG
000274: 34,3453           71456                                    P39P79
000275: 34,3454           77614                           SET
000276: 34,3455           00470                                    UPDATFLG
000277: 34,3456           77776        P39P79             EXIT
000278: 34,3457           03505                           TC       DSPLY81                               #  FOR P39 AND P79
000279: 34,3460           51575        MAINRTN1           VLOAD    ABVAL
000280: 34,3461           02366                                    DELVEET3
000281: 34,3462           27576                           STOVL    DELVTPI                               #  DELTA V
000282: 34,3463           03506                                    VPASS4
000283: 34,3464           51451                           VSU      ABVAL
000284: 34,3465           03566                                    VTPRIME
000285: 34,3466           26350                           STOVL    DELVTPF                               #  DELTA V (FINAL) = V'T - VT
000286: 34,3467           03536                                    RACT3
000287: 34,3470           45115                           PDVL     CALL
000288: 34,3471           02337                                    VIPRIME
000289: 34,3472           46316                                    PERIAPO1                              #  GET PERIGEE ALTITUDE
000290: 34,3473           77624                           CALL
000291: 34,3474           46426                                    SHIFTR1
000292: 34,3475           03606                           STORE    POSTTPI
000293: 34,3476           43014                           BON      SET
000294: 34,3477           01311                                    FINALFLG
000295: 34,3500           71502                                    DSPLY58
000296: 34,3501           00470                                    UPDATFLG
000297: 34,3502           77776        DSPLY58            EXIT
000298: 34,3503           33637                           CAF      V06N58SR                              #  DISPLAY HP, DELTA V, DELTA V (FINAL)
000299: 34,3504           03621                           TC       VNDSPLY
000300: 34,3505           33640        DSPLY81            CAF      V06N81SR                              #  DISPLAY DELTA V (LV)
000301: 34,3506           03621                           TC       VNDSPLY
000302: 34,3507           06037                           TC       INTPRET
000303: 34,3510           77214                           CLEAR    VLOAD
000304: 34,3511           01267                                    XDELVFLG
000305: 34,3512           02366                                    DELVEET3
000306: 34,3513           37656                           STCALL   DELVSIN
000307: 34,3514           73606                                    VN1645                                #  DISPLAY TRKMKCNT, TTOGO, +MGA
000308: 34,3515           52014                           BON      GOTO
000309: 34,3516           04306                                    P39/79SW
000310: 34,3517           71541                                    P39/P79B
000311: 34,3520           71400                                    RECYCLE
000312:
000313:                                                                                                  #  STABLE ORBIT MIDCOURSE PROGRAM (P39 AND P79)
000314:
000315:                                                                                                  #  MOD NO -1             LOG SECTION - STABLE ORBIT - P38-P39
000316:                                                                                                  #  MOD BY RUDNICKI.S     DATE 25JAN68
000317:


000319:                                                                                                  #  FUNCTIONAL DESCRIPTION
000320:
000321:                                                                                                  #        P39 AND P79 CALCULATE THE REQUIRED DELTA V AND OTHER INITIAL
000322:                                                                                                  #        CONDITIONS REQUIRED BY THE AGC TO MAKE A MIDCOURSE CORRECTION
000323:                                                                                                  #        MANEUVER AFTER COMPLETING THE SOI MANEUVER BUT BEFORE MAKING
000324:                                                                                                  #        THE SOR MANEUVER
000325:
000326:                                                                                                  #  CALLING SEQUENCE
000327:
000328:                                                                                                  #        ASTRONAUT REQUEST THRU DSKY
000329:
000330:                                                                                                  #        V37E39E         IF THIS VEHICLE IS ACTIVE VEHICLE
000331:                                                                                                  #        V37E79E         IF OTHER VEHICLE IS ACTIVE VEHICLE
000332:
000333:                                                                                                  #  INPUT
000334:
000335:                                                                                                  #        (1)  TPASS4     TIME OF INTERCEPT - SAVED FROM P38/P78
000336:                                                                                                  #        (2)  TARGTIME   TIME THAT PASSIVE VEHICLE IS AT INTERCEPT POINT -
000337:                                                                                                  #                        SAVED FROM P38/P78
000338:
000339:                                                                                                  #  OUTPUT
000340:
000341:                                                                                                  #        (1)  TRKMKCNT   NUMBER OF MARKS
000342:                                                                                                  #        (2)  TTOGO      TIME TO GO
000343:                                                                                                  #        (3)  +MGA       MIDDLE GIMBAL ANGLE
000344:                                                                                                  #        (4)  DELVLVC    DELTA VELOCITY AT MID - LOCAL VERTICAL COORDINATES
000345:
000346:                                                                                                  #  SUBROUTINES USED
000347:
000348:                                                                                                  #        AVFLAGA
000349:                                                                                                  #        AVFLAGP
000350:                                                                                                  #        LOADTIME
000351:                                                                                                  #        SELECTMU
000352:                                                                                                  #        PRECSET
000353:                                                                                                  #        S34/35.1
000354:                                                                                                  #        MAINRTNE
000355:
000356: 34,3521           04616        P39                TC       BANKCALL
000357: 34,3522           72347                           CADR     AVFLAGA                               #  THIS VEHICLE ACTIVE
000358: 34,3523           00006                           EXTEND
000359: 34,3524           31401                           DCA      ATIGINC
000360: 34,3525           03532                           TC       P39/P79A
000361: 34,3526           04616        P79                TC       BANKCALL
000362: 34,3527           72354                           CADR     AVFLAGP                               #  OTHER VEHICLE ACTIVE
000363: 34,3530           00006                           EXTEND
000364: 34,3531           31403                           DCA      PTIGINC
000365: 34,3532           53576        P39/P79A           DXCH     KT                                    #  TIME TO PREPARE FOR BURN
000366: 34,3533           04616                           TC       BANKCALL
000367: 34,3534           72361                           CADR     P20FLGON                              #  SET UPDATFLG, TRACKFLG
000368: 34,3535           06037                           TC       INTPRET


000370: 34,3536           45014                           SET      CALL
000371: 34,3537           04066                                    P39/79SW
000372: 34,3540           20000                                    SELECTMU                              #  SELECT MU, CLEAR FINALFLG, GO TO VN1645
000373: 34,3541           43234        P39/P79B           RTB      DAD
000374: 34,3542           21573                                    LOADTIME
000375: 34,3543           03576                                    KT
000376: 34,3544           03442                           STORE    TIG                                   #  TIG = T (PRESENT) + PREPARATION TIME
000377: 34,3545           34041                           STCALL   TDEC1                                 #  PRECISION UPDATE ACTIVE AND PASSIVE
000378: 34,3546           46360                                    PRECSET                               #        VEHICLES TO TIG
000379: 34,3547           77624                           CALL
000380: 34,3550           73274                                    S34/35.1                              #  GET UNIT NORMAL
000381: 34,3551           52145                           DLOAD    GOTO
000382: 34,3552           02307                                    TARGTIME
000383: 34,3553           71434                                    MAINRTNE                              #  CALCULATE DELTA V AND DELTA V (LV)
000384:
000385:                                                                                                  #  .... PREC/TT ....
000386:
000387:                                                                                                  #  SUBROUTINES USED
000388:
000389:                                                                                                  #        PRECSET
000390:                                                                                                  #        TIMETHET
000391:                                                                                                  #        S34/35.1
000392:
000393: 34,3554           71220        PREC/TT            STQ      DLOAD
000394: 34,3555           03465                                    RTRN
000395: 34,3556           03442                                    TIG
000396: 34,3557           34041                           STCALL   TDEC1                                 #  PRECISION UPDATE ACTIVE AND PASSIVE
000397: 34,3560           46360                                    PRECSET                               #        VEHICLES TO TIG
000398: 34,3561           53775                           VLOAD    VSR*
000399: 34,3562           03552                                    RPASS3
000400: 34,3563           57176                                    0,2
000401: 34,3564           16655                           STODL    RVEC
000402: 34,3565           03621                                    CENTANG
000403: 34,3566           71406                           PUSH     COS
000404: 34,3567           16732                           STODL    CSTH
000405: 34,3570           43156                           SIN      SET
000406: 34,3571           03466                                    RVSW
000407: 34,3572           26730                           STOVL    SNTH
000408: 34,3573           03560                                    VPASS3
000409: 34,3574           77657                           VSR*
000410: 34,3575           57176                                    0,2
000411: 34,3576           36744                           STCALL   VVEC                                  #  GET TRANSFER TIME BASED ON CENTANG OF
000412: 34,3577           24732                                    TIMETHET                              #        PASSIVE VEHICLE
000413: 34,3600           77624                           CALL
000414: 34,3601           73274                                    S34/35.1                              #  GET UNIT NORMAL
000415: 34,3602           52145                           DLOAD    GOTO
000416: 34,3603           00037                                    T
000417: 34,3604           03465                                    RTRN
000418:
000419:                                                                                                  #  .... INTRPVP ....
000420:
000421:                                                                                                  #  SUBROUTINES USED
000422:
000423:                                                                                                  #        CSMPREC


000425:                                                                                                  #        LEMPREC
000426:
000427: 34,3605           43020        INTRPVP            STQ      BOFF                                  #  PRECISION UPDATE PASSIVE VEHICLE TO
000428: 34,3606           03465                                    RTRN                                  #        TDEC1
000429: 34,3607           01352                                    AVFLAG
000430: 34,3610           71615                                    OTHERV
000431: 34,3611           77624                           CALL
000432: 34,3612           27043                                    CSMPREC
000433: 34,3613           77650                           GOTO
000434: 34,3614           03465                                    RTRN
000435: 34,3615           77624        OTHERV             CALL
000436: 34,3616           27057                                    LEMPREC
000437: 34,3617           77650                           GOTO
000438: 34,3620           03465                                    RTRN
000439:
000440:                                                                                                  #  .... VNDSPLY ....
000441:
000442:                                                                                                  #  SUBROUTINES USED
000443:
000444:                                                                                                  #        BANKCALL
000445:                                                                                                  #        GOFLASH
000446:                                                                                                  #        GOTOPOOH
000447:
000448: 34,3621           00006        VNDSPLY            EXTEND                                         #  FLASH DISPLAY
000449: 34,3622           23465                           QXCH     RTRN
000450: 34,3623           55615                           TS       VERBNOUN
000451: 34,3624           31615                           CA       VERBNOUN
000452: 34,3625           04616                           TCR      BANKCALL
000453: 34,3626           20476                           CADR     GOFLASH
000454: 34,3627           16001                           TCF      GOTOPOOH                              #  TERMINATE
000455: 34,3630           01465                           TC       RTRN                                  #  PROCEED
000456: 34,3631           13624                           TCF      -5                                    #  RECYCLE
000457: 34,3632           01441        V06N33SR           VN       0633
000458: 34,3633           01467        V06N55SR           VN       0655
000459: 34,3634           01006        V04N06SR           VN       0406
000460: 34,3635           01471        V06N57SR           VN       0657
000461: 34,3636           01442        V06N34SR           VN       0634
000462: 34,3637           01472        V06N58SR           VN       0658
000463: 34,3640           01521        V06N81SR           VN       0681
000464: 34,3641           00002        DECTWO             OCT      2
000465:
000466:
000467:
000468:
000469:

End of include-file STABLE_ORBIT_-_P38-P39.agc.  Parent file is MAIN.agc


