
Source Code


000002:                                                                                                  ## Copyright:   Public domain.
000003:                                                                                                  ## Filename:    SYSTEM_TEST_STANDARD_LEAD_INS.agc
000004:                                                                                                  ## Purpose:     Part of the reconstructed source code for LMY99 Rev 0,
000005:                                                                                                  ##              otherwise known as Luminary Rev 99, the second release
000006:                                                                                                  ##              of the Apollo Guidance Computer (AGC) software for Apollo 11.
000007:                                                                                                  ##              It differs from LMY99 Rev 1 (the flown version) only in the
000008:                                                                                                  ##              placement of a single label. The corrections shown here have
000009:                                                                                                  ##              been verified to have the same bank checksums as AGC developer
000010:                                                                                                  ##              Allan Klumpp's copy of Luminary Rev 99, and so are believed
000011:                                                                                                  ##              to be accurate. This file is intended to be a faithful
000012:                                                                                                  ##              recreation, except that the code format has been changed to
000013:                                                                                                  ##              conform to the requirements of the yaYUL assembler rather than
000014:                                                                                                  ##              the original YUL assembler.
000015:                                                                                                  ##
000016:                                                                                                  ## Assembler:   yaYUL
000017:                                                                                                  ## Contact:     Ron Burkey <info@sandroid.org>.
000018:                                                                                                  ## Website:     www.ibiblio.org/apollo.
000019:                                                                                                  ## Pages:       370-372
000020:                                                                                                  ## Mod history: 2009-05-17 RSB  Adapted from the corresponding
000021:                                                                                                  ##                              Luminary131 file, using page
000022:                                                                                                  ##                              images from Luminary 1A.
000023:                                                                                                  ##              2016-12-14 RSB  Proofed text comments with octopus/ProoferComments
000024:                                                                                                  ##                              and corrected the errors found.
000025:                                                                                                  ##              2017-03-07 RSB  Comment-text fixes noted in proofing Luminary 116.
000026:                                                                                                  ##              2017-08-01 MAS  Created from LMY99 Rev 1.
000027:
000028:                                                                                                  ## This source code has been transcribed or otherwise adapted from
000029:                                                                                                  ## digitized images of a hardcopy from the MIT Museum.  The digitization
000030:                                                                                                  ## was performed by Paul Fjeld, and arranged for by Deborah Douglas of
000031:                                                                                                  ## the Museum.  Many thanks to both.  The images (with suitable reduction
000032:                                                                                                  ## in storage size and consequent reduction in image quality as well) are
000033:                                                                                                  ## available online at www.ibiblio.org/apollo.  If for some reason you
000034:                                                                                                  ## find that the images are illegible, contact me at info@sandroid.org
000035:                                                                                                  ## about getting access to the (much) higher-quality images which Paul
000036:                                                                                                  ## actually created.
000037:                                                                                                  ##
000038:                                                                                                  ## The code has been modified to match LMY99 Revision 0, otherwise
000039:                                                                                                  ## known as Luminary Revision 99, the Apollo 11 software release preceeding
000040:                                                                                                  ## the listing from which it was transcribed. It has been verified to
000041:                                                                                                  ## contain the same bank checksums as AGC developer Allan Klumpp's listing
000042:                                                                                                  ## of Luminary Revision 99 (for which we do not have scans).
000043:                                                                                                  ##
000044:                                                                                                  ## Notations on Allan Klumpp's listing read, in part:
000045:                                                                                                  ##
000046:                                                                                                  ##      ASSEMBLE REVISION 099 OF AGC PROGRAM LUMINARY BY NASA 2021112-51
000047:


000049: 22,3242  E5,1642                                  EBANK=   XSM
000050:
000051: 33,2045                                           BANK     33
000052: 04,2000                                           SETLOC   E/PROG
000053: 04,2000                                           BANK
000054:
000055: 04,2576                                           COUNT*   $$/P07
000056:
000057:                                                                                                  #  SPECIAL PROGRAMS TO EASE THE PANGS OF ERASABLE MEMORY PROGRAMS.
000058:
000059:                                                                                                  #  E/BKCALL      FOR DOING BANKCALLS FROM AND RETURNING TO ERASABLE.
000060:
000061:                                                                                                  #  THIS ROUTINE IS CALLABLE FROM ERASABLE OR FIXED.  LIKE BANKCALL, HOWEVER, SWITCHING BETWEEN S3 AND S4
000062:                                                                                                  #  IS NOT POSSIBLE.
000063:
000064:                                                                                                  #  THE CALLING SEQUENCE IS:
000065:
000066:                                                                                                  #        TC      BANKCALL
000067:                                                                                                  #        CADR    E/BKCALL
000068:                                                                                                  #        CADR    ROUTINE         WHERE YOU WANT TO GO IN FIXED.
000069:                                                                                                  #        RETURN HERE FROM DISPLAY TERMINATE, BAD STALL OR TC Q.
000070:                                                                                                  #        RETURN HERE FROM DISPLAY PROCEED OR GOOD RETURN FROM STALL.
000071:                                                                                                  #        RETURN HERE FROM DISPLAY ENTER OR RECYCLE.
000072:
000073:                                                                                                  #  THIS ROUTINE REQUIRES TWO ERASABLES (EBUF2, +1) IN UNSWITCHED WHICH ARE UNSHARED BY INTERRUPTS AND
000074:                                                                                                  #  OTHER EMEMORY PROGRAMS.
000075:
000076:                                                                                                  #  A + L ARE PRESERVED THROUGH BANKCALL AND E/BKCALL.
000077:
000078: 04,2576           52134        E/BKCALL           DXCH     BUF2                                  #  SAVE A,L AND GET DP RETURN.
000079: 04,2577           53170                           DXCH     EBUF2                                 #  SAVE DP RETURN.
000080: 04,2600           25167                           INCR     EBUF2                                 #  RETURN +1 BECAUSE DOUBLE CADR.
000081: 04,2601           30006                           CA       BBANK
000082: 04,2602           75012                           MASK     LOW10                                 #  GET CURRENT EBANK.  (SBANK SOMEDAY)
000083: 04,2603           27170                           ADS      EBUF2      +1                         #  FORM BBCON.  (WAS FBANK)
000084: 04,2604           51167                           NDX      EBUF2
000085: 04,2605           27777                           CA       0          -1                         #  GET CADR OF ROUTINE.
000086: 04,2606           04622                           TC       SWCALL                                #  GO TO ROUTINE, SETTING Q TO SWRETURN
000087:                                                                                                  #  AND RESTORING A + L.
000088: 04,2607           02613                           TC       +4                                    #  TX Q, V34, OR BAD STALL RETURN.
000089: 04,2610           02612                           TC       +2                                    #  PROCEED OR GOOD STALL RETURN.
000090: 04,2611           25167                           INCR     EBUF2                                 #  ENTER OR RECYCLE RETURN.
000091: 04,2612           25167                           INCR     EBUF2
000092: 04,2613           53170        E/SWITCH           DXCH     EBUF2
000093: 04,2614           52006                           DTCB
000094:


000096:                                                                                                  #  E/CALL        FOR CALLING A FIXED MEMORY INTERPRETIVE SUBROUTINE FROM ERASABLE AND RETURNING TO ERASABLE.
000097:
000098:                                                                                                  #  THE CALLING SEQUENCE IS...
000099:
000100:                                                                                                  #        RTB
000101:                                                                                                  #                E/CALL
000102:                                                                                                  #        CADR    ROUTINE                 THE INTERPRETIVE SUBROUTINE YOU WANT.
000103:                                                                                                  #                                        RETURNS HERE IN INTERPRETIVE.
000104:
000105: 04,2615           22164        E/CALL             LXCH     LOC                                   #  ADRES -1 OF CADR.
000106: 04,2616           50001                           INDEX    L
000107: 04,2617           30001                           CA       L                                     #  CADR IN A.
000108: 04,2620           24001                           INCR     L
000109: 04,2621           24001                           INCR     L                                     #  RETURN ADRES IN L.
000110: 04,2622           53170                           DXCH     EBUF2                                 #  STORE CADR AND RETURN.
000111: 04,2623           06037                           TC       INTPRET
000112: 04,2624           77624                           CALL
000113: 04,2625           01167                                    EBUF2                                 #  INDIRECTLY EXECUTE ROUTINE.  IT MUST
000114: 04,2626           77776                           EXIT                                           #  LEAVE VIA RVQ OR EQUIVALENT.
000115: 04,2627           23170                           LXCH     EBUF2      +1                         #  PICK UP RETURN.
000116: 04,2630           16041                           TCF      INTPRET    +2                         #  SET LOC AND RETURN TO CALLER.
000117:


000119:                                                                                                  #  E/JOBWAK      FOR WAKING UP ERASABLE MEMORY JOBS.
000120:
000121:                                                                                                  #  THIS ROUTINE MUST BE CALLED IN INTERRUPT OR WITH INTERRUPTS INHIBITED.
000122:
000123:                                                                                                  #  THE CALLING SEQUENCE IS:
000124:
000125:                                                                                                  #        INHINT
000126:                                                                                                  #          .
000127:                                                                                                  #          .
000128:                                                                                                  #        CA      WAKEADR         ADDRESS OF SLEEPING JOB
000129:                                                                                                  #        TC      IBNKCALL
000130:                                                                                                  #        CADR    E/JOBWAK
000131:                                                                                                  #          .                     RETURNS HERE
000132:                                                                                                  #          .
000133:                                                                                                  #          .
000134:                                                                                                  #        RELINT                  IF YOU DID AN INHINT.
000135:
000136: 33,2045                                           BANK     33
000137: 04,2000                                           SETLOC   E/PROG
000138: 04,2000                                           BANK
000139:
000140: 04,2631                                           COUNT*   $$/P07
000141:
000142: 04,2631           05137        E/JOBWAK           TC       JOBWAKE                               #  ARRIVE IWTH ADRES IN A.
000143: 04,2632           44741                           CS       BIT11
000144: 04,2633           50064                           NDX      LOCCTR
000145: 04,2634           26164                           ADS      LOC                                   #  KNOCK FIXED MEMORY BIT OUT OF ADRES.
000146: 04,2635           00072                           TC       RUPTREG3                              #  RETURN
000147:

End of include-file SYSTEM_TEST_STANDARD_LEAD_INS.agc.  Parent file is MAIN.agc


