
Source Code


000002:                                                                                                  ## Copyright:   Public domain.
000003:                                                                                                  ## Filename:    T4RUPT_PROGRAM.agc
000004:                                                                                                  ## Purpose:     Part of the reconstructed source code for LMY99 Rev 0,
000005:                                                                                                  ##              otherwise known as Luminary Rev 99, the third release
000006:                                                                                                  ##              of the Apollo Guidance Computer (AGC) software for Apollo 11.
000007:                                                                                                  ##              It differs from LMY99 Rev 1 (the flown version) only in the
000008:                                                                                                  ##              placement of a single label. The corrections shown here have
000009:                                                                                                  ##              been verified to have the same bank checksums as AGC developer
000010:                                                                                                  ##              Allan Klumpp's copy of Luminary Rev 99, and so are believed
000011:                                                                                                  ##              to be accurate. This file is intended to be a faithful
000012:                                                                                                  ##              recreation, except that the code format has been changed to
000013:                                                                                                  ##              conform to the requirements of the yaYUL assembler rather than
000014:                                                                                                  ##              the original YUL assembler.
000015:                                                                                                  ##
000016:                                                                                                  ## Assembler:   yaYUL
000017:                                                                                                  ## Contact:     Hartmuth Gutsche <hgutsche@xplornet.com>.
000018:                                                                                                  ## Website:     www.ibiblio.org/apollo.
000019:                                                                                                  ## Pages:       155-189
000020:                                                                                                  ## Mod history: 2009-05-19 HG   Transcribed from page images.
000021:                                                                                                  ##              2010-12-31 JL   Fixed page number comment.
000022:                                                                                                  ##              2011-01-06 JL   Fixed indentation of TNONTEST. Fixed pseudo-label indentation.
000023:                                                                                                  ##              2016-12-13 RSB  Proofed text comments with octopus/ProoferComments
000024:                                                                                                  ##                              and corrected the errors found.
000025:                                                                                                  ##              2017-01-26 RSB  Back-ported comment-text fixes found while
000026:                                                                                                  ##                              proofing corresponding Luminary 69 file.
000027:                                                                                                  ##              2017-01-28 RSB  WTIH -> WITH.
000028:                                                                                                  ##              2017-02-08 RSB  Comment-text fixes identified while proofing Artemis 72.
000029:                                                                                                  ##              2017-03-03 RSB  Fixed comment-text errors identified while proofing
000030:                                                                                                  ##                              Luminary 116.
000031:                                                                                                  ##              2017-08-01 MAS  Created from LMY99 Rev 1.
000032:
000033:                                                                                                  ## This source code has been transcribed or otherwise adapted from
000034:                                                                                                  ## digitized images of a hardcopy from the MIT Museum.  The digitization
000035:                                                                                                  ## was performed by Paul Fjeld, and arranged for by Deborah Douglas of
000036:                                                                                                  ## the Museum.  Many thanks to both.  The images (with suitable reduction
000037:                                                                                                  ## in storage size and consequent reduction in image quality as well) are
000038:                                                                                                  ## available online at www.ibiblio.org/apollo.  If for some reason you
000039:                                                                                                  ## find that the images are illegible, contact me at info@sandroid.org
000040:                                                                                                  ## about getting access to the (much) higher-quality images which Paul
000041:                                                                                                  ## actually created.
000042:                                                                                                  ##
000043:                                                                                                  ## The code has been modified to match LMY99 Revision 0, otherwise
000044:                                                                                                  ## known as Luminary Revision 99, the Apollo 11 software release preceeding
000045:                                                                                                  ## the listing from which it was transcribed. It has been verified to
000046:                                                                                                  ## contain the same bank checksums as AGC developer Allan Klumpp's listing
000047:                                                                                                  ## of Luminary Revision 99 (for which we do not have scans).
000048:                                                                                                  ##
000049:                                                                                                  ## Notations on Allan Klumpp's listing read, in part:
000050:                                                                                                  ##
000051:                                                                                                  ##      ASSEMBLE REVISION 099 OF AGC PROGRAM LUMINARY BY NASA 2021112-51
000052:


000054: 12,2000                                           BANK     12
000055: 06,2000                                           SETLOC   T4RUP
000056: 06,2000                                           BANK
000057:
000058: 06,2000  E6,1414                                  EBANK=   M11
000059: 06,2000                                           COUNT*   $$/T4RPT
000060: 06,2000           54016        T4RUPT             TS       BANKRUPT
000061:
000062: 06,2001           00006                           EXTEND
000063: 06,2002           22012                           QXCH     QRUPT
000064:
000065: 06,2003           11313                           CCS      DSRUPTSW                              #  GOES 7(-1)0 AROUND AND AROUND
000066: 06,2004           12010                           TCF      NORMT4     +1
000067: 06,2005           12007                           TCF      NORMT4
000068:
000069: 06,2006           12134                           TCF      QUIKDSP
000070:
000071: 06,2007           34757        NORMT4             CAF      SEVEN
000072: 06,2010           54070                           TS       RUPTREG1
000073: 06,2011           55313                           TS       DSRUPTSW
000074:
000075:    4066                                           BLOCK    02
000076:    4000                                           SETLOC   FFTAG10
000077:    4000                                           BANK
000078:
000079:    4066                                           COUNT*   $$/T4RPT
000080:    4066     7727               100MRUPT           =        OCT37766                              #  (DEC 16374)
000081:                                                                                                  #  RELTAB IS A PACKED TABLE. RELAYWORD CODE IN UPPER 4 BITS, RELAY CODE
000082:                                                                                                  #  IN LOWER 5 BITS.
000083:
000084:    4066           04025        RELTAB             OCT      04025
000085:    4067           10003                           OCT      10003
000086:    4070           14031                           OCT      14031
000087:    4071           20033                           OCT      20033
000088:    4072           24017                           OCT      24017
000089:    4073           30036                           OCT      30036
000090:    4074           34034                           OCT      34034
000091:    4075           40023                           OCT      40023
000092:    4076           44035                           OCT      44035
000093:    4077           50037                           OCT      50037
000094:    4100           54000                           OCT      54000
000095:    4101           60000        RELTAB11           OCT      60000
000096:


000098:                                                                                                  #  SWITCHED-BANK PORTION.
000099:
000100: 12,2000                                           BANK     12
000101: 06,2000                                           SETLOC   T4RUP
000102: 06,2000                                           BANK
000103:
000104: 06,2012                                           COUNT*   $$/T4RPT
000105: 06,2012           11036        CDRVE              CCS      DSPTAB     +11D
000106: 06,2013           02063                           TC       DSPOUT
000107: 06,2014           02063                           TC       DSPOUT
000108:
000109: 06,2015           57036                           XCH      DSPTAB     +11D
000110: 06,2016           74356                           MASK     LOW11
000111: 06,2017           55036                           TS       DSPTAB     +11D
000112: 06,2020           64101                           AD       RELTAB11
000113: 06,2021           00006                           EXTEND
000114: 06,2022           01010                           WRITE    OUT0
000115: 06,2023           02071                           TC       HANG20
000116:


000118:                                                                                                  #  DSPOUT PROGRAM. PUTS OUT DISPLAYS.
000119:
000120: 06,2024           55016        DSPOUTSB           TS       NOUT
000121: 06,2025           44755                           CS       ZERO
000122: 06,2026           54073                           TS       DSRUPTEM                              #  SET TO -0 FOR 1ST PASS THRU DSPTAB
000123: 06,2027           56776                           XCH      DSPCNT
000124: 06,2030           64754                           AD       NEG0                                  #  TO PREVENT +0
000125: 06,2031           54776                           TS       DSPCNT
000126: 06,2032           50776        DSPSCAN            INDEX    DSPCNT
000127: 06,2033           11023                           CCS      DSPTAB
000128: 06,2034           10776                           CCS      DSPCNT                                #  IF DSPTAB ENTRY +, SKIP
000129: 06,2035           12030                           TCF      DSPSCAN    -2                         #  IF DSPCNT +, TRY AGAIN
000130: 06,2036           12047                           TCF      DSPLAY                                #  IF DSPTAB ENTRY -, DISPLAY
000131: 06,2037           00012        TABLNTH            OCT      12                                    #  DEC 10  LENGTH OF DSPTAB
000132: 06,2040           10073                           CCS      DSRUPTEM                              #  IF DSRUPTEM=+0, 2ND PASS THRU DSPTAB
000133: 06,2041           37764        120MRUPT           DEC      16372      B-14                       #  (DSPCNT = 0).  +0 INTO NOUT.
000134: 06,2042           55016                           TS       NOUT
000135: 06,2043           00002                           TC       Q
000136: 06,2044           54073                           TS       DSRUPTEM                              #  IF DSRUPTEM=-0, 1ST PASS THRU DSPTAB
000137: 06,2045           32037                           CAF      TABLNTH                               #  (DSPCNT=0).+0 INTO DSRUPTEM. PASS AGAIN
000138: 06,2046           12031                           TCF      DSPSCAN    -1
000139:
000140: 06,2047           64753        DSPLAY             AD       ONE
000141: 06,2050           50776                           INDEX    DSPCNT
000142: 06,2051           55023                           TS       DSPTAB                                #  REPLACE POSITIVELY
000143: 06,2052           74356                           MASK     LOW11                                 #  REMOVE BITS 12 TO 15
000144: 06,2053           54073                           TS       DSRUPTEM
000145: 06,2054           34350                           CAF      HI5
000146: 06,2055           50776                           INDEX    DSPCNT
000147: 06,2056           74066                           MASK     RELTAB                                #  PICK UP BITS 12 TO 15 OF RELTAB ENTRY
000148: 06,2057           60073                           AD       DSRUPTEM
000149: 06,2060           00006                           EXTEND
000150: 06,2061           01010                           WRITE    OUT0
000151:
000152: 06,2062           16737                           TCF      Q+1
000153:
000154: 06,2063           10101        DSPOUT             CCS      FLAGWRD5                              #  IS DSKY FLAG ON
000155: 06,2064           34755                           CAF      ZERO                                  #  NO
000156: 06,2065           12130                           TCF      NODSPOUT                              #  NO
000157: 06,2066           11016                           CCS      NOUT                                  #  YES
000158: 06,2067           02024                           TC       DSPOUTSB
000159: 06,2070           12130                           TCF      NODSPOUT                              #  NO DISPLAY REQUESTS
000160:
000161: 06,2071           42171        HANG20             CS       14,11,9
000162: 06,2072           27313                           ADS      DSRUPTSW
000163:
000164: 06,2073           37731                           CAF      20MRUPT
000165:
000166: 06,2074           54027        SETTIME4           TS       TIME4
000167:


000169:                                                                                                  #  THE STATUS OF THE PROCEED PUSHBUTTON IS MONITORED EVERY 120 MILLISECONDS VIA THE CHANNEL 32 BIT 14 INBIT.
000170:                                                                                                  #   THE STATE OF THIS INBIT IS COMPARED WITH ITS STATE DURING THE PREVIOUS T4RUPT AND IS PROCESSED AS FOLLOWS.
000171:                                                                                                  #        IF PREV ON AND NOW ON   - BYPASS
000172:                                                                                                  #        IF PREV ON AND NOW OFF  - UPDATE IMODES33
000173:                                                                                                  #        IF PREV OFF AND NOW ON  - UPDATE IMODES33 AND PROCESS VIA PINBALL
000174:                                                                                                  #        IF PREV OFF AND NOW OFF - BYPASS
000175:                                                                                                  #  THE LOGIC EMPLOYED REQUIRES ONLY 9 MCT (APPROX. 108 MICROSECONDS) OF COMPUTER TIME WHEN NO CHANGES OCCUR.
000176:
000177: 06,2075           31303        PROCEEDE           CA       IMODES33                              #  MONITIOR FOR PROCEED BUTTON
000178: 06,2076           00006                           EXTEND
000179: 06,2077           06032                           RXOR     CHAN32
000180: 06,2100           74736                           MASK     BIT14
000181: 06,2101           00006                           EXTEND
000182: 06,2102           12116                           BZF      T4JUMP                                #  NO CHANGE
000183:
000184: 06,2103           23303                           LXCH     IMODES33
000185: 06,2104           00006                           EXTEND
000186: 06,2105           06001                           RXOR     LCHAN
000187: 06,2106           55303                           TS       IMODES33                              #  UPDATE IMODES33
000188: 06,2107           74736                           MASK     BIT14
000189: 06,2110           10000                           CCS      A
000190: 06,2111           12116                           TCF      T4JUMP                                #  WAS ON - NOW OFF
000191:
000192: 06,2112           34355                           CAF      CHRPRIO                               #  WAS OFF - NOW ON
000193: 06,2113           05072                           TC       NOVAC
000194: 06,2114     0777                                  EBANK=   DSPCOUNT
000195: 06,2114           03452 60101                     2CADR    PROCKEY
000196:


000198:                                                                                                  #  JUMP TO APPROPRIATE ONCE-PER SECOND (.96 SEC ACTUALLY) ACTIVITY
000199:
000200: 06,2116           50070        T4JUMP             INDEX    RUPTREG1
000201: 06,2117           12120                           TCF      +1
000202:
000203: 06,2120           03156                           TC       RCSMONIT
000204: 06,2121           13006                           TCF      RRAUTCHK
000205: 06,2122           12172                           TCF      IMUMON
000206: 06,2123           13132                           TCF      DAPT4S
000207: 06,2124           03156                           TC       RCSMONIT
000208: 06,2125           13006                           TCF      RRAUTCHK
000209: 06,2126           12172                           TCF      IMUMON
000210: 06,2127           13132                           TCF      DAPT4S
000211:
000212: 06,2130     7731               20MRUPT            =        OCT37776                              #  (DEC 16382)
000213:


000215:                                                                                                  #  ADDITIONAL ROUTINES FOR 20MS. KEYBOARD ACTIVITY
000216:
000217: 06,2130           00006        NODSPOUT           EXTEND
000218: 06,2131           01010                           WRITE    OUT0
000219:
000220: 06,2132           32041                           CAF      120MRUPT                              # SET FOR NEXT CDRIVE
000221: 06,2133           12074                           TCF      SETTIME4
000222:
000223: 06,2134           34736        QUIKDSP            CAF      BIT14
000224: 06,2135           71313                           MASK     DSRUPTSW
000225: 06,2136           00006                           EXTEND
000226: 06,2137           12165                           BZF      QUIKOFF                               #  WROTE LAST TIME, NOW TURN OFF RELAYS.
000227:
000228: 06,2140           11016                           CCS      NOUT
000229: 06,2141           02024                           TC       DSPOUTSB
000230: 06,2142           12152                           TCF      NODSPY                                #  NOUT=0 OR BAD RETURN FROM DSPOUTSB
000231: 06,2143           44736                           CS       BIT14                                 #  GOOD RETURN (WE DISPLAYED SOMETHING)
000232: 06,2144           27313        QUIKRUPT           ADS      DSRUPTSW
000233:
000234: 06,2145           37731                           CAF      20MRUPT
000235: 06,2146           54027                           TS       TIME4
000236:
000237: 06,2147           34743                           CAF      BIT9
000238: 06,2150           27313                           ADS      DSRUPTSW
000239:
000240: 06,2151           05270                           TC       RESUME
000241:
000242: 06,2152           00006        NODSPY             EXTEND
000243: 06,2153           01010                           WRITE    OUT0
000244:
000245: 06,2154           37731        SYNCT4             CAF      20MRUPT
000246: 06,2155           26027                           ADS      TIME4
000247:
000248: 06,2156           34743                           CAF      BIT9
000249: 06,2157           27313                           ADS      DSRUPTSW
000250:
000251: 06,2160           11313                           CCS      DSRUPTSW
000252: 06,2161           05270                           TC       RESUME
000253: 06,2162           37737        OCT37737           OCT      37737
000254: 06,2163           02154                           TC       SYNCT4
000255: 06,2164           05270                           TC       RESUME
000256:
000257: 06,2165           00006        QUIKOFF            EXTEND
000258: 06,2166           01010                           WRITE    OUT0
000259: 06,2167           34736                           CAF      BIT14                                 #  RESET DSRUPTSW TO SEND DISPLAY NEXT PASS
000260: 06,2170           12144                           TCF      QUIKRUPT
000261:
000262: 06,2171           22400        14,11,9            OCT      22400
000263:


000265:                                                                                                  #  PROGRAM NAME:  IMUMON
000266:
000267:                                                                                                  #  FUNCTIONAL DESCRIPTION:  THIS PROGRAM IS ENTERED EVERY 480 MS.  IT DETECTS CHANGES OF THE IMU STATUS BITS IN
000268:                                                                                                  #  CHANNEL 30 AND CALLS THE APPROPRIATE SUBROUTINES.  THE BITS PROCESSED AND THEIR RELEVANT SUBROUTINES ARE:
000269:
000270:                                                                                                  #        FUNCTION                BIT     SUBROUTINE CALLED
000271:                                                                                                  #        --------                ---     -----------------
000272:                                                                                                  #        TEMP IN LIMITS           15     TLIM
000273:                                                                                                  #        ISS TURN-ON REQUEST      14     ITURNON
000274:                                                                                                  #        IMU FAIL                 13     IMUFAIL (SETISSW)
000275:                                                                                                  #        IMU CDU FAIL             12     ICDUFAIL (SETISSW)
000276:                                                                                                  #        IMU CAGE                 11     IMUCAGE
000277:                                                                                                  #        IMU OPERATE               9     IMUOP
000278:
000279:                                                                                                  #  THE LAST SAMPLED STATE OF THESE BITS IS LEFT IN IMODES30.  ALSO, EACH SUBROUTINE CALLED FINDS THE NEW
000280:                                                                                                  #  VALUE OF THE BIT IN A, WITH Q SET TO THE PROPER RETURN LOCATION, NXTIFAIL.
000281:
000282:                                                                                                  #  CALLING SEQUENCE:  T4RUPT EVERY 480 MILLISECONDS.
000283:
000284:                                                                                                  #  JOBS OR TASKS INITIATED:  NONE.
000285:
000286:                                                                                                  #  SUBROUTINES CALLED:  TLIM, ITURNON, SETISSW, IMUCAGE, IMUOP.
000287:
000288:                                                                                                  #  ERASABLE INITIALIZATION:
000289:                                                                                                  #        FRESH START OR RESTART WITH NO GROUPS ACTIVE:  C(IMODES30) = OCT 37411.
000290:                                                                                                  #        RESTART WITH ACTIVE GROUPS:     C(IMODES30) = (B(IMODES30)AND(OCT 00035)) PLUS OCT 37400.
000291:                                                                                                  #                                        THIS LEAVES IMU FAIL BITS INTACT.
000292:
000293:                                                                                                  #  ALARMS:  NONE.
000294:
000295:                                                                                                  #  EXIT:  TNONTEST.
000296:
000297:                                                                                                  #  OUTPUT:  UPDATED IMODES30 WITH CHANGES PROCESSED BY APPROPRIATE SUBROUTINE.
000298:
000299: 06,2172           31302        IMUMON             CA       IMODES30                              #  SEE IF THERE HAS BEEN A CHANGE IN THE
000300: 06,2173           00006                           EXTEND                                         #  RELEVANT BITS OF CHAN 30.
000301: 06,2174           06030                           RXOR     CHAN30
000302: 06,2175           72761                           MASK     30RDMSK
000303: 06,2176           00006                           EXTEND
000304: 06,2177           12227                           BZF      TNONTEST                              #  NO CHANGE IN STATUS.
000305:
000306: 06,2200           54070                           TS       RUPTREG1                              #  SAVE BITS WHICH HAVE CHANGED.
000307: 06,2201           23302                           LXCH     IMODES30                              #  UPDATE IMODES30.
000308: 06,2202           00006                           EXTEND
000309: 06,2203           06001                           RXOR     LCHAN
000310: 06,2204           55302                           TS       IMODES30
000311:
000312: 06,2205           44753                           CS       ONE
000313: 06,2206           56070                           XCH      RUPTREG1
000314: 06,2207           00006                           EXTEND


000316: 06,2210           62514                           BZMF     TLIM                                  #  CHANGE IN IMU TEMP.
000317: 06,2211           12213                           TCF      NXTIFBIT                              #  BEGIN BIT SCAN.
000318:
000319: 06,2212           64753                 -1        AD       ONE                                   #  (RE-ENTERS HERE FROM NXTIFAIL.)
000320: 06,2213           24070        NXTIFBIT           INCR     RUPTREG1                              #  ADVANCE BIT POSITION NUMBER.
000321: 06,2214           60000                 +1        DOUBLE
000322: 06,2215           54000                           TS       A                                     #  SKIP IF OVERFLOW.
000323: 06,2216           12213                           TCF      NXTIFBIT                              #  LOOK FOR BIT.
000324:
000325: 06,2217           56071                           XCH      RUPTREG2                              #  SAVE OVERFLOW-CORRECTED DATA.
000326: 06,2220           50070                           INDEX    RUPTREG1                              #  SELECT NEW VALUE OF THIS BIT.
000327: 06,2221           34736                           CAF      BIT14
000328: 06,2222           71302                           MASK     IMODES30
000329: 06,2223           50070                           INDEX    RUPTREG1
000330: 06,2224           02755                           TC       IFAILJMP
000331:
000332: 06,2225           10071        NXTIFAIL           CCS      RUPTREG2                              #  PROCESS ANY ADDITIONAL CHANGES.
000333: 06,2226           12212                           TCF      NXTIFBIT   -1
000334:


000336:                                                                                                  #  PROGRAM NAME:  TNONTEST.
000337:
000338:                                                                                                  #  FUNCTIONAL DESCRIPTION:  THIS PROGRAM HONORS REQUESTS FOR ISS INITIALIZATION.  ISS TURN-ON (CHANNEL 30 BIT 14)
000339:                                                                                                  #  AND ISS OPERATE (CHANNEL 30 BIT 9) REQUESTS ARE TREATED AS A PAIR AND PROCESSING TAKES PLACE .480 SECONDS
000340:                                                                                                  #  AFTER EITHER ONE APPEARS.  THIS INITIALIZATION TAKES ON ONE OF THE FOLLOWING THREE FORMS:
000341:
000342:                                                                                                  #        1) ISS TURN-ON:  IN THIS SITUATION THE COMPUTER IS OPERATING WHEN THE ISS IS TURNED ON.  NOMINALLY,
000343:                                                                                                  #        BOTH ISS TURN-ON AND ISS OPERATE APPEAR.  THE PLATFORM IS CAGED FOR 90 SECONDS AND THE ICDU'S ZEROED
000344:                                                                                                  #        SO THAT AT THE END OF THE PROCESS THE GIMBAL LOCK MONITOR WILL FUNCTION PROPERLY.
000345:
000346:                                                                                                  #        2) ICDU INITIALIZATION:  IN THIS CASE THE COMPUTER WAS PROBABLY TURNED ON WITH THE ISS IN OPERATE OR
000347:                                                                                                  #        A FRESH START WAS DONE WITH THE ISS IN OPERATE.  IN THIS CASE ONLY ISS OPERATE IS ON.  THE ICDU'S ARE
000348:                                                                                                  #        ZEROED SO THE GIMBAL LOCK MONITOR WILL FUNCTION.  AN EXCEPTION IS IF THE ISS IS IN GIMBAL LOCK AFTER
000349:                                                                                                  #        A RESTART, THE ICDU'S WILL NOT BE ZEROED.
000350:
000351:                                                                                                  #        3) RESTART WITH RESTARTABLE PROGRAM USING THE IMU:  IN THIS CASE, NO INITIALIZATION TAKES PLACE SINCE
000352:                                                                                                  #        IT IS ASSUMED THAT THE USING PROGRAM DID THE INITIALIZATION AND THEREFORE T4RUPT SHOULD NOT INTERFERE.
000353:
000354:                                                                                                  #  IMODES30 BIT 7 IS SET = 1 BY THE FIRST BIT (CHANNEL 30 BIT 14 OR 9) WHICH ARRIVES.  FOLLOWING THIS. TNONTEST IS
000355:                                                                                                  #  ENTERED, FINDS BIT 7 = 1 BUT BIT 8 = 0, SO IT SETS BIT 8 = 1 AND EXITS.  THE NEXT TIME IT FINDS BIT 8 = 1 AND
000356:                                                                                                  #  PROCEEDS, SETTING BITS 8 AND 7 = 0.  AT PROCTNON, IF ISS TURN-ON REQUEST IS PRESENT, THE ISS IS CAGED (ZERO +
000357:                                                                                                  #  COARSE).  IF ISS OPERATE IS NOT PRESENT PROGRAM ALARM 00213 IS ISSUED.  AT THE END OF A 90 SECOND CAGE, BIT 2
000358:                                                                                                  #  OF IMODES30 IS TESTED.  IF IT IS = 1, ISS TURN-ON WAS NOT PRESENT FOR THE ENTIRE 90 SECONDS.  IN THAT CASE, IF
000359:                                                                                                  #  THE ISS TURN-ON REQUEST IS PRESENT THE 90 SECOND WAIT IS REPEATED, OTHERWISE NO ACTION OCCURS UNLESS A PROGRAM
000360:                                                                                                  #  WAS WAITING FOR THE INITIALIZATION IN WHICH CASE THE PROGRAM IS GIVEN AN IMUSTALL ERROR RETURN.  IF THE DELAY
000361:                                                                                                  #  WENT PROPERLY, THE ISS DELAY OUTBIT IS SENT AND THE ICDU'S ZEROED.  A TASK IS INITIATED TO REMOVE THE PIPA FAIL
000362:                                                                                                  #  INHIBIT BIT IN 10.24 SECONDS.  IF A MISSION PROGRAM WAS WAITING IT IS INFORMED VIA ENDIMU.
000363:
000364:                                                                                                  #  AT PROCTNON, IF ONLY ISS OPERATE IS PRESENT (OPONLY), THE CDU'S ARE ZEROED UNLESS THE PLATFORM IS IN COARSE
000365:                                                                                                  #  ALIGN (= GIMBAL LOCK HERE) OR A MISSION PROGRAM IS USING THE IMU (IMUSEFLG = 1).
000366:
000367:                                                                                                  #  CALLING SEQUENCE:  T4RUPT EVERY 480 MILLISECONDS AFTER IMUMON.
000368:
000369:                                                                                                  #  JOBS OR TASKS INITIATED:  1) ENDTNON, 90 SECONDS AFTER CAGING STARTED.  2) ISSUP, 4 SECONDS AFTER CAGING DONE.
000370:                                                                                                  #        3) PFAILOK, 10.24 SECONDS AFTER INITIALIZATION COMPLETED.  4) UNZ2, 320 MILLISECONDS AFTER ZEROING
000371:                                                                                                  #        STARTED.
000372:
000373:                                                                                                  #  SUBROUTINES CALLED: CAGESUB, CAGESUB2, ZEROICDU, ENDIMU, IMUBAD, NOATTOFF, SETISSW, VARDELAY.
000374:
000375:                                                                                                  #  ERASABLE INITIALIZATION:  SEE IMUMON.
000376:
000377:                                                                                                  #  ALARMS:  PROGRAM ALARM 00213 IF ISS TURN-ON REQUESTED WITHOUT ISS OPERATE.
000378:
000379:                                                                                                  #  EXIT:  ENDTNON EXITS TO C33TEST.  TASKS HAVING TO DO WITH INITIALIZATION EXIT AS FOLLOWS:  MISSION PROGRAM
000380:                                                                                                  #  WAITING AND INITIALIZATION COMPLETE, EXIT TO ENDIMU, MISSION PROGRAM WAITING AND INITIALIZATION FAILED, EXIT TO
000381:                                                                                                  #  IMUBAD, IMU NOT IN USE, EXIT TO TASKOVER.
000382:
000383:                                                                                                  #  OUTPUT:  ISS INITIALIZED.
000384:
000385: 06,2227           41302        TNONTEST           CS       IMODES30                              #  AFTER PROCESSING ALL CHANGES, SEE IF IT


000387: 06,2230           74745                           MASK     BIT7                                  #  IS TIME TO ACT ON A TURN-ON SEQUENCE.
000388: 06,2231           10000                           CCS      A
000389: 06,2232           12374                           TCF      C33TEST                               #  NO - EXAMINE CHANNEL 33.
000390:
000391: 06,2233           34744                           CAF      BIT8                                  #  SEE IF FIRST SAMPLE OR SECOND.
000392: 06,2234           71302                           MASK     IMODES30
000393: 06,2235           10000                           CCS      A
000394: 06,2236           12242                           TCF      PROCTNON                              #  REACT AFTER SECOND SAMPLE.
000395:
000396: 06,2237           34744                           CAF      BIT8                                  #  IF FIRST SAMPLE, SET BIT TO REACT NEXT
000397: 06,2240           27302                           ADS      IMODES30                              #  TIME.
000398: 06,2241           12374                           TCF      C33TEST
000399:
000400:                                                                                                  #  PROCESS IMU TURN-ON REQUESTS AFTER WAITING 1 SAMPLE FOR ALL SIGNALS TO ARRIVE.
000401:
000402: 06,2242           42777        PROCTNON           CS       BITS7&8
000403: 06,2243           71302                           MASK     IMODES30
000404: 06,2244           55302                           TS       IMODES30
000405: 06,2245           74736                           MASK     BIT14                                 #  SEE IF TURN-ON REQUEST.
000406: 06,2246           10000                           CCS      A
000407: 06,2247           12347                           TCF      OPONLY                                #  OPERATE ON ONLY.
000408:
000409: 06,2250           41302                           CS       IMODES30                              #  IF TURN-ON REQUEST, WE SHOULD HAVE IMU
000410: 06,2251           74743                           MASK     BIT9                                  #  OPERATE.
000411: 06,2252           10000                           CCS      A
000412: 06,2253           12256                           TCF      +3
000413:
000414: 06,2254           05567                           TC       ALARM                                 #  ALARM IF NOT.
000415: 06,2255           00213                           OCT      213
000416:
000417: 06,2256           02735                 +3        TC       CAGESUB
000418: 06,2257           33005                           CAF      90SECS
000419: 06,2260           05203                           TC       WAITLIST
000420: 06,2261  E6,1414                                  EBANK=   M11
000421: 06,2261           02266 14106                     2CADR    ENDTNON
000422:
000423: 06,2263           12374                           TCF      C33TEST
000424:
000425: 06,2264           33005        RETNON             CAF      90SECS
000426: 06,2265           05224                           TC       VARDELAY
000427:
000428: 06,2266           44752        ENDTNON            CS       BIT2                                  #  RESET TURN-ON REQUEST FAIL BIT.
000429: 06,2267           71302                           MASK     IMODES30
000430: 06,2270           57302                           XCH      IMODES30
000431: 06,2271           74752                           MASK     BIT2                                  #  IF IT WAS OFF, SEND ISS DELAY COMPLETE.
000432: 06,2272           00006                           EXTEND
000433: 06,2273           12306                           BZF      ENDTNON2
000434:
000435: 06,2274           34736                           CAF      BIT14                                 #  IF IT WAS ON AND TURN-ON REQUEST NOW


000437: 06,2275           71302                           MASK     IMODES30                              #  PRESENT, RE-ENTER 90 SEC DELAY IN WL.
000438: 06,2276           00006                           EXTEND
000439: 06,2277           12264                           BZF      RETNON
000440:
000441: 06,2300           40074                           CS       FLAGWRD0                              #  IF IT IS NOT ON NOW, SEE IF A PROG WAS
000442: 06,2301           74744                           MASK     IMUSEBIT                              #  WAITING.
000443: 06,2302           10000                           CCS      A
000444: 06,2303           15261                           TCF      TASKOVER
000445: 06,2304           04635                           TC       POSTJUMP
000446: 06,2305           17637                           CADR     IMUBAD                                #  UNSUCCESSFUL TURN-ON.
000447:
000448: 06,2306           34735        ENDTNON2           CAF      BIT15                                 #  SEND ISS DELAY COMPLETE.
000449: 06,2307           00006                           EXTEND
000450: 06,2310           05012                           WOR      CHAN12
000451:
000452: 06,2311           04674                           TC       IBNKCALL                              #  TURN OFF NO ATT LAMP.
000453: 06,2312           17266                           CADR     NOATTOFF
000454:
000455: 06,2313           05457        UNZ2               TC       ZEROICDU
000456:
000457: 06,2314           44763                           CS       BITS4&5                               #  REMOVE ZERO AND COARSE.
000458: 06,2315           00006                           EXTEND
000459: 06,2316           03012                           WAND     CHAN12
000460:
000461: 06,2317           34741                           CAF      BIT11                                 #  WAIT 10 SECS FOR CTRS TO FIND GIMBALS
000462: 06,2320           05224                           TC       VARDELAY
000463:
000464: 06,2321           42774        ISSUP              CS       OCT54                                 #  REMOVE CAGING, IMU FAIL INHIBIT, AND
000465: 06,2322           71302                           MASK     IMODES30                              #  ICDUFAIL INHIBIT FLAGS.
000466: 06,2323           55302                           TS       IMODES30
000467:
000468: 06,2324           44746                           CS       BIT6                                  #  ENABLE DAP
000469: 06,2325           71303                           MASK     IMODES33
000470: 06,2326           55303                           TS       IMODES33
000471:
000472: 06,2327           40076                           CS       FLAGWRD2                              #  TEST DRIFTFLG: IF ON, DO NOTHING BECAUSE
000473: 06,2330           74735                           MASK     DRFTBIT                               #  IMUCOMP SHOULD BE ALL SET UP (RESTART
000474: 06,2331           00006                           EXTEND                                         #  WITH IMUSE DOWN).  IF OFF, SET DRIFTFLG
000475: 06,2332           12336                           BZF      +4                                    #  AND 1/PIPADT TO GET FREEFALL IMUCOMP
000476: 06,2333           26076                           ADS      FLAGWRD2                              #  GOING (FRESH START OR ISS TURN-ON).
000477: 06,2334           30025                           CA       TIME1
000478: 06,2335           57075                           XCH      1/PIPADT                              #  CANNOT GET HERE IF RESTART WITH IMUSE UP
000479:
000480: 06,2336           02703                           TC       SETISSW                               #  ISS WARNING MIGHT HAVE BEEN INHIBITED.
000481:
000482: 06,2337           44735                           CS       BIT15                                 #  REMOVE IMU DELAY COMPLETE DISCRETE.
000483: 06,2340           00006                           EXTEND
000484: 06,2341           03012                           WAND     CHAN12
000485:
000486: 06,2342           35003                           CAF      4SECS                                 #  DONT ENABLE PROG ALARM ON PIP FAIL FOR


000488: 06,2343           05203                           TC       WAITLIST                              #  ANOTHER 4 SECS.
000489: 06,2344  E3,1474                                  EBANK=   CDUIND
000490: 06,2344           03254 16103                     2CADR    PFAILOK
000491:
000492: 06,2346           15261                           TCF      TASKOVER
000493:
000494: 06,2347           34750        OPONLY             CAF      BIT4                                  #  IF OPERATE ON ONLY, AND WE ARE IN COARSE
000495: 06,2350           00006                           EXTEND                                         #  ALIGN, DONT ZERO THE CDUS BECAUSE WE
000496: 06,2351           02012                           RAND     CHAN12                                #  MIGHT BE IN GIMBAL LOCK
000497: 06,2352           10000                           CCS      A
000498: 06,2353           12374                           TCF      C33TEST
000499:
000500: 06,2354           34744                           CAF      IMUSEBIT                              #  OTHERWISE, ZERO THE COUNTERS.
000501: 06,2355           70074                           MASK     FLAGWRD0                              #  UNLESS SOMEONE IS USING THE IMU.
000502: 06,2356           10000                           CCS      A
000503: 06,2357           12374                           TCF      C33TEST
000504:
000505: 06,2360           02746                           TC       CAGESUB2                              #  SET TURNON FLAGS.
000506:
000507: 06,2361           04674        ISSZERO            TC       IBNKCALL                              #  TURN OFF NO ATT LAMP
000508: 06,2362           17266                           CADR     NOATTOFF                              #      IMU CAGE OFF ENTRY
000509:
000510: 06,2363           34747                           CAF      BIT5                                  #  ISS CDU ZERO
000511: 06,2364           00006                           EXTEND
000512: 06,2365           05012                           WOR      CHAN12
000513:
000514: 06,2366           05457                           TC       ZEROICDU
000515: 06,2367           34746                           CAF      BIT6                                  #  WAIT 300 MS FOR AGS TO RECEIVE SIGNAL.
000516: 06,2370           05203                           TC       WAITLIST
000517: 06,2371  E6,1414                                  EBANK=   M11
000518: 06,2371           02313 14106                     2CADR    UNZ2
000519:
000520: 06,2373           12374                           TCF      C33TEST
000521:


000523:                                                                                                  #  PROGRAM NAME:  C33TEST
000524:
000525:                                                                                                  #  FUNCTIONAL DESCRIPTION:  THIS PROGRAM MONITORS THREE FLIP-FLOP INBITS OF CHANNEL 33 AND CALLS THE APPROPRIATE
000526:                                                                                                  #  SUBROUTINE TO PROCESS A CHANGE.  IT IS ANALOGOUS TO IMUMON, WHICH MONITORS CHANNEL 30, EXCEPT THAT IT READS
000527:                                                                                                  #  CHANNEL 33 WITH A WAND INSTRUCTION BECAUSE A 'WRITE' PULSE IS REQUIRED TO RESET THE FLIP-FLOPS.  THE BITS
000528:                                                                                                  #  PROCESSED AND THE SUBROUTINES CALLED ARE:
000529:                                                                                                  #        BIT     FUNCTION                SUBROUTINE
000530:                                                                                                  #        ---     --------                ----------
000531:                                                                                                  #         13     PIPA FAIL               PIPFAIL
000532:                                                                                                  #         12     DOWNLINK TOO FAST       DNTMFAST
000533:                                                                                                  #         11     UPLINK TOO FAST         UPTMFAST
000534:
000535:                                                                                                  #  UPON ENTRY TO THE SUBROUTINE, THE NEW BIT STATE IS IN A.
000536:
000537:                                                                                                  #  CALLING SEQUENCE:  EVERY 480 MILLISECONDS AFTER TNONTEST.
000538:
000539:                                                                                                  #  JOBS OR TASKS INITIATED:  NONE.
000540:
000541:                                                                                                  #  SUBROUTINES CALLED:  PIPFAIL, DNTMFAST AND UPTMFAST ON BIT CHANGES.
000542:
000543:                                                                                                  #  ERASABLE INITIALIZATION:  C(IMODES33) = OCT 16000 ON A FRESH START OR RESTART, THEREFORE, THESE ALARMS WILL
000544:                                                                                                  #  REAPPEAR IF THE CONDITIONS PERSIST.
000545:
000546:                                                                                                  #  ALARMS:  NONE.
000547:
000548:                                                                                                  #  EXIT:  GLOCKMON.
000549:
000550:                                                                                                  #  OUTPUT:  UPDATED BITS 13, 12 AND 11 OF IMODES33 WITH CHANGES PROCESSED.
000551:
000552: 06,2374           31303        C33TEST            CA       IMODES33                              #  SEE IF RELEVANT CHAN33 BITS HAVE
000553: 06,2375           75026                           MASK     33RDMSK
000554: 06,2376           54001                           TS       L                                     #  CHANGED.
000555: 06,2377           35026                           CAF      33RDMSK
000556: 06,2400           00006                           EXTEND
000557: 06,2401           03033                           WAND     CHAN33                                #  RESETS FLIP-FLOP INPUTS
000558: 06,2402           00006                           EXTEND
000559: 06,2403           06001                           RXOR     LCHAN
000560: 06,2404           00006                           EXTEND
000561: 06,2405           12434                           BZF      GLOCKMON                              #  ON NO CHANGE.
000562:
000563: 06,2406           54070                           TS       RUPTREG1                              #  SAVE BITS WHICH HAVE CHANGED.
000564: 06,2407           23303                           LXCH     IMODES33
000565: 06,2410           00006                           EXTEND
000566: 06,2411           06001                           RXOR     LCHAN
000567: 06,2412           55303                           TS       IMODES33                              #  UPDATED IMODES33.
000568:
000569: 06,2413           34755                           CAF      ZERO
000570: 06,2414           56070                           XCH      RUPTREG1
000571: 06,2415           60000                           DOUBLE


000573: 06,2416           12421                           TCF      NXTIBT     +1                         #  SCAN FOR BIT CHANGES.
000574:
000575: 06,2417           64753                 -1        AD       ONE
000576: 06,2420           24070        NXTIBT             INCR     RUPTREG1
000577: 06,2421           60000                 +1        DOUBLE
000578: 06,2422           54000                           TS       A                                     #  (CODING IDENTICAL TO CHAN 30).
000579: 06,2423           12420                           TCF      NXTIBT
000580:
000581: 06,2424           56071                           XCH      RUPTREG2
000582: 06,2425           50070                           INDEX    RUPTREG1                              #  GET NEW VALUE OF BIT WHICH CHANGED.
000583: 06,2426           34737                           CAF      BIT13
000584: 06,2427           71303                           MASK     IMODES33
000585: 06,2430           50070                           INDEX    RUPTREG1
000586: 06,2431           02763                           TC       C33JMP
000587: 06,2432           10071        NXTFL33            CCS      RUPTREG2                              #  PROCESS POSSIBLE ADDITIONAL CHANGES.
000588: 06,2433           12417                           TCF      NXTIBT     -1
000589:


000591:                                                                                                  #  PROGRAM NAME:  GLOCKMON
000592:
000593:                                                                                                  #  FUNCTIONAL DESCRIPTION:  THIS PROGRAM MONITORS THE CDUZ COUNTER TO DETERMINE WHETHER THE ISS IS IN GIMBAL LOCK
000594:                                                                                                  #  AND TAKES ACTION IF IT IS.  THREE REGIONS OF MIDDLE GIMBAL ANGLE (MGA) ARE USED:
000595:
000596:                                                                                                  #        1) ABS(MGA) LESS THAN OR EQUAL TO 70 DEGREES - NORMAL MODE.
000597:                                                                                                  #        2) ABS(MGA) GREATER THAN 70 DEGREES AND LESS THAN OR EQUAL TO 85 DEGREES - GIMBAL LOCK LAMP TURNED ON.
000598:                                                                                                  #        3) ABS(MGA) GREATER THAN 85 DEGREES - ISS PUT IN COARSE ALIGN AND NO ATT LAMP TURNED ON.
000599:
000600:                                                                                                  #  CALLING SEQUENCE:  EVERY 480 MILLISECONDS AFTER C33TEST.
000601:
000602:                                                                                                  #  JOBS OR TASKS INITIATED:  NONE.
000603:
000604:                                                                                                  #  SUBROUTINES CALLED:   1) SETCOARS WHEN ABS(MGA) GREATER THAN 85 DEGREES AND ISS NOT IN COARSE ALIGN.
000605:                                                                                                  #                        2) LAMPTEST BEFORE TURNING OFF GIMBAL LOCK LAMP.
000606:
000607:                                                                                                  #  ERASABLE INITIALIZATION:
000608:                                                                                                  #                1) FRESH START OR RESTART WITH NO GROUPS ACTIVE:  C(CDUZ) = 0, IMODES30 BIT 6 = 0, IMODES33 BIT 1 =  0.
000609:                                                                                                  #                2) RESTART WITH GROUPS ACTIVE:  SAME AS FRESH START EXCEPT C(CDUZ) NOT CHANGED SO GIMBAL MONITOR
000610:                                                                                                  #                                                PROCEEDS AS BEFORE.
000611:
000612:                                                                                                  #  ALARMS:       1) MGA REGION (2) CAUSES GIMBAL LOCK LAMP TO BE LIT.
000613:                                                                                                  #                2) MGA REGION (3) CAUSES THE ISS TO BE PUT IN COARSE ALIGN AND THE NO ATT LAMP TO BE LIT IF EITHER NOT
000614:                                                                                                  #                   SO ALREADY.
000615:
000616: 06,2434           10034        GLOCKMON           CCS      CDUZ
000617: 06,2435           12441                           TCF      GLOCKCHK                              #  SEE IF MAGNITUDE OF MGA IS GREATER THAN
000618: 06,2436           12465                           TCF      SETGLOCK                              #  70 DEGREES.
000619: 06,2437           12441                           TCF      GLOCKCHK
000620: 06,2440           12465                           TCF      SETGLOCK
000621:
000622: 06,2441           62512        GLOCKCHK           AD       -70DEGS
000623: 06,2442           00006                           EXTEND
000624: 06,2443           62464                           BZMF     SETGLOCK   -1                         #  NO LOCK.
000625:
000626: 06,2444           62513                           AD       -15DEGS                               #  SEE IF ABS(MGA) GREATER THAN 85 DEGREES.
000627: 06,2445           00006                           EXTEND
000628: 06,2446           62462                           BZMF     NOGIMRUN
000629:
000630: 06,2447           34750                           CAF      BIT4                                  #  IF SO, SYSTEM SHOULD BE IN COARSE ALIGN
000631: 06,2450           00006                           EXTEND                                         #  TO PREVENT GIMBAL RUNAWAY.
000632: 06,2451           02012                           RAND     CHAN12
000633: 06,2452           10000                           CCS      A
000634: 06,2453           12462                           TCF      NOGIMRUN
000635:
000636: 06,2454           04674                           TC       IBNKCALL
000637: 06,2455           17144                           CADR     SETCOARS
000638:
000639: 06,2456           36242                           CAF      SIX                                   #  ENABLE ISS ERROR COUNTERS IN 60 MS
000640: 06,2457           05203                           TC       WAITLIST


000642: 06,2460  E3,1474                                  EBANK=   CDUIND
000643: 06,2460           03140 16103                     2CADR    CA+ECE
000644:
000645: 06,2462           34746        NOGIMRUN           CAF      BIT6                                  #  TURN ON GIMBAL LOCK LAMP.
000646: 06,2463           12465                           TCF      SETGLOCK
000647:
000648: 06,2464           34755                 -1        CAF      ZERO
000649: 06,2465           61036        SETGLOCK           AD       DSPTAB     +11D                       #  SEE IF PRESENT STATE OF GIMBAL LOCK LAMP
000650: 06,2466           74746                           MASK     BIT6                                  #  AGREES WITH DESIRED STATE BY HALF ADDING
000651: 06,2467           00006                           EXTEND                                         #  THE TWO.
000652: 06,2470           15270                           BZF      GLOCKOK                               #  OK AS IS.
000653:
000654: 06,2471           71036                           MASK     DSPTAB     +11D                       #  IF OFF, DONT TURN ON IF IMU BEING CAGED.
000655: 06,2472           10000                           CCS      A
000656: 06,2473           12507                           TCF      GLAMPTST                              #  TURN OFF UNLESS LAMP TEST IN PROGRESS.
000657:
000658: 06,2474           34746                           CAF      BIT6
000659: 06,2475           71302                           MASK     IMODES30
000660: 06,2476           10000                           CCS      A
000661: 06,2477           15270                           TCF      GLOCKOK
000662:
000663: 06,2500           41036        GLINVERT           CS       DSPTAB     +11D                       #  INVERT GIMBAL LOCK LAMP.
000664: 06,2501           74746                           MASK     BIT6
000665: 06,2502           64735                           AD       BIT15                                 #  TO INDICATE CHANGE IN DSPTAB +11D.
000666: 06,2503           57036                           XCH      DSPTAB     +11D
000667: 06,2504           72162                           MASK     OCT37737
000668: 06,2505           27036                           ADS      DSPTAB     +11D
000669: 06,2506           15270                           TCF      GLOCKOK
000670:
000671: 06,2507           02766        GLAMPTST           TC       LAMPTEST                              #  TURN OFF UNLESS LAMP TEST IN PROGRESS.
000672: 06,2510           15270                           TCF      GLOCKOK
000673: 06,2511           12500                           TCF      GLINVERT
000674:
000675: 06,2512           63434        -70DEGS            DEC      -.38888                               #  -70 DEGREES SCALED IN HALF-REVOLUTIONS.
000676: 06,2513           75252        -15DEGS            DEC      -.08333
000677:


000679:                                                                                                  #  PROGRAM NAME:  TLIM.
000680:
000681:                                                                                                  #  FUNCTIONAL DESCRIPTION:  THIS PROGRAM MAINTAINS THE TEMP LAMP (BIT 4 OF CHANNEL 11) ON THE DSKY TO AGREE WITH
000682:                                                                                                  #  THE TEMP SIGNAL FROM THE ISS (BIT 15 OF CHANNEL 30).  HOWEVER, THE LIGHT WILL NOT BE TURNED OFF IF A LAMP TEST
000683:                                                                                                  #  IS IN PROGRESS.
000684:
000685:                                                                                                  #  CALLING SEQUENCE:  CALLED BY IMUMON ON A CHANGE OF BIT 15 OF CHANNEL 30.
000686:
000687:                                                                                                  #  JOBS OR TASKS INITIATED:  NONE.
000688:
000689:                                                                                                  #  SUBROUTINES CALLED:  LAMPTEST.
000690:
000691:                                                                                                  #  ERASABLE INITIALIZATION:  FRESH START AND RESTART TURN THE TEMP LAMP OFF.
000692:
000693:                                                                                                  #  ALARMS:  TEMP LAMP TURNED ON WHEN IMU TEMP GOES OUT OF LIMITS.
000694:
000695:                                                                                                  #  EXIT:  NXTIFAIL.
000696:
000697:                                                                                                  #  OUTPUT:  SERVICE OF TEMP LAMP.                  IN A, EXCEPT FOR TLIM.
000698:
000699: 06,2514           74733        TLIM               MASK     POSMAX                                #  REMOVE BIT FROM WORD OF CHANGES AND SET
000700: 06,2515           54071                           TS       RUPTREG2                              #  DSKY TEMP LAMP ACCORDINGLY.
000701:
000702: 06,2516           11302                           CCS      IMODES30
000703: 06,2517           12525                           TCF      TEMPOK
000704: 06,2520           12525                           TCF      TEMPOK
000705:
000706: 06,2521           34750                           CAF      BIT4                                  #  TURN ON LAMP.
000707: 06,2522           00006                           EXTEND
000708: 06,2523           05011                           WOR      DSALMOUT
000709: 06,2524           12225                           TCF      NXTIFAIL
000710:
000711: 06,2525           02766        TEMPOK             TC       LAMPTEST                              #  IF TEMP NOW OK, DONT TURN OFF LAMP IF
000712: 06,2526           12225                           TCF      NXTIFAIL                              #  LAMP TEST IN PROGRESS.
000713:
000714: 06,2527           44750                           CS       BIT4
000715: 06,2530           00006                           EXTEND
000716: 06,2531           03011                           WAND     DSALMOUT                              #  TURN OFF LAMP
000717: 06,2532           12225                           TCF      NXTIFAIL
000718:


000720:                                                                                                  #  PROGRAM NAME:  ITURNON.
000721:
000722:                                                                                                  #  FUNCTIONAL DESCRIPTION:  THIS PROGRAM IS CALLED BY IMUMON WHEN A CHANGE OF BIT 14 OF CHANNEL 30 (ISS TURN-ON
000723:                                                                                                  #  REQUEST) IS DETECTED.  UPON ENTRY, ITURNON CHECKS IF A TURN-ON DELAY SEQUENCE HAS FAILED, AND IF SO, IT EXITS.
000724:                                                                                                  #  IF NOT, IT CHECKS WHETHER THE TURN-ON REQUEST CHANGE IS TO ON OR OFF.  IF ON, IT SETS BIT7 OF IMODES30 TO 1 SO
000725:                                                                                                  #  THAT TNONTEST WILL INITIATE THE ISS INITIALIZATION SEQUENCE.  IF OFF, THE TURN-ON DELAY SIGNAL, CHANNEL 12 BIT
000726:                                                                                                  #  15, IS CHECKED AND IF IT IS ON, ITURNON EXITS.  IF THE DELAY SIGNAL IS OFF, PROGRAM ALARM 00207 IS ISSUED, BIT 2
000727:                                                                                                  #  OF IMODES30 IS SET TO 1 AND THE PROGRAM EXITS.
000728:
000729:                                                                                                  #  THE SETTING OF BIT 2 OF IMODES30 (ISS DELAY SEQUENCE FAIL) INHIBITS THIS ROUTINE AND IMUOP FROM
000730:                                                                                                  #  PROCESSING ANY CHANGES.  THIS BIT WILL BE RESET BY THE ENDTNON ROUTINE WHEN THE CURRENT 90 SECOND DELAY PERIOD
000731:                                                                                                  #  ENDS.
000732:
000733:                                                                                                  #  CALLING SEQUENCE:  FROM IMUMOM WHEN ISS TURN-ON REQUEST CHANGES STATE.
000734:
000735:                                                                                                  #  JOBS OR TASKS INITIATED:  NONE.
000736:
000737:                                                                                                  #  SUBROUTINES CALLED:  ALARM, IF THE ISS TURN-ON REQUEST IS NOT PRESENT FOR 90 SECONDS.
000738:
000739:                                                                                                  #  ERASABLE INITIALIZATION:  FRESH START AND RESTART SET BIT 15 OF CHANNEL 12 AND BITS 2 AND 7 OF IMODES30 TO 0,
000740:                                                                                                  #  AND BIT 14 OF IMODES30 TO 1.
000741:
000742:                                                                                                  #  ALARMS: PROGRAM ALARM 00207 IS ISSUED IF THE ISS TURN-ON REQUEST SIGNAL IS NOT PRESENT FOR 90 SECONDS.
000743:
000744:                                                                                                  #  EXIT:  NXTIFAIL.
000745:
000746:                                                                                                  #  OUTPUT:  BIT 7 OF IMODES30 TO START ISS INITIALIZATION, OR BIT 2 OF IMODES30 AND PROGRAM ALARM 00207 TO INDICATE
000747:                                                                                                  #  A FAILED TURN-ON SEQUENCE.
000748:
000749: 06,2533           34752        ITURNON            CAF      BIT2                                  #  IF DELAY REQUEST HAS GONE OFF
000750: 06,2534           71302                           MASK     IMODES30                              #  PREMATURELY, DO NOT PROCESS ANY CHANGES
000751: 06,2535           10000                           CCS      A                                     #  UNTIL THE CURRENT 90 SEC WAIT EXPIRES.
000752: 06,2536           12225                           TCF      NXTIFAIL
000753:
000754: 06,2537           34736                           CAF      BIT14                                 #  SEE IF JUST ON OR OFF.
000755: 06,2540           71302                           MASK     IMODES30
000756: 06,2541           00006                           EXTEND
000757: 06,2542           12556                           BZF      ITURNON2                              #  IF JUST ON.
000758:
000759: 06,2543           34735                           CAF      BIT15
000760: 06,2544           00006                           EXTEND                                         #  SEE IF DELAY PRESENT DISCRETE HAS BEEN
000761: 06,2545           02012                           RAND     CHAN12                                #  SENT.  IF SO, ACTION COMPLETE
000762: 06,2546           00006                           EXTEND
000763: 06,2547           12551                           BZF      +2
000764: 06,2550           12225                           TCF      NXTIFAIL
000765:
000766: 06,2551           34752                           CAF      BIT2                                  #  IF NOT, SET BIT TO INDICATE REQUEST NOT
000767: 06,2552           27302                           ADS      IMODES30                              #  PRESENT FOR FULL DURATION.
000768: 06,2553           05567                           TC       ALARM
000769: 06,2554           00207                           OCT      207
000770: 06,2555           12225                           TCF      NXTIFAIL
000771:


000773: 06,2556           41302        ITURNON2           CS       IMODES30                              #  SET BIT7 TO INDICATE WAIT OF 1 SAMPLE
000774: 06,2557           74745                           MASK     BIT7
000775: 06,2560           27302                           ADS      IMODES30
000776: 06,2561           32564                           CAF      RRINIT
000777: 06,2562           54110                           TS       RADMODES
000778: 06,2563           12225                           TCF      NXTIFAIL
000779:
000780: 06,2564           00102        RRINIT             OCT      00102
000781:


000783:                                                                                                  #  PROGRAM NAME:  IMUCAGE.
000784:
000785:                                                                                                  #  FUNCTIONAL DESCRIPTION:  THIS PROGRAM PROCESSES CHANGES OF THE IMUCAGE INBIT, CHANNEL 30 BIT 11.  IF THE BIT
000786:                                                                                                  #  CHANGES TO 0 (CAGE BUTTON PRESSED), THE ISS IS CAGED (ICDU ZERO + COARSE ALIGN + NO ATT LAMP) UNTIL THE
000787:                                                                                                  #  ASTRONAUT SELECTS ANOTHER PROGRAM TO ALIGN THE ISS.  ANY PULSE TRAINS TO THE ICDU'S AND GYRO'S ARE TERMINATED,
000788:                                                                                                  #  THE ASSOCIATED OUTCOUNTERS ARE ZEROED AND THE GYRO'S ARE DE-SELECTED.  NO ACTION OCCURS WHEN THE BUTTON IS
000789:                                                                                                  #  RELEASED (INBIT CHANGES TO 1).
000790:
000791:                                                                                                  #  CALLING SEQUENCE:  BY IMUMON WHEN IMU CAGE BIT CHANGES.
000792:
000793:                                                                                                  #  JOBS OR TASKS INITIATED:  NONE.
000794:
000795:                                                                                                  #  SUBROUTINES CALLED:  CAGESUB.
000796:
000797:                                                                                                  #  ERASABLE INITIALIZATION:  FRESH START AND RESTART SET BIT 11 OF IMODES30 TO 1.
000798:
000799:                                                                                                  #  ALARMS: NONE.
000800:
000801:                                                                                                  #  EXIT:  NXTIFAIL.
000802:
000803:                                                                                                  #  OUTPUT:  ISS CAGED, COUNTERS ZEROED, PULSE TRAINS TERMINATED AND NO ATT LAMP LIT.
000804:
000805: 06,2565           10000        IMUCAGE            CCS      A                                     #  NO ACTION IF GOING OFF.
000806: 06,2566           12361                           TCF      ISSZERO
000807: 06,2567           43002                           CS       OCT77000                              #  TERMINATE ICDU, RCDU, GYRO PULSE TRAINS
000808: 06,2570           00006                           EXTEND
000809: 06,2571           03014                           WAND     CHAN14
000810:
000811: 06,2572           42776                           CS       OCT272                                #  KNOCK DOWN DISPLAY INERTIAL DATA, IMU
000812: 06,2573           00006                           EXTEND                                         #  ERROR COUNTER ENABLE, ZERO ICDU, COARSE
000813: 06,2574           03012                           WAND     CHAN12                                #  ALIGN ENABLE, RR ERROR COUNTER ENABLE.
000814:
000815: 06,2575           44745                           CS       ENGONBIT                              #  INSURE ENGONFLG IS CLEAR.
000816: 06,2576           70101                           MASK     FLAGWRD5
000817: 06,2577           54101                           TS       FLAGWRD5
000818: 06,2600           44355                           CS       PRIO30                                #  TURN ENGINE OFF.
000819: 06,2601           00006                           EXTEND
000820: 06,2602           02011                           RAND     DSALMOUT
000821: 06,2603           64736                           AD       BIT14
000822: 06,2604           00006                           EXTEND
000823: 06,2605           01011                           WRITE    DSALMOUT                              #  FORCE BIT14=1, BIT13=0.
000824:
000825: 06,2606           02743                           TC       CAGESUB1
000826:
000827: 06,2607           04674                           TC       IBNKCALL                              #  KNOCK DOWN TRACK, REFSMMAT, DRIFT FLAGS
000828: 06,2610           17175                           CADR     RNDREFDR
000829:
000830: 06,2611           44755                           CS       ZERO
000831: 06,2612           54050                           TS       CDUXCMD
000832: 06,2613           54051                           TS       CDUYCMD


000834: 06,2614           54052                           TS       CDUZCMD
000835: 06,2615           54047                           TS       GYROCMD
000836:
000837: 06,2616           43001                           CS       OCT740                                #  HAVING WAITED AT LEAST 27 MCT FROM
000838: 06,2617           00006                           EXTEND                                         #  GYRO PULSE TRAIN TERMINATION, WE CAN
000839: 06,2620           03014                           WAND     CHAN14                                #  DE-SELECT THE GYROS
000840: 06,2621           12225                           TCF      NXTIFAIL
000841:


000843:                                                                                                  #  PROGRAM NAME:  IMUOP.
000844:
000845:                                                                                                  #  FUNCTIONAL DESCRIPTION:  THIS PROGRAM PROCESSES CHANGES IN THE ISS OPERATE DISCRETE, BIT 9 OF CHANNEL 30.
000846:                                                                                                  #  IF THE INBIT CHANGES TO 0, INDICATING ISS ON, IMUOP GENERALLY SETS BIT 7 OF IMODES30 TO 1 TO REQUEST ISS
000847:                                                                                                  #  INITIALIZATION VIA TNONTEST.  AN EXCEPTION IS DURING A FAILED ISS DELAY DURING WHICH BIT 2 OF IMODES30 IS SET
000848:                                                                                                  #  TO 1 AND NO FURTHER INITIALIZATION IS REQUIRED.  WHEN THE INBIT CHANGES TO 1, INDICATING ISS OFF, IMUSEFLG IS
000849:                                                                                                  #  TESTED TO SEE IF ANY PROGRAM WAS USING THE ISS.  IF SO, PROGRAM ALARM 00214 IS ISSUED.
000850:
000851:                                                                                                  #  CALLING SEQUENCE:  BY IMUMON WHEN BIT 9 OF CHANNEL 30 CHANGES.
000852:
000853:                                                                                                  #  JOBS OR TASKS INITIATED:  NONE.
000854:                                                                                                  #
000855:                                                                                                  #  SUBROUTINES CALLED:  ALARM, IF ISS IS TURNED OFF WHILE IN USE.
000856:
000857:                                                                                                  #  ERASABLE INITIALIZATION:  ON FRESH START AND RESTART, BIT 9 OF IMODES30 IS SET TO 1 EXCEPT WHEN THE GIMBAL LOCK
000858:                                                                                                  #  LAMP IS ON, IN WHICH CASE IT IS SET TO 0.  THIS PREVENTS ICDU ZERO BY TNONTEST WITH THE ISS IN GIMBAL LOCK.
000859:
000860:                                                                                                  #  ALARMS:  PROGRAM ALARM 00214 IF THE ISS IS TURNED OFF WHILE IN USE.
000861:
000862:                                                                                                  #  EXIT:  NXTIFAIL.
000863:
000864:                                                                                                  #  OUTPUT:  ISS INITIALIZATION REQUEST (IMODES30 BIT 7) OR PROGRAM ALARM 00214.
000865:
000866: 06,2622           00006        IMUOP              EXTEND
000867: 06,2623           12643                           BZF      IMUOP2
000868:
000869: 06,2624           41303                           CS       IMODES33                              #  DISABLE DAP
000870: 06,2625           74746                           MASK     BIT6
000871: 06,2626           27303                           ADS      IMODES33
000872:
000873: 06,2627           04674                           TC       IBNKCALL                              #  KNOCK DOWN TRACK, REFSMMAT, DRIFT FLAGS
000874: 06,2630           17175                           CADR     RNDREFDR
000875:
000876: 06,2631           42777                           CS       BITS7&8                               #  KNOCK DOWN RENDEZVOUS, IMUUSE FLAGS
000877: 06,2632           70074                           MASK     FLAGWRD0
000878: 06,2633           56074                           XCH      FLAGWRD0                              #  IF GOING OFF, ALARM IF PROG USING IMU.
000879: 06,2634           40000                           COM
000880: 06,2635           74744                           MASK     IMUSEFLG
000881: 06,2636           10000                           CCS      A
000882: 06,2637           12225                           TCF      NXTIFAIL
000883:
000884: 06,2640           05567                           TC       ALARM
000885: 06,2641           00214                           OCT      214
000886: 06,2642           12225                           TCF      NXTIFAIL
000887:
000888: 06,2643           34752        IMUOP2             CAF      BIT2                                  #  SEE IF FAILED ISS TURN-ON SEQ IN PROG.
000889: 06,2644           71302                           MASK     IMODES30
000890: 06,2645           10000                           CCS      A
000891: 06,2646           12225                           TCF      NXTIFAIL                              #  IF SO, DONT PROCESS UNTIL PRESENT 90
000892: 06,2647           12556                           TCF      ITURNON2                              #  SECONDS EXPIRES.
000893:


000895:                                                                                                  #  PROGRAM NAME:  PIPFAIL
000896:
000897:                                                                                                  #  FUNCTIONAL DESCRIPTION:  THIS PROGRAM PROCESSES CHANGES OF BIT 13 OF CHANNEL 33, PIPA FAIL.  IT SETS BIT 10 OF
000898:                                                                                                  #  IMODES30 TO AGREE.  IT CALLS SETISSW IN CASE A PIPA FAIL NECESSITATES AN ISS WARNING.  IF NOT, I.E., IMODES30
000899:                                                                                                  #  BIT 1 = 1, AND A PIPA FAIL IS PRESENT AND THE ISS IS NOT BEING INITIALIZED, PROGRAM ALARM 00212 IS ISSUED.
000900:
000901:                                                                                                  #  CALLING SEQUENCE:  BY C33TEST ON CHANGES OF CHANNEL 33 BIT 13.
000902:
000903:                                                                                                  #  JOBS OR TASKS INITIATED:  NONE.
000904:
000905:                                                                                                  #  SUBROUTINES CALLED:  1) SETISSW, AND 2) ALARM (SEE FUNCTIONAL DESCRIPTION).
000906:
000907:                                                                                                  #  ERASABLE INITIALIZATION:  SEE IMUMON FOR INITIALIZATION OF IMODES30.  THE RELAVANT BITS ARE 5, 7, 8, 9, AND 10.
000908:
000909:                                                                                                  #  ALARMS:  PROGRAM ALARM 00212 IF PIPA FAIL IS PRESENT BUT NEITHER ISS WARNING IS TO BE ISSUED NOR THE ISS IS
000910:                                                                                                  #  BEING INITIALIZED.
000911:
000912:                                                                                                  #  EXIT:  NXTFL33.
000913:
000914:                                                                                                  #  OUTPUT:  PROGRAM ALARM 00212 AND ISS WARNING MAINTENANCE.
000915:
000916: 06,2650           10000        PIPFAIL            CCS      A                                     #  SET BIT10 IN IMODES30 SO ALL ISS WARNING
000917: 06,2651           34742                           CAF      BIT10                                 #  INFO IS IN ONE REGISTER.
000918: 06,2652           57302                           XCH      IMODES30
000919: 06,2653           73004                           MASK     -BIT10
000920: 06,2654           27302                           ADS      IMODES30
000921:
000922: 06,2655           02703                           TC       SETISSW
000923:
000924: 06,2656           41302                           CS       IMODES30                              #  IF PIP FAIL DOESNT LIGHT ISS WARNING, DO
000925: 06,2657           74753                           MASK     BIT1                                  #  A PROGRAM ALARM IF IMU OPERATING BUT NOT
000926: 06,2660           10000                           CCS      A                                     #  CAGED OR BEING TURNED ON.
000927: 06,2661           12432                           TCF      NXTFL33
000928:
000929: 06,2662           31302                           CA       IMODES30
000930: 06,2663           73000                           MASK     OCT1720
000931: 06,2664           10000                           CCS      A
000932: 06,2665           12432                           TCF      NXTFL33                               #  ABOVE CONDITION NOT MET.
000933:
000934: 06,2666           05567                           TC       ALARM
000935: 06,2667           00212                           OCT      212
000936: 06,2670           12432                           TCF      NXTFL33
000937:


000939:                                                                                                  #  PROGRAM NAMES:  DNTMFAST, UPTMFAST
000940:
000941:                                                                                                  #  FUNCTIONAL DESCRIPTION:  THESE PROGRAMS PROCESS CHANGES OF BITS 12 AND 11 OF CHANNEL 33.  IF A BIT CHANGES TO A
000942:                                                                                                  #  0, A PROGRAM ALARM IS ISSUED.  THE ALARMS ARE:
000943:
000944:                                                                                                  #        BIT     ALARM   CAUSE
000945:                                                                                                  #        ---     -----   -----
000946:                                                                                                  #         12     01105   DOWNLINK TOO FAST
000947:                                                                                                  #         11     01106   UPLINK TOO FAST
000948:
000949:                                                                                                  #  CALLING SEQUENCE:  BY C33TEST ON A BIT CHANGE.
000950:
000951:                                                                                                  #  SUBROUTINES CALLED:  ALARM, IF A BIT CHANGES TO A 0.
000952:
000953:                                                                                                  #  ERASABLE INITIALIZATION:  FRESH START OR RESTART, BITS 12 AND 11 OF IMODES33 ARE SET TO 1.
000954:
000955:                                                                                                  #  ALARMS:  SEE FUNCTIONAL DESCRIPTION.
000956:
000957:                                                                                                  #  EXIT:  NXTFL33.
000958:
000959:                                                                                                  #  OUTPUT:  PROGRAM ALARM ON A BIT CHANGE TO 0.
000960:
000961: 06,2671           10000        DNTMFAST           CCS      A                                     #  DO PROG ALARM IF TM TOO FAST.
000962: 06,2672           12432                           TCF      NXTFL33
000963:
000964: 06,2673           05567                           TC       ALARM
000965: 06,2674           01105                           OCT      1105
000966: 06,2675           12432                           TCF      NXTFL33
000967:
000968: 06,2676           10000        UPTMFAST           CCS      A                                     #  SAME AS DNLINK TOO FAST WITH DIFFERENT
000969: 06,2677           12432                           TCF      NXTFL33                               #  ALARM CODE.
000970:
000971: 06,2700           05567                           TC       ALARM
000972: 06,2701           01106                           OCT      1106
000973: 06,2702           12432                           TCF      NXTFL33


000975:                                                                                                  #  PROGRAM NAME:  SETISSW
000976:
000977:                                                                                                  #  FUNCTIONAL DESCRIPTION:  THIS PROGRAM TURNS THE ISS WARNING LAMP ON AND OFF (CHANNEL 11 BIT 1 = 1 FOR ON,
000978:                                                                                                  #  0 FOR OFF) DEPENDING ON THE STATUS OF IMODES30 BITS 13 (IMU FAIL) AND 4 (INHIBIT IMU FAIL), 12 (ICDU FAIL) AND
000979:                                                                                                  #  3 (INHIBIT ICDU FAIL), AND 10 (PIPA FAIL) AND 1 (INHIBIT PIPA FAIL).  THE LAMP IS LEFT ON IF A LAMP TEST IS IN
000980:                                                                                                  #  PROGRESS.
000981:
000982:                                                                                                  #  CALLING SEQUENCE:  CALLED BY IMUMON ON CHANGES TO IMU FAIL AND ICDU FAIL.  CALLED BY IFAILOK AND PFAILOK UPON
000983:                                                                                                  #  REMOVAL OF THE FAIL INHIBITS.  CALLED BY PIPFAIL WHEN THE PIPA FAIL DISCRETE CHANGES.  IT IS CALLED BY PIPUSE
000984:                                                                                                  #  SINCE THE PIPA FAIL PROGRAM ALARM MAY NECESSITATE AN ISS WARNING, AND LIKEWISE BY PIPFREE WHEN THE ALARM DEPARTS
000985:                                                                                                  #  AND IT IS CALLED BY IMUZERO3 AND ISSUP AFTER THE FAIL INHIBITS HAVE BEEN REMOVED.
000986:
000987:                                                                                                  #  JOBS OR TASKS INITIATED:  NONE.
000988:
000989:                                                                                                  #  SUBROUTINES CALLED:  NONE.
000990:
000991:                                                                                                  #  ERASABLE INITIALIZATION:
000992:
000993:                                                                                                  #        1) IMODES30 - SEE IMUMON.
000994:                                                                                                  #        2) IMODES33 BIT 1 = 0 (LAMP TEST NOT IN PROGRESS).
000995:
000996:                                                                                                  #  ALARMS:  ISS WARNING.
000997:
000998:                                                                                                  #  THE FOLLOWING PROGRAM ALARMS WILL SHOW WHICH FAILURE CAUSED THE ISS WARN
000999:                                                                                                  #        PROGRAM ALARM 00777     PIPA FAIL
001000:                                                                                                  #        PROGRAM ALARM 03777     ICDU FAIL
001001:                                                                                                  #        PROGRAM ALARM 04777     ICDU, PIPA FAILS
001002:                                                                                                  #        PROGRAM ALARM 07777     IMU FAIL
001003:                                                                                                  #        PROGRAM ALARM 10777     IMU, PIPA FAILS
001004:                                                                                                  #        PROGRAM ALARM 13777     IMU, ICDU FAILS
001005:                                                                                                  #        PROGRAM ALARM 14777     IMU, ICDU, PIPA FAILS
001006:
001007:                                                                                                  #  EXIT: VIA Q.
001008:
001009:                                                                                                  #  OUTPUT: ISS WARNING LAMP SET PROPERLY.
001010:
001011: 06,2703           34761        SETISSW            CAF      OCT15                                 #  SET ISS WARNING USING THE FAIL BITS IN
001012: 06,2704           71302                           MASK     IMODES30                              #  BITS 13, 12, AND 10 OF IMODES30 AND THE
001013: 06,2705           00006                           EXTEND                                         #  FAILURE INHIBIT BITS IN POSITIONS
001014: 06,2706           74742                           MP       BIT10                                 #  4, 3, AND 1.
001015: 06,2707           31302                           CA       IMODES30
001016: 06,2710           00006                           EXTEND
001017: 06,2711           04001                           ROR      LCHAN                                 #  0 INDICATES FAILURE
001018: 06,2712           40000                           COM
001019: 06,2713           75025                           MASK     OCT15000
001020: 06,2714           10000                           CCS      A
001021: 06,2715           12726                           TCF      ISSWON                                #  FAILURE.
001022:
001023: 06,2716           34753        ISSWOFF            CAF      BIT1                                  #  DONT TURN OFF ISS WARNING IF LAMP TEST
001024: 06,2717           71303                           MASK     IMODES33                              #  IN PROGRESS.


001026: 06,2720           10000                           CCS      A
001027: 06,2721           00002                           TC       Q
001028:
001029: 06,2722           44753                           CS       BIT1
001030: 06,2723           00006                           EXTEND
001031: 06,2724           03011                           WAND     DSALMOUT
001032: 06,2725           00002                           TC       Q
001033:
001034: 06,2726           00006        ISSWON             EXTEND
001035: 06,2727           22066                           QXCH     ITEMP6
001036: 06,2730           05744                           TC       VARALARM                              #  TELL EVERYONE WHAT CAUSED THE ISS WARNING
001037: 06,2731           34753                           CAF      BIT1
001038: 06,2732           00006                           EXTEND
001039: 06,2733           05011                           WOR      DSALMOUT
001040: 06,2734           00066                           TC       ITEMP6
001041:
001042: 06,2735           43003        CAGESUB            CS       BITS6&15                              #  SET OUTBITS AND INTERNAL FLAGS FOR
001043: 06,2736           00006                           EXTEND                                         #  SYSTEM TURN-ON OR CAGE.  DISABLE THE
001044: 06,2737           03012                           WAND     CHAN12                                #  ERROR COUNTER AND REMOVE IMU DELAY COMP.
001045: 06,2740           34763                           CAF      BITS4&5                               #  SEND ZERO AND COARSE.
001046: 06,2741           00006                           EXTEND
001047: 06,2742           05012                           WOR      CHAN12
001048:
001049: 06,2743           41036        CAGESUB1           CS       DSPTAB     +11D                       #  TURN ON NO ATT LAMP
001050: 06,2744           72773                           MASK     OC40010
001051: 06,2745           27036                           ADS      DSPTAB     +11D
001052:
001053: 06,2746           41302        CAGESUB2           CS       IMODES30                              #  SET FLAGS TO INDICATE CAGING OR TURN-ON
001054: 06,2747           72775                           MASK     OCT75                                 #  AND INHIBIT ALL ISS WARNING INFO
001055: 06,2750           27302                           ADS      IMODES30
001056:
001057: 06,2751           41303                           CS       IMODES33                              #  DISABLE DAP AUTO AND HOLD MODES
001058: 06,2752           74746                           MASK     BIT6
001059: 06,2753           27303                           ADS      IMODES33
001060:
001061: 06,2754           00002                           TC       Q
001062:
001063: 06,2755  06,2703               IMUFAIL            EQUALS   SETISSW
001064: 06,2755  06,2703               ICDUFAIL           EQUALS   SETISSW
001065:


001067:                                                                                                  #  JUMP TABLES AND CONSTANTS.
001068:
001069: 06,2755           12533        IFAILJMP           TCF      ITURNON                               #  CHANNEL 30 DISPATCH.
001070: 06,2756           12703                           TCF      IMUFAIL
001071: 06,2757           12703                           TCF      ICDUFAIL
001072: 06,2760           12565                           TCF      IMUCAGE
001073: 06,2761           76400        30RDMSK            OCT      76400                                 #  (BIT 10 NOT SAMPLED HERE).
001074: 06,2762           12622                           TCF      IMUOP
001075:
001076: 06,2763           12650        C33JMP             TCF      PIPFAIL                               #  CHANNEL 33 DISPATCH.
001077: 06,2764           12671                           TCF      DNTMFAST
001078: 06,2765           12676                           TCF      UPTMFAST
001079:
001080:                                                                                                  #  SUBROUTINE TO SKIP IF LAMP TEST NOT IN PROGRESS.
001081: 06,2766           41303        LAMPTEST           CS       IMODES33                              #  BIT 1 OF IMODES33 = 1 IF LAMP TEST IN
001082: 06,2767           74753                           MASK     BIT1                                  #  PROGRESS.
001083: 06,2770           10000                           CCS      A
001084: 06,2771           24002                           INCR     Q
001085: 06,2772           00002                           TC       Q
001086:
001087: 06,2773     5026               33RDMSK            EQUALS   PRIO16
001088: 06,2773           40010        OC40010            OCT      40010
001089: 06,2774           00054        OCT54              OCT      54
001090: 06,2775           00075        OCT75              OCT      75
001091: 06,2776           00272        OCT272             OCT      00272
001092: 06,2777           00300        BITS7&8            OCT      300
001093: 06,3000           01720        OCT1720            OCT      1720
001094: 06,3001           00740        OCT740             OCT      00740
001095: 06,3002     5025               OCT15000           EQUALS   PRIO15
001096: 06,3002           77000        OCT77000           OCT      77000
001097: 06,3003           40040        BITS6&15           OCT      40040
001098: 06,3004           76777        -BIT10             OCT      -1000
001099:
001100: 06,3005           21450        90SECS             DEC      9000       B-14
001101: 06,3006     5751               120MS              =        OCT14                                 #  (DEC12)
001102: 06,3006     5270               GLOCKOK            EQUALS   RESUME
001103:


001105:                                                                                                  #  PROGRAM NAME_  RRAUTCHK
001106:
001107:                                                                                                  #  FUNCTIONAL DESCRIPTION_
001108:                                                                                                  #  RRAUTCHK IS THE RENDEZVOUS RADAR INBIT MONITOR.  INITIALLY THE RR
001109:                                                                                                  #  POWER ON AUTO (CHAN 33 BIT 2) INBIT IS CHECKED.  IF NO CHANGE, THE
001110:                                                                                                  #  PROGRAM EXITS TO RRCDUCHK.  IF A CHANGE, RADMODES IS UPDATED
001111:                                                                                                  #  AND A CHECK MADE IF RR POWER HAS JUST COME ON.  IF JUST OFF, A CHECK
001112:                                                                                                  #  IS MADE TO SEE IF A PROGRAM WAS USING THE RR (STATE BIT 7).  IF NO,
001113:                                                                                                  #  THE PROGRAM EXITS TO RRCDUCHK.  IF YES, PROGRAM ALARM 00514
001114:                                                                                                  #  IS REQUESTED BEFORE EXITING TO RRCDUCHK.  IF RR POWER HAS JUST COME
001115:                                                                                                  #  ON, A CHECK IS MADE TO SEE IF A PROGRAM WAS USING THE RR (STATE BIT 7).
001116:                                                                                                  #  IF YES, THE PROGRAM EXITS TO RRCDUCHK WITHOUT REQUESTING THE TURN-ON
001117:                                                                                                  #  SEQUENCE.  IF NO, RADMODES IS UPDATED TO INDICATE RR CDU ZERO AND
001118:                                                                                                  #  RR TURN-ON SEQUENCE (BITS 13, 1).  A 10 MILLISECOND WAITLIST CALL
001119:                                                                                                  #  IS THEN SET FOR RRTURNON BEFORE THE PROGRAM EXITS TO NORRGMON.
001120:
001121:                                                                                                  #  CALLING SEQUENCE_
001122:                                                                                                  #  T4RUPT EVERY 480 MILLISECONDS
001123:
001124:                                                                                                  #  ERASABLE INITIALIZATION REQUIRED_
001125:                                                                                                  #  RADMODES, STATE
001126:
001127:                                                                                                  #  SUBROUTINES CALLED_
001128:                                                                                                  #  WAITLIST
001129:
001130:                                                                                                  #  JOBS OR TASKS INITIATED_
001131:                                                                                                  #  RRTURNON
001132:
001133:                                                                                                  #  ALARMS_  PROGRAM ALARM 00514 - RADAR GOES OUT OF AUTO MODE WHILE BEING
001134:                                                                                                  #  USED
001135:
001136:                                                                                                  #  EXIT_  RRCDUCHK, NORRGMON
001137:
001138: 06,3006           30110        RRAUTCHK           CA       RADMODES                              #  SEE IF CHANGE IN RR AUTO MODE BIT.
001139: 06,3007           00006                           EXTEND
001140: 06,3010           06033                           RXOR     CHAN33
001141: 06,3011           74752                           MASK     AUTOMBIT
001142: 06,3012           00006                           EXTEND
001143: 06,3013           13037                           BZF      RRCDUCHK
001144:
001145: 06,3014           22110                           LXCH     RADMODES                              #  UPDATE RADMODES.
001146: 06,3015           00006                           EXTEND
001147: 06,3016           06001                           RXOR     LCHAN
001148: 06,3017           73033                           MASK     OCT05776                              #  CLR CONT. DES., REMODE, REPOS, CDUZERO,
001149: 06,3020           54110                           TS       RADMODES                              #  AND TURNON BITS.
001150: 06,3021           74752                           MASK     BIT2                                  #  SEE IF JUST ON.
001151: 06,3022           10000                           CCS      A
001152: 06,3023           13034                           TCF      RRCDUCHK   -3                         #  OFF.  GO DISABLE RR CDU ERROR COUNTERS.
001153: 06,3024           37663                           CA       OCT10001                              #  SET RRCDUZRO AND TURNON BITS.
001154: 06,3025           26110                           ADS      RADMODES
001155:


001157: 06,3026           34753                           CAF      ONE
001158: 06,3027           05203                           TC       WAITLIST
001159: 06,3030  E7,1456                                  EBANK=   LOSCOUNT
001160: 06,3030           02062 52107                     2CADR    RRTURNON
001161:
001162: 06,3032           13132                           TCF      NORRGMON
001163:
001164: 06,3033           05776        OCT05776           OCT      5776
001165:


001167:                                                                                                  #  PROGRAM NAME_ RRCDUCHK
001168:
001169:                                                                                                  #  FUNCTIONAL DESCRIPTION_
001170:                                                                                                  #  RRCDUCHK CHECKS FOR RR CDU FAIL (CHAN 30 BIT 7).  INITIALLY THE
001171:                                                                                                  #  RR CDU FAIL BIT IS SAMPLED (CHAN 30 BIT 7).  IF NO CHANGE, THE
001172:                                                                                                  #  PROGRAM EXITS TO RRGIMON.  IF A CHANGE, THE RR AUTO MODE
001173:                                                                                                  #  (RADMODES BIT 2) BIT IS CHECKED.  IF NOT IN RR AUTO MODE, THE
001174:                                                                                                  #  PROGRAM EXITS TO NORRGMON.  IF IN AUTO MODE, RADMODES BIT 7
001175:                                                                                                  #  (RR CDU OK) IS UPDATED AND IF P-20 IS OPERATING PROGRAM ALARM 00515 IS
001176:                                                                                                  #  REQUESTED.  CONTROL IS TRANSFERRED TO SETTRKF TO UPDATE
001177:                                                                                                  #  THE TRACKER FAIL LAMP (DSPTAB+11D BIT 8).  CONTROL RETURNS TO
001178:                                                                                                  #  RRGIMON.
001179:
001180:                                                                                                  #  CALLING SEQUENCE_
001181:                                                                                                  #  EVERY 480 MILLISECONDS FROM RRAUTCHK (VIA T4RUPT) UNLESS A
001182:                                                                                                  #  TURN-ON SEQUENCE HAS JUST BEEN INITIATED.
001183:
001184:                                                                                                  #  ERASABLE INITIALIZATION REQUIRED_
001185:                                                                                                  #  RADMODES
001186:
001187:                                                                                                  #  SUBROUTINES CALLED_
001188:                                                                                                  #  SETTRKF
001189:
001190:                                                                                                  #  JOBS OR TASKS INITIATED_
001191:                                                                                                  #  NONE
001192:
001193:                                                                                                  #  ALARMS_
001194:                                                                                                  #  TRACKER FAIL
001195:                                                                                                  #  PROGRAM ALARM 00515 - RRCDU FAIL DURING P-20
001196:
001197:                                                                                                  #  EXIT_
001198:                                                                                                  #  RRGIMON, NORRGMON
001199:
001200: 06,3034           44752                 -3        CS       BIT2
001201: 06,3035           00006                           EXTEND
001202: 06,3036           03012                           WAND     CHAN12                                #  AT TURNON, DISABLE CDU ERROR COUNTERS.
001203:
001204: 06,3037           30110        RRCDUCHK           CA       RADMODES                              #  LAST SAMPLED BIT IN RADMODES.
001205: 06,3040           00006                           EXTEND
001206: 06,3041           06030                           RXOR     CHAN30
001207: 06,3042           74745                           MASK     RCDUFBIT
001208: 06,3043           00006                           EXTEND
001209: 06,3044           13071                           BZF      RRGIMON
001210:
001211: 06,3045           34752                           CAF      AUTOMBIT                              #  IF RR NOT IN AUTO MODE, DON'T CHANGE BIT
001212: 06,3046           70110                           MASK     RADMODES                              #  7 OF RADMODES.  IF THIS WERE NOT DONE,
001213: 06,3047           10000                           CCS      A                                     #  THE TRACKER FAIL MIGHT COME ON WHEN
001214: 06,3050           13132                           TCF      NORRGMON                              #  JUST READING LR DATA.
001215:
001216: 06,3051           34745                           CAF      RCDUFBIT                              #  SET BIT 7 OF RADMODES FOR SETTRKF.


001218: 06,3052           22110                           LXCH     RADMODES                              #  UPDATE RADMODES.
001219: 06,3053           00006                           EXTEND
001220: 06,3054           06001                           RXOR     L
001221: 06,3055           54110                           TS       RADMODES
001222:
001223: 06,3056           30110                           CA       RADMODES                              #  DID RR CDU FAIL
001224: 06,3057           74745                           MASK     RCDUFBIT
001225: 06,3060           10000                           CCS      A
001226: 06,3061           13070                           TCF      TRKFLCDU                              #  NO
001227: 06,3062           40074                           CS       FLAGWRD0                              #  RNDVFLG P20 OR P22 OPERATING
001228: 06,3063           74745                           MASK     RNDVZBIT
001229: 06,3064           10000                           CCS      A
001230: 06,3065           13070                           TCF      TRKFLCDU                              #  NO
001231: 06,3066           05567                           TC       ALARM                                 #  YES
001232: 06,3067           00515                           OCT      00515
001233: 06,3070           04564        TRKFLCDU           TC       SETTRKF                               #  UPDATE TRACKER FAIL LAMP ON DSKY.
001234:


001236:                                                                                                  #  PROGRAM NAME_  RRGIMON                                                E AUTO MODE EXCEPT WHEN THE RR CDUS ARE
001237:
001238:                                                                                                  #  FUNCTIONAL DESCRIPTION_                                               TTER IS INITIATED BY THIS MONITOR WHEN
001239:                                                                                                  #  RRGIMON IS THE RR GIMBAL LIMIT MONITOR.  INITIALLY THE FOLLOWING IS   ED TO DRIVE THE GIMBALS TO T = 0 AND
001240:                                                                                                  #  CHECKED_  REMODE, RR CDU:S BEING ZEROED, REPOSITION, AND RR
001241:                                                                                                  #  NOT IN AUTO MODE (RADMODES BITS 14, 13, 11 2). IF ANY OF THESE
001242:                                                                                                  #  EXIST THE PROGRAM EXITS TO GPMATRIX.  IF NONE ARE PRESENT RRLIMCHK
001243:                                                                                                  #  IS CALLED TO SEE IF THE PRESENT RR CDU ANGLES (OPTY, OPTX) ARE WITHIN
001244:                                                                                                  #  THE LIMITS OF THE CURRENT MODE.  IF WITHIN LIMITS, THE PROGRAM EXITS
001245:                                                                                                  #  TO NORRGMON.  IF NOT WITHIN LIMITS, THE REPOSITION FLAG (RADMODES
001246:                                                                                                  #  BIT 11) IS SET, THE RR AUTO TRACKER AND RR ERROR COUNTER
001247:                                                                                                  #  (CHAN 12 BITS 14, 2) ARE DISABLED, AND A 20 MILLISECOND WAITLIST
001248:                                                                                                  #  CALL IS SET FOR DORREPOS AFTER WHICH THE PROGRAM EXITS TO NORRGMON.
001249:
001250:                                                                                                  #  CALLING SEQUENCE_
001251:                                                                                                  #  EVERY 480 MILLISECONDS FROM RRCDUCHK (VIA T4RUPT) UNLESS TURN-ON
001252:                                                                                                  #  HAS JUST BEEN INITIATED VIA RRAUTCHK OR IF THERE HAS BEEN A CHANGE IN
001253:                                                                                                  #  THE RR CDU FAIL BIT (CHAN 30 BIT 7) AND THE RR IS NOT IN THE AUTO MODE
001254:                                                                                                  #  (RADMODES BIT 2).
001255:
001256:                                                                                                  #  ERASABLE INITIALIZATION_  RADMODES
001257:
001258:                                                                                                  #  SUBROUTINES CALLED_
001259:                                                                                                  #  RRLIMCHK, WAITLIST
001260:
001261:                                                                                                  #  JOBS OR TASKS INITIATED_
001262:                                                                                                  #  DORREPOS
001263:
001264:                                                                                                  #  ALARMS_
001265:                                                                                                  #  NONE
001266:
001267:                                                                                                  #  EXIT_
001268:                                                                                                  #  NORRGMON
001269:
001270: 06,3071           30101        RRGIMON            CAE      FLAGWRD5                              #  IS NO ANGLE MONITOR FLAG SET
001271: 06,3072           74750                           MASK     NORRMBIT
001272: 06,3073           10000                           CCS      A
001273: 06,3074           13132                           TCF      NORRGMON                              #  YES - SKIP LIMIT CHECK
001274: 06,3075           40103                           CS       FLAGWRD7                              #  IS SERVICER RUNNING?
001275: 06,3076           74747                           MASK     AVEGFBIT
001276: 06,3077           10000                           CCS      A
001277: 06,3100           13105                           TCF      +5                                    #  NO. DO R25
001278: 06,3101           30102                           CA       FLAGWRD6                              #  YES. IS MUNFLAG SET?
001279: 06,3102           74744                           MASK     MUNFLBIT
001280: 06,3103           10000                           CCS      A
001281: 06,3104           13132                           TCF      NORRGMON                              #  YES. DON'T DO R25
001282: 06,3105           33127                 +5        CAF      OCT32002                              #  INHIBIT BY REMODE, ZEROING, MONITOR.
001283: 06,3106           70110                           MASK     RADMODES                              #  OR RR NOT IN AUTO.
001284: 06,3107           10000                           CCS      A
001285: 06,3110           13132                           TCF      NORRGMON


001287: 06,3111           04523                           TC       RRLIMCHK                              #  SEE IF ANGLES IN LIMITS.
001288: 06,3112           00035                           ADRES    CDUT
001289:
001290: 06,3113           13115                           TCF      MONREPOS
001291:
001292: 06,3114           13132                           TCF      NORRGMON                              #  (ADDITIONAL CODING MAY GO HERE).
001293:
001294: 06,3115           34741        MONREPOS           CAF      REPOSBIT                              #  SET FLAG TO SHOW REPOSITION IN PROGRESS.
001295: 06,3116           26110                           ADS      RADMODES
001296:
001297: 06,3117           43130                           CS       OCT20002                              #  DISABLE TRACKER AND ERROR COUNTER.
001298: 06,3120           00006                           EXTEND
001299: 06,3121           03012                           WAND     CHAN12
001300:
001301: 06,3122           34752                           CAF      TWO
001302: 06,3123           05203                           TC       WAITLIST
001303: 06,3124  E7,1456                                  EBANK=   LOSCOUNT
001304: 06,3124           02127 52107                     2CADR    DORREPOS
001305:
001306: 06,3126           13132                           TCF      NORRGMON
001307:
001308: 06,3127           32002        OCT32002           OCT      32002
001309: 06,3130           20002        OCT20002           OCT      20002
001310: 06,3131           02100        OCT02100           OCT      02100                                 #  P20, P22 MASK BITS
001311:


001313:                                                                                                  #  PROGRAM NAME:  GPMATRIX (DAPT4S) MOD. NO. 2 DATE: OCTOBER 27, 1966
001314:
001315:                                                                                                  #  AUTHOR: JONATHAN D. ADDELSTON (ADAMS ASSOCIATES)
001316:
001317:                                                                                                  #  MODIFIED:  7FEB. 1968 BY P. S. WEISSMAN TO DELETE COMPUTATION OF MR12 AND MR13, WHICH ARE NO LONGER REQIURED.
001318:
001319:                                                                                                  #  THIS PROGRAM CALCULATES ALL THE SINGLE-PRECISION MATRIX ELEMENTS WHICH ARE USED BY LEM DAP TO TRANSFORM VECTORS
001320:                                                                                                  #  FROM GIMBAL TO PILOT (BODY) AXES AND BACK AGAIN.  THESE ELEMENTS ARE USED EXCLUSIVELY BY BASIC LANGUAGE ROUTINES
001321:                                                                                                  #  AND THEREFORE ARE NOT ARRAYED FOR USE BY INTERPRETIVE PROGRAMS.
001322:
001323:                                                                                                  #  CALLING SEQUENCE:  GPMATRIX IS TRANSFERRED TO FROM DAPT4S AND IS THUS EXECUTED 4 TIMES A SECOND BY T4RUPT.
001324:                                                                                                  #  DAPT4S IS LISTED IN T4JUMP TABLE TWICE EXPLICITLY AND ALSO OCCURS AFTER RRAUTCHK (WHICH IS ALSO LISTED TWICE).
001325:
001326:                                                                                                  #  SUBROUTINES CALLED: SPSIN, SPCOS.
001327:
001328:                                                                                                  #  NORMAL EXIT MODE:  TCF RESUME
001329:
001330:                                                                                                  #  ALARM AND ABORT MODES:  NONE.
001331:
001332:                                                                                                  #  INPUT: CDUX, CDUY, CDUZ.
001333:
001334:                                                                                                  #  OUTPUT:  M11, M21, M31, M22, M32.
001335:
001336:                                                                                                  #  AOG = CDUX, AIG = CDUY, AMG = CDUZ: MNEMONIC IS : OIM = XYZ
001337:
001338:                                                                                                  #                *       *       SIN(MG)                 0                       1       *
001339:                                                                                                  #                M   =   *       COS(MG)COS(OG)          SIN(OG)                 0       *
001340:                                                                                                  #                 GP     *       -COS(MG)SIN(OG)         COS(OG)                 0       *
001341:
001342:                                                                                                  #                *       *       0                       COS(OG)/COS(MG)         -SIN(OG)/COS(MG)        *
001343:                                                                                                  #                M   =   *       0                       SIN(OG)                 COS(OG)                 *
001344:                                                                                                  #                 PG     *       1                       -SIN(MG)COS(OG)/COS(MG) SIN(MG)SIN(OG)/COS(MG)  *
001345:
001346: 06,3132  E6,1414                                  EBANK=   M11
001347: 06,3132  06,3132               DAPT4S             EQUALS   GPMATRIX
001348:
001349:                                                                                                  #  T4RUPT DAP LOGIC:
001350:
001351: 06,3132           30034        GPMATRIX           CAE      CDUZ                                  #  SINGLE ENTRY POINT
001352: 06,3133           05033                           TC       SPSIN                                 #  SIN(CDUZ) = SIN(MG)
001353: 06,3134           55414                           TS       M11                                   #  SCALED AT 1
001354:
001355: 06,3135           30034                           CAE      CDUZ
001356: 06,3136           05032                           TC       SPCOS                                 #  COS(CDUZ) = COS(MG)
001357: 06,3137           54061                           TS       COSMG                                 #  SCALED AT 1 (ONLY A FACTOR)
001358:
001359: 06,3140           30032                           CAE      CDUX
001360: 06,3141           05033                           TC       SPSIN                                 #  SIN(CDUX) = SIN(OG)
001361: 06,3142           55417                           TS       M22                                   #  SCALED AT 1 (ALSO IS MR22)
001362:
001363: 06,3143           41417                           CS       M22


001365: 06,3144           00006                           EXTEND
001366: 06,3145           70061                           MP       COSMG                                 #  -SIN(OG)COS(MG)
001367: 06,3146           55416                           TS       M31                                   #  SCALED AT 1
001368:
001369: 06,3147           30032                           CAE      CDUX
001370: 06,3150           05032                           TC       SPCOS                                 #  COS(CDUX) = COS(OG)
001371: 06,3151           55420                           TS       M32                                   #  SCALED AT 1 (ALSO IS MR23)
001372:
001373: 06,3152           00006                           EXTEND
001374: 06,3153           70061                           MP       COSMG                                 #  COS(OG)COS(MG)
001375: 06,3154           55415                           TS       M21                                   #  SCALED AT 1
001376:
001377: 06,3155           05270                           TC       RESUME
001378:
001379: 06,3156  06,3132               NORRGMON           EQUALS   DAPT4S
001380: 06,3156     5270               ENDDAPT4           EQUALS   RESUME

End of include-file T4RUPT_PROGRAM.agc.  Parent file is MAIN.agc


