
Source Code


000002:                                                                                                  ## Copyright:   Public domain.
000003:                                                                                                  ## Filename:    T6-RUPT_PROGRAMS.agc
000004:                                                                                                  ## Purpose:     Part of the reconstructed source code for LMY99 Rev 0,
000005:                                                                                                  ##              otherwise known as Luminary Rev 99, the second release
000006:                                                                                                  ##              of the Apollo Guidance Computer (AGC) software for Apollo 11.
000007:                                                                                                  ##              It differs from LMY99 Rev 1 (the flown version) only in the
000008:                                                                                                  ##              placement of a single label. The corrections shown here have
000009:                                                                                                  ##              been verified to have the same bank checksums as AGC developer
000010:                                                                                                  ##              Allan Klumpp's copy of Luminary Rev 99, and so are believed
000011:                                                                                                  ##              to be accurate. This file is intended to be a faithful
000012:                                                                                                  ##              recreation, except that the code format has been changed to
000013:                                                                                                  ##              conform to the requirements of the yaYUL assembler rather than
000014:                                                                                                  ##              the original YUL assembler.
000015:                                                                                                  ##
000016:                                                                                                  ## Assembler:   yaYUL
000017:                                                                                                  ## Contact:     Ron Burkey <info@sandroid.org>.
000018:                                                                                                  ## Website:     www.ibiblio.org/apollo.
000019:                                                                                                  ## Pages:       1403-1405
000020:                                                                                                  ## Mod history: 2009-05-10 SN   (Sergio Navarro).  Started adapting
000021:                                                                                                  ##                              from the Luminary131/ file of the same
000022:                                                                                                  ##                              name, using Luminary099 page images.
000023:                                                                                                  ##              2016-12-18 RSB  Proofed text comments with octopus/ProoferComments
000024:                                                                                                  ##                              and corrected the errors found.
000025:                                                                                                  ##              2017-08-01 MAS  Created from LMY99 Rev 1.
000026:                                                                                                  ##              2017-08-29 MAS  Fixed a comment-text error found while transcribing
000027:                                                                                                  ##                              Zerlina 56.
000028:
000029:                                                                                                  ## This source code has been transcribed or otherwise adapted from
000030:                                                                                                  ## digitized images of a hardcopy from the MIT Museum.  The digitization
000031:                                                                                                  ## was performed by Paul Fjeld, and arranged for by Deborah Douglas of
000032:                                                                                                  ## the Museum.  Many thanks to both.  The images (with suitable reduction
000033:                                                                                                  ## in storage size and consequent reduction in image quality as well) are
000034:                                                                                                  ## available online at www.ibiblio.org/apollo.  If for some reason you
000035:                                                                                                  ## find that the images are illegible, contact me at info@sandroid.org
000036:                                                                                                  ## about getting access to the (much) higher-quality images which Paul
000037:                                                                                                  ## actually created.
000038:                                                                                                  ##
000039:                                                                                                  ## The code has been modified to match LMY99 Revision 0, otherwise
000040:                                                                                                  ## known as Luminary Revision 99, the Apollo 11 software release preceeding
000041:                                                                                                  ## the listing from which it was transcribed. It has been verified to
000042:                                                                                                  ## contain the same bank checksums as AGC developer Allan Klumpp's listing
000043:                                                                                                  ## of Luminary Revision 99 (for which we do not have scans).
000044:                                                                                                  ##
000045:                                                                                                  ## Notations on Allan Klumpp's listing read, in part:
000046:                                                                                                  ##
000047:                                                                                                  ##      ASSEMBLE REVISION 099 OF AGC PROGRAM LUMINARY BY NASA 2021112-51
000048:


000050:                                                                                                  #  PROGRAM NAMES:        (1) T6JOBCHK    MOD. NO. 5      OCTOBER 2, 1967
000051:                                                                                                  #                        (2) DOT6RUPT
000052:                                                                                                  #  MODIFICATION BY:      LOWELL G HULL (A.C.ELECTRONICS)
000053:
000054:                                                                                                  #  THESE PROGRAMS ENABLE THE LM DAP TO CONTROL THE THRUST TIMES OF THE REACTION CONTROL SYSTEM JETS BY USING TIME6.
000055:                                                                                                  #  SINCE THE LM DAP MAINTAINS EXCLUSIVE CONTROL OVER TIME6 AND ITS INTERRUPTS, THE FOLLOWING CONVENTIONS HAVE BEEN
000056:                                                                                                  #  ESTABLISHED AND MUST NOT BE TAMPERED WITH:
000057:                                                                                                  #        1.      NO NUMBER IS EVER PLACED INTO TIME6 EXCEPT BY LM DAP.
000058:                                                                                                  #        2.      NO PROGRAM OTHER THAN LM DAP ENABLES THE TIME6 COUNTER.
000059:                                                                                                  #        3.      TO USE TIME6, THE FOLLOWING SEQUENCE IS ALWAYS EMPLOYED:
000060:                                                                                                  #                A.      A POSITIVE (NON-ZERO) NUMBER IS STORED IN TIME6.
000061:                                                                                                  #                B.      THE TIME6 CLOCK IS ENABLED.
000062:                                                                                                  #                C.      TIME6 IS INTERROGATED AND IS:
000063:                                                                                                  #                        I.      NEVER FOUND NEGATIVE (NON-ZERO) OR +0.
000064:                                                                                                  #                        II.     SOMETIMES FOUND POSITIVE (BETWEEN 1 AND 240D) INDICATING THAT IT IS ACTIVE.
000065:                                                                                                  #                        III.    SOMETIMES FOUND POSMAX INDICATING THAT IT IS INACTIVE AND NOT ENABLED.
000066:                                                                                                  #                        IV.     SOMETIMES FOUND NEGATIVE ZERO INDICATING THAT:
000067:                                                                                                  #                                A.      A T6RUPT IS ABOUT TO OCCUR AT THE NEXT DINC, OR
000068:                                                                                                  #                                B.      A T6RUPT IS WAITING IN THE PRIORITY CHAIN, OR
000069:                                                                                                  #                                C.      A T6RUPT IS IN PROCESS NOW.
000070:                                                                                                  #        4)      ALL PROGRAMS WHICH OPERATE IN EITHER INTERRUPT MODE OR WITH INTERRUPT INHIBITED MUST CALL T6JOBCHK
000071:                                                                                                  #                EVERY 5 MILLISECONDS TO PROCESS A POSSIBLE WAITING T6RUPT BEFORE IT CAN BE HONORED BY THE HARDWARE.
000072:                                                                                                  #       (5.      PROGRAM JTLST, IN Q,R-AXES, HANDLES THE INPUT LIST.)
000073:
000074:                                                                                                  #  T6JOBCHK CALLING SEQUENCE:
000075:                                                                                                  #                L       TC      T6JOBCHK
000076:                                                                                                  #                L+1     (RETURN)
000077:
000078:                                                                                                  #  DOT6RUPT CALLING SEQUENCE:
000079:                                                                                                  #                        DXCH    ARUPT           T6RUPT LEAD IN AT LOCATION 4004.
000080:                                                                                                  #                        EXTEND
000081:                                                                                                  #                        DCA     T6ADR
000082:                                                                                                  #                        DTCB
000083:
000084:                                                                                                  #  SUBROUTINES CALLED:   DOT6RUPT CALLS T6JOBCHK.
000085:
000086:                                                                                                  #  NORMAL EXIT MODES:    T6JOBCHK RETURNS TO L +1.
000087:                                                                                                  #                        DOT6RUPT TRANSFERS CONTROL TO RESUME.
000088:
000089:                                                                                                  #  ALARM/ABORT MODES:    NONE.
000090:
000091:                                                                                                  #  INPUT:        TIME6           NXT6ADR         OUTPUT:         TIME6           NXT6ADR         CHANNEL 5
000092:                                                                                                  #                T6NEXT          T6NEXT +1                       T6NEXT          T6NEXT +1       CHANNEL 6
000093:                                                                                                  #                T6FURTHA        T6FURTHA +1                     T6FURTHA        T6FURTHA +1     BIT15/CH13
000094:
000095:                                                                                                  #  DEBRIS:       T6JOBCHK CLOBBERS A.  DOT6RUPT CLOBBERS NOTHING.
000096:
000097:    5753                                           BLOCK    02


000099: 17,2027                                           BANK     17
000100: 17,2000                                           SETLOC   DAPS2
000101: 17,2000                                           BANK
000102: 17,2027  E6,1466                                  EBANK=   T6NEXT
000103: 17,2027                                           COUNT*   $$/DAPT6
000104:
000105: 17,2027           10031        T6JOBCHK           CCS      TIME6                                 #  CHECK TIME6 FOR WAITING T6RUPT:
000106: 17,2030           00002                           TC       Q                                     #  NONE: CLOCK COUTING DOWN.
000107: 17,2031           05705                           TC       CCSHOLE
000108: 17,2032           02032                           TC       T6JOBCHK   +3
000109:
000110:                                                                                                  #  CONTROL PASSES TO T6JOB ONLY WHEN C(TIME6) = -0 (I.E. WHEN A T6RUPT MUST BE PROCESSED).
000111:
000112: 17,2033           34733        T6JOB              CAF      POSMAX                                #  DISABLE CLOCK: NEEDED SINCE RUPT OCCURS
000113: 17,2034           00006                           EXTEND                                         #  1 DINC AFTER T6 = 77777. FOR 625 MUSECS
000114: 17,2035           03013                           WAND     CHAN13                                #  MUST NOT HAVE T6 = +0 WITH ENABLE SET
000115:
000116: 17,2036           34733                           CA       POSMAX
000117: 17,2037           22007                           ZL
000118: 17,2040           53471                           DXCH     T6FURTHA
000119: 17,2041           53467                           DXCH     T6NEXT
000120: 17,2042           23465                           LXCH     NXT6ADR
000121: 17,2043           54031                           TS       TIME6
000122:
000123: 17,2044           67725                           AD       PRIO37
000124: 17,2045           54000                           TS       A
000125: 17,2046           12052                           TCF      ENABLET6
000126: 17,2047           34733                           CA       POSMAX
000127: 17,2050           54031                           TS       TIME6
000128: 17,2051           12063                           TCF      GOCH56
000129: 17,2052           34735        ENABLET6           CA       BIT15
000130: 17,2053           00006                           EXTEND
000131: 17,2054           05013                           WOR      CHAN13
000132: 17,2055           31466                           CA       T6NEXT
000133: 17,2056           67725                           AD       PRIO37
000134: 17,2057           54000                           TS       A
000135: 17,2060           12063                           TCF      GOCH56
000136: 17,2061           34733                           CA       POSMAX
000137: 17,2062           55466                           TS       T6NEXT
000138: 17,2063           50001        GOCH56             INDEX    L
000139: 17,2064           15753                           TCF      WRITEP     -1
000140:
000141:    5753                                           BLOCK    02
000142:    4000                                           SETLOC   FFTAG9
000143:    4000                                           BANK
000144:    5753  E6,1635                                  EBANK=   CDUXD
000145:    5753                                           COUNT*   $$/DAPT6
000146:
000147:    5753           31472                           CA       NEXTP
000148:    5754           00006        WRITEP             EXTEND
000149:    5755           01006                           WRITE    CHAN6


000151:    5756           00002                           TC       Q
000152:
000153:    5757           31473                           CA       NEXTU
000154:    5760           54001        WRITEU             TS       L
000155:    5761           45774                           CS       00314OCT
000156:    5762           00006                           EXTEND
000157:    5763           02005                           RAND     CHAN5
000158:    5764           60001                           AD       L
000159:    5765           00006                           EXTEND
000160:    5766           01005                           WRITE    CHAN5
000161:    5767           00002                           TC       Q
000162:
000163:    5770           31474                           CA       NEXTV
000164:    5771           54001        WRITEV             TS       L
000165:    5772           35774                           CA       00314OCT
000166:    5773           15762                           TCF      -9D
000167:    5774           00314        00314OCT           OCT      00314
000168:
000169: 17,2065                                           BANK     17
000170: 17,2000                                           SETLOC   DAPS2
000171: 17,2000                                           BANK
000172:
000173: 17,2065  E6,1466                                  EBANK=   T6NEXT
000174: 17,2065                                           COUNT*   $$/DAPT6
000175:
000176: 17,2065           22016        DOT6RUPT           LXCH     BANKRUPT                              #  (INTERRUPT LEAD INS CONTINUED)
000177: 17,2066           00006                           EXTEND
000178: 17,2067           22012                           QXCH     QRUPT
000179:
000180: 17,2070           02027                           TC       T6JOBCHK                              #  CALL T6JOBCHK.
000181:
000182: 17,2071           15270                           TCF      RESUME                                #  END TIME6 INTERRUPT PROCESSOR.
000183:

End of include-file T6-RUPT_PROGRAMS.agc.  Parent file is MAIN.agc


