
Source Code


000002:                                                                                                  ## Copyright:   Public domain.
000003:                                                                                                  ## Filename:    TAGS_FOR_RELATIVE_SETLOC_AND_BLANK_BANK_CARDS.agc
000004:                                                                                                  ## Purpose:     Part of the reconstructed source code for LMY99 Rev 0,
000005:                                                                                                  ##              otherwise known as Luminary Rev 99, the second release
000006:                                                                                                  ##              of the Apollo Guidance Computer (AGC) software for Apollo 11.
000007:                                                                                                  ##              It differs from LMY99 Rev 1 (the flown version) only in the
000008:                                                                                                  ##              placement of a single label. The corrections shown here have
000009:                                                                                                  ##              been verified to have the same bank checksums as AGC developer
000010:                                                                                                  ##              Allan Klumpp's copy of Luminary Rev 99, and so are believed
000011:                                                                                                  ##              to be accurate. This file is intended to be a faithful
000012:                                                                                                  ##              recreation, except that the code format has been changed to
000013:                                                                                                  ##              conform to the requirements of the yaYUL assembler rather than
000014:                                                                                                  ##              the original YUL assembler.
000015:                                                                                                  ##
000016:                                                                                                  ## Assembler:   yaYUL
000017:                                                                                                  ## Contact:     Jim Lawton <jim.lawton@gmail.com>
000018:                                                                                                  ## Website:     www.ibiblio.org/apollo.
000019:                                                                                                  ## Pages:       028-037
000020:                                                                                                  ## Mod history: 2009-05-16      JVL     Transcribed from page images.
000021:                                                                                                  ##              2016-12-13 RSB  Proofed text comments with octopus/ProoferComments
000022:                                                                                                  ##                              and corrected the errors found.
000023:                                                                                                  ##              2017-08-01 MAS  Created from LMY99 Rev 1.
000024:
000025:                                                                                                  ## This source code has been transcribed or otherwise adapted from
000026:                                                                                                  ## digitized images of a hardcopy from the MIT Museum.  The digitization
000027:                                                                                                  ## was performed by Paul Fjeld, and arranged for by Deborah Douglas of
000028:                                                                                                  ## the Museum.  Many thanks to both.  The images (with suitable reduction
000029:                                                                                                  ## in storage size and consequent reduction in image quality as well) are
000030:                                                                                                  ## available online at www.ibiblio.org/apollo.  If for some reason you
000031:                                                                                                  ## find that the images are illegible, contact me at info@sandroid.org
000032:                                                                                                  ## about getting access to the (much) higher-quality images which Paul
000033:                                                                                                  ## actually created.
000034:                                                                                                  ##
000035:                                                                                                  ## The code has been modified to match LMY99 Revision 0, otherwise
000036:                                                                                                  ## known as Luminary Revision 99, the Apollo 11 software release preceeding
000037:                                                                                                  ## the listing from which it was transcribed. It has been verified to
000038:                                                                                                  ## contain the same bank checksums as AGC developer Allan Klumpp's listing
000039:                                                                                                  ## of Luminary Revision 99 (for which we do not have scans).
000040:                                                                                                  ##
000041:                                                                                                  ## Notations on Allan Klumpp's listing read, in part:
000042:                                                                                                  ##
000043:                                                                                                  ##      ASSEMBLE REVISION 099 OF AGC PROGRAM LUMINARY BY NASA 2021112-51
000044:


000046: ???????                                           COUNT    BANKSUM
000047:
000048:                                                                                                  #  MODULE 1 CONTAINS BANKS 0 THROUGH 5
000049:
000050:    4000                                           BLOCK    02
000051:    4000                        RADARFF            EQUALS
000052:    4000                        FFTAG1             EQUALS
000053:    4000                        FFTAG2             EQUALS
000054:    4000                        FFTAG3             EQUALS
000055:    4000                        FFTAG4             EQUALS
000056:    4000                        FFTAG7             EQUALS
000057:    4000                        FFTAG8             EQUALS
000058:    4000                        FFTAG9             EQUALS
000059:    4000                        FFTAG10            EQUALS
000060:    4000                        FFTAG11            EQUALS
000061:    4000                        FFTAG12            EQUALS
000062:    4000                        FFTAG13            EQUALS
000063:    4000                                           BNKSUM   02
000064:
000065:    6000                                           BLOCK    03
000066:    6000                        FFTAG5             EQUALS
000067:    6000                        FFTAG6             EQUALS
000068:    6000                                           BNKSUM   03
000069:
000070: 00,2000                                           BANK     00
000071: 00,2000                        DLAYJOB            EQUALS
000072: 00,2000                                           BNKSUM   00
000073:
000074: 01,2000                                           BANK     01
000075: 01,2000                        RESTART            EQUALS
000076: 01,2000                        LOADDAP1           EQUALS
000077: 01,2000                                           BNKSUM   01
000078:
000079: 04,2000                                           BANK     04
000080: 04,2000                        R02                EQUALS
000081: 04,2000                        VERB37             EQUALS
000082: 04,2000                        PINBALL4           EQUALS
000083: 04,2000                        CONICS1            EQUALS
000084: 04,2000                        KEYRUPT            EQUALS
000085: 04,2000                        R36LM              EQUALS
000086: 04,2000                        UPDATE2            EQUALS
000087: 04,2000                        E/PROG             EQUALS
000088: 04,2000                        AOTMARK2           EQUALS
000089: 04,2000                                           BNKSUM   04
000090:


000092: 05,2000                                           BANK     05
000093: 05,2000                        FRANDRES           EQUALS
000094: 05,2000                        DOWNTELM           EQUALS
000095: 05,2000                        ABORTS1            EQUALS
000096: 05,2000                        EPHEM1             EQUALS
000097: 05,2000                        ASENT3             EQUALS
000098: 05,2000                                           BNKSUM   05
000099:
000100:                                                                                                  #  MODULE 2 CONTAINS BANKS 6 THROUGH 13
000101:
000102: 06,2000                                           BANK     06
000103: 06,2000                        IMUCOMP            EQUALS
000104: 06,2000                        T4RUP              EQUALS
000105: 06,2000                        RCSMONT            EQUALS
000106: 06,2000                        MIDDGIM            EQUALS
000107: 06,2000                        EARTHLOC           EQUALS
000108: 06,2000                                           BNKSUM   06
000109:
000110: 07,2000                                           BANK     07
000111: 07,2000                        AOTMARK1           EQUALS
000112: 07,2000                        MODESW             EQUALS
000113: 07,2000                        ASENT2             EQUALS
000114: 07,2000                                           BNKSUM   07
000115:
000116: 10,2000                                           BANK     10
000117: 10,2000                        RTBCODES           EQUALS
000118: 10,2000                        DISPLAYS           EQUALS
000119: 10,2000                        PHASETAB           EQUALS
000120: 10,2000                        FLESHLOC           EQUALS
000121: 10,2000                        SLCTMU             EQUALS
000122: 10,2000                                           BNKSUM   10
000123:
000124: 11,2000                                           BANK     11
000125: 11,2000                        ORBITAL            EQUALS
000126: 11,2000                        F2DPS*11           EQUALS
000127: 11,2000                        INTVEL             EQUALS
000128: 11,2000                                           BNKSUM   11
000129:
000130: 12,2000                                           BANK     12
000131: 12,2000                        CONICS             EQUALS
000132: 12,2000                        ORBITAL1           EQUALS


000134: 12,2000                        INTPRET2           EQUALS
000135: 12,2000                                           BNKSUM   12
000136:
000137: 13,2000                                           BANK     13
000138: 13,2000                        LATLONG            EQUALS
000139: 13,2000                        INTINIT            EQUALS
000140: 13,2000                        LEMGEOM            EQUALS
000141: 13,2000                        P76LOC             EQUALS
000142: 13,2000                        ORBITAL2           EQUALS
000143: 13,2000                        ABTFLGS            EQUALS
000144: 13,2000                                           BNKSUM   13
000145:


000147:                                                                                                  #  MODULE 3 CONTAINS BANKS 14 THROUGH 21
000148:
000149: 14,2000                                           BANK     14
000150: 14,2000                        P50S1              EQUALS
000151: 14,2000                        STARTAB            EQUALS
000152: 14,2000                        ASENT4             EQUALS
000153: 14,2000                                           BNKSUM   14
000154:
000155: 15,2000                                           BANK     15
000156: 15,2000                        P50S               EQUALS
000157: 15,2000                        EPHEM              EQUALS
000158: 15,2000                                           BNKSUM   15
000159:
000160: 16,2000                                           BANK     16
000161: 16,2000                        DAPS1              EQUALS
000162: 16,2000                                           BNKSUM   16
000163:
000164: 17,2000                                           BANK     17
000165: 17,2000                        DAPS2              EQUALS
000166: 17,2000                        P40S3              EQUALS
000167: 17,2000                                           BNKSUM   17
000168:
000169: 20,2000                                           BANK     20
000170: 20,2000                        DAPS3              EQUALS
000171: 20,2000                        LOADDAP            EQUALS
000172: 20,2000                        RODTRAP            EQUALS
000173: 20,2000                                           BNKSUM   20
000174:
000175: 21,2000                                           BANK     21
000176: 21,2000                        DAPS4              EQUALS
000177: 21,2000                        R10                EQUALS
000178: 21,2000                        R11                EQUALS
000179: 21,2000                                           BNKSUM   21


000181:
000182:                                                                                                  #  MODULE 4 CONTAINS BANKS 22 THROUGH 27
000183:
000184: 22,2000                                           BANK     22
000185: 22,2000                        KALCMON1           EQUALS
000186: 22,2000                        KALCMON2           EQUALS
000187: 22,2000                        R30LOC             EQUALS
000188: 22,2000                        RENDEZ             EQUALS
000189: 22,2000                        SERV2              EQUALS
000190: 22,2000                        LANDCNST           EQUALS
000191: 22,2000                                           BNKSUM   22
000192:
000193: 23,2000                                           BANK     23
000194: 23,2000                        POWFLITE           EQUALS
000195: 23,2000                        POWFLIT1           EQUALS
000196: 23,2000                        INFLIGHT           EQUALS
000197: 23,2000                        APOPERI            EQUALS
000198: 23,2000                        R61                EQUALS
000199: 23,2000                        R62                EQUALS
000200: 23,2000                        INTPRET1           EQUALS
000201: 23,2000                        MEASINC            EQUALS
000202: 23,2000                        MEASINC1           EQUALS
000203: 23,2000                        EXTVB1             EQUALS
000204: 23,2000                        P12A               EQUALS
000205: 23,2000                        NORMLIZ            EQUALS
000206: 23,2000                        ASENT7             EQUALS
000207: 23,2000                                           BNKSUM   23
000208:
000209: 24,2000                                           BANK     24
000210: 24,2000                        PLANTIN            EQUALS
000211: 24,2000                        P20S               EQUALS
000212: 24,2000                                           BNKSUM   24
000213:
000214: 25,2000                                           BANK     25
000215: 25,2000                        P20S1              EQUALS
000216: 25,2000                        P20S2              EQUALS
000217: 25,2000                        RADARUPT           EQUALS
000218: 25,2000                        RRLEADIN           EQUALS
000219: 25,2000                        R29S1              EQUALS
000220: 25,2000                        PLANTIN3           EQUALS
000221: 25,2000                                           BNKSUM   25
000222:
000223: 26,2000                                           BANK     26


000225: 26,2000                        P20S3              EQUALS
000226: 26,2000                        BAWLANGS           EQUALS
000227: 26,2000                        MANUVER            EQUALS
000228: 26,2000                        MANUVER1           EQUALS
000229: 26,2000                        PLANTIN1           EQUALS
000230: 26,2000                        PLANTIN2           EQUALS
000231: 26,2000                                           BNKSUM   26
000232:
000233: 27,2000                                           BANK     27
000234: 27,2000                        TOF-FF             EQUALS
000235: 27,2000                        TOF-FF1            EQUALS
000236: 27,2000                        P40S1              EQUALS
000237: 27,2000                        VECPT              EQUALS
000238: 27,2000                        ASENT1             EQUALS
000239: 27,2000                        SERV3              EQUALS
000240: 27,2000                                           BNKSUM   27
000241:


000243:                                                                                                  #  MODULE 5 CONTAINS BANKS 30 THROUGH 35
000244:
000245: 30,2000                                           BANK     30
000246: 30,2000                        LOWSUPER           EQUALS
000247: 30,2000                        P12                EQUALS
000248: 30,2000                        ASENT              EQUALS
000249: 30,2000                        FCDUW              EQUALS
000250: 30,2000                        FLOGSUB            EQUALS
000251: 30,2000                        VB67A              EQUALS
000252: 30,2000                        ASENT5             EQUALS
000253: 30,2000                                           BNKSUM   30
000254:
000255: 31,2000                                           BANK     31
000256: 31,2000                        FTHROT             EQUALS
000257: 31,2000                        F2DPS*31           EQUALS
000258: 31,2000                        VB67               EQUALS
000259: 31,2000                                           BNKSUM   31
000260:
000261: 32,2000                                           BANK     32
000262: 32,2000                        P20S4              EQUALS
000263: 32,2000                        F2DPS*32           EQUALS
000264: 32,2000                        ABORTS             EQUALS
000265: 32,2000                        LRS22              EQUALS
000266: 32,2000                        P66LOC             EQUALS
000267: 32,2000                        R47                EQUALS
000268: 32,2000                        SERV               EQUALS
000269: 32,2000                                           BNKSUM   32
000270:
000271: 33,2000                                           BANK     33
000272: 33,2000                        SERVICES           EQUALS
000273: 33,2000                        R29/SERV           EQUALS
000274: 33,2000                        ASENT6             EQUALS
000275: 33,2000                                           BNKSUM   33
000276:
000277: 34,2000                                           BANK     34
000278: 34,2000                        STBLEORB           EQUALS
000279: 34,2000                        P30S1              EQUALS
000280: 34,2000                        CSI/CDH1           EQUALS
000281: 34,2000                        ASCFILT            EQUALS
000282: 34,2000                        R12STUFF           EQUALS
000283: 34,2000                        SERV4              EQUALS
000284: 34,2000                                           BNKSUM   34
000285:


000287: 35,2000                                           BANK     35
000288: 35,2000                        CSI/CDH            EQUALS
000289: 35,2000                        P30S               EQUALS
000290: 35,2000                        GLM                EQUALS
000291: 35,2000                        P40S2              EQUALS
000292: 35,2000                                           BNKSUM   35
000293:


000295:                                                                                                  #  MODULE 6 CONTAINS BANKS 36 THROUGH 43
000296:
000297: 36,2000                                           BANK     36
000298: 36,2000                        P40S               EQUALS
000299: 36,2000                                           BNKSUM   36
000300:
000301: 37,2000                                           BANK     37
000302: 37,2000                        P05P06             EQUALS
000303: 37,2000                        IMU2               EQUALS
000304: 37,2000                        IMU4               EQUALS
000305: 37,2000                        R31                EQUALS
000306: 37,2000                        IMUSUPER           EQUALS
000307: 37,2000                        SERV1              EQUALS
000308: 37,2000                                           BNKSUM   37
000309:
000310: 40,2000                                           BANK     40
000311: 40,2000                        PINBALL1           EQUALS
000312: 40,2000                        SELFSUPR           EQUALS
000313: 40,2000                        PINSUPER           EQUALS
000314: 40,2000                        R31LOC             EQUALS
000315: 40,2000                                           BNKSUM   40
000316:
000317: 41,2000                                           BANK     41
000318: 41,2000                        PINBALL2           EQUALS
000319: 41,2000                                           BNKSUM   41
000320:
000321: 42,2000                                           BANK     42
000322: 42,2000                        SBAND              EQUALS
000323: 42,2000                        PINBALL3           EQUALS
000324: 42,2000                                           BNKSUM   42
000325:
000326: 43,2000                                           BANK     43
000327: 43,2000                        EXTVERBS           EQUALS
000328: 43,2000                        SELFCHEC           EQUALS
000329: 43,2000                                           BNKSUM   43
000330:


000332:
000333: 43,2000  23,2521               HI6ZEROS           EQUALS   ZEROVECS                              #  ZERO VECTOR ALWAYS IN HIGH MEMORY
000334: 43,2000  12,2006               LO6ZEROS           EQUALS   ZEROVEC                               #  ZERO VECTOR ALWAYS IN LOW MEMORY
000335: 43,2000  23,2517               HIDPHALF           EQUALS   UNITX
000336: 43,2000  12,2004               LODPHALF           EQUALS   XUNIT
000337: 43,2000  23,2511               HIDP1/4            EQUALS   DP1/4TH
000338: 43,2000  04,3036               LODP1/4            EQUALS   D1/4                                  #  2DEC .25
000339: 43,2000  23,2517               HIUNITX            EQUALS   UNITX
000340: 43,2000  23,2515               HIUNITY            EQUALS   UNITY
000341: 43,2000  23,2513               HIUNITZ            EQUALS   UNITZ
000342: 43,2000  12,2004               LOUNITX            EQUALS   XUNIT                                 #  2DEC .5
000343: 43,2000  12,2002               LOUNITY            EQUALS   YUNIT                                 #  2DEC 0
000344: 43,2000  12,2000               LOUNITZ            EQUALS   ZUNIT                                 #  2DEC 0
000345:
000346: 43,2000  22,3541               DELRSPL            EQUALS   SPLRET                                #  COL PGM, ALSO CALLED BY R30 IN LUMINARY
000347:
000348:                                                                                                  #  ROPE-SPECIFIC ASSIGNS OBVIATING NEED TO CHECK COMPUTER FLAG IN DETERMINING INTEGRATION AREA ENTRIES.
000349:
000350: 43,2000  13,2734               ATOPTHIS           EQUALS   ATOPLEM
000351: 43,2000  13,2661               ATOPOTH            EQUALS   ATOPCSM
000352: 43,2000  13,3043               OTHPREC            EQUALS   CSMPREC
000353: 43,2000  0000174               MOONTHIS           EQUALS   LMOONFLG
000354: 43,2000  0000173               MOONOTH            EQUALS   CMOONFLG
000355: 43,2000  13,2747               MOVATHIS           EQUALS   MOVEALEM
000356: 43,2000  12,2017               RMM                =        LODPMAX
000357: 43,2000  12,2021               RME                =        LODPMAX1
000358: 43,2000  13,3057               THISPREC           EQUALS   LEMPREC
000359: 43,2000  23,2513               THISAXIS           =        UNITZ
000360: 43,2000  23,2513               NB1NB2             EQUALS   THISAXIS                              #  FOR R31
000361: 43,2000     5011               ERASID             EQUALS   BITS2-10                              #  DOWNLINK ERASABLE DUMP ID
000362: 43,2000     4752               DELAYNUM           EQUALS   TWO
000363:

End of include-file TAGS_FOR_RELATIVE_SETLOC_AND_BLANK_BANK_CARDS.agc.  Parent file is MAIN.agc


