
Source Code


000002:                                                                                                  ## Copyright:   Public domain.
000003:                                                                                                  ## Filename:    TIME_OF_FREE_FALL.agc
000004:                                                                                                  ## Purpose:     Part of the reconstructed source code for LMY99 Rev 0,
000005:                                                                                                  ##              otherwise known as Luminary Rev 99, the third release
000006:                                                                                                  ##              of the Apollo Guidance Computer (AGC) software for Apollo 11.
000007:                                                                                                  ##              It differs from LMY99 Rev 1 (the flown version) only in the
000008:                                                                                                  ##              placement of a single label. The corrections shown here have
000009:                                                                                                  ##              been verified to have the same bank checksums as AGC developer
000010:                                                                                                  ##              Allan Klumpp's copy of Luminary Rev 99, and so are believed
000011:                                                                                                  ##              to be accurate. This file is intended to be a faithful
000012:                                                                                                  ##              recreation, except that the code format has been changed to
000013:                                                                                                  ##              conform to the requirements of the yaYUL assembler rather than
000014:                                                                                                  ##              the original YUL assembler.
000015:                                                                                                  ##
000016:                                                                                                  ## Assembler:   yaYUL
000017:                                                                                                  ## Contact:     Ron Burkey <info@sandroid.org>.
000018:                                                                                                  ## Website:     www.ibiblio.org/apollo.
000019:                                                                                                  ## Pages:       1268-1283
000020:                                                                                                  ## Mod history: 2009-05-26 RSB  Adapted from the corresponding
000021:                                                                                                  ##                              Luminary131 file, using page
000022:                                                                                                  ##                              images from Luminary 1A.
000023:                                                                                                  ##              2011-01-06 JL   Fixed pseudo-label indentation.
000024:                                                                                                  ##              2016-12-17 RSB  Proofed text comments with octopus/ProoferComments
000025:                                                                                                  ##                              and corrected the errors found.
000026:                                                                                                  ##              2017-03-14 RSB  Comment-text fixes noted in proofing Luminary 116.
000027:                                                                                                  ##              2017-03-16 RSB  Comment-text fixes identified in 5-way
000028:                                                                                                  ##                              side-by-side diff of Luminary 69/99/116/131/210.
000029:                                                                                                  ##              2017-08-01 MAS  Created from LMY99 Rev 1.
000030:
000031:                                                                                                  ## This source code has been transcribed or otherwise adapted from
000032:                                                                                                  ## digitized images of a hardcopy from the MIT Museum.  The digitization
000033:                                                                                                  ## was performed by Paul Fjeld, and arranged for by Deborah Douglas of
000034:                                                                                                  ## the Museum.  Many thanks to both.  The images (with suitable reduction
000035:                                                                                                  ## in storage size and consequent reduction in image quality as well) are
000036:                                                                                                  ## available online at www.ibiblio.org/apollo.  If for some reason you
000037:                                                                                                  ## find that the images are illegible, contact me at info@sandroid.org
000038:                                                                                                  ## about getting access to the (much) higher-quality images which Paul
000039:                                                                                                  ## actually created.
000040:                                                                                                  ##
000041:                                                                                                  ## The code has been modified to match LMY99 Revision 0, otherwise
000042:                                                                                                  ## known as Luminary Revision 99, the Apollo 11 software release preceeding
000043:                                                                                                  ## the listing from which it was transcribed. It has been verified to
000044:                                                                                                  ## contain the same bank checksums as AGC developer Allan Klumpp's listing
000045:                                                                                                  ## of Luminary Revision 99 (for which we do not have scans).
000046:                                                                                                  ##
000047:                                                                                                  ## Notations on Allan Klumpp's listing read, in part:
000048:                                                                                                  ##
000049:                                                                                                  ##      ASSEMBLE REVISION 099 OF AGC PROGRAM LUMINARY BY NASA 2021112-51
000050:


000052:                                                                                                  #  THE TFF SUBROUTINES MAY BE USED IN EITHER EARTH OR MOON CENTERED COORDINATES.  THE TFF ROUTINES NEVER
000053:                                                                                                  #  KNOW WHICH ORIGIN APPLIES.  IT IS THE USER WHO KNOWS, AND WHO SUPPLIES RONE, VONE AND 1/SQRT(MU) AT THE
000054:                                                                                                  #  APPROPRIATE SCALE LEVEL FOR THE PROPER PRIMARY BODY.
000055:
000056:                                                                                                  #        EARTH ORIGIN    POSITION        -29     METERS
000057:                                                                                                  #                        VELOCITY        -7      METERS/CENTISECOND
000058:                                                                                                  #                        1/SQRT(MU)      +17     SQRT(CS SQ/METERS CUBED)
000059:
000060:                                                                                                  #        MOON ORIGIN     POSITION        -27     METERS
000061:                                                                                                  #                        VELOCITY        -5      METERS/CENTISECONDS
000062:                                                                                                  #                        1/SQRT(MU)      +14     SQRT(CS SQ/METERS CUBED)
000063:
000064:                                                                                                  #  ALL DATA PROVIDED TO AND RECEIVED FROM ANY TFF SUBROUTINE WILL BE AT ONE OF THE LEVELS ABOVE.  IN ALL CASES,
000065:                                                                                                  #  THE FREE FALL TIME IS RETURNED IN CENTISECONDS AT (-28).  PROGRAM TFF/CONIC WILL GENERATE VONE/RTMU AND
000066:                                                                                                  #  LEAVE IT IN VONE' AT (+10) IF EARTH ORIGIN AND (+9) IF MOON ORIGIN.
000067:
000068:                                                                                                  #  THE USER MUST STORE THE STATE VECTOR IN RONE, VONE  AND MU IN THE FORM 1/SQRT(MU) IN TFF/RTMU
000069:                                                                                                  #  AT THE PROPER SCALE BEFORE CALLING TFF/CONIC.  SINCE RONE, VONE ARE IN THE EXTENDED VERB STORAGE AREA,
000070:                                                                                                  #  THE USER MUST ALSO LOCK OUT THE EXTENDED VERBS, AND RELEASE THEM WHEN FINISHED.
000071:
000072:                                                                                                  #  PROGRAMS CALC/TFF AND CALC/TPER ASSUME THAT THE TERMINAL RADIUS IS LESS THAN THE PRESENT
000073:                                                                                                  #  RADIUS.  THIS RESTRICTION CAN BE REMOVED BY A 15 W CODING CHANGE, BUT AT PRESENT IT IS NOT DEEMED NECESSARY.
000074:
000075:                                                                                                  #  THE FOLLOWING ERASABLE QUANTITIES ARE USED BY THE TFF ROUTINES, AND ARE LOCATED IN THE PUSH LIST.
000076:
000077:                                                                                                  #                                        BELOW   E:  IS USED FOR EARTH ORIGIN SCALE
000078:                                                                                                  #                                                M:  IS USED FOR MOON  ORIGIN SCALE
000079:
000080:                                                                                                  # TFFSW          =       119D    BIT1    0 = CALCTFF             1 = CALCTPER
000081: 10,2213                        TFFDELQ            =        10D                                   #        Q2-Q1                   E: (-16)  M: (-15)
000082: 10,2213                        RMAG1              =        12D                                   #        ABVAL(RN)  M            E: (-29)  M: (-27)
000083:                                                                                                  # RPER           =       14D             PERIGEE RADIUS  M       E: (-29)  M: (-27)
000084: 10,2213                        TFFQ1              =        14D                                   #        R.V / SQRT(MUE)         E: (-16)  M: (-15)
000085:                                                                                                  # SDELF/2                                SIN(THETA) /2
000086: 10,2213                        CDELF/2            =        14D                                   #        COS(THETA) /2
000087:                                                                                                  # RAPO           =       16D             APOGEE RADIUS  M        E: (-29)  M: (-27)
000088: 10,2213                        NRTERM             =        16D                                   #        TERMINAL RADIUS  M      E: (-29+NR)
000089:                                                                                                  #                                          M: (-27+NR)
000090: 10,2213                        RTERM              =        18D                                   #        TERMINAL RADIUS  M      E: (-29)  M: (-27)
000091: 10,2213                        TFFVSQ             =        20D                                   #        -(V SQUARED/MU)  1/M    E: (20)   M: (18)
000092: 10,2213                        TFF1/ALF           =        22D                                   #        SEMI MAJ AXIS  M        E: (-22-2 NA)
000093:                                                                                                  #                                          M: (-20-2 NA)
000094: 10,2213                        TFFRTALF           =        24D                                   #        SQRT(ALFA)              E:(10+NA) M: (9+NA)
000095: 10,2213                        TFFALFA            =        26D                                   #        ALFA  1/M               E:(26-NR) M: (24-NR)
000096: 10,2213                        TFFNP              =        28D                                   #        SEMI LATUS RECTUM  M    E: (-38+2 NR)
000097:                                                                                                  #                                          M: (-36+2 NR)
000098: 10,2213                        TFF/RTMU           =        30D                                   #        1/SQRT(MU)              E: (17)   M: (14)
000099: 10,2213                        NRMAG              =        32D                                   #        PRESENT RADIUS  M       E: (-29+NR)
000100:                                                                                                  #                                          M: (-27+NR)
000101: 10,2213                        TFFX               =        34D
000102: 10,2213                        TFFTEM             =        36D                                   #        TEMPORARY


000104:                                                                                                  #                REGISTERS S1, S2 ARE UNTOUCHED BY ANY TFF SUBROUTINE
000105:                                                                                                  #                INDEX REGISTERS X1, X2 ARE USED BY ALL TFF SUBROUTINES.  THEY ARE ESTAB-
000106:                                                                                                  #                LISHED IN TFF/CONIC AND MUST BE PRESERVED BETWEEN CALLS TO SUBSEQUENT
000107:                                                                                                  #                SUBROUTINES.
000108:                                                                                                  #                -NR                             C(X1) = NORM COUNT OF RMAG
000109:                                                                                                  #                -NA                             C(X2) = NORM COUNT OF SQRT(ABS(ALFA))
000110:


000112:                                                                                                  #  SUBROUTINE NAME:  TFFCONIC                                            DATE:  01.29.67
000113:                                                                                                  #  MOD NO:  0                                                            LOG SECTION:  TIME OF FREE FALL
000114:                                                                                                  #  MOD BY:  RR BAIRNSFATHER
000115:                                                                                                  #  MOD NO:  1    MOD BY:  RR BAIRNSFATHER        DATE: 11 APR 67
000116:                                                                                                  #  MOD NO:  2    MOD BY:  RR BAIRNSFATHER        DATE: 21 NOV 67         ADD MOON MU.
000117:                                                                                                  #  MOD NO:  3    MOD BY:  RR BAIRNSFATHER        DATE: 21 MAR 68         ACCEPT DIFFERENT EARTH/MOON SCALES
000118:
000119:                                                                                                  #  FUNCTIONAL DESCRIPTION:  THIS SUBROUTINE IS CALLED TO COMPUTE THOSE CONIC PARAMETERS REQUIRED BY THE TFF
000120:                                                                                                  #        SUBROUTINES AND TO ESTABLISH THEM IN THE PUSH LIST AREA.  THE PARAMETERS ARE LISTED UNDER OUTPUT.
000121:                                                                                                  #        THE EQUATIONS ARE
000122:                                                                                                  #                -   -  -
000123:                                                                                                  #                H = RN*VN                       ANGULAR MOMENTUM
000124:                                                                                                  #                      - -
000125:                                                                                                  #                LCP = H.H / MU                  SEMI LATUS RECTUM
000126:                                                                                                  #                              -  -
000127:                                                                                                  #                ALFA = 2/RN - VN.VN / MU        RECIPROCAL SEMI MAJ AXIS, SIGNED
000128:
000129:                                                                                                  #        AND ALFA IS POS FOR ELLIPTIC ORBITS
000130:                                                                                                  #                      0 FOR PARABOLIC ORBITS
000131:                                                                                                  #                    NEG FOR HYPERBOLIC ORBITS.
000132:                                                                                                  #        SUBROUTINE ALSO COMPUTES AND SAVES RMAG.
000133:
000134:                                                                                                  #  CALLING SEQUENCE:
000135:                                                                                                  #        TFFCONIC EXPECTS CALLER TO ENTER WITH CORRECT GRAVITATIONAL CONSTANT IN MPAC, IN THE FORM
000136:                                                                                                  #        1/SQRT(MU).  PROGRAM WILL SAVE IN TFF/RTMU.  THE SCALE IS DETERMINED BY WHETHER EARTH OR MOON
000137:                                                                                                  #        ORIGIN IS USED.  THE CALLER MUST LOCK OUT THE EXTENDED VERBS BEFORE PROVIDING STATE VECTOR IN RONE,
000138:                                                                                                  #        VONE AT PROPER SCALE.  THE EXTENDED VERBS MUST BE RESTORED WHEN THE CALLER IS FINISHED USING THE
000139:                                                                                                  #        TFF ROUTINES.
000140:
000141:                                                                                                  #        ENTRY POINT TFFCONMU EXPECTS THAT TFF/RTMU IS ALREADY LOADED.
000142:
000143:                                                                                                  #        TO SPECIFY MU:  DLOAD   CALL                            IF MU ALREADY STORED:   CALL
000144:                                                                                                  #                                YOURMU  1/RTMU E:(17) M:(14)                                    TFFCONMU
000145:                                                                                                  #                                TFFCONIC
000146:                                                                                                  #        PUSHLOC = PDL+0, ARBITRARY IF LEQ 18D
000147:
000148:                                                                                                  #  SUBROUTINES CALLED:  NONE
000149:
000150:                                                                                                  #  NORMAL EXIT MODES:  RVQ
000151:
000152:                                                                                                  #  ALARMS:  NONE
000153:
000154:                                                                                                  #  OUTPUT:       THE FOLLOWING ARE STORED IN THE PUSH LIST AREA.
000155:                                                                                                  #                RMAG1           E:(-29) M:(-27) M  RN, PRESENT RADIUS LENGTH.
000156:                                                                                                  #                NRMAG           E:(-29+NR)      M  RMAG, NORMALIZED
000157:                                                                                                  #                                M:(-27+NR)
000158:                                                                                                  #                X1                              -NR, NORM COUNT
000159:                                                                                                  #                TFFNP           E:(-38+2NR)     M  LCP, SEMI LATUS RECTUM, WEIGHTED BY NR.      FOR VGAMCALC
000160:                                                                                                  #                                M:(-36+2NR)
000161:                                                                                                  #                TFF/RTMU        E:(17) M:(14)   1/SQRT(MU)
000162:                                                                                                  #                TFFVSQ          E:(20) M:(18)   1/M  -(V SQ/MU):  PRESENT VELOCITY,NORMLIZED.   FOR VGAMCALC
000163:                                                                                                  #                TFFALFA         E:(26-NR)       1/M  ALFA, WEIGHTED BY NR
000164:                                                                                                  #                                M:(24-NR)
000165:                                                                                                  #                TFFRTALF        E:(10+NA)       SQRT(ALFA), NORMALIZED
000166:                                                                                                  #                                M:(9+NA)


000168:                                                                                                  #                X2                              -NA, NORMCOUNT
000169:                                                                                                  #                TFF1/ALF        E:(-22-2NA)     SIGNED SEMI MAJ AXIS, WEIGHTED BY NA
000170:                                                                                                  #                                M:(-20-2NA)
000171:                                                                                                  #                PUSHLOC AT PDL+0
000172:
000173:                                                                                                  #        THE FOLLOWING IS STORED IN GENERAL ERASABLE
000174:                                                                                                  #                VONE'           E:(10) M:(9)    V/RT(MU), NORMALIZED VELOCITY
000175:
000176:                                                                                                  #  ERASABLE INITIALIZATION REQUIRED:
000177:                                                                                                  #                RONE            E:(-29) M:(-27) M  STATE VECTOR         LEFT BY CALLER
000178:                                                                                                  #                VONE            E:(-7) M:(-5)   M/CS  STATE VECTOR      LEFT BY CALLER
000179:                                                                                                  #                TFF/RTMU        E:(17) M:(14)   1/RT(CS SQ/M CUBE)      IF ENTER VIA TFFCONMU.
000180:
000181:                                                                                                  #  DEBRIS:       QPRET,          PDL+0 ... PDL+3
000182:
000183: 33,3777                                           BANK     33
000184: 27,2000                                           SETLOC   TOF-FF
000185: 27,2000                                           BANK
000186:
000187: 27,3360                                           COUNT*   $$/TFF
000188:
000189: 27,3360           00037        TFFCONIC           STORE    TFF/RTMU                              #  1/SQRT(MU)    E:(17) M:(14)
000190:
000191: 27,3361           53575        TFFCONMU           VLOAD    UNIT                                  #  COME HERE WITH TFFRTMU LOADED.
000192: 27,3362           02207                                    RONE                                  #  SAVED RN.  M  E:(-29) M:(-27)
000193: 27,3363           77725                           PDDL                                           #  UR/2 TO PDL+0, +5
000194: 27,3364           00045                                    36D                                   #  MAGNITUDE
000195: 27,3365           00015                           STORE    RMAG1                                 #  M  E:(-29) M:(-27)
000196:
000197: 27,3366           77701                           NORM
000198: 27,3367           00047                                    X1                                    #  -NR
000199: 27,3370           24041                           STOVL    NRMAG                                 #  RMAG  M  E:(-29+NR) M:(-27+NR)
000200: 27,3371           02215                                    VONE                                  #  SAVED VN.  M/CS  E:(-7) M:(-5)
000201: 27,3372           77761                           VXSC
000202: 27,3373           00037                                    TFF/RTMU                              #  E:(17) M:(14)
000203: 27,3374           02170                           STORE    VONE'                                 #  VN/SQRT(MU)  E:(10) M:(9)
000204:
000205: 27,3375           47361                           VXSC     VXV
000206: 27,3376           00041                                    NRMAG                                 #  E:(-29+NR) M:(-27+NR)
000207:                                                                                                  #  UR/2 FROM PDL
000208: 27,3377           47572                           VSL1     VSQ                                   #  BEFORE:  E:(-19+NR) M:(-18+NR)
000209: 27,3400           14035                           STODL    TFFNP                                 #  LC P  M  E:(-38+2NR) M:(-36+2NR)
000210:                                                                                                  #  SAVE ALSO FOR VGAMCALC
000211: 27,3401           06512                                    TFF1/4
000212: 27,3402           63271                           DDV      PDVL                                  #  (2/RMAG)  1/M  E:(26-NR) M:(24-NR)
000213: 27,3403           00041                                    NRMAG                                 #  RMAG  M  E:(-29+NR) M:(-27+NR)
000214: 27,3404           02170                                    VONE'                                 #  SAVED VN.  E:(10) M:(9)
000215: 27,3405           57436                           VSQ      DCOMP                                 #  KEEP MPAC+2 HONEST FOR SQRT.
000216: 27,3406           00025                           STORE    TFFVSQ                                #  -(V SQ/MU)  E:(20) M:(18)
000217:                                                                                                  #  SAVE FOR VGAMCALC
000218: 27,3407           43257                           SR*      DAD


000220: 27,3410           20573                                    0          -6,1                       #  GET -VSQ/MU  E:(26-NR) M:(24-NR)
000221: 27,3411           77626                           STADR
000222:                                                                                                  #  2/RMAG  FROM PDL+2
000223: 27,3412           77744                           STORE    TFFALFA                               #  ALFA  1/M  E:(26-NR) M:(24-NR)
000224: 27,3413           41457                           SL*      PUSH                                  #  TEMP SAVE ALFA  E:(20) M:(18)
000225: 27,3414           20173                                    0          -6,1
000226: 27,3415           75446                           ABS      SQRT                                  #  E:(10) M:(9)
000227: 27,3416           77701                           NORM
000228: 27,3417           00050                                    X2                                    #  X2 = -NA
000229: 27,3420           00031                           STORE    TFFRTALF                              #  SQRT( ABS(ALFA) )  E:(10+NA) M:(9+NA)
000230: 27,3421           75316                           DSQ      SIGN                                  #  NOT SO ACCURATE, BUT OK
000231:                                                                                                  #  ALFA FROM PDL+2  E:(20) M:(18)
000232: 27,3422           55254                           BZE      BDDV                                  #  SET 1/ALFA =0, TO SHOW SMALL ALFA
000233: 27,3423           57425                                    +2
000234: 27,3424           06512                                    TFF1/4
000235: 27,3425           00027                 +2        STORE    TFF1/ALF                              #  1/ALFA  E:(-22-2NA) M:(-20-2NA)
000236: 27,3426           77616        DUMPCNIC           RVQ
000237:
000238:                                                                                                  #                                                              39 W


000240:                                                                                                  #  SUBROUTINE NAME:  TFFRP/RA                                            DATE: 01.17.67
000241:                                                                                                  #  MOD NO:  0                                                            LOG SECTION:  TIME OF FREE FALL
000242:                                                                                                  #  MOD BY:  RR BAIRNSFATHER
000243:                                                                                                  #  MOD NO:  1    MOD BY:  RR BAIRNSFATHER        DATE: 11 APR 67
000244:                                                                                                  #  MOD NO:  2    MOD BY:  RR BAIRNSFATHER        DATE: 21 MAR 68         ACCEPT DIFFERENT EARTH/MOON SCALES
000245:                                                                                                  #                                                                        ALSO IMPROVE ACCURACY OF RAPO.
000246:
000247:                                                                                                  #  FUNCTIONAL DESCRIPTION:  USED BY CALCTPER AND TFF DISPLAYS TO CALCULATE PERIGEE RADIUS AND ALSO
000248:                                                                                                  #        APOGEE RADIUS FOR A GENERAL CONIC.
000249:                                                                                                  #        PROGRAM GIVES PERIGEE RADIUS AS         APOGEE RADIUS IS GIVEN BY
000250:                                                                                                  #                RP = P/(1+E)                            RA = (1+E) / ALFA
000251:                                                                                                  #        WHERE    2
000252:                                                                                                  #                E  = 1 - P ALFA
000253:                                                                                                  #        IF RA IS NEGATIVE OR SHOWS DIVIDE OVERFLOW, THEN RA = POSMAX BECAUSE
000254:                                                                                                  #                1. APOGEE RADIUS IS NOT MEANINGFUL FOR HYPERBOLA
000255:                                                                                                  #                2. APOGEE RADIUS IS NOT DEFINED FOR PARABOLA
000256:                                                                                                  #                3. APOGEE RADIUS EXCEEDS THE SCALING FOR ELLIPSE.
000257:
000258:                                                                                                  #        THIS SUBROUTINE REQUIRES THE SIGNED RECIPROCAL SEMI MAJ AXIS, ALFA, AND SEMI LATUS RECTUM AS DATA.
000259:
000260:                                                                                                  #  CALLING SEQUENCE:     CALL
000261:                                                                                                  #                                TFFRP/RA
000262:                                                                                                  #        PUSHLOC = PDL+0, ARBITRARY IF LEQ 10D
000263:                                                                                                  #        C(MPAC) UNSPECIFIED
000264:
000265:                                                                                                  #  SUBROUTINES CALLED:   NONE
000266:
000267:                                                                                                  #  NORMAL EXIT MODE:     RVQ
000268:                                                                                                  #        IF ELLIPSE, WITHIN NORMAL SCALING, RAPO IS CORRECT.
000269:                                                                                                  #        OTHERWISE, RAPO = POSMAX.
000270:
000271:                                                                                                  #  ALARMS:       NONE
000272:
000273:                                                                                                  #  OUTPUT:       STORED IN PUSH LIST AREA.  SCALE OF OUTPUT AGREES WITH DATA SUPPLIED TO TFF/CONIC.
000274:                                                                                                  #        RPER    E:(-29) M:(-27)         M       PERIGEE RADIUS          DESTROYED BY CALCTFF/CALCTPER, TFFTRIG.
000275:                                                                                                  #        RAPO    E:(-29) M:(-27)         M       APOGEE RADIUS           WILL BE DESTROYED BY CALCTFF/CALCTPER
000276:                                                                                                  #        PUSHLOC AT PDL+0
000277:
000278:                                                                                                  #  ERASABLE INITIALIZATION REQUIRED:
000279:                                                                                                  #        TFFALFA E:(26-NR)               M       1/SEMI MAJ AXIS         LEFT BY TFFCONIC
000280:                                                                                                  #                M:(24-NR)
000281:                                                                                                  #        TFFNP   E:(-38+2NR)             M       LC P, SEMI LATUS RECTUM LEFT BY TFFCONIC
000282:                                                                                                  #                M:(-36+2NR)
000283:                                                                                                  #        X1                              -NR, NORM COUNT OF RMAG         LEFT BY TFFCONIC
000284:                                                                                                  #        X2                              -NA, NORM COUNT OF ALFA         LEFT BY TFFCONIC
000285:
000286:                                                                                                  #  DEBRIS:       QPRET, PDL+0 ... PDL+1
000287:


000289: 27,3427                        RAPO               =        16D                                   #  APOGEE RADIUS  M  E:(-29) M:(-27)
000290: 27,3427                        RPER               =        14D                                   #  PERIGEE RADIUS  M  E:(-29) M:(-27)
000291:
000292: 27,3427           41345        TFFRP/RA           DLOAD    DMP
000293: 27,3430           00033                                    TFFALFA                               #  ALFA  1/M  E:(26-NR) M:(24-NR)
000294: 27,3431           00035                                    TFFNP                                 #  LC P  M E:(-38+2NR) M:(-36+2NR)
000295: 27,3432           57457                           SR*      DCOMP                                 #  ALFA P (-12+NR)
000296: 27,3433           20571                                    0          -8D,1                      #  ALFA P (-4)
000297: 27,3434           51415                           DAD      ABS                                   #  (DCOMP GIVES VALID TP RESULT FOR SQRT)
000298:                                                                                                  #  (ABS PROTECTS SQRT IF E IS VERY NEAR 0)
000299: 27,3435           17765                                    DP2(-4)
000300: 27,3436           43366                           SQRT     DAD                                   #  E SQ = (1- P ALFA) (-4)
000301: 27,3437           06512                                    TFF1/4
000302: 27,3440           55206                           PUSH     BDDV                                  #  (1+E)  (-2)  TO PDL+0
000303: 27,3441           00035                                    TFFNP                                 #  LCP  M  E:(-38+2NR) M:(-36+2NR)
000304: 27,3442           53657                           SR*      SR*                                   #  (DOES SR THEN SL TO AVOID OVFL)
000305: 27,3443           20601                                    0,1                                   #  X1=-NR
000306: 27,3444           20572                                    0          -7,1                       #  (EFFECTIVE SL)
000307: 27,3445           14017                           STODL    RPER                                  #  PERIGEE RADIUS  M  E:(-29) M:(-27)
000308:                                                                                                  #  (1+E)  (-2)  FROM PDL+0
000309: 27,3446           41005                           DMP      BOVB
000310: 27,3447           00027                                    TFF1/ALF                              #  E:(-22-2NA) M:(-20-2NA)
000311: 27,3450           57753                                    TCDANZIG                              #  CLEAR OVFIND, IF ON.
000312: 27,3451           53654                           BZE      SL*
000313: 27,3452           57461                                    MAXRA                                 #  SET POSMAX, IF ALFA=0
000314: 27,3453           57603                                    0          -5,2                       #  -5+NA
000315: 27,3454           40057                           SL*      BOV
000316: 27,3455           57576                                    0,2
000317: 27,3456           57461                                    MAXRA                                 #  SET POSMAX IF OVFL.
000318: 27,3457           77644                           BPL                                            #  CONTINUE WITH VALID RAPO.
000319: 27,3460           57463                                    +3
000320: 27,3461           77745        MAXRA              DLOAD                                          #  RAPO CALC IS NOT VALID.  SET RAPO =
000321: 27,3462           17771                                    NEARONE                               #  POSMAX AS A TAG.
000322: 27,3463           00021                 +3        STORE    RAPO                                  #  APOGEE RADIUS  M  E:(-29) M:(-27)
000323: 27,3464           77616        DUMPRPRA           RVQ
000324:
000325:                                                                                                  #                                                                30 W


000327:                                                                                                  #  SUBROUTINE NAME:  CALCTPER / CALCTFF                                  DATE:  01.29.67
000328:                                                                                                  #  MOD NO:  0                                                            LOG SECTION:  TIME OF FREE FALL
000329:                                                                                                  #  MOD BY:  RR BAIRNSFATHER
000330:                                                                                                  #  MOD NO:  1    MOD BY:  RR BAIRNSFATHER        DATE: 21 MAR 67
000331:                                                                                                  #  MOD NO:  2    MOD BY:  RR BAIRNSFATHER        DATE: 14 APR 67
000332:                                                                                                  #  MOD NO:  3    MOD BY:  RR BAIRNSFATHER        DATE: 8 JUL 67          NEAR EARTH MUE AND NEG TFF (GONEPAST)
000333:                                                                                                  #  MOD NO:  4    MOD BY:  RR BAIRNSFATHER        DATE: 21 NOV 67         ADD VARIABLE MU.
000334:                                                                                                  #  MOD NO:  5    MOD BY:  RR BAIRNSFATHER        DATE: 21 MAR 68         ACCEPT DIFFERENT EARTH/MOON SCALES
000335:
000336:                                                                                                  #  FUNCTIONAL DESCRIPTION:  PROGRAM CALCULATES THE FREE-FALL TIME OF FLIGHT FROM PRESENT POSITION RN AND
000337:                                                                                                  #        VELOCITY VN TO A RADIUS LENGTH SPECIFIED BY RTERM, SUPPLIED BY THE USER.  THE POSITION VECTOR
000338:                                                                                                  #        RN MAY BE ON EITHER SIDE OF THE CONIC, BUT RTERM IS CONSIDERED ON THE INBOUND SIDE.
000339:                                                                                                  #        THE EQUATIONS ARE
000340:
000341:                                                                                                  #                Q2 = -SQRT(RTERM (2-RTERM ALFA) - LCP)  (INBOUND SIDE)) LEQ +- LCE/SQRT(ALFA)
000342:                                                                                                  #                     -  -
000343:                                                                                                  #                Q1 = RN.VN / SQRT(MU)                                   LEQ +- LCE/SQRT(ALFA)
000344:
000345:                                                                                                  #                Z = NUM / DEN                                           LEQ +- 1/SQRT(ALFA)
000346:
000347:                                                                                                  #        WHERE, IF INBOUND
000348:                                                                                                  #                NUM = RTERM -RN                                         LEQ +- 2 LCE/ALFA
000349:                                                                                                  #                DEN = Q2+Q1                                             LEQ +- 2 LCE/SQRT(ALFA)
000350:
000351:                                                                                                  #        AND, IF OUTBOUND
000352:                                                                                                  #                NUM = Q2-Q1                                             LEQ +- 2 LCE/SQRT(ALFA)
000353:                                                                                                  #                DEN = 2 - ALFA (RTERM + RN).                            LEQ +- 2 LCE
000354:
000355:                                                                                                  #        IF      ALFA ZZ < 1.0           (FOR ALL CONICS EXCEPT ELLIPSES HAVING ABS(DEL ECC ANOM) G 90 DEG)
000356:                                                                                                  #        THEN    X = ALFA Z Z
000357:                                                                                                  #        AND     TFF = (RTERM +RN -2 ZZ T(X) ) Z/SQRT(MU)
000358:                                                                                                  #                EXCEPT  IF ALFA PNZ, AND IF TFF NEG,
000359:                                                                                                  #                THEN    TFF = 2 PI /(ALFA SQRT(ALFA)) + TFF
000360:                                                                                                  #        OR      IF ALFA ZZ GEQ 1.0      (FOR ELLIPSES HAVING ABS(DEL ECC ANOM) GEQ 90 DEG)
000361:                                                                                                  #        THEN    X = 1/ALFA Z Z
000362:                                                                                                  #        AND     TFF = (PI/SQRT(ALFA) -Q2 +Q1 +2(X T(X) -1) /ALFA Z) /ALFA SQRT(MU)
000363:                                                                                                  #        WHERE   T(X) IS A POLYNOMIAL APPROXIMATION TO THE SERIES
000364:                                                                                                  #                             2      3             2
000365:                                                                                                  #                1/3 - X/5 + X /7 - X /9 ...     (X  < 1.0)
000366:
000367:                                                                                                  #  CALLING SEQUENCE:     TIME TO RTERM                   TIME TO PERIGEE
000368:                                                                                                  #                        CALL                            CALL
000369:                                                                                                  #                                CALCTFF                         CALCTPER
000370:                                                                                                  #                        C(MPAC) = TERMNL RAD M          C(MPAC) = PERIGEE RAD M
000371:                                                                                                  #        FOR EITHER, E:(-29) M:(-27)
000372:                                                                                                  #        FOR EITHER, PUSHLOC = PDL+0, ARBITRARY IF LEQ 8D.


000374:
000375:                                                                                                  #  SUBROUTINES CALLED:   T(X), VIA RTB
000376:
000377:                                                                                                  #  NORMAL EXIT MODE:     RVQ
000378:                                                                                                  #        HOWEVER, PROGRAM EXITS WITH ONE OF THE FOLLOWING VALUES FOR TFF (-28) CS IN MPAC.  USER MUST STORE.
000379:                                                                                                  #                A. TFF = FLIGHT TIME.  NORMAL CASE FOR POSITIVE FLIGHT TIME LESS THAN ONE ORBITAL PERIOD.
000380:                                                                                                  #                B. (THIS OPTION IS NO LONGER USED.)
000381:                                                                                                  #                C. TFF = POSMAX.  THIS INDICATES THAT THE CONIC FROM THE PRESENT POSITION WILL NOT RETURN TO
000382:                                                                                                  #                   THE SPECIFIED ALTITUDE.  ALSO INDICATES OUTBOUND PARABOLA OR HYPERBOLA.
000383:
000384:                                                                                                  #  OUTPUT:       C(MPAC)         (-28) CS        TIME OF FLIGHT, OR TIME TO PERIGEE
000385:                                                                                                  #                TFFX            (0)             X,                                      LEFT FOR ENTRY DISPLAY TFF ROUTINES
000386:                                                                                                  #                NRTERM          E:(-29+NR) M    RTERM, WEIGHTED BY NR                   LEFT FOR ENTRY DISPLAY TFF ROUTINES
000387:                                                                                                  #                                M:(-27+NR)
000388:                                                                                                  #                TFFTEM          E:(-59+2NR)     LCP Z Z SGN(SDELF)                      LEFT FOR ENTRY DISPLAY TFF ROUTINES
000389:                                                                                                  #                                M:(-55+2NR)     LCP /ALFA SGN(SDELF)                    LEFT FOR ENTRY DISPLAY TFF ROUTINES
000390:                                                                                                  #                NOTE:   TFFTEM = PDL 36D AND WILL BE DESTROYED BY .:UNIT:.
000391:                                                                                                  #                RMAG1           E:(-29) M:(-27) PDL 12 NOT TOUCHED.
000392:                                                                                                  #                TFFQ1           E:(-16) M:(-15) PDL 14D
000393:                                                                                                  #                TFFDELQ         E:(-16) M:(-15) PDL 10D
000394:                                                                                                  #                PUSHLOC AT PDL+0
000395:
000396:                                                                                                  #  ERASABLE INITIALIZATION REQUIRED:
000397:                                                                                                  #                RONE            E:(-29) M:(-27) M  STATE VECTOR                         LEFT BY USER
000398:                                                                                                  #                VONE'           E:(+10) M:(+9)  VN/SQRT(MU)                             LEFT BY TFF/CONIC
000399:                                                                                                  #                RMAG1           E:(-29) M:(-27) PRESENT RADIUS, M                       LEFT BY TFFCONIC
000400:                                                                                                  #                C(MPAC)         E:(-29) M:(-27) RTERM, TERMINAL RADIUS LENGTH, M        LEFT BY USER
000401:
000402:                                                                                                  #                THE FOLLOWING ARE STORED IN THE PUSH LIST AREA.
000403:                                                                                                  #                TFF/RTMU        E:(17) M:(14)   1/SQRT(MU)                              LEFT BY TFFCONIC.
000404:                                                                                                  #                NRMAG           E:(-29+NR)      M  RMAG, NORMALIZED                     LEFT BY TFFCONIC
000405:                                                                                                  #                                M:(-27+NR)
000406:                                                                                                  #                X1                              -NR, NORM COUNT                         LEFT BY TFFCONIC
000407:                                                                                                  #                TFFNP           E:(-38+2NR)     M  LCP, SEMI LATUS RECTUM, WEIGHT NR    LEFT BY TFFCONIC
000408:                                                                                                  #                                M:(-36+2NR)
000409:                                                                                                  #                TFFALFA         E:(26-NR)       1/M  ALFA, WEIGHT NR                    LEFT BY TFFCONIC
000410:                                                                                                  #                                M:(24-NR)
000411:                                                                                                  #                TFFRTALF        E:(10+NA)       SQRT(ALFA), NORMALIZED                  LEFT BY TFFCONIC
000412:                                                                                                  #                                M:(9+NA)
000413:                                                                                                  #                X2                              -NA, NORMCOUNT                          LEFT BY TFFCONIC
000414:                                                                                                  #                TFF1/ALF        E:(-22-2NA)     SIGNED SEMIMAJ AXIS, WEIGHTED BY NA     LEFT BY TFFCONIC
000415:                                                                                                  #                                M:(-20-2NA)
000416:
000417:                                                                                                  #  DEBRIS:       QPRET, PDL+0 ... PDL+3
000418:                                                                                                  #                RTERM           E:(-29) M:(-27) RTERM, TERMINAL RADIUS LENGTH
000419:                                                                                                  #                RAPO            E:(-29) M:(-27) PDL 16D (=NRTERM)
000420:                                                                                                  #                RPER            E:(-29) M:(-27) PDL 14D (=TFFQ1)
000421:


000423: 27,3465           77614        CALCTPER           SETGO                                          #  ENTER WITH RPER IN MPAC
000424: 27,3466           03436                                    TFFSW
000425: 27,3467           57472                                    +3
000426: 27,3470           77614        CALCTFF            CLEAR                                          #  ENTER WITH RTERM IN MPAC
000427: 27,3471           03676                                    TFFSW
000428: 27,3472           00023                 +3        STORE    RTERM                                 #  E:(-29) M:(-27)
000429: 27,3473           77657                           SL*
000430: 27,3474           20201                                    0,1                                   #  X1=-NR
000431: 27,3475           00021                           STORE    NRTERM                                #  RTERM  E:(-29+NR) M:(-27+NR)
000432: 27,3476           44205                           DMP      BDSU
000433: 27,3477           00033                                    TFFALFA                               #  ALFA  E:(26-NR) M:(24-NR)
000434: 27,3500           06512                                    TFF1/4
000435: 27,3501           41206                           PUSH     DMP                                   #  (2-ALFA RTERM)  (-3)  TO PDL+0
000436: 27,3502           00021                                    NRTERM                                #  E:(-29+NR) M:(-27+NR)
000437: 27,3503           53725                           PDDL     SR*                                   #  RTERM(2-ALFA RTERM) TO PDL+2
000438:                                                                                                  #  E:(-32+NR) M:(-30+NR)
000439: 27,3504           00035                                    TFFNP                                 #  LC P  E:(-38+2NR) M:(-36+2NR)
000440: 27,3505           20573                                    0          -6,1                       #  X1 = -NR
000441: 27,3506           43276                           DCOMP    DAD                                   #  DUE TO SHIFTS, KEEP PRECISION FOR SQRT
000442:                                                                                                  #  RTERM(2-ALFA RTERM) FROM PDL +2
000443:                                                                                                  #  E:(-32+NR) M:(-30+NR)
000444: 27,3507           77657                           SR*                                            #  LEAVE  E:(-32) M:(-30)
000445: 27,3510           20601                                    0,1                                   #  X1 = -NR
000446: 27,3511           71214                           BOFF     DLOAD                                 #  CHECK TFF /TPER SWITCH
000447: 27,3512           03756                                    TFFSW
000448: 27,3513           57515                                    +2                                    #  IF TFF, CONTINUE
000449: 27,3514           06522                                    TFFZEROS                              #  IF TPER, SET Q2 = 0
000450: 27,3515           75440                 +2        BMN      SQRT                                  #  E:(-16) M:(-15)
000451:
000452: 27,3516           57650                                    MAXTFF1                               #  NO FREE FALL CONIC TO RTERM FROM HERE
000453:                                                                                                  #  RESET PDL, SET TFF=POSMAX, AND EXIT.
000454:
000455: 27,3517           41076                           DCOMP    BOVB                                  #  RT IS ON INBOUND SIDE.  ASSURE OVFIND=0
000456: 27,3520           57753                                    TCDANZIG                              #  ANY PORT IN A STORM.
000457: 27,3521           24045                           STOVL    TFFTEM                                #  Q2  E:(-16) M:(-15)
000458: 27,3522           02170                                    VONE'                                 #  VN/SQRT(MU)  E:(10) M:(9)
000459: 27,3523           52441                           DOT      SL3
000460: 27,3524           02207                                    RONE                                  #  SAVED RN.  E:(-29) M:(-27)
000461: 27,3525           00017                           STORE    TFFQ1                                 #  Q1, SAVE FOR GONEPAST TEST.
000462:                                                                                                  #  E:(-16) M:(-15)
000463: 27,3526           44240                           BMN      BDSU
000464: 27,3527           57550                                    INBOUND                               #  USE ALTERNATE Z
000465: 27,3530           00045                                    TFFTEM                                #  Q2  E:(-16) M:(-15)
000466:
000467:                                                                                                  #  OUTBOUND Z CALC CONTINUES HERE
000468:
000469: 27,3531           14043                           STODL    TFFX                                  #  NUM=Q2-Q1  E:(-16) M:(-15)
000470: 27,3532           00033                                    TFFALFA                               #  ALFA  E:(26-NR) M:(24-NR)
000471: 27,3533           44205                           DMP      BDSU


000473: 27,3534           00041                                    NRMAG                                 #  RMAG  E:(-29+NR) M:(-27+NR)
000474:                                                                                                  #  (2-RTERM ALFA)  (-3) FROM PDL+0
000475: 27,3535           51406        SAVEDEN            PUSH     ABS                                   #  DEN TO PDL+0  E:(-3) OR (-16)
000476:                                                                                                  #                M:(-3) OR (-15)
000477: 27,3536           40015                           DAD      BOV                                   #  INDETERMINANCY TEST
000478: 27,3537           17757                                    LIM(-22)                              #  =1.0-B(-22)
000479: 27,3540           57561                                    TFFXTEST                              #  GO IF DEN >/= B(-22)
000480: 27,3541           65345                           DLOAD    PDDL                                  #  SET DEN=0 OTHERWISE
000481: 27,3542           06522                                    TFFZEROS
000482:                                                                                                  #  XCH ZERO WITH PDL+0
000483: 27,3543           57545                           DLOAD    DCOMP
000484: 27,3544           00033                                    TFFALFA                               #  ALFA  E:(26-NR) M:(24-NR)
000485: 27,3545           71240                           BMN      DLOAD                                 #  FOR TPER:  Z INDET AT DELE/2=0 AND 90.
000486: 27,3546           57655                                    TFFEL1                                #  ASSUME 90, AND LEAVE 0 IN PDL: 1/Z=D/N
000487:
000488:                                                                                                  #  Z INDET. AT PERIGEE FOR PARAB OR HYPERB.
000489: 27,3547           77616        DUMPTFF1           RVQ                                            #  RETURN TFF =0
000490:
000491:                                                                                                  #  INBOUND Z CALC CONTINUES HERE
000492:
000493: 27,3550           77745        INBOUND            DLOAD                                          #  RESET PDL+0
000494: 27,3551           45345                           DLOAD    DSU                                   #  ALTERNATE Z CALC
000495: 27,3552           00023                                    RTERM                                 #  E:(-29) M:(-27)
000496: 27,3553           00015                                    RMAG1                                 #  E:(-29) M:(-27)
000497: 27,3554           14043                           STODL    TFFX                                  #  NUM=RTERM-RN  E:(-29) M:(-27)
000498: 27,3555           00045                                    TFFTEM                                #  Q2  E:(-16) M:(-15)
000499: 27,3556           52015                           DAD      GOTO
000500: 27,3557           00017                                    TFFQ1                                 #  Q1  E:(-16) M:(-15)
000501: 27,3560           57535                                    SAVEDEN                               #  DEN = Q2+Q1  E:(-16) M:(-15)
000502:
000503: 27,3561           65215        TFFXTEST           DAD      PDDL                                  #  (ABS(DEN) TO PDL+2))  E:(-3) OR (-16)
000504:                                                                                                  #                        M:(-3) OR (-15)
000505: 27,3562           17761                                    DP(-22)                               #  RESTORE ABS(DEN) TO MPAC
000506: 27,3563           00043                                    TFFX                                  #  NUM  E:(-16) OR (-29)  M:(-15) OR (-27)
000507: 27,3564           53605                           DMP      SR*
000508: 27,3565           00031                                    TFFRTALF                              #  SQRT(ALFA)  E:(10+NA) M:(9+NA)
000509: 27,3566           57201                                    0          -3,2                       #  X2=-NA
000510: 27,3567           77671                           DDV                                            #  C(MPAC) =NUM SQRT(ALFA)       E:(-3) OR (-16)
000511:                                                                                                  #                                M:(-3) OR (-15)
000512:                                                                                                  #  ABS(DEN) FROM PDL+2   E:(-3) OR (-16)
000513:                                                                                                  #                        M:(-3) OR (-15)
000514: 27,3570           40145                           DLOAD    BOV                                   #  (THE DLOAD IS SHARED WITH TFFELL)
000515: 27,3571           00043                                    TFFX                                  #  NUM  E:(-16) OR (-29)  M:(-15) OR (-27)
000516: 27,3572           57653                                    TFFELL                                #  USE EQN FOR DELE GEQ 90, LEQ -90
000517:
000518:                                                                                                  #  OTHERWISE, CONTINUE FOR GENERAL CONIC FOR TFF EQN
000519:
000520: 27,3573           45471                           DDV      STADR
000521:                                                                                                  #  DEN FROM PDL+0        E:(-3) OR (-16)
000522:                                                                                                  #                        M:(-3) OR (-15)
000523: 27,3574           77732                           STORE    TFFTEM                                #  Z SAVE FOR SIGN OF SDELF.


000525:                                                                                                  #  E:(-13) M:(-12)
000526: 27,3575           63406                           PUSH     DSQ                                   #  Z TO PDL+0
000527: 27,3576           41206                           PUSH     DMP                                   #  Z SQ TO PDL+2  E:(-26) M:(-24)
000528: 27,3577           00035                                    TFFNP                                 #  LC P  E:(-38+2NR) M:(-36+2NR)
000529: 27,3600           75261                           SL       SIGN
000530: 27,3601           20206                                    5
000531: 27,3602           00045                                    TFFTEM                                #  AFFIX SIGN FOR SDELF (ENTRY DISPLAY)
000532: 27,3603           14045                           STODL    TFFTEM                                #  P ZSQ  E:(-59+2NR) M:(-55+2NR)
000533:                                                                                                  #  (ARG IS USED IN TFF/TRIG)
000534:                                                                                                  #  ZSQ FROM PDL+2  E:(-26) M:(-24)
000535: 27,3604           41206                           PUSH     DMP                                   #  RESTORE PUSH LOC
000536: 27,3605           00033                                    TFFALFA                               #  ALFA  E:(26-NR) M:(24-NR)
000537: 27,3606           77657                           SL*
000538: 27,3607           20201                                    0,1                                   #  X1=-NR
000539: 27,3610           00043                           STORE    TFFX                                  #  X
000540: 27,3611           41234                           RTB      DMP
000541: 27,3612           57735                                    T(X)                                  #  POLY
000542:                                                                                                  #  ZSQ FROM PDL+2  E:(-26) M:(-24)
000543: 27,3613           44302                           SR2      BDSU                                  #  2 ZSQ T(X)  E:(-29) M:(-27)
000544: 27,3614           00023                                    RTERM                                 #  RTERM  E:(-29) M:(-27)
000545: 27,3615           41215                           DAD      DMP
000546: 27,3616           00015                                    RMAG1                                 #  E:(-29) M:(-27)
000547:                                                                                                  #  Z FROM PDL+0  E:(-13) M:(-12)
000548: 27,3617           51042                           SR3      BPL                                   #  TFF SQRT(MU)  E:(-45) M:(-42)
000549: 27,3620           57641                                    ENDTFF                                #  (NO PUSH UP)
000550: 27,3621           75206                           PUSH     SIGN                                  #  TFF SQRT(MU) TO PDL+0
000551: 27,3622           00017                                    TFFQ1                                 #  Q1 FOR GONEPAST TEST
000552: 27,3623           71244                           BPL      DLOAD                                 #  GONE PAST ?
000553: 27,3624           57645                                    NEGTFF                                #  YES. TFF < 0.
000554: 27,3625           00027                                    TFF1/ALF                              #  1/ALFA  E:(-22-2NA) M:(-20-2NA)
000555: 27,3626           51076                           DCOMP    BPL                                   #  ALFA > 0 ?
000556: 27,3627           57645                                    NEGTFF                                #  NO. TFF IS NEGATIVE.
000557:
000558:                                                                                                  #  CORRECT FOR ORBITAL PERIOD.
000559:
000560: 27,3630           77676                           DCOMP                                          #  YES.  CORRECT FOR ORB PERIOD.
000561: 27,3631           56205                           DMP      DDV
000562: 27,3632           17755                                    PI/16                                 #  2 PI (-5)
000563: 27,3633           00031                                    TFFRTALF                              #  SQRT(ALFA)  E:(10+NA) M:(9+NA)
000564: 27,3634           53657                           SL*      SL*
000565: 27,3635           57602                                    0          -4,2                       #  X2=-NA
000566: 27,3636           57602                                    0          -4,2
000567: 27,3637           43257                           SL*      DAD
000568: 27,3640           57576                                    0,2
000569:                                                                                                  #  TFF SQRT(MU) FROM PDL+0       E:(-45) M:(-42)
000570: 27,3641           40005        ENDTFF             DMP      BOV                                   #  TFF SQRT(MU) IN MPAC          E:(-45) M:(-42)
000571: 27,3642           00037                                    TFF/RTMU                              #  E:(17) M:(14)
000572: 27,3643           57651                                    MAXTFF                                #  SET POSMAX IF OVFL.
000573:
000574: 27,3644           77616        DUMPTFF2           RVQ                                            #  RETURN TFF (-28) CS IN MPAC.
000575:


000577: 27,3645           77745        NEGTFF             DLOAD
000578:                                                                                                  #  TFF SQRT(MU) FROM PDL+0, NEGATIVE.
000579: 27,3646           77650                           GOTO
000580: 27,3647           57641                                    ENDTFF
000581:
000582: 27,3650           77745        MAXTFF1            DLOAD                                          #  RESET PDL
000583: 27,3651           43545        MAXTFF             DLOAD    RVQ
000584: 27,3652           17771                                    NEARONE
000585:
000586:                                                                                                  #  TIME OF FLIGHT ELLIPSE WHEN DEL (ECCENTRIC ANOM) GEQ 90 AND LEQ -90.
000587:
000588:                                                                                                  #  NUM FROM TFFX.        E:(-16) OR (-29)
000589:                                                                                                  #                        M:(-15) OR (-27)
000590: 27,3653           77712        TFFELL             SL2                                            #  NUM  E:(-14) OR (-27)  M:(-13) OR (-25)
000591: 27,3654           41465                           BDDV     PUSH                                  #  TEMP SAVE D/N IN PDL+0
000592:                                                                                                  #  DEN FROM PDL+0  E:(-3)/( 16) M:(-3)/(-15)
000593:                                                                                                  #  N/D TO PDL+0  E:(11) M:(10)
000594: 27,3655           45345        TFFEL1             DLOAD    DSU                                   #  (ENTER WITH D/N=0 IN PDL+0)
000595: 27,3656           00045                                    TFFTEM                                #  Q2  E:(-16) M:(-15)
000596: 27,3657           00017                                    TFFQ1                                 #  Q1  E:(-16) M:(-15)
000597: 27,3660           14013                           STODL    TFFDELQ                               #  Q2-Q1  E:(-16) M:(-15)
000598:                                                                                                  #  D/N FROM PDL+0
000599: 27,3661           77626                           STADR
000600: 27,3662           77732                           STORE    TFFTEM                                #  D/N  E:(11) M:(10)
000601: 27,3663           53605                           DMP      SL*
000602: 27,3664           00027                                    TFF1/ALF                              #  1/ALFA  E:(-22-2NA) M:(-20-2NA)
000603: 27,3665           57576                                    0,2                                   #  1/ALFA Z  E:(-11-NA) M:(-10-NA)
000604: 27,3666           41206                           PUSH     DMP                                   #  TO PDL+0
000605: 27,3667           00045                                    TFFTEM                                #  1/Z  E:(11) M:(10)
000606: 27,3670           41057                           SL*      BOVB
000607: 27,3671           57576                                    0,2                                   #  X2= -NA
000608: 27,3672           21712                                    SIGNMPAC                              #  IN CASE X= 1.0, CONTINUE
000609: 27,3673           00043                           STORE    TFFX                                  #  X=1/ALFA ZSQ
000610: 27,3674           41234                           RTB      DMP
000611: 27,3675           57735                                    T(X)                                  #  POLY
000612: 27,3676           00043                                    TFFX
000613: 27,3677           45242                           SR3      DSU
000614: 27,3700           17763                                    DP2(-3)
000615: 27,3701           41405                           DMP      PUSH                                  #  2(X T(X)-1) /Z ALFA   E:(-15-NA)
000616:                                                                                                  #                        M:(-14-NA)
000617:                                                                                                  #  1/ALFA Z FROM PDL+0   E:(-11-NA)
000618:                                                                                                  #                        M:(-10-NA)
000619: 27,3702           41345                           DLOAD    DMP                                   #  GET SIGN FOR SDELF
000620: 27,3703           00045                                    TFFTEM                                #  1/Z  E:(11) M:(10)
000621: 27,3704           00015                                    RMAG1                                 #  E:(-29) M:(-27)
000622: 27,3705           43312                           SL2      DAD
000623: 27,3706           00017                                    TFFQ1                                 #  Q1  E:(-16) M:(-15)
000624: 27,3707           14045                           STODL    TFFTEM                                #  (Q1+R 1/Z) =SGN OF SDELF  E:(-16) M:(-15
000625: 27,3710           00035                                    TFFNP                                 #  LC P  E:(-38+2NR) M:(-36+2NR)
000626: 27,3711           53605                           DMP      SL*                                   #  CALC FOR ARG FOR TFF/TRIG.


000628: 27,3712           00027                                    TFF1/ALF                              #  1/ALFA  E:(-22-2NA) M:(-20-2NA)
000629: 27,3713           57575                                    1,2                                   #  X2=-NA
000630: 27,3714           53765                           SIGN     SL*
000631: 27,3715           00045                                    TFFTEM                                #  AFFIX SIGN FOR SDELF
000632: 27,3716           57576                                    0,2
000633: 27,3717           14045                           STODL    TFFTEM                                #  P/ALFA  E:(-59+2NR) M:(-55+2NR)
000634:                                                                                                  #  (ARG FOR USE IN TFF/TRIG)
000635: 27,3720           00027                                    TFF1/ALF                              #  1/ALFA  E:(-22-2NA) M:(-20-2NA)
000636: 27,3721           41366                           SQRT     DMP
000637: 27,3722           17755                                    PI/16                                 #  PI (-4)
000638: 27,3723           77615                           DAD
000639:                                                                                                  #  2(XT(X)-1)/Z ALFA FROM PDL    E:(-15-NA)
000640:                                                                                                  #                                M:(-14-NA)
000641: 27,3724           45257                           SL*      DSU
000642: 27,3725           57577                                    0          -1,2
000643: 27,3726           00013                                    TFFDELQ                               #  Q2-Q1  E:(-16) M:(-15)
000644: 27,3727           53605                           DMP      SL*
000645: 27,3730           00027                                    TFF1/ALF                              #  1/ALFA  E:(-22-2NA) M:(-20-2NA)
000646: 27,3731           57601                                    0          -3,2
000647: 27,3732           52057                           SL*      GOTO
000648: 27,3733           57602                                    0          -4,2
000649: 27,3734           57641                                    ENDTFF                                #  TFF SQRT(MU) IN MPAC E:(-45) M:(-42)
000650:


000652:                                                                                                  #  PROGRAM NAME:  T(X)                           DATE:  01.17.67
000653:                                                                                                  #  MOD NO:  0                                    LOG SECTION:  TIME OF FREE FALL
000654:                                                                                                  #  MOD BY:  RR BAIRNSFATHER
000655:
000656:                                                                                                  #  FUNCTIONAL DESCRIPTION:  THE POLYNOMIAL T(X) IS USED BY TIME OF FLIGHT SUBROUTINES CALCTFF AND
000657:                                                                                                  #        CALCTPER TO APPROXIMATE THE SERIES
000658:                                                                                                  #                           2     3
000659:                                                                                                  #                1/3 -X/5 +X /7 -X /9 ...
000660:
000661:                                                                                                  #        WHERE   X = ALFA Z Z            IF ALFA Z Z LEQ 1
000662:                                                                                                  #                X = 1/(ALFA Z Z)        IF ALFA Z Z G 1
000663:
000664:                                                                                                  #        ALSO    X IS NEG FOR HYPERBOLIC ORBITS
000665:                                                                                                  #                X = 0 FOR PARABOLIC ORBITS
000666:                                                                                                  #                X IS POSITIVE FOR ELLIPTIC ORBITS
000667:
000668:                                                                                                  #        FOR FLIGHT 278, THE POLYNOMIAL T(X) IS FITTED OVER THE RANGE (0,+1) AND HAS A MAXIMUM
000669:                                                                                                  #        DEVIATION FROM THE SERIES OF 2 E-5   (T(X) IS A CHEBYCHEV TYPE FIT AND WAS OBTAINED USING
000670:                                                                                                  #        MAC PROGRAM AUTCURFIT294RRB AND IS VALID TO THE SAME TOLERANCE OVER THE RANGE (-.08,+1).)
000671:
000672:                                                                                                  #  CALLING SEQUENCE:     RTB
000673:                                                                                                  #                                T(X)
000674:                                                                                                  #        C(MPAC) = X
000675:
000676:                                                                                                  #  SUBROUTINES CALLED:  NONE
000677:
000678:                                                                                                  #  NORMAL EXIT MODE:  TC   DANZIG
000679:
000680:                                                                                                  #  ALARMS:  NONE
000681:
000682:                                                                                                  #  OUTPUT:  C(MPAC) = T(X)
000683:
000684:                                                                                                  #  ERASABLE INITIALIZATION REQUIRED:
000685:                                                                                                  #        C(MPAC) = X
000686:
000687:                                                                                                  #  DEBRIS:  NONE
000688:
000689: 27,3735           07222        T(X)               TC       POLY
000690: 27,3736           00004                           DEC      4          B-14                       #  N-1
000691: 27,3737           12525 12525                     2DEC     3.333333333 E-1
000692:
000693: 27,3741           71463 57703                     2DEC*    -1.999819135 E-1*
000694:
000695: 27,3743           04423 17645                     2DEC*    1.418148467 E-1*
000696:
000697: 27,3745           74604 43667                     2DEC*    -1.01310997 E-1*
000698:
000699: 27,3747           01626 37256                     2DEC*    5.609004986 E-2*
000700:
000701: 27,3751           77404 52071                     2DEC*    -1.536156925 E-2*
000702:
000703: 27,3753           06061        ENDT(X)            TC       DANZIG
000704:
000705: 27,3754  27,3753               TCDANZIG           =        ENDT(X)
000706:


000708:                                                                                                  #  TFF CONSTANTS
000709:
000710: 32,3773                                           BANK     32
000711:
000712: 27,2000                                           SETLOC   TOF-FF1
000713: 27,2000                                           BANK
000714:
000715:                                                                                                  #                                                NOTE _  NOTE _  ADJUSTED MUE FOR NEAR EARTH TRAJ.
000716:                                                                                                  # MUE            =       3.990815471 E10         M CUBE/CS SQ
000717:                                                                                                  # RTMUE          =       1.997702549 E5 B-18*    MODIFIED EARTH MU
000718:
000719:                                                                                                  #                                                NOTE _  NOTE _  ADJUSTED MUE FOR NEAR EARTH TRAJ.
000720:                                                                                                  # MUM            =       4.902778 E8             M CUBE/CS SQ
000721:                                                                                                  # RTMUM          2DEC*   2.21422176 E4 B-18*
000722:
000723: 27,3754           06220 37553  PI/16              2DEC     3.141592653 B-4
000724:
000725: 27,3756           37777 37700  LIM(-22)           2OCT     3777737700                            #  1.0 -B(-22)
000726:
000727: 27,3760           00000 00100  DP(-22)            2OCT     0000000100                            #  B(-22)
000728:
000729: 27,3762           04000 00000  DP2(-3)            2DEC     1          B-3
000730:
000731: 27,3764           02000 00000  DP2(-4)            2DEC     1          B-4                        #  1/16
000732:
000733:                                                                                                  #  RPAD1         2DEC    6373338 B-29            M (-29) = 20909901.57 FT
000734:
000735: 27,3766  23,2314               RPAD1              =        RPAD
000736:
000737: 27,3766           00305 11205  R300K              2DEC     6464778    B-29                       #  (-29) M
000738:
000739: 27,3770           37777 37777  NEARONE            2DEC     .999999999
000740:
000741: 27,3772  23,2521               TFFZEROS           EQUALS   HI6ZEROS
000742: 27,3772  23,2511               TFF1/4             EQUALS   HIDP1/4
000743:

End of include-file TIME_OF_FREE_FALL.agc.  Parent file is MAIN.agc


