
Source Code


000002:                                                                                                  ## Copyright:   Public domain.
000003:                                                                                                  ## Filename:    TRIM_GIMBAL_CONTROL_SYSTEM.agc
000004:                                                                                                  ## Purpose:     Part of the reconstructed source code for LMY99 Rev 0,
000005:                                                                                                  ##              otherwise known as Luminary Rev 99, the second release
000006:                                                                                                  ##              of the Apollo Guidance Computer (AGC) software for Apollo 11.
000007:                                                                                                  ##              It differs from LMY99 Rev 1 (the flown version) only in the
000008:                                                                                                  ##              placement of a single label. The corrections shown here have
000009:                                                                                                  ##              been verified to have the same bank checksums as AGC developer
000010:                                                                                                  ##              Allan Klumpp's copy of Luminary Rev 99, and so are believed
000011:                                                                                                  ##              to be accurate. This file is intended to be a faithful
000012:                                                                                                  ##              recreation, except that the code format has been changed to
000013:                                                                                                  ##              conform to the requirements of the yaYUL assembler rather than
000014:                                                                                                  ##              the original YUL assembler.
000015:                                                                                                  ##
000016:                                                                                                  ## Assembler:   yaYUL
000017:                                                                                                  ## Contact:     Ron Burkey <info@sandroid.org>.
000018:                                                                                                  ## Website:     www.ibiblio.org/apollo.
000019:                                                                                                  ## Pages:       1472-1485
000020:                                                                                                  ## Mod history: 2009-05-27 RSB  Adapted from the corresponding
000021:                                                                                                  ##                              Luminary131 file, using page
000022:                                                                                                  ##                              images from Luminary 1A.
000023:                                                                                                  ##              2011-01-06 JL   Fixed pseudo-label indentation.
000024:                                                                                                  ##              2016-12-18 RSB  Proofed text comments with octopus/ProoferComments
000025:                                                                                                  ##                              and corrected the errors found.
000026:                                                                                                  ##              2017-03-14 RSB  Comment-text fixes noted in proofing Luminary 116.
000027:                                                                                                  ##              2017-08-01 MAS  Created from LMY99 Rev 1.
000028:                                                                                                  ##              2021-05-30 ABS  GTSGO+DN -> GTSGO+ON
000029:
000030:                                                                                                  ## This source code has been transcribed or otherwise adapted from
000031:                                                                                                  ## digitized images of a hardcopy from the MIT Museum.  The digitization
000032:                                                                                                  ## was performed by Paul Fjeld, and arranged for by Deborah Douglas of
000033:                                                                                                  ## the Museum.  Many thanks to both.  The images (with suitable reduction
000034:                                                                                                  ## in storage size and consequent reduction in image quality as well) are
000035:                                                                                                  ## available online at www.ibiblio.org/apollo.  If for some reason you
000036:                                                                                                  ## find that the images are illegible, contact me at info@sandroid.org
000037:                                                                                                  ## about getting access to the (much) higher-quality images which Paul
000038:                                                                                                  ## actually created.
000039:                                                                                                  ##
000040:                                                                                                  ## The code has been modified to match LMY99 Revision 0, otherwise
000041:                                                                                                  ## known as Luminary Revision 99, the Apollo 11 software release preceeding
000042:                                                                                                  ## the listing from which it was transcribed. It has been verified to
000043:                                                                                                  ## contain the same bank checksums as AGC developer Allan Klumpp's listing
000044:                                                                                                  ## of Luminary Revision 99 (for which we do not have scans).
000045:                                                                                                  ##
000046:                                                                                                  ## Notations on Allan Klumpp's listing read, in part:
000047:                                                                                                  ##
000048:                                                                                                  ##      ASSEMBLE REVISION 099 OF AGC PROGRAM LUMINARY BY NASA 2021112-51
000049:


000051: 21,3077                                           BANK     21
000052: 21,3077  E6,1450                                  EBANK=   QDIFF
000053: 21,2000                                           SETLOC   DAPS4
000054: 21,2000                                           BANK
000055:
000056: 21,3077                                           COUNT*   $$/DAPGT
000057:
000058:                                                                                                  #  CONTROL REACHES THIS POINT UNDER EITHER OF THE FOLLOWING TWO CONDITIONS ONCE THE DESCENT ENGINE AND THE DIGITAL
000059:                                                                                                  #  AUTOPILOT ARE BOTH ON:
000060:                                                                                                  #        A) THE TRIM GIMBAL CONTROL LAW WAS ON DURING THE PREVIOUS Q,R-AXIS TIME5 INTERRUPT (OR THE DAPIDLER
000061:                                                                                                  #           INITIALIZATION WAS SET FOR TRIM GIMBAL CONTROL AND THIS IS THE FIRST PASS), OR
000062:                                                                                                  #        B) THE Q,R-AXES RCS AUTOPILOT DETERMINED THAT THE VEHICLE WAS ENTERING (OR HAD JUST ENTERED) A COAST
000063:                                                                                                  #           ZONE WITH A SMALL OFFSET ANGULAR ACCELERATION.
000064:                                                                                                  #  GTS IS THE ENTRY TO THE GIMBAL TRIM SYSTEM FOR CONTROLLING ATTITUDE ERRORS AND RATES AS WELL AS ACCELERATIONS.
000065:
000066: 21,3077           37747        GTS                CAF      NEGONE                                #  MAKE THE NEXT PASS THROUGH THE DAP BE
000067: 21,3100           55631                           TS       COTROLER                              #        THROUGH RCS CONTROL,
000068: 21,3101           34751                           CAF      FOUR                                  #        AND ENSURE THAT IT IS NOT A SKIP.
000069: 21,3102           55535                           TS       SKIPU
000070: 21,3103           55536                           TS       SKIPV
000071:
000072: 21,3104           34752                           CAF      TWO
000073: 21,3105           55633                           TS       INGTS                                 #  SET INDICATOR OF GTS CONTROL POSITIVE.
000074: 21,3106           55632                           TS       QGIMTIMR                              #  SET TIMERS TO 200 MSEC TO AVOID BOTH
000075: 21,3107           55634                           TS       RGIMTIMR                              #  RUNAWAY AND INTERFERENCE BY NULLING.
000076:
000077:                                                                                                  #  THE DRIVE SETTING ALGORITHM
000078:
000079:                                                                                                  #        DEL = SGN(OMEGA + ALPHA*ABS(ALPHA)/(2*K))
000080:                                                                                                  #                                                    2               1/2                  2       3/2
000081:                                                                                                  #        NEGUSUM = ERROR*K + ALPHA*(DEL*OMEGA + ALPHA /(3*K)) + DEL*K   (DEL*OMEGA + ALPHA /(2*K))
000082:
000083:                                                                                                  #        DRIVE = -SGN(NEGUSUM)
000084:
000085: 21,3110           30021                           CA       SR                                    #  SAVE THE SR.  SHIFT IT LEFT TO CORRECT
000086: 21,3111           60000                           AD       A                                     #  FOR THE RIGHT SHIFT DUE TO EDITING.
000087: 21,3112           55505                           TS       SAVESR
000088:
000089: 21,3113           34752        GTSGO+ON           CAF      TWO                                   #  SET INDEXER FOR R-AXIS CALCULATIONS.
000090: 21,3114           13116                           TCF      GOQTRIMG   +1
000091:
000092: 21,3115           34755        GOQTRIMG           CAF      ZERO                                  #  SET INDEXER FOR Q-AXIS CALCULATIONS
000093: 21,3116           55750                           TS       QRCNTR
000094:


000101: 21,3117           51750                           INDEX    QRCNTR                                #  AOS SCALED AT PI/2
000102: 21,3120           31537                           CA       AOSQ
000103: 21,3121           00006                           EXTEND
000104: 21,3122           74752                           MP       BIT2                                  #  RESCALE AOS TO PI/4


000106: 21,3123           00006                           EXTEND
000107: 21,3124           13130                           BZF      GTSQAXIS   -3                         #  USE FULL SCALE FOR LARGER AOS ESTIMATES.
000108:
000109: 21,3125           50000                           INDEX    A
000110: 21,3126           44734                           CS       LIMITS                                #  LIMITS +1 CONTAINS NEGMAX.
000111: 21,3127           56001                           XCH      L                                     #  LIMITS -1 CONTAINS POSMAX.
000112:
000113: 21,3130           11750                           CCS      QRCNTR                                #  PICK UP RATE FOR THIS AXIS.  RATE CELLS
000114: 21,3131           50000                           INDEX    A                                     #  ARE ADJACENT, NOT SEPARATED.  AT PI/4
000115: 21,3132           31436                           CA       EDOTQ
000116: 21,3133           53744        GTSQAXIS           DXCH     WCENTRAL
000117:
000118: 21,3134           51750                           INDEX    QRCNTR                                #  COLLECT K FOR THIS AXIS
000119: 21,3135           31504                           CA       KQ
000120: 21,3136           55741                           TS       KCENTRAL
000121:
000122: 21,3137           00006                           EXTEND                                         #  CONTROL AUTHORITY ZERO.  AVOID DRIVING
000123: 21,3140           13576                           BZF      POSDRIVE   +1                         #  ENGINE BELL TO THE STOPS.
000124:
000125: 21,3141           51750                           INDEX    QRCNTR                                #  QDIFF, RDIFF ARE STORED IN D.P.
000126: 21,3142           31450                           CAE      QDIFF
000127:
000128: 21,3143           00006        ALGORTHM           EXTEND                                         #  Q(R)DIFF IS THETA (ERROR) SCALED AT PI.
000129: 21,3144           71741                           MP       KCENTRAL                              #  FORM K*ERROR AT PI(2)/2(8), IN D.P.
000130: 21,3145           23737                           LXCH     K2THETA
000131: 21,3146           00006                           EXTEND
000132: 21,3147           74747                           MP       BIT5                                  #  RESCALE TO 4*PI(2)
000133: 21,3150           53740                           DXCH     K2THETA
000134: 21,3151           00006                           EXTEND
000135: 21,3152           74747                           MP       BIT5                                  #  FIRST TERM OF NEGUSUM IN K2THETA.
000136: 21,3153           27740                           ADS      K2THETA    +1                         #  NO CARRY NEEDED       D.P. AT 4*PI(2)
000137:
000138: 21,3154           41744                           CS       ACENTRAL                              #  FORM ALPHA(2)/(2*K) AT 16*PI, IN D.P.,
000139: 21,3155           00006                           EXTEND                                         #  LIMITING QUOTIENT TO AVOID OVERFLOW.
000140: 21,3156           74736                           MP       BIT14                                 #  -ALPHA/2 IN A, SCALED AT PI/4
000141: 21,3157           00006                           EXTEND
000142: 21,3160           71744                           MP       ACENTRAL                              #  -ALPHA(2)/2 IN A,L, SCALED AT PI(2)/16
000143: 21,3161           61741                           AD       KCENTRAL
000144: 21,3162           00006                           EXTEND
000145: 21,3163           63200                           BZMF     HUGEQUOT                              #  K-ALPHA(2)/2 SHOULD BE PNZ FO DIVISION
000146:
000147: 21,3164           00006                           EXTEND
000148: 21,3165           40001                           DCS      A                                     #  ALPHA(2)/2 - K
000149: 21,3166           61741                           AD       KCENTRAL


000152: 21,3167           00006                           EXTEND
000153: 21,3170           11741                           DV       KCENTRAL                              #  HIGH ORDER OF QUOTIENT.
000154: 21,3171           57746                           XCH      A2CNTRAL
000155: 21,3172           30001                           CA       L                                     #  SHIFT UP THE REMAINDER.
000156: 21,3173           22007                           LXCH     7                                     #  ZERO LOW-ORDER DIVIDEND.
000157: 21,3174           00006                           EXTEND


000159: 21,3175           11741                           DV       KCENTRAL
000160: 21,3176           57747                           XCH      A2CNTRAL   +1                         #  QUOTIENT STORED AT 16*PI, D.P.
000161: 21,3177           13203                           TCF      HAVEQUOT
000162:
000163: 21,3200           34733        HUGEQUOT           CA       POSMAX
000164: 21,3201           54001                           TS       L
000165: 21,3202           53747                           DXCH     A2CNTRAL                              #  LIMITED QUOTIENT STORED AT 16*PI, D.P.
000166:
000167: 21,3203           31743        HAVEQUOT           CA       WCENTRAL
000168: 21,3204           00006                           EXTEND
000169: 21,3205           74743                           MP       BIT9                                  #  RESCALE OMEGA AT 16*PI IN D.P.
000170: 21,3206           53743                           DXCH     K2CNTRAL                              #  LOWER WORD OVERLAYS OMEGA IN WCENTRAL
000171:
000172: 21,3207           00006                           EXTEND
000173: 21,3210           31743                           DCA      K2CNTRAL
000174: 21,3211           53752                           DXCH     FUNCTION
000175:
000176: 21,3212           31744                           CA       ACENTRAL                              #  GET ALPHA*ABS(ALPHA)/(2*K)
000177: 21,3213           00006                           EXTEND
000178: 21,3214           63220                           BZMF     +4
000179:
000180: 21,3215           00006                           EXTEND
000181: 21,3216           31747                           DCA      A2CNTRAL
000182: 21,3217           13222                           TCF      +3
000183:
000184: 21,3220           00006                           EXTEND
000185: 21,3221           41747                           DCS      A2CNTRAL
000186:
000187: 21,3222           21752                           DAS      FUNCTION                              #  OMEGA + ALPHA*ABS(ALPHA)/2*K) AT 16*PI
000188:
000189: 21,3223           11751                           CCS      FUNCTION                              #  DEL = +1 FOR FUNCT1 GREATER THAN ZERO.
000190: 21,3224           13230                           TCF      POSFNCT1                              #  OTHERWISE DEL = -1
000191: 21,3225           13227                           TCF      +2
000192: 21,3226           13232                           TCF      NEGFNCT1
000193:
000194: 21,3227           11752                           CCS      FUNCTION   +1                         #  USE LOW ORDER WORD SINCE HIGH IS ZERO
000195: 21,3230           34753        POSFNCT1           CAF      BIT1
000196: 21,3231           13233                           TCF      +2
000197: 21,3232           44753        NEGFNCT1           CS       BIT1
000198: 21,3233           55745                           TS       DEL
000199:
000200: 21,3234           11745                           CCS      DEL                                   #  REPLACE OMEGA BY DEL*OMEGA
000201: 21,3235           13247                           TCF      FUNCT2                                #  POSITIVE DEL VALUE.  PROCEED.
000202: 21,3236           13240                           TCF      DEFUNCT
000203: 21,3237           13244                           TCF      NEGFNCT2
000204:
000205: 21,3240           55742        DEFUNCT            TS       K2CNTRAL
000206: 21,3241           55743                           TS       K2CNTRAL   +1
000207: 21,3242           13247                           TCF      FUNCT2
000208:


000210: 21,3243           65252        NEG1/3             DEC      -.33333
000211:
000212: 21,3244           00006        NEGFNCT2           EXTEND
000213: 21,3245           41743                           DCS      K2CNTRAL
000214: 21,3246           53743                           DXCH     K2CNTRAL
000215:
000216: 21,3247           00006        FUNCT2             EXTEND
000217: 21,3250           31747                           DCA      A2CNTRAL
000218: 21,3251           21743                           DAS      K2CNTRAL                              #  DEL*OMEGA + ALPHA(2)/(2*K) AT 16*PI, D.P.
000219:
000220: 21,3252           31746        FUNCT3             CA       A2CNTRAL
000221: 21,3253           00006                           EXTEND
000222: 21,3254           73243                           MP       NEG1/3
000223: 21,3255           53747                           DXCH     A2CNTRAL
000224: 21,3256           30001                           CA       L
000225: 21,3257           00006                           EXTEND
000226: 21,3260           73243                           MP       NEG1/3
000227: 21,3261           27747                           ADS      A2CNTRAL   +1
000228: 21,3262           54001                           TS       L
000229: 21,3263           13265                           TCF      +2                                    #  A2CNTRAL NOW CONTAINS -ALPHA(2)/(6*K),
000230: 21,3264           27746                           ADS      A2CNTRAL                              #  SCALED AT 16*PI, IN D.P.
000231:
000232: 21,3265           00006                           EXTEND
000233: 21,3266           31743                           DCA      K2CNTRAL                              #  DEL*OMEGA + ALPHA(2)/(3*K) IN A2CNTRAL,
000234: 21,3267           21747                           DAS      A2CNTRAL                              #  SCALED AT 16*PI, D.P.
000235:
000236: 21,3270           31746                           CA       A2CNTRAL
000237: 21,3271           00006                           EXTEND
000238: 21,3272           71744                           MP       ACENTRAL
000239: 21,3273           21740                           DAS      K2THETA
000240: 21,3274           31747                           CA       A2CNTRAL   +1
000241: 21,3275           00006                           EXTEND
000242: 21,3276           71744                           MP       ACENTRAL                              #  ACENTRAL MAY NOW BE OVERLAID.
000243: 21,3277           27740                           ADS      K2THETA    +1
000244: 21,3300           54001                           TS       L
000245: 21,3301           13303                           TCF      +2                                    #  TWO TERMS OF NEGUSUM ACCUMULATED, SO FAR
000246: 21,3302           27737                           ADS      K2THETA                               #  SCALED AT 4*PI(2), IN D.P.
000247:
000248: 21,3303           31742        GETROOT            CA       K2CNTRAL                              #  K*(DEL*OMEGA + ALPHA(2)/(2*K)) IS THE
000249: 21,3304           00006                           EXTEND                                         #  TERM FOR WHICH A SQUARE ROOT IS NEEDED.
000250: 21,3305           71741                           MP       KCENTRAL                              #  K AT PI/2(8)
000251: 21,3306           53752                           DXCH     FUNCTION
000252: 21,3307           31743                           CA       K2CNTRAL   +1
000253: 21,3310           00006                           EXTEND
000254: 21,3311           71741                           MP       KCENTRAL
000255: 21,3312           27752                           ADS      FUNCTION   +1
000256: 21,3313           54001                           TS       L
000257: 21,3314           13316                           TCF      +2
000258: 21,3315           27751                           ADS      FUNCTION                              #  DESIRED TERM IN FUNCTION, AT PI(2)/16


000260: 21,3316           11745                           CCS      DEL
000261: 21,3317           13524                           TCF      RSTOFGTS
000262: 21,3320           13566                           TCF      NEGUSUM
000263: 21,3321           13323                           TCF      NEGATE
000264: 21,3322           13566                           TCF      NEGUSUM
000265:
000266: 21,3323           00006        NEGATE             EXTEND
000267: 21,3324           41743                           DCS      K2CNTRAL
000268: 21,3325           53743                           DXCH     K2CNTRAL
000269: 21,3326           13524                           TCF      RSTOFGTS
000270:
000271: 16,3735                                           BANK     16
000272: 16,3735  E6,1501                                  EBANK=   NEGUQ
000273: 16,2000                                           SETLOC   DAPS1
000274: 16,2000                                           BANK
000275:
000276:                                                                                                  #  THE WRCHN12 SUBROUTINE SETS BITS 9,10,11,12 OF CHANNEL 12 ON THE BASIS OF THE CONTENTS OF NEGUQ,NEGUR WHICH ARE
000277:                                                                                                  #  THE NEGATIVES OF THE DESIRED ACCELERATION CHANGES.  ACDT+C12 SETS Q(R)ACCDOT TO REFLECT THE NEW DRIVES.
000278:
000279:                                                                                                  #  WARNING:  ACDT+C12 AND WRCHN12 MUST BE CALLED WITH INTERRUPT INHIBITED.
000280:
000281: 16,3735           07400        BGIM               OCTAL    07400
000282: 16,3736     0066               CHNL12             EQUALS   ITEMP6
000283: 16,3736           41501        ACDT+C12           CS       NEGUQ
000284: 16,3737           00006                           EXTEND                                         #  GIMBAL DRIVE REQUESTS.
000285: 16,3740           71507                           MP       ACCDOTQ
000286: 16,3741           23510                           LXCH     QACCDOT
000287: 16,3742           41503                           CS       NEGUR
000288: 16,3743           00006                           EXTEND
000289: 16,3744           71511                           MP       ACCDOTR
000290: 16,3745           23512                           LXCH     RACCDOT
000291:
000292: 16,3746           11501                           CCS      NEGUQ
000293: 16,3747           34742                           CAF      BIT10
000294: 16,3750           13752                           TCF      +2
000295: 16,3751           34743                           CAF      BIT9
000296: 16,3752           54066                           TS       CHNL12
000297:
000298: 16,3753           11503                           CCS      NEGUR
000299: 16,3754           34740                           CAF      BIT12
000300: 16,3755           13757                           TCF      +2
000301: 16,3756           34741                           CAF      BIT11
000302: 16,3757           26066                           ADS      CHNL12                                #  (STORED RESULT NOT USED AT PRESENT)
000303:
000304: 16,3760           43735                           CS       BGIM
000305: 16,3761           00006                           EXTEND
000306: 16,3762           02012                           RAND     CHAN12
000307: 16,3763           60066                           AD       CHNL12
000308: 16,3764           00006                           EXTEND
000309: 16,3765           01012                           WRITE    CHAN12


000311: 16,3766           44747                           CS       CALLGMBL                              #  TURN OFF REQUEST FOR ACDT+C12 EXECUTION.
000312: 16,3767           71273                           MASK     RCSFLAGS
000313: 16,3770           55273                           TS       RCSFLAGS
000314:
000315: 16,3771           00002                           TC       Q                                     #  RETURN TO CALLER.
000316:
000317: 21,3327                                           BANK     21
000318: 21,3327  E6,1450                                  EBANK=   QDIFF
000319: 21,2000                                           SETLOC   DAPS4
000320: 21,2000                                           BANK
000321:


000323:                                                                                                  #  SUBROUTINE TIMEGMBL:  MOD 0, OCTOBER 1967, CRAIG WORK
000324:
000325:                                                                                                  #  TIMEGMBL COMPUTES THE DRIVE TIME NEEDED FOR THE TRIM GIMBAL TO POSITION THE DESCENT ENGINE NOZZLE SO AS TO NULL
000326:                                                                                                  #  THE OFFSET ANGULAR ACCELERATION ABOUT THE Q (OR R) AXIS.  INSTEAD OF USING AOSQ(R), TIMEGMBL USES .4*AOSQ(R),
000327:                                                                                                  #  SCALED AT PI/8.  FOR EACH AXIS, THE DRIVE TIME IS COMPUTED AS ABS(ALPHA/ACCDOT).  A ZERO
000328:                                                                                                  #  ALPHA OR ACCDOT OR A ZERO QUOTIENT TURNS OFF THE GIMBAL DRIVE IMMEDIATELY.  OTHERWISE, THE GIMBAL IS TURNED ON
000329:                                                                                                  #  DRIVING IN THE CORRECT DIRECTION.  THE Q(R)GIMTIMR IS SET TO TERMINATE THE DRIVE AND Q(R)ACCDOT
000330:                                                                                                  #  IS STORED TO REFLECT THE NEW ACCELERATION DERIVATIVE.  NEGUQ(R) WILL CONTAIN +1,+0,-1 FOR A Q(R)ACCDOT VALUE
000331:                                                                                                  #  WHICH IS NEGATIVE, ZERO, OR POSITIVE.
000332:
000333:                                                                                                  #  INPUTS:       AOSQ,AOSR, SCALED AT P1/2, AND ACCDOTQ, ACCDOTR AT PI/2(7).     PI/2(7).
000334:
000335:                                                                                                  #  OUTPUTS:      NEW GIMBAL DRIVE BITS IN CHANNEL 12, NEGUQ, NEGUR, QACCDOT AND RACCDOT, THE LAST SCALED AT PI/2(7).
000336:                                                                                                  #                Q(R)GIMTIMR WILL BE SET TO TIME AND TERMINATE GIMBAL DRIVE(S)
000337:
000338:                                                                                                  #  DEBRIS:       A, L, Q, ITEMPS 2, 3, 6, RUPTREG2 AND ACDT+C12 DEBRIS.
000339:
000340:                                                                                                  #  EXITS:        VIA TC Q.
000341:
000342:                                                                                                  #  ALARMS, ABORTS, :  NONE
000343:
000344:                                                                                                  #  SUBROUTINES:  ACDT+C12, IBNKCALL
000345:
000346:                                                                                                  #  WARNING:      THIS SUBROUTINE WRITES INTO CHANNEL 12 AND USES THE ITEMPS.  THEREFORE IT MAY ONLY BE CALLED WITH
000347:                                                                                                  #                INTERRUPT INHIBITED.
000348:
000349:                                                                                                  #  ERASABLE STORAGE CONFIGURATION (NEEDED BY THE INDEXING METHODS):
000350:                                                                                                  #        NEGUQ           ERASE   +2              NEGATIVE OF Q-AXIS GIMBAL DRIVE
000351:                                                                                                  #        (SPWORD)        EQUALS  NEGUQ +1        ANY S.P. ERASABLE NUMBER, NOW THRSTCMD
000352:                                                                                                  #        NEGUR           EQUALS  NEGUQ +2        NEGATIVE OF R-AXIS GIMBAL DRIVE
000353:                                                                                                  #        ACCDOTQ         ERASE   +2              Q-JERK TERM SCALED AT PI/2(7) RAD/SEC(3)
000354:                                                                                                  #        (SPWORD)        EQUALS  ACCDOTQ +1      ANY S.P. ERASABLE NUMBER NOW QACCDOT
000355:                                                                                                  #        ACCDOTR         EQUALS  ACCDOTQ +2      R-JERK TERM SCALED AT PI/2(7) RAD/SEC(3)
000356:                                                                                                  #                                                ACCDOTQ, ACCDOTR ARE MAGNITUDES.
000357:                                                                                                  #        AOSQ            ERASE   +4              Q-AXIS ACC., D.P. AT PI/2 R/SEC(2)
000358:                                                                                                  #        AOSR            EQUALS  AOSQ +2         R-AXIS ACCELERATION SCALED AT PI/2 R/S2
000359:
000360: 21,3327     0066               QRNDXER            EQUALS   ITEMP6
000361: 21,3327           23146        OCT23146           OCTAL    23146                                 #  DECIMAL .6
000362: 21,3330     0063               NZACCDOT           EQUALS   ITEMP3
000363:
000364: 21,3330           34753        TIMEGMBL           CAF      ONE                                   #  INITIALIZE ALLOWGTS.
000365: 21,3331           55502                           TS       ALLOWGTS
000366:
000367: 21,3332           34752                           CAF      TWO                                   #  SET UP LOOP FOR R AXIS.
000368: 21,3333           22002                           LXCH     Q                                     #  SAVE RETURN ADDRESS.
000369: 21,3334           22071                           LXCH     RUPTREG2


000371: 21,3335           13337                           TCF      +2
000372: 21,3336           34755        TIMQGMBL           CAF      ZERO                                  #  NOW DO THE Q-AXIS
000373: 21,3337           54066                           TS       QRNDXER
000374: 21,3340           50066                           INDEX    QRNDXER
000375: 21,3341           31507                           CA       ACCDOTQ                               #  ACCDOT IS PRESUMED TO BE AT PI/2(7).
000376: 21,3342           00006                           EXTEND
000377: 21,3343           63413                           BZMF     TGOFFNOW                              #  IS ACCDOT LESS THAN OR EQUAL TO 0?
000378: 21,3344           54063                           TS       NZACCDOT                              #  NO.  STORE NON-ZERO, POSITIVE ACCDOT.
000379:
000380: 21,3345           50066        ALPHATRY           INDEX    QRNDXER
000381: 21,3346           41537                           CS       AOSQ
000382: 21,3347           00006                           EXTEND
000383: 21,3350           13413                           BZF      TGOFFNOW                              #  IS ALPHA ZERO?
000384:
000385: 21,3351           54002                           TS       Q                                     #  SAVE A COPY OF -AOS.
000386: 21,3352           00006                           EXTEND                                         #  NO.  RESCALE FOR TIMEGMBL USE.
000387: 21,3353           73327                           MP       OCT23146                              #  OCTAL 23146 IS DECIMAL .6
000388: 21,3354           60002                           AD       Q                                     #  -1.6*AOS AT PI/2 = -.4*AOS AT PI/8.
000389: 21,3355           54001                           TS       L                                     #  WAS THERE OVERFLOW?
000390: 21,3356           13363                           TCF      SETNEGU                               #  NO.  COMPUTE DRIVE TIME.
000391:
000392: 21,3357           40000                           CS       A                                     #  RECOVER -SGN(AOS) IN THE A REGISTER.
000393: 21,3360           50066                           INDEX    QRNDXER                               #  YES.  START DRIVE WITHOUT WAITLIST.
000394: 21,3361           57501                           XCH      NEGUQ
000395: 21,3362           13417                           TCF      NOTALLOW                              #  KNOCK DOWN THE ALLOWGTS FLAG.
000396:
000397: 21,3363           00006        SETNEGU            EXTEND
000398: 21,3364           63371                           BZMF     POSALPH
000399:
000400: 21,3365           40000                           COM
000401: 21,3366           54062                           TS       ITEMP2                                #  STORE -ABS(.4*AOS) SCALED AT PI/8.
000402: 21,3367           44753                           CS       BIT1
000403: 21,3370           13373                           TCF      POSALPH    +2
000404: 21,3371           54062        POSALPH            TS       ITEMP2                                #  STORE -ABS(.4*AOS) SCALED AT PI/8.
000405: 21,3372           34753                           CA       BIT1
000406: 21,3373           50066                 +2        INDEX    QRNDXER                               #  SGN(AOS) INTO NEGU
000407: 21,3374           55501                           TS       NEGUQ                                 #  STORE SGN(APLHA) AS NEGU
000408:
000409: 21,3375           30063                           CA       NZACCDOT
000410: 21,3376           00006                           EXTEND
000411: 21,3377           74740                           MP       BIT12                                 #  2*ACCDOT, SCALED AT PI/8.
000412: 21,3400           60062                           AD       ITEMP2                                #  -ABS(ALPHA) + 2*ACCDOT, AT PI/8.
000413: 21,3401           00006                           EXTEND
000414: 21,3402           63417                           BZMF     NOTALLOW                              #  IS DRIVE TIME MORE THAN TWO SECONDS?
000415: 21,3403           40062                           CS       ITEMP2                                #  NO.  COMPUTE DRIVE TIME.
000416: 21,3404           00006                           EXTEND                                         #  ABS(ALPHA) AT PI/8.
000417: 21,3405           73440                           MP       OCT00240                              #  DECIMAL 10/1024
000418: 21,3406           00006                           EXTEND                                         #  QUOTIENT IS DRIVE TIME AT WAITLIST.
000419: 21,3407           10063                           DV       NZACCDOT                              #  ABS(ALPHA)/ACCDOT AT 2(14)/100


000421: 21,3410           00006                           EXTEND
000422: 21,3411           13413                           BZF      TGOFFNOW                              #  DRIVE TIME MUST BE GREATER THAN ZERO.
000423:
000424: 21,3412           13425                           TCF      DRIVEON
000425:
000426: 21,3413           34755        TGOFFNOW           CAF      ZERO                                  #  TURN OFF GIMBAL NOW.
000427: 21,3414           50066                           INDEX    QRNDXER
000428: 21,3415           55501                           TS       NEGUQ
000429:
000430: 21,3416           13427                           TCF      DONEYET
000431:
000432: 21,3417           36010        NOTALLOW           CAF      OCT31
000433: 21,3420           50066                           INDEX    QRNDXER
000434: 21,3421           55632                           TS       QGIMTIMR
000435: 21,3422           34755                           CAF      ZERO                                  #  DRIVE TIME IS MORE THAN 2 SECONDS, SO
000436: 21,3423           55502                           TS       ALLOWGTS                              #  DO NOT PERMIT FURTHER GTS ATTITUDE-RATE
000437:                                                                                                  #  CONTROL UNTIL AOSTASK APPROVES.
000438: 21,3424           13427                           TCF      DONEYET                               #  NO WAITLIST CALL IS MADE.
000439:
000440: 21,3425           50066        DRIVEON            INDEX    QRNDXER
000441: 21,3426           55632                           TS       QGIMTIMR                              #  CHOOSE Q OR R AXIS.
000442:
000443: 21,3427           10066        DONEYET            CCS      QRNDXER
000444: 21,3430           13336                           TCF      TIMQGMBL
000445:
000446: 21,3431           52073                           DXCH     RUPTREG3                              #  PROTECT IBNKCALL ERASABLES.  ACDT+C12
000447: 21,3432           52063                           DXCH     ITEMP2                                #  LEAVES ITEMPS2,3 ALONE.
000448:
000449: 21,3433           04674                           TC       IBNKCALL                              #  TURN OF CHANNEL BITS, SET Q(R)ACCDOTS.
000450: 21,3434           35736                           CADR     ACDT+C12
000451:
000452: 21,3435           52063                           DXCH     ITEMP2                                #  RESTORE ERASABLES FOR IBNKCALL.
000453: 21,3436           52073                           DXCH     RUPTREG3
000454:
000455: 21,3437           00071                           TC       RUPTREG2                              #  RETURN TO CALLER.
000456:
000457: 21,3440           00240        OCT00240           OCTAL    00240                                 #  DECIMAL 10/1024
000458:


000460:                                                                                                  #  THE FOLLOWING SECTION IS A CONTINUATION OF THE TRIM GIMBAL CONTROL FROM THE LAST GTS ENTRY.  THE QUANTITY NEGUSUM
000461:                                                                                                  #  IS COMPUTED FOR EACH AXIS (Q,R), .707*DEL*FUNCTION(3/2) + K2THETA = NEGUSUM.  NEW DRIVES ARE ENTERED TO CH 12.
000462:
000463:                                                                                                  #  THE SUBROUTINE GTSQRT ACCEPTS A DOUBLE PRECISION VALUE IN FUNCTION, FUNCTION +1 AND RETURNS A SINGLE-PRECISION
000464:                                                                                                  #  SQUARE ROOT OF THE FOURTEEN MOST SIGNIFICANT BITS OF THE ARGUMENT.  ALSO, THE CELL SHFTFLAG CONTAINS A BINARY
000465:                                                                                                  #  EXPONENT S, SUCH THAT THE SQUARE ROOT (RETURNED IN THE A REGISTER) MUST BE SHIFTED RIGHT (MULTIPLIED BY 2 TO THE
000466:                                                                                                  #  POWER (-S)) IN ORDER TO BE THE TRUE SQUARE ROOT OF THE FOURTEEN MOST SIGNIFICANT BITS OF FUNCTION, FUNCTION +1.
000467:                                                                                                  #  SQUARE ROOT ERROR IS NOT MORE THAN 2 IN THE 14TH SIGNIFICANT BIT.  CELLS CLOBBERED ARE A, L, SHFTFLAG, ININDEX,
000468:                                                                                                  #  HALFARG, SCRATCH, SR, FUNCTION, FUNCTION +1.  GTSQRT IS CALLED BY TC GTSQRT AND RETURNS VIA TC Q OR TC FUNCTION +1.
000469:                                                                                                  #  ZERO OR NEGATIVE ARGUMENTS YIELD ZERO FOR SQUARE ROOTS.
000470:
000471: 21,3441           11751        GTSQRT             CCS      FUNCTION
000472: 21,3442           13460                           TCF      GOODARG                               #  FUNCTION IS POSITIVE.  TAKE SQUARE ROOT.
000473: 21,3443           13445                           TCF      +2                                    #  HIGH ORDER WORD IS ZERO.  TRY THE LOWER.
000474: 21,3444           13451                           TCF      ZEROOT                                #  NEGATIVE.  USE ZERO FOR 1/2 POWER.
000475:
000476: 21,3445           31752                           CA       FUNCTION   +1
000477: 21,3446           00006                           EXTEND
000478: 21,3447           63451                           BZMF     ZEROOT
000479:
000480: 21,3450           13454                           TCF      ZEROHIGH                              #  PROCEED.
000481: 21,3451           34755        ZEROOT             CA       ZERO
000482: 21,3452           55741                           TS       SHFTFLAG
000483: 21,3453           00002                           TC       Q
000484:
000485: 21,3454           57751        ZEROHIGH           XCH      FUNCTION                              #  14 MOST SIGNIFICANT BITS ARE IN THE
000486: 21,3455           57752                           XCH      FUNCTION   +1                         #  LOWER WORD.  EXCHANGE THEM.
000487: 21,3456           34757                           CA       SEVEN
000488: 21,3457           13461                           TCF      GOODARG    +1
000489:
000490: 21,3460           34755        GOODARG            CA       ZERO
000491: 21,3461           55741                           TS       SHFTFLAG
000492: 21,3462           35751                           CA       TWELVE                                #  INITIALIZE THE SCALING LOOP.
000493: 21,3463           55744                           TS       ININDEX
000494: 21,3464           13473                           TCF      SCALLOOP
000495:
000496: 21,3465           31751        SCALSTRT           CA       FUNCTION
000497: 21,3466           13507                           TCF      SCALDONE
000498:
000499: 21,3467           37746        MULBUSH            CA       NEG2                                  #  IF ARG IS NOT LESS THAN 1/4, INDEX IS
000500: 21,3470           27744                           ADS      ININDEX                               #  ZERO, INDICATING NO SHIFT NEEDED.
000501: 21,3471           00006                           EXTEND                                         #  BRANCH IF ARG IS NOT LESS THAN 1/4.
000502: 21,3472           63465                           BZMF     SCALSTRT                              #  OTHERWISE COMPARE ARG WITH A REFERENCE
000503:                                                                                                  #  WHICH IS 4 TIMES LARGER THAN THE LAST.
000504: 21,3473           41751        SCALLOOP           CS       FUNCTION
000505: 21,3474           51744                           INDEX    ININDEX
000506: 21,3475           64735                           AD       BIT15                                 #  REFERENCE MAGNITUDE LESS OR EQUAL TO 1/4
000507: 21,3476           00006                           EXTEND
000508: 21,3477           63467                           BZMF     MULBUSH                               #  IF ARG IS NOT LESS THAN REFERENCE, GO
000509:                                                                                                  #  AROUND THE MULBERRY BUSH ONCE MORE.


000511: 21,3500           51744                           INDEX    ININDEX
000512: 21,3501           34735                           CA       BIT15                                 #  THIS IS THE SCALE MAGNITUDE
000513: 21,3502           57747                           XCH      HALFARG                               #  2**(-ININDEX) IS THE SHIFT DIVISOR.
000514: 21,3503           00006                           EXTEND                                         #  RESCALE ARGUMENT.
000515: 21,3504           31752                           DCA      FUNCTION
000516: 21,3505           00006                           EXTEND
000517: 21,3506           11747                           DV       HALFARG
000518:                                                                                                  #  ININDEX AND SHFTFLAG PRESERVE INFO FOR
000519:                                                                                                  #  RESCALING AFTER ROOT PROCESS.
000520: 21,3507           00006        SCALDONE           EXTEND
000521: 21,3510           23752                           QXCH     FUNCTION   +1                         #  SAVE Q FOR RETURN
000522: 21,3511           00006                           EXTEND
000523: 21,3512           74736                           MP       BIT14
000524: 21,3513           55747                           TS       HALFARG
000525: 21,3514           74737                           MASK     BIT13
000526: 21,3515           10000                           CCS      A
000527: 21,3516           33634                           CA       OCT11276
000528: 21,3517           63632                           AD       ROOTHALF                              #  INITIAL GUESS IS ROOT 1/2 OR POSMAX
000529: 21,3520           03636                           TC       ROOTCYCL
000530: 21,3521           03636                           TC       ROOTCYCL
000531: 21,3522           03636                           TC       ROOTCYCL
000532: 21,3523           01752                           TC       FUNCTION   +1
000533:
000534:                                                                                                  #  ****************************************************************************************************************
000535:
000536: 21,3524           03441        RSTOFGTS           TC       GTSQRT
000537: 21,3525           57742        PRODUCT            XCH      K2CNTRAL
000538: 21,3526           00006                           EXTEND
000539: 21,3527           71742                           MP       K2CNTRAL
000540: 21,3530           53743                           DXCH     K2CNTRAL
000541: 21,3531           00006                           EXTEND                                         #                THE PRODUCT OF
000542: 21,3532           70001                           MP       L                                     #   1/2                   2       1/2
000543: 21,3533           27743                           ADS      K2CNTRAL   +1                         #  K   *(DEL*OMEGA + ALPHA /(2*K))
000544: 21,3534           54001                           TS       L                                     #                      AND
000545: 21,3535           13537                           TCF      +2                                    #                        2
000546: 21,3536           27742                           ADS      K2CNTRAL                              #  DEL*(DEL*OMEGA + ALPHA /(2*K)) NOW IN
000547:                                                                                                  #  K2CNTRAL
000548:
000549: 21,3537           31744        DOSHIFT            CA       ININDEX
000550: 21,3540           00006                           EXTEND                                         #  MULTIPLY IN THE FACTOR 2(-S), RETURNED
000551: 21,3541           74736                           MP       BIT14                                 #  BY THE GTSQRT SUBROUTINE
000552: 21,3542           27741                           ADS      SHFTFLAG
000553: 21,3543           00006                           EXTEND
000554: 21,3544           13563                           BZF      ADDITIN
000555: 21,3545           51741                           INDEX    SHFTFLAG
000556: 21,3546           34735                           CA       BIT15


000558: 21,3547           57742                           XCH      K2CNTRAL
000559: 21,3550           00006                           EXTEND
000560: 21,3551           71742                           MP       K2CNTRAL
000561: 21,3552           21740                           DAS      K2THETA
000562: 21,3553           57742                           XCH      K2CNTRAL
000563: 21,3554           00006                           EXTEND
000564: 21,3555           71743                           MP       K2CNTRAL   +1
000565: 21,3556           27740                           ADS      K2THETA    +1
000566: 21,3557           54001                           TS       L
000567: 21,3560           13562                           TCF      +2
000568: 21,3561           27737                           ADS      K2THETA
000569:
000570: 21,3562           13566                           TCF      NEGUSUM
000571:
000572: 21,3563           00006        ADDITIN            EXTEND
000573: 21,3564           31743                           DCA      K2CNTRAL
000574: 21,3565           21740                           DAS      K2THETA                               #  NOW ADD IN THE K2THETA TERM.
000575: 21,3566           11737        NEGUSUM            CCS      K2THETA                               #  TEST SIGN OF HIGH ORDER PART.
000576: 21,3567           13573                           TCF      NEGDRIVE
000577: 21,3570           13572                           TCF      +2
000578: 21,3571           13575                           TCF      POSDRIVE
000579:
000580: 21,3572           11740                           CCS      K2THETA    +1                         #  SIGN TEST FOR LOW ORDER PART.
000581: 21,3573           34753        NEGDRIVE           CA       BIT1
000582: 21,3574           13576                           TCF      +2                                    #  STOP GIMBAL DRIVE FOR A ZERO NEGUSUM.
000583: 21,3575           44753        POSDRIVE           CS       BIT1
000584: 21,3576           54001                           TS       L                                     #  SAVE FOR DRIVE REVERSAL TEST.
000585: 21,3577           51750                           INDEX    QRCNTR
000586: 21,3600           57501                           XCH      NEGUQ
000587:
000588: 21,3601           00006                           EXTEND
000589: 21,3602           70001                           MP       L                                     #  MULTIPLY OLD NEGU AND NEW NEGU.
000590: 21,3603           10001                           CCS      L
000591: 21,3604           13621                           TCF      LOUPE                                 #  NON-ZERO GIMBAL DRIVE BEING CONTINUED.
000592:
000593: 21,3605           13616                           TCF      ZEROLOUP                              #  NO REVERSAL PROBLEM HERE.
000594:
000595: 21,3606           13610                           TCF      REVERSAL                              #  NON-ZERO GIMBAL DRIVE BEING REVERSED.
000596: 21,3607           13616                           TCF      ZEROLOUP                              #  NO REVERSAL PROBLEM HERE.
000597:
000598: 21,3610           51750        REVERSAL           INDEX    QRCNTR                                #  A ZERO-DRIVE PAUSE IS NEEDED HERE.  ZERO
000599: 21,3611           55510                           TS       QACCDOT                               #  IS IN A REGISTER FROM CCS ON (-1).
000600: 21,3612           51750                           INDEX    QRCNTR
000601: 21,3613           43633                           CS       GMBLBITA
000602: 21,3614           00006                           EXTEND
000603: 21,3615           03012                           WAND     CHAN12
000604:
000605: 21,3616           41273        ZEROLOUP           CS       RCSFLAGS                              #  SET UP REQUEST FOR ACDT+C12 CALL.
000606: 21,3617           74747                           MASK     CALLGMBL
000607: 21,3620           27273                           ADS      RCSFLAGS


000609: 21,3621           11750        LOUPE              CCS      QRCNTR                                #  HAVE BOTH AXES BEEN PROCESSED?
000610: 21,3622           13115                           TCF      GOQTRIMG                              #  NO.  DO Q AXIS NEXT.
000611:
000612: 21,3623           31505                           CA       SAVESR                                #  RESTORE THE SR
000613: 21,3624           54021                           TS       SR
000614:
000615: 21,3625           00006        GOCLOSE            EXTEND                                         #  TERMINATE THE JASK.
000616: 21,3626           33631                           DCA      CLOSEADR
000617: 21,3627           52006                           DTCB
000618:
000619: 21,3630  E6,1537                                  EBANK=   AOSQ
000620: 21,3630           03236 36106  CLOSEADR           2CADR    CLOSEOUT                              #  TERMINATE THE JASK.
000621:
000622: 21,3632     5751               TWELVE             EQUALS   OCT14
000623: 21,3632           26501        ROOTHALF           OCTAL    26501                                 #  SQUARE ROOT OF 1/2
000624: 21,3633           01400        GMBLBITA           OCTAL    01400                                 #  INDEXED WRT GMBLBITB  DO NOT MOVE ******
000625: 21,3634           11276        OCT11276           OCTAL    11276                                 #  POSMAX - ROOTHALF
000626: 21,3635           06000        GMBLBITB           OCTAL    06000                                 #  INDEXED WRT GMBLBITA  DO NOT MOVE ******
000627:
000628:                                                                                                  #  SUBROUTINE ROOTCYCL:  BY CRAIG WORK, 3 APRIL 68
000629:
000630:                                                                                                  #  ROOTCYCL IS A SUBROUTINE WHICH EXECUTES ONE NEWTON SQUARE ROOT ALGORITHM ITERATION.  THE INITIAL GUESS AT THE
000631:                                                                                                  #  SQUARE ROOT IS PRESUMED TO BE IN THE A REGISTER AND ONE-HALF THE SQUARE IS TAKEN FROM HALFARG.  THE NEW APPROXI-
000632:                                                                                                  #  MATION TO THE SQUARE ROOT IS RETURNED IN THE A REGISTER.  DEBRIS:  A, L, SR, SCRATCH.  ROOTCYCL IS CALLED FROM
000633:                                                                                                  #  LOCATION (LOC) BY A TC ROOTCYCL, AND RETURNS (TC Q) TO LOC +1.
000634:
000635:                                                                                                  #  WARNING:  IF THE INITIAL GUESS IS NOT GREATER THAN THE SQUARE, DIVIDE OR ADD OVERFLOW IS A REAL POSSIBILITY.
000636:
000637: 21,3636           55746        ROOTCYCL           TS       SCRATCH                               #  STORE X
000638: 21,3637           54021                           TS       SR                                    #  X/2 NOW IN SR
000639: 21,3640           31747                           CA       HALFARG                               #  ARG/2 IN THE A REG
000640: 21,3641           22007                           ZL                                             #  PREPARE FOR DIVISION
000641: 21,3642           00006                           EXTEND
000642: 21,3643           11746                           DV       SCRATCH                               #  (ARG/X)/2
000643: 21,3644           60021                           AD       SR                                    #  (X + ARG/X)/2 IN THE A REG
000644: 21,3645           00002                           TC       Q
000645:
000646:

End of include-file TRIM_GIMBAL_CONTROL_SYSTEM.agc.  Parent file is MAIN.agc


